:10000000803125280F3401347E1480314E01161AB8
:100010000C1E0E28AF310E27803123280B1F2328FA
:10002000191A0F1E1A28430165088A0064080A007D
:1000300080312328991A8F1E2328430163088A00E0
:1000400062080A0080317E100900803127284201B1
:10005000803102208031EE00803103208031EF00BA
:100060004B308400AF308500E630860001308700D9
:100070000730AF313E278031FC014001ED014101E5
:10008000E101E201E301E401E501E6012030840041
:10009000013085002B30AF3138278031A03084000B
:1000A000013085002B30AF3138278031203084007B
:1000B000023085005030AF3138278031A0308400C5
:1000C000023085004030AF3138277E104001893141
:1000D0007C294101B600B401B50140015708410136
:1000E000CA00400156084101C900400155084101BC
:1000F000C800400154084101C7004A084001BD0042
:10010000410149084001BC00410148084001BB00D1
:10011000410147084001BA000030C1000030C00072
:100120000030BF000030BE009C315A2480310318DB
:10013000B12801304101B4000030B5004A08F40094
:100140004908F3004808F2004708F100AF318D2755
:1001500080317408CA007308C9007208C8007108A9
:10016000C7004101CD01CE01420133084101BA006F
:10017000420132084101B90034083504031DC22888
:10018000631DDB2834083504031DC8282B30C9281B
:100190002D30A0000030A10020084001D9005908EE
:1001A0004401A00001304101CD070030CE3DFF30B9
:1001B000B907FF30BA3D4A08F4004908F30048087F
:1001C000F2004708F1009B31E22380317103720491
:1001D000031D20295808BF3ED900FF300318003006
:1001E000DA0000305A021A30031959020318FC28A9
:1001F0002C30F100B030FF283430F100B030F20084
:1002000041014D08203EA3317C238031FD30B907E8
:10021000FF30BA3D20304001D9005908A800410103
:100220003A084001AA00410139084001A9004101F2
:1002300036089931C1212908D5002808D4000800C2
:1002400041014A08F4004908F3004808F200470851
:10025000F1009B31E223803171087204031D66298D
:100260005808BF3ED900FF3003180030DA000030D4
:100270005A021A3003195902031842293030F1008A
:10028000B03045293830F100B030F20041014D085E
:10029000203EA3317C238031FD30B907FF30BA3DC9
:1002A00020304001D9005908A80041013A08400116
:1002B000AA00410139084001A900410136089931DD
:1002C000C1212908D5002808D40008003F30410189
:1002D000D2008030D1000030D0000030CF00CB0100
:1002E000CC014A08F4004908F3004808F200470826
:1002F000F1000030F8000030F7000030F600003068
:10030000F5009831DA208031031CB529412A4130AB
:10031000A3002030A2000030A1000030A000410165
:1003200052084001A700410151084001A6004101C7
:1003300050084001A50041014F084001A40095313B
:10034000E825803123084101D20040012208410103
:10035000D100400121084101D000400120084101A5
:10036000CF000130CB070030CC3D41014A084001AD
:10037000BD00410149084001BC004101480840015D
:10038000BB00410147084001BA004130A3002030C2
:10039000A2000030A1000030A0004101520840013D
:1003A000A700410151084001A60041015008400149
:1003B000A50041014F084001A4009531E825803196
:1003C0002308C1002208C0002108BF002008BE0089
:1003D0009C315A248031031C1C2A87294130A900F2
:1003E0002030A8000030A7000030A60041015208CC
:1003F0004001AD00410151084001AC0041015008ED
:100400004001AB0041014F084001AA0088310320A0
:10041000803129084101D200400128084101D10062
:10042000400127084101D000400126084101CF00CA
:10043000FF30CB07FF30CC3D41014A084001BD00F1
:10044000410149084001BC00410148084001BB008E
:10045000410147084001BA00410152084001C10072
:10046000410151084001C000410150084001BF0056
:1004700041014F084001BE009C315A248031031CC9
:10048000EE295808D900DA015908F7005A08F8008F
:10049000A031982080317708DB005B084101BC0067
:1004A0003C084001D90059084101BB0067303C06B7
:1004B000031D752A61086204031D622A0130E100F0
:1004C0000030E2006208803A4001D90080305902D1
:1004D000031D6D2A0130410161020318772A06309D
:1004E0004101B7000030B8007C2AE21B6F2A4101AD
:1004F0006208B8006108B70067303C06031DAF2AE8
:100500004C08803A4001D9007F305902031D8B2AE4
:10051000FC3041014B02031CA92A41013708FF3E70
:100520004001D900FF304101383D4001DA005A084E
:10053000803ADB0041014C08803A40015B02031D18
:10054000A52A41014B0840015902031CA92A663023
:10055000AA2A65304001D90059084101BB0038087A
:10056000AD003708AC0067303C06031DBC2A66307E
:100570003B060319CC1FC02A0130AC070030AD3D4B
:1005800066303B06031DD82ACC1FD02A3F30D2004C
:100590008030D1000030D0000030CF00CB01CC0142
:1005A00067303C060319D82A4B08AC074C08AD3D10
:1005B000C501C6014A08C0004908BF004808BE007E
:1005C0004708BD005208B1005108B0005008AF0004
:1005D0004F08AE004608803A4001D90041012D087D
:1005E000803A40015902031DF82A41012C084502B6
:1005F0000318C32B410152084001A90041015108D1
:100600004001A800410150084001A70041014F08E6
:100610004001A600410140084001AD0041013F08F2
:100620004001AC0041013E084001AB0041013D08E2
:100630004001AA008831032080312908C30028081E
:10064000C2002708C1002608C0009F312E27803134
:10065000400143084101C400400142084101C30078
:10066000400141084101C200400140084101C10070
:100670004408F4004308F3004208F2004108F10086
:100680009B310E2380317208B3007108B200440818
:100690004001A700410143084001A6004101420872
:1006A0004001A500410141084001A4004101520858
:1006B0004001A300410151084001A200410150083E
:1006C0004001A10041014F084001A0009531E825FB
:1006D00080312308BD002208BC002108BB0020088F
:1006E000BA00410140084001C10041013F084001FA
:1006F000C00041013E084001BF0041013D084001EA
:10070000BE00A231E62280313D084101C000400117
:100710003C084101BF0040013B084101BE004001CF
:100720003A084101BD0041304001A9002030A80035
:100730000030A7000030A600410152084001AD0082
:10074000410151084001AC00410150084001AB009B
:1007500041014F084001AA00883103208031290857
:100760004101D200400128084101D1004001270881
:100770004101D000400126084101CF000130C507EA
:100780000030C63DEA2A40304001A300A030A2005C
:100790000030A1000030A000410152084001A70034
:1007A000410151084001A600410150084001A50047
:1007B00041014F084001A4009531E825803123080C
:1007C0004101C400400122084101C3004001210849
:1007D0004101C200400120084101C1004008400120
:1007E000BD0041013F084001BC0041013E084001FD
:1007F000BB0041013D084001BA00410144084001ED
:10080000C100410143084001C000410142084001CC
:10081000BF00410141084001BE009C315A24803193
:100820000318152C003041012F2C41014008F40021
:100830003F08F3003E08F2003D08F1004408F800CC
:100840004308F7004208F6004108F5009831DA2025
:100850008031031C362C41013218362C0030C40084
:100860000030C3000030C2000030C1004101440824
:10087000F4004308F3004208F2004108F1004A087E
:10088000F8004908F7004808F6004708F5009431D9
:100890000624803174084101C0007308BF0072084B
:1008A000BE007108BD0040084001BD0041013F0885
:1008B0004001BC0041013E084001BB0041013D0830
:1008C0004001BA004130A3002030A2000030A10056
:1008D0000030A000410131084001A700410130086B
:1008E0004001A60041012F084001A50041012E084A
:1008F0004001A4009531E82580312308C100220879
:10090000C0002108BF002008BE009C315A2480315D
:10091000031CC22C01304101CB070030CC3D4130DB
:100920004001A3002030A2000030A1000030A00050
:10093000410131084001A700410130084001A600F3
:1009400041012F084001A50041012E084001A400EB
:100950009531E825803123084101B100400122088A
:100960004101B000400121084101AF0040012008D1
:100970004101AE0066303B06031DC22C0130AC07BE
:100980000030AD3D41013108D2003008D1002F08C0
:10099000D0002E08CF0065303B060319D42C4C083C
:1009A000AB004B08AA00D62CAA01AB01A801A901F3
:1009B000A601A701C501C6010B2E41015208400145
:1009C000A900410151084001A8004101500840011F
:1009D000A70041014F084001A60041014008400125
:1009E000AD0041013F084001AC0041013E0840011B
:1009F000AB0041013D084001AA008831032080314D
:100A00002908C3002808C2002708C1002608C00022
:100A10009F312E278031400143084101C40040012D
:100A200042084101C300400141084101C2004001A8
:100A300040084101C1004408F4004308F3004208A3
:100A4000F2004108F1009B310E2380317208B3009F
:100A50007108B200631A3A2D32083304031D3A2D8F
:100A600067303C060319AB1F3A2D0130A607003052
:100A7000A73D8C2D280829040319AB1F582D2E30B3
:100A80004001D90041014D08203E86000230870018
:100A900040015908810001304101CD070030CE3DB1
:100AA000FF30B907FF30BA3D0130A8000030A9007F
:100AB000260827040319762D30304001D900410162
:100AC0004D08203E86000230870040015908810011
:100AD00001304101CD070030CE3DFF30B907FF3076
:100AE000BA3DFF30A607FF30A73D582D3208303EF3
:100AF0004001D90041014D08203E860002308700A8
:100B000040015908810001304101CD070030CE3D40
:100B1000FF30B907FF30BA3D44084001A70041014A
:100B200043084001A600410142084001A5004101DF
:100B300041084001A400410152084001A3004101C5
:100B400051084001A200410150084001A1004101AB
:100B50004F084001A0009531E82580312308BD00F1
:100B60002208BC002108BB002008BA00410140084F
:100B70004001C10041013F084001C00041013E0861
:100B80004001BF0041013D084001BE00A231E62204
:100B900080313D084101C00040013C084101BF00D7
:100BA00040013B084101BE0040013A084101BD003F
:100BB00041304001A9002030A8000030A7000030DB
:100BC000A600410152084001AD0041015108400119
:100BD000AC00410150084001AB0041014F08400109
:100BE000AA0088310320803129084101D200400148
:100BF00028084101D100400127084101D0004001EF
:100C000026084101CF00FF30AA07FF30AB3D01307D
:100C1000C5070030C63D4608803A4001D900410171
:100C20002D08803A40015902031D192E41012C085C
:100C300045020318292E41014E08803A4001D9008F
:100C400080305902031D272E4B3041014D02031CF9
:100C5000DD2C4101280829040319631E402E2E3083
:100C60004001D90041014D08203E86000230870036
:100C700040015908810001304101CD070030CE3DCF
:100C80004D08203E860002308700810165303B061A
:100C9000031D012F4F30C5000030C6004508203E1F
:100CA0008600023087008101B401B501CC1F612E9E
:100CB0000130B4000030B500CB09CC09CB0A0319D0
:100CC000CC0A0230B7000030B8004B084C040319BE
:100CD0009F2EFF304101C507FF30C63D0A30F100AD
:100CE0000030F2004C08F4004B08F3009831042067
:100CF00080317108303E4001D90041014508203E55
:100D00008600023087004001590881000A30F10056
:100D10000030F20041014C08F4004B08F300993117
:100D2000702180317208CC007108CB00FF30B7070A
:100D3000FF30B83DFF30B907FF30BA3D652E3808A7
:100D4000803A4001D90080305902031DAA2E01309B
:100D5000410137020318692EFF304101C507FF30FA
:100D6000C63D34083504031DB72E2B30B82E2D3068
:100D7000A2000030A30022084001D900410145082B
:100D8000203E860002308700400159088100FF3074
:100D90004101B907FF30BA3DFF30C507FF30C63DFE
:100DA00040015808BF3ED900FF3003180030DA0078
:100DB00000305A021A3003195902031CE12E653023
:100DC000E22E45304101A4000030A5002408400176
:100DD000D90041014508203E8600023087004001CD
:100DE00059088100FF304101B907FF30BA3D45087D
:100DF000203EF1000230F2004D08203EA3317C235A
:100E0000803120304001D9005908A80041013A083A
:100E10004001AA00410139084001A90041013608FA
:100E20009931C1212908D5002808D4000800F30110
:100E30002830860000308700473FF100F11F412F26
:100E40004001A809A909AA09AB09AC09AD09AE0975
:100E5000AF09A80A031D3F2FA90A031D3F2FAA0AA5
:100E6000031D3F2FAB0A031D3F2FAC0A031D3F2F6D
:100E7000AD0A031D3F2FAE0A031D3F2FAF0AF3013A
:100E8000F30A2030860000308700473FF100F11F51
:100E9000682F4001A009A109A209A309A409A50975
:100EA000A609A709A00A031D682FA10A031D682F20
:100EB000A20A031D682FA30A031D682FA40A031D9D
:100EC000682FA50A031D682FA60A031D682FA70A0D
:100ED00040012008210422042304240425042604BC
:100EE00027040319C02FF201F20AA71B842FA03593
:100EF000A10DA20DA30DA40DA50DA60DA70D0130EA
:100F0000F1007108F207752F27082F02031DA22F89
:100F100026082E02031DA22F25082D02031DA22F35
:100F200024082C02031DA22F23082B02031DA22F2D
:100F300022082A02031DA22F21082902031DA22F25
:100F400020082802031CB42F2008A8022108A93B6E
:100F50002208AA3B2308AB3B2408AC3B2508AD3B49
:100F60002608AE3B2708AF3BA736A60CA50CA40C61
:100F7000A30CA20CA10CA00C0130F202031D842FC3
:100F800073080319E12FA809A909AA09AB09AC093B
:100F9000AD09AE09AF09A80A031DE12FA90A031D77
:100FA000E12FAA0A031DE12FAB0A031DE12FAC0AB2
:100FB000031DE12FAD0A031DE12FAE0A031DE12F32
:100FC000AF0A40012808A0002908A1002A08A200B1
:100FD0002B08A3002C08A4002D08A5002E08A600AD
:100FE0002F08A700080055307D018F00AA308F0020
:100FF0000F1442016D0C031C8B1303188B17080090
:1010000043019A1208002D088039AE002E08B7005F
:101010002D35AE002E08BE00AC1B3E143E08031951
:101020001F283E0A031D1C280030AD000030AC0014
:101030000030AB000030AA00AC17AD01272800300B
:10104000AD000030AC000030AB000030AA00290831
:101050008039AE002E08B7062935AE002E08BF0035
:10106000A81B3F143F08031943283F0A031D4028CB
:101070000030A9000030A8000030A7000030A60012
:10108000A817A9014B280030A9000030A8000030A3
:10109000A7000030A6002908280427042604031D01
:1010A0006A280030AD000030AC000030AB000030EA
:1010B000AA008030AC047F30AD043708AE002E08A3
:1010C000AD042D08A9002C08A8002B08A7002A08A9
:1010D000A60008003E08031D76280030A900003055
:1010E000A8000030A7000030A60008003E08AE00AF
:1010F000AF012F08B1003F082E02B000031CB1035E
:1011000030087F3EB8000030313DB9002D08B600F0
:101110002C08B5002B08B4002A08B3000030AD003D
:101120000030AC000030AB000030AA000030BD0041
:101130000030BC000030BB000030BA00BF011A30E4
:101140003F020318DB283F080319BD280130B335DF
:10115000B40DB50DB60D890BA7280130AA35AB0D1E
:10116000AC0DAD0D890BAE28BD1B2A140130BA356C
:10117000BB0DBC0DBD0D890BB72829083602031D18
:10118000CB2828083502031DCB2827083402031D6D
:10119000CB2826083302031CD6283D172608B302A5
:1011A0002708B43B2808B53B2908B63B0130AE0000
:1011B0002E08BF079F283608350434043304031D66
:1011C0003A14AC1BF8280130AA35AB0DAC0DAD0DAF
:1011D000890BE428BD1B2A140130BA35BB0DBC0DA8
:1011E000BD0D890BED28FF30B807FF30B93DE12870
:1011F000BF01BD1F1129FF303A05AE00FF303B058E
:10120000AF00FF303C05B0007F303D05B100310834
:1012100030042F042E0403192A180F291129BF01A5
:10122000BF0A3F0803193A290130AA070030AB3D35
:101230000030AC3D0030AD3D2D1C3A292A08AE00EF
:101240002B08AF002C08B0002D08B1000130B2000F
:10125000B137B00CAF0CAE0CB20B28293108AD0081
:101260003008AC002F08AB002E08AA000130B807E8
:101270000030B93D3908803AAE0080302E02031D9F
:101280004329FF303802031C5229FF304001B800C7
:101290000030B9000030AD000030AC000030AB00D1
:1012A0000030AA0040013908803AAE0080302E029A
:1012B000031D5C290130380203186A294001B80176
:1012C000B9010030AD000030AC000030AB000030A0
:1012D000AA00B70140013808AE002E08BE003E1C2F
:1012E0007329AC1777297F30AE002E08AC053E3647
:1012F000AE002E08AD005D28A5313E2589314301A1
:10130000C601C60A40011910AF31DA2789317E01C2
:101310009101AB018731F327893140019610991172
:10132000911094118B170B17A531F6258931B63022
:10133000F1002F30F200AF31322789310030400107
:10134000AD001030AE00AF01A131E1218931023092
:101350004001AD001030AE0002304101DB005B08FF
:101360004001AF00A131E121893115304101DC009C
:101370004B30DB00BE30890BBB29DB0BBB29DC0B00
:10138000BB290000400199159415A7304101D300F5
:10139000A830D400A1311421893121304101D3007A
:1013A000B030D4000030D500B030D6001830D700AF
:1013B000B030D800A131142189316400432BA3310E
:1013C0009B238931003A0319552B4101E501E601C0
:1013D0004201B701B70A02304001B5001030B60033
:1013E000B701B801B80AA7313C278931CB30A73102
:1013F000032789314B084101DB00DC01DD01DE01FF
:101400005E084301D20041015D084301D100410162
:101410005C084301D00041015B084301CF00083064
:10142000CF35D00DD10DD20D890B102A4C08CF0429
:101430000830CF35D00DD10DD20D890B192A4D08AA
:10144000CF045208510450044F040319522A4F0A82
:10145000031D312A500A031D312A510A520403196F
:10146000522A20304101D300A830D40043014B0858
:101470004101DB00DC015B08D5005C08D6004301BC
:101480004C084101DD00DE015D08D7005E08D80090
:1014900043014D084101DF00E0015F08D900600809
:1014A000DA00572AB7304101D300A830D400A13167
:1014B00014218931D3309C31D5248931D3309D31E9
:1014C00053258931003A0319A92A74304101D30008
:1014D000A830D400430155084101DB00DC015B0862
:1014E000D5005C08D600430154084101DD00DE014F
:1014F0005D08D7005E08D800430153084101DF00B2
:10150000E0015F08D9006008DA00A13114218931B7
:1015100085304101D300A830D40043015608410171
:10152000DB00DC015B08D5005C08D60043015808ED
:101530004101DD00DE015D08D7005E08D8004301EF
:1015400059084101DF00E0015F08D9006008DA00B6
:10155000AE2A0C304101D300B030D400A1311421A7
:1015600089314F304101D300A830D4009831912007
:10157000893143084101D800400142084101D700A8
:10158000400141084101D600400140084101D50019
:10159000A13114218931552B66084001AE0041016B
:1015A00065084001AD0041016508DB005B084001B2
:1015B000AF00A131F921893101304101E507003047
:1015C000E63D10306602003003196502031C552BFE
:1015D000E501E6010230DB005B084201B700623042
:1015E0004101D300A830D400A13114218931552BF9
:1015F00066084001AE00410165084001AD00A3311D
:10160000DF2389314101DB005B084201B800380863
:10161000410165060319202B3830D300A830D400CF
:101620006608D6006508D500420138084101DB0094
:10163000DC015B08D7005C08D800A1311421893196
:1016400001304101E5070030E63D10306602003010
:1016500003196502031C552BE501E6014201B701A0
:1016600002304001B5001030B600B701B801A73113
:101670003C27893196304101D300A830D400A131F4
:1016800014218931552B420137084101DB00DC016F
:101690005C08003A03194D2BDF295B08013A031956
:1016A000CC2A033A0319F82ADF2940010C0C01392E
:1016B000420139060319832B003040018C18013098
:1016C0004201B9004001AD01AD0A1030A231112232
:1016D000893107304101DB005B084001AD0001307A
:1016E000A2311122893102304001B5001030B6001C
:1016F000B701B70A02304101DB005B084001B800C6
:10170000A7313C27893164304001A0000030A1009E
:10171000C6309A3165228931003A0319C82B03304B
:101720004101DB005B084201B60705304101DB00E7
:101730005B084201B50707304101DB005B0842014D
:10174000B407360835043404031DB22B01304101BF
:10175000DB005B084201EE0720306E02031CB22B57
:10176000EE01EE0A36084101DB005B08F50042019C
:1017700035084101DC005C08F600420134084101F3
:10178000DD005D08F70042016E08A731BC278931F2
:10179000AF3152278931003A0319DD29AF315A2779
:1017A0008931003A0319DD29A431C0248931A431DB
:1017B00002248931C82B4201E90040015C088600FF
:1017C0008701403FDE00413FDF005E0884005F0884
:1017D00085001200253A031DDB2F5C088600870177
:1017E0000130810741310318810A4201B201B3017E
:1017F0004101E301E401FF30E100FF30E20042017A
:10180000DD01DE01202C4101631440015C088600EB
:1018100087010130810741310318810A202C4101E1
:10182000E314052C41016315052C4101E315052C3A
:1018300041016316052C01304201DD000030DE005D
:1018400042015D085E04031D4B2C40015C088600CC
:101850008701403FDE00413FDF005E0884005F08F3
:1018600085000008E000E1016108003A0319392C05
:101870001B2C6008203A0319152C033A0319182C65
:10188000083A0319122C063A0319032C1D3A0319BE
:101890000F2C1B2C202C4101631C522CFD30E30526
:1018A000FF30E40540015C0886008701403FDE0010
:1018B000413FDF005E0884005F08850012002A3A7D
:1018C000031D822C5C0886008701013081074131AD
:1018D0000318810A5D0886008701010884008501DC
:1018E00002308107003F4201B200013FB300B31F45
:1018F000B42C410163144201B209B309B20A0319BD
:10190000B30AB42C5C0886008701403FF700413FD2
:10191000F800903103208B3178084201B30077083A
:10192000B20040015C0886008701403FDE00413F75
:10193000DF005E0884005F0885000008D03EE000FC
:10194000FF3003180030E100003061020A30031953
:1019500060020318B42C5C088600870101308107FF
:1019600041310318810A912C40015C0886008701EF
:10197000403FDE00413FDF005E0884005F088500D5
:1019800012002E3A031D272D4101E101E201400121
:101990005C08860087010130810741310318810A04
:1019A0005C0886008701403FDE00413FDF005E08A3
:1019B00084005F08850012002A3A031DF52C5C089C
:1019C000860087010130810741310318810A5D08D3
:1019D0008600870101088400850102308107003FED
:1019E0004101E100013FE200272D5C0886008701EC
:1019F000403FF700413FF800903103208B317808D9
:101A00004101E2007708E10040015C08860087019F
:101A1000403FDE00413FDF005E0884005F08850034
:101A20000008D03EE000FF3003180030E100003035
:101A300061020A30031960020318272D5C08860032
:101A400087010130810741310318810A042D4001CB
:101A50005C0886008701403FDE00413FDF005E08F2
:101A600084005F0885000008E000E1016008F700DD
:101A70006108F800A03198208B317708E2006208F5
:101A80004201E50065080319842D40015C088600C9
:101A90008701403FDE00413FDF0001305E078400E8
:101AA0005F0803185F0A85000008E000E101600894
:101AB000F7006108F800A03198208B317708E20028
:101AC00062084201E60066080319842D40015C08A3
:101AD00086008701403FDE00413FDF0002305E07A5
:101AE00084005F0803185F0A85000008E000E10138
:101AF0006008F7006108F800A03198208B31770862
:101B0000E20062084201E70040015C0886008701AC
:101B1000403FDE00413FDF005E0884005F08850033
:101B20001200643A0319A32D5C0886008701403F28
:101B3000DE00413FDF005E0884005F088500120080
:101B4000693A031DEF2D5C0886008701013081078B
:101B500041310318810A5D0886008701010884006D
:101B6000850102308107003FDE00013FDF005E0893
:101B70004201CB0040015F084201CC00890D893B46
:101B80008909CD00CE00CF00D000D100D2004B0893
:101B90004001B10042014C084001B20042014D0831
:101BA0004001B30042014E084001B40042014F0819
:101BB0004001B500420150084001B6004201510801
:101BC0004001B700420152084001B80042016908D3
:101BD0009231B8223208DD003108DC00080066309E
:101BE00042016506031D3D2E40015C088600870109
:101BF000403FDE00413FDF005E0884005F08850053
:101C00000008E00060084201E80040015C0886002E
:101C100087010130810741310318810A5D08860080
:101C2000870101088400850104308107003F4201DB
:101C3000E100013FE200023FE300033FE4006408EB
:101C40004001D700420163084001D600420162080A
:101C50004001D500420161084001D40042016808FA
:101C60004001DE005E08D800420169088031692029
:101C70005508DD005408DC0008006530F100013033
:101C8000F2004030F300B030F4000230F5000030D4
:101C9000F6009A3113228B3171087204031DC82E8D
:101CA00040015C0886008701403FDE00413FDF00C5
:101CB00001305E0784005F0803185F0A8500000892
:101CC000E00060084201E80040015C0886008701EE
:101CD000403FDE00413FDF005E0884005F08850072
:101CE0000008BF3EE000FF3003180030E100003084
:101CF00061021A300319600203188F2E5D088600F6
:101D0000870101088400850104308107003F4201FA
:101D1000E100013FE200023FE300033F9F2E5D0828
:101D20008600870101088400850104308107003F97
:101D30004201E100013FE200023FE300033FE40013
:101D400040015C0886008701023081074131031899
:101D5000810A420164084001D70042016308400142
:101D6000D600420162084001D500420161084001ED
:101D7000D400420168084001DE005E08D80042013C
:101D80006908803169205508DD005408DC0008002E
:101D900040015C0886008701403FDE00413FDF00D4
:101DA0005E0884005F0885001200733A0319EE2E66
:101DB0005C0886008701403FF100413FF2003C3063
:101DC000F300B030F4000330F5000030F6009A3133
:101DD00013228B3171087204031D2E2F40015C0801
:101DE00086008701403FDE00413FDF005E0884003F
:101DF0005F0885001200733A0319002F0330012F8A
:101E000001304201DF000030E00040015C08860044
:101E1000870142015F08810741316008813D7F31C0
:101E200040015D08860087010108840085010230B9
:101E30008107003F4201DB00013FDC005C084001FC
:101E4000A10042015B084001A000420169089E31E7
:101E500069262108DD002008DC00080040015C083C
:101E600086008701403FDE00413FDF005E088400BE
:101E70005F0885001200783A03194D2F5C08860030
:101E80008701403FDE00413FDF005E0884005F08BD
:101E900085001200583A031DA72F5C0886008701B1
:101EA000403FDE00413FDF005E0884005F088500A0
:101EB0000008E00060084201E80040015C0886007C
:101EC00087010130810741310318810A5D088600CE
:101ED000870101088400850102308107003F42012B
:101EE000D300013FD400D501D601D701D801D901D3
:101EF000DA0153084001B100420154084001B20028
:101F0000420155084001B300420156084001B400A7
:101F1000420157084001B500420158084001B6008F
:101F2000420159084001B70042015A084001B80077
:101F3000420168084001DE005E08B90042016908FC
:101F400091317C213208DD003108DC0008005C089A
:101F500086008701403FDE00413FDF005E088400CD
:101F60005F0885001200253A031DD02F5C0886000B
:101F700087010130810741310318810A2530F400BF
:101F80000030F500420169084001DE005E08F600FD
:101F9000A631932601304001DC000030DD0008004E
:101FA0005C08860087010130810741310318810AEE
:101FB000DC01DD0108005C0886008701403FDE008F
:101FC000413FDF005E0884005F0885000008E000F4
:101FD000E1016008F4006108F50042016908400170
:101FE000E2006208F600A63193268B3140015C08BE
:101FF000860087010130810741310318810ACA2F09
:102000004E010F140800A201A301A001A10177084D
:102010008400780885001200203A031D142801303E
:10202000F7070030F83D0728770884007808850016
:102030000008F73EF900FF3003180030FA000030C6
:102040007A0205300319790203182C280F28013071
:10205000A0000030A1005E28770884007808850081
:102060000008F900FA017A08003A031938286228B2
:1020700079082B3A03195E28063A031927286228A3
:1020800077088400780885000008F9002308F2002A
:102090002208F1000A30F3000030F400A231772268
:1020A00090317208FB0079087102FA00031CFB03EF
:1020B0007A08303EA20000307B3DA3000130F707D4
:1020C0000030F83D77088400780885000008D03E8D
:1020D000F900FF3003180030FA0000307A020A30AD
:1020E00003197902031C402820082104031D8428B9
:1020F0002209F9002309FA00F90A0319FA0A7908F2
:10210000F7007A08F80008002308F8002208F70012
:102110000800F3012030860000308700473FF100BF
:10212000F11FB3284001A009A109A209A309A4092C
:10213000A509A609A709A00A031DB128A10A031D24
:10214000B128A20A031DB128A30A031DB128A40ABD
:10215000031DB128A50A031DB128A60A031DB12835
:10216000A70AF301F30A2830860000308700473FB2
:10217000F100F11FDE284001A809A909AA09AB094D
:10218000AC09AD09AE09AF09A80A031DDA28A90AEE
:10219000031DDA28AA0A031DDA28AB0A031DDA2870
:1021A000AC0A031DDA28AD0A031DDA28AE0A031DA6
:1021B000DA28AF0A0130F1007108F30674308600A6
:1021C000003087000830F10000301E00F10BE528D8
:1021D00040012008210422042304240425042604A9
:1021E000270403194929F201F20AA71B0429A03583
:1021F000A10DA20DA30DA40DA50DA60DA70D0130D7
:10220000F1007108F207F528F435F50DF60DF70D1C
:10221000F80DF90DFA0DFB0D27082F02031D2A29D1
:1022200026082E02031D2A2925082D02031D2A290E
:1022300024082C02031D2A2923082B02031D2A2906
:1022400022082A02031D2A2921082902031D2A29FE
:1022500020082802031C3D292008A8022108A93BC8
:102260002208AA3B2308AB3B2408AC3B2508AD3B26
:102270002608AE3B2708AF3B7414A736A60CA50C66
:10228000A40CA30CA20CA10CA00C0130F202031DA3
:102290000429730803196A29F409F509F609F709ED
:1022A000F809F909FA09FB09F40A031D6A29F50A74
:1022B000031D6A29F60A031D6A29F70A031D6A2904
:1022C000F80A031D6A29F90A031D6A29FA0A031D7F
:1022D0006A29FB0A74084001A0007508A10076086D
:1022E000A2007708A3007808A4007908A5007A085E
:1022F000A6007B08A70008004001C2004101E21BC4
:102300008529FD30E305FF30E4056208803A40018D
:10231000BA0080303A02031D902901304101610268
:102320000318982901304001C3000030C400A029DF
:10233000410162084001C400410161084001C3003D
:10234000420133084001C600420132084001C50085
:102350004101631EB029FE304001C507FF30C63D74
:1023600040013108C7003208C8003308C9003408EA
:10237000CA003508CB003608CC003708CD00380835
:10238000CE004F30CF000030D0004401EF01572A7B
:10239000FF304001CF07FF30D03D0F304705D1005F
:1023A00000304805D2005208803ABA0080303A0224
:1023B000031DDC290A305102031CE22940015108A7
:1023C000573EE52940015108303ED1000030523DD2
:1023D000D2003908BF3EBA00FF3003180030BB00FE
:1023E00000303B021A3003193A020318152A203034
:1023F0005104BA0000305204BB003A089F3EBC00B2
:10240000FF303B3DBD0000303D021A3003193C0255
:102410000318152A5208F8005108F700A031AC2023
:1024200091317808D2007708D1005108BA004F08DE
:10243000203E8600023087003A088100FF30C30743
:10244000FF30C43DFF30C507FF30C63D4730860032
:1024500000308700403FBA00413FBB00423FBC0014
:10246000433FBD00443FBE00453FBF00463FC00064
:10247000473FC10004304001C136C00CBF0CBE0C48
:10248000BD0CBC0CBB0CBA0C890B3B2A40014108AB
:10249000CE004008CD003F08CC003E08CB003D08F0
:1024A000CA003C08C9003B08C8003A08C700400100
:1024B0005008803ABA0080303A02031D612A023087
:1024C0004F02031C882A40014708480449044A0473
:1024D0004B044C044D044E04031DC8294408803AA3
:1024E000BA0080303A02031D772A013043020318F4
:1024F000C82940014608803ABA0080303A02031DDC
:10250000832A01304502031C882A4101E318C829A7
:102510004101631EA62AFF304001CF07FF30D03DA6
:102520003908BA004F08203E8600023087003A087A
:102530008100FF30CF07FF30D03D3030BA004F0868
:10254000203E8600023087003A08810040014F0893
:10255000203EBA003A08A8004608AA004508A9008B
:1025600042089931C1212908B2002808B1000800A9
:102570004001BE003108C5003208C6003308C7005C
:102580003408C8003508C9003608CA003708CB002F
:102590003808CC004530860000308700473FB9003E
:1025A000B91FD42A0130D52A00304001BA00BB013E
:1025B0003A08C3003B08C400430844040319FE2A38
:1025C000C509C609C709C809C909CA09CB09CC097F
:1025D000C50A031DFE2AC60A031DFE2AC70A031DDB
:1025E000FE2AC80A031DFE2AC90A031DFE2ACA0ABA
:1025F000031DFE2ACB0A031DFE2ACC0A4101E21B61
:10260000052BFD30E305FF30E4056208803A400108
:10261000B90080303902031D102B013041016102E5
:102620000318182B01304001BF000030C000202BE0
:10263000410162084001C000410161084001BF0042
:10264000420133084001C200420132084001C1008A
:1026500043084404031D2F2B4101631D342BFF301D
:102660004001C107FF30C23D4F304001CD00003076
:10267000CE004401EF01C82B400145084604470441
:10268000480449044A044B044C04031D612B4008D0
:10269000803AB90080303902031D502B01303F02CF
:1026A0000318612B40014208803AB900803039029A
:1026B000031D5C2B01304102031CD42B4101E31CA0
:1026C000D42BFF304001CD07FF30CE3D0A30A000B3
:1026D000A101A201A301A401A501A601A70145082A
:1026E000A8004608A9004708AA004808AB00490806
:1026F000AC004A08AD004B08AE004C08AF00873173
:10270000172792312108F5002008F400A1316D212E
:1027100092317408303E4001B9004D08203E8600D9
:102720000230870039088100FF30BF07FF30C03D0D
:10273000FF30C107FF30C23D0A30A000A101A20155
:10274000A301A401A501A601A7014508A800460808
:10275000A9004708AA004808AB004908AC004A088D
:10276000AD004B08AE004C08AF009031892092318B
:102770002008C5002108C6002208C7002308C80099
:102780002408C9002508CA002608CB002708CC0069
:1027900040014E08803AB90080303902031DD22B27
:1027A00001304D0203183C2B400143084404031D33
:1027B000DC2B4101631DF42BFF304001CD07FF30BE
:1027C000CE3D43084404031DE72B2B30E82B2D306E
:1027D000BC000030BD003C08B9004D08203E86001A
:1027E000023087003908810040014D08203EB900C1
:1027F0003908A8004208AA004108A9003E089931FA
:10280000C1212908B2002808B100080074088039E5
:102810004001A0002008A8007435A0002008AA00EC
:10282000F31B2A142A080319232C2A0A031D202C1F
:102830000030F4000030F3000030F2000030F1000E
:10284000F317F4012B2C0030F4000030F3000030BB
:10285000F2000030F10078088039A0002008A900BB
:1028600029082806031D28177835A0002008A9008C
:10287000F71B2914290803194B2C290A031D482C7E
:102880000030F8000030F7000030F6000030F500AE
:10289000F717F801532C0030F8000030F700003033
:1028A000F6000030F5002A0829020318992C281F89
:1028B0005D2C8030A0002008A8062A08A00020086F
:1028C000AB002908A0002008AA002B08A0002008BF
:1028D000A9007108A0002008AB007508A00020081E
:1028E000F1002B08A0002008F5007208A0002008C5
:1028F000AB007608A0002008F2002B08A0002008FA
:10290000F6007308A0002008AB007708A00020089C
:10291000F3002B08A0002008F7007408A00020088E
:10292000AB007808A0002008F4002B08A0002008C5
:10293000F800AB012908A000A1012108A3002A0882
:102940002002A200031CA3032308803AA4008030C5
:102950002402031DAD2C1A302202031CE12C740842
:102960007304720471040319B72C0130B82C0030C1
:102970004001A0002008AB000030F4000030F3005C
:102980000030F2000030F1002908A0002008AA0061
:10299000E62C2B1CD12C2B360138A0002008AB00D4
:1029A000D32C0310AB0C7118AB170130A000F43717
:1029B000F30CF20CF10CA00BD72C0130A000200876
:1029C000AA07400129082A02031CC92C281B172D1D
:1029D0002A08031DF42C0030F4000030F30000300E
:1029E000F2000030F10008007508F1077608F23DAA
:1029F0007708F33D7808F43D741C912D2B1C062DAF
:102A00002B360138A0002008AB00082D0310AB0CBA
:102A10007118AB170130A000F437F30CF20CF10C75
:102A2000A00B0C2D0130A0002008AA07912D7408DE
:102A3000803AA0007808803A2002031D292D7708EB
:102A40007302031D292D76087202031D292D7508B6
:102A500071020318612DFF30A000FF30A100FF308C
:102A6000A200FF30A30071087502A4007208763B33
:102A7000A5007308773BA6007408783BA7002408DC
:102A8000A0072508A13D2608A23D2708A33D23084D
:102A9000F4002208F3002108F2002008F100803041
:102AA000A0002008A806AB09AB0A2B08031D692D5E
:102AB0000130F1070030F23D0030F33D0030F43DCD
:102AC000692D7508F1027608F23B7708F33B780828
:102AD000F43B7408730472047104031D8F2D2B08DA
:102AE000031D8F2D0030F4000030F3000030F200A1
:102AF0000030F10008000130F135F20DF30DF40D56
:102B0000890B7C2DAB1B71142B1C882D0314892D74
:102B10000310AB0D2A0803198F2D0130AA02F31FF1
:102B20007B2DA901AB1F9C2D2B087F390319711830
:102B30009A2D9C2DA901A90A29080319C82D013035
:102B4000F1070030F23D0030F33D0030F43D741CDD
:102B5000C82D7108A0007208A1007308A2007408B3
:102B6000A3000130A400A337A20CA10CA00CA40B5D
:102B7000B32D2308F4002208F3002108F2002008F6
:102B8000F1002A0A0319C82D0130A0002008AA0765
:102B90002A0A031D2A08031DD82D0030F400003036
:102BA000F3000030F2000030F1002A080319A801F8
:102BB0002A1CDC2DF317E02D7F30A0002008F30540
:102BC0002A36A0002008F400A81F0800F417080007
:102BD00023088039A8002808AD002335A80028085C
:102BE000AF00A21B2F142F080319032E2F0A031D59
:102BF000012E0030A3000030A2000030A100003000
:102C0000A000A2170B2E0030A3000030A20000305D
:102C1000A1000030A00027088039A8002808AD06D0
:102C20002735A8002808AE00A61B2E142E0803196D
:102C3000262E2E0A031D242E0030A7000030A600E9
:102C40000030A5000030A400A6172E2E0030A700EB
:102C50000030A6000030A5000030A4002E08031D9F
:102C60002F08031D3C2E0030A3000030A2000030CE
:102C7000A1000030A00008002008A8002808F100EA
:102C80002608A3315D2395317208B9007108B80098
:102C90003808A800A901AA01AB012B08B3002A0833
:102CA000B2002908B1002808B0003908A800A9011D
:102CB000AA01AB012B08B7002A08B6002908B50005
:102CC0002808B4002108A8002808F1002508A3312D
:102CD0005D2395317208B9007108B8003808A80062
:102CE000A901AA01AB012808B0072908B13D2A08AB
:102CF000B23D2B08B33D3908A800A901AA01AB01D8
:102D00002808B4072908B53D2A08B63D2B08B73D69
:102D10002208A8002808F1002408A3315D2395317A
:102D20007208B9007108B8003808A800A901AA0102
:102D3000AB012808B0072908B13D2A08B23D2B088D
:102D4000B33D3908A800A901AA01AB012808B407BE
:102D50002908B53D2A08B63D2B08B73D0830B035E7
:102D6000B10DB20DB30D890BAF2E2108A8002808B4
:102D7000F1002408A3315D2395317208B900710870
:102D8000B8003808B0073908B13D0030B23DB33D56
:102D90002008A8002808F1002508A3315D239531FB
:102DA0007208B9007108B8003808B0073908B13D99
:102DB0000030B23DB33D0830B035B10DB20DB30DAA
:102DC000890BDC2E2008A8002808F1002408A33174
:102DD0005D2395317208B9007108B8003808B00752
:102DE0003908B13D0030B23DB33D2108A8002808A4
:102DF000F1002608A3315D2395317208B9007108EE
:102E0000B8003808B4073908B53D0030B63DB73DC5
:102E10002208A8002808F1002508A3315D23953178
:102E20007208B9007108B8003808B4073908B53D10
:102E30000030B63DB73D2208A8002808F10026085A
:102E4000A3315D2395317208B9007108B8003808C4
:102E5000A8003908A900AA01AB010830A835A90DBE
:102E6000AA0DAB0D890B2E2F2808B4072908B53DF4
:102E70002A08B63D2B08B73D3308A800A901AA01CE
:102E8000AB012808B4072908B53D2A08B63D2B0830
:102E9000B73D0830B035B10DB20DB30D890B4A2FD7
:102EA0002F082E07A800A901A90D2808823EB80006
:102EB000FF30293DB900B61B722F0130B435B50D76
:102EC000B60DB70D890B5E2FB31B34140130B0352E
:102ED000B10DB20DB30D890B672FFF30B807FF306E
:102EE000B93D5B2FAE01B31F8B2FFF303005A8001B
:102EF000FF303105A900FF303205AA007F303305CD
:102F0000AB002B082A042904280403193418892F3C
:102F10008B2FAE01AE0A2E080319B42F0130B4076F
:102F20000030B53D0030B63D0030B73D371CB42F02
:102F30003408A8003508A9003608AA003708AB00F5
:102F40000130AC00AB37AA0CA90CA80CAC0BA22F1B
:102F50002B08B7002A08B6002908B5002808B400D5
:102F60000130B8070030B93D3908803AA8008030F8
:102F70002802031DBD2FFF303802031CC92F7F30EC
:102F80004001B7008030B6000030B5000030B4001A
:102F9000F32F40013908803AA80080302802031D31
:102FA000D32F013038020318E02F00304001B70062
:102FB0000030B6000030B5000030B400AD01F32F92
:102FC00040013808A8002808AF00FF30B405FF30E2
:102FD000B5057F30B6050030B7052F18B6172F3668
:102FE000A8002808B7002D08A8002808B70437084B
:102FF000A3003608A2003508A1003408A00008008C
:10300000823052018C000800F701F41F0E28F309EA
:10301000F409F30A0319F40AF701F70AF21F152855
:10302000F109F209F10A0319F20A7108720403198D
:103030003C28F601F60AF21B27280130F135F20D83
:10304000890B1E280130F5007508F6071B28720849
:103050007402031D2D2871087302031C33287108A4
:10306000F3027208F43B0130F236F10C890B34287C
:103070000130F602031D2728770803194428F309B5
:10308000F409F30A0319F40A7408F2007308F10052
:103090000800AE31B32698314001A0004301370843
:1030A0008600380887004001200881000130430174
:1030B000B7070030B83D0130B9020030BA3B3908DB
:1030C0003A0403196728AE31BE2605300800BD1545
:1030D0006F28AE31DA260800AE31D62608002C085B
:1030E0004001A0002008FA00430121088A002008BE
:1030F0000A0098314001A100A2012208003A0319F8
:1031000082286C282108013A03196C28033A031914
:103110006928013A03196928073A03196C286C28B1
:1031200008001930A0310120983171084001C40015
:103130007208C500C601C7010B30C435C50DC60DE8
:10314000C70D890B9D280A30F900C737C60CC50C7E
:10315000C40CF90BA5287030C407FE30C53DFF3004
:10316000C63DFF30C73D4130A9009C30A80000306B
:10317000A7000030A6004708F4004608F300450801
:10318000F2004408F10001309D31D42598317408D3
:10319000AD007308AC007208AB007108AA0088315A
:1031A00003202908C3002808C2002708C1002608F8
:1031B000C0000800003071054001A0000030720519
:1031C000A10080307305A2007F307405A30023089E
:1031D000220421042004031DF5280030F4000030EF
:1031E000F3000030F2000030F10000307505A0005F
:1031F00000307605A10080307705A2007F30780589
:10320000A3002308220421042004031D0F290030F9
:10321000F8000030F7000030F6000030F5007808C4
:103220007406031D1D2977087306031D1D297608E2
:103230007206031D1D297508710603192129031043
:10324000080003140800F40043019A1A08007408E7
:10325000F100F201F135F20DF135F20D293071076F
:103260008400B030723D8500000899007408F100B8
:10327000F201F135F20DF135F20D283071078400BD
:10328000B030723D850000089A009B017408F1007F
:10329000F201F135F20DF135F20D2A30710784009B
:1032A000B030723D8500000897007408F100F2010B
:1032B000F135F20DF135F20D2B3071078400B0308D
:1032C000723D85000008F300F30DF30DF30D40018E
:1032D00012087306F7397306920043019A16080024
:1032E000F701F21F7A29F109F209F10A0319F20A2A
:1032F000F701F70AF41F8529F309F409F30A031902
:10330000F40A0130F5007508F706F801F9017108B3
:1033100072040319B429F601F60AF21B9929013047
:10332000F135F20D890B90290130F5007508F6078B
:103330008D290130F835F90D890B9A29720874022C
:10334000031DA42971087302031CAB297108F30241
:103350007208F43B78140130F236F10C890BAC2979
:103360000130F602031D992977080319BC29F809D1
:10337000F909F80A0319F90A7908F2007808F10046
:1033800008004001B0004101631CCF294001300812
:10339000AB002B08A0002808A43126249931400155
:1033A000AA1BD7292A08AF002908AE00D929AE01E7
:1033B000AF01AC01AD012D08803AAB002F08803A77
:1033C0002B02031DE5292E082C020318F9292030B1
:1033D000F4000030F50040013008AB002B08F60087
:1033E000A6319326993101304001AC070030AD3D44
:1033F000DB2941016318052A40013008AB002B0886
:10340000A0002808A4312624993140012808F100A1
:103410000230F200A13184212E087107A8002F0884
:10342000723DA90008007208F9007108F8007408DC
:10343000FB007308FA000130F5020030F63B750A14
:10344000031D4D2A760A031D4D2AF101F2010800E1
:103450007A0884007B08850012000319542A750835
:1034600076040319542A7A0884007B088500000832
:10347000F700780884007908850000087706031DA6
:10348000542A0130F8070030F93D0130FA070030C6
:10349000FB3D0130F5020030F63B780884007908E6
:1034A00085001200031D282A780884007908850009
:1034B0000008F7007A0884007B088500000877027E
:1034C000F100F201031CF2030800A60026088600A2
:1034D000013087000103031D8E2AA231AE229A31EA
:1034E000260A8600013087007108C03F7208C13F7C
:1034F0002108A3002008A200A235A30DA235A30D28
:103500002608033E8600013087002208C03F2308BA
:10351000C13F260886000130870081012608033E4E
:10352000860001308700403FA200413FA300260AE9
:10353000860001308700A231AE229A31403F7102ED
:10354000A400413F723BA50023082502031DAA2ABF
:1035500022082402031CB22A2608860001308700B4
:103560008101810A260886000130870001080800D1
:10357000AF3114279A31003A031DC82AED2AAE3123
:10358000C2260800AE31C6260800AE31CE2608009D
:103590002F084001A0002008FA000630A03E860057
:1035A00001308700413F8A00403F0A009A314001C4
:1035B000A100A2012208003A0319DF2AC52A210826
:1035C000013A0319C52A033A0319BF2A013A03191C
:1035D000C22A073A0319C52AC52A3D1038084001F6
:1035E000A100430137084001A0004301B70A0319B5
:1035F000B80A400120088600210887000108AE3182
:10360000E6269A310130B9020030BA3B39083A0453
:10361000031D0C2B06300800033008000310730D47
:10362000740DF5007508FB007B08031D202B00308E
:10363000F4000030F3000030F2000030F100080028
:103640007108F5007208F6007308F7007408F800B6
:103650001F30F836F70CF60CF50C890B292B750882
:10366000F9007908FA00F317FF30F105FF30F20591
:10367000FF30F3050030F4059630FB02FB1F532B9F
:103680007B08803A973E031C172B0130F436F30C6D
:10369000F20CF10C890B462B0130F5007508FB0785
:1036A0000319642B452B20307B020318172B7B0852
:1036B0000319642B0130F135F20DF30DF40D890B74
:1036C0005B2B0130FB02572B7A0803190800F10924
:1036D000F209F309F409F10A0319F20A0319F30ACA
:1036E0000319F40A080040019A010130990096017B
:1036F00021309700980107309500CD309100D630E9
:103700009200FF309300B630940036307E01D9002D
:10371000FF30CE000630C3000730E400F530B800BB
:103720000830DA00E501D030C4000830B900CF011C
:10373000E601BA01C501D001DB01FF30BB00FF305B
:10374000C600FF30D100FF30DC000730E700FF305B
:10375000BC00FF30C700FF30D200FF30DD000F306B
:10376000E800BF11BE15BD110030F1002030F2009D
:10377000AF3132279B314E011616AF31DA279B311C
:103780000C30CB000F30C5001F30C90015307E0152
:103790009E0014309F0010309D000F3091001730B4
:1037A000AE000E307D01C6000B30C80001307E0136
:1037B00094000330AB000230950016309B00873137
:1037C000F327080042012F084001A50042012E08FE
:1037D0004001A40042012D084001A30042012C0831
:1037E0004001A2007408A5007308A4007208A30099
:1037F0007108A2002208F5002308F6002408F7004B
:103800002508F8001730F836F70CF60CF50C890B84
:10381000032CFF307505A00000307605A1002008BC
:103820002104031D322C2208F5002308F600240889
:10383000F7002508F8000130F535F60DF70DF80D05
:10384000890B1C2C7808770476047504031D2D2C35
:103850000230F1000030F20008000330F1000030C7
:10386000F2000800200A2104031D552C2208F5004F
:103870002308F6002408F7002508F8000930F5357C
:10388000F60DF70DF80D890B3F2C780877047604B8
:103890007504031D4D2C01304E2C0030F900FA0147
:1038A0007908F1007A08F20008000430F1000030D5
:1038B000F200080000303A05C20000303B05C300AA
:1038C00080303C05C4007F303D05C50045084404F8
:1038D00043044204031D742C0030BD000030BC00C2
:1038E0000030BB000030BA0000303E05C20000309E
:1038F0003F05C30080304005C4007F304105C5004E
:103900004508440443044204031D8E2C0030C100CA
:103910000030C0000030BF000030BE00BD1FA82C2A
:103920000030C2000030C3000030C4008030C50049
:103930003A08C2023B08C33B3C08C43B3D08C53BB8
:103940004508BD004408BC004308BB004208BA005B
:10395000C11FC22C0030C2000030C3000030C400C0
:103960008030C5003E08C2023F08C33B4008C43B4C
:103970004108C53B4508C1004408C0004308BF00DA
:103980004208BE008030BD068030C10641083D02BD
:10399000031D080040083C02031D08003F083B02CD
:1039A000031D08003E083A020800AE000430AD00D6
:1039B0002D084201C30043304001A8000130A90096
:1039C0000130AA000030AB005130A4314B249C31AF
:1039D00044304001A8000130A9000730AA0000309F
:1039E000AB005130A3313E239C31420144087F3962
:1039F000A0315F209C314001AD002E0886000130CF
:103A000087002D08810042014508A0315F209C31CC
:103A10004001AD002E0A8600013087002D0881008C
:103A200042014608A0315F209C314001AD002E08C4
:103A3000023E8600013087002D08810042014708C0
:103A4000A0315F209C314001AD002E08033E86006E
:103A5000013087002D088100420148084001AD0077
:103A60002E08043E8600013087002D0881004201A7
:103A70004908A0315F209C314001AD002E08053E71
:103A80008600013087002D08810042014A08A031DC
:103A90005F204001AD002E08063E86000130870001
:103AA0002D0881000800A000200886000130870052
:103AB0003C3001020318752D200A86000130870072
:103AC0003C3001020318752D2008023E86000130AB
:103AD0008700183001020318752D2008053E860066
:103AE000013087000108031D772D003008002008F1
:103AF000053E8600013087000D3001020318752D48
:103B0000B42D2008033E8600013087001F30B02D01
:103B10002008063E8600013087000108D03EF700ED
:103B2000073003180830F800A43171249D31003AA1
:103B30000319A22D40012008033E860001308700B2
:103B40001E30B02D40012008033E86000130870062
:103B50001D30B02D2008033E860001308700203044
:103B600001020318752DD22D2008053E8600013074
:103B700087000108FA00FB017B08003A0319C12DF8
:103B8000AA2D7A08023A0319882D063A0319812DC5
:103B9000023A0319812D0F3A0319812D023A0319B4
:103BA000812DAA2D01300800A0002008031DF41F5C
:103BB000E92D7109A2007209A3007309A400740918
:103BC000A500A20A0319A30A0319A40A0319A50A46
:103BD000F12D7408A5007308A4007208A3007108F1
:103BE000A2007408730472047104031D002E0030D7
:103BF000F4000030F3000030F2000030F100080063
:103C00009630F5007508A100FE3025050319272E12
:103C10000130F5007508A1070130A536A40CA30CEE
:103C2000A20C890B0D2E042E0130F5007508A1079A
:103C30000130A2070030A33D0030A43D0030A53D77
:103C40000130A536A40CA30CA20C890B212EFF3049
:103C500025050319392E142E02302102031C3B2E98
:103C60000130A1020130A235A30DA40DA50D890BD1
:103C7000332EA41F2C2E2118452EFF30A205FF3015
:103C8000A3057F30A405FF30A5050310A10C210872
:103C9000F500F601F701F8011830F535F60DF70DCE
:103CA000F80D890B4D2E7508A2047608A304770839
:103CB000A4047808A5042008031DF41F602EA5178E
:103CC0002508F4002408F3002308F2002208F1007C
:103CD00008004001B000E630860001308700253042
:103CE0008400003085000730A20016001A00A20BE5
:103CF000752E2108B2002008B10031083204031DDE
:103D0000852E2530B1000030B2003208F2003108B3
:103D1000F100A13184219E317208B6007108B5000E
:103D2000410162084001B400410161084001B30053
:103D3000B41BAB2E3408803AA2003608803A220227
:103D4000031DA42E350833020318AB2E400134089E
:103D5000B6003308B50040013608B4003508B3009A
:103D6000420133084001AF00420132084001AE0079
:103D70004101631CCD2EDA2E2030F4000030F50016
:103D800040013008A2002208F600A63193269E3199
:103D900001304001B5070030B63D40013608803A99
:103DA000A2002F08803A2202031DD82E2E083502C9
:103DB000031CBC2E4001AC01AD012D08803AA200CD
:103DC0003408803A2202031DE72E33082C02031820
:103DD000062F400131088400320885000008A20047
:103DE000A3012208F4002308F5003008A4002408E9
:103DF000F600A63193269E3101304001B107003014
:103E0000B23D0130AC070030AD3DDD2E41016318FD
:103E10001B2F282F2030F4000030F500400130081F
:103E2000A2002208F600A63193269E3101304001FF
:103E3000B5070030B63D40013608803AA2002F0891
:103E4000803A2202031D262F2E083502031C0A2F5A
:103E500040013608A1003508A000080042012B08E7
:103E60004001D30042012A084001D2004201290842
:103E70004001D100420128084001D0004308D3008E
:103E80004208D2004108D1004008D0005008C400C8
:103E90005108C5005208C6005308C7001730C7367E
:103EA000C60CC50CC40C890B4F2FFF304405C8004D
:103EB00000304505C9004808813ECE00FF30493D2D
:103EC000CF004F08803AC40080304402031D6A2F9F
:103ED00017304E02031808004001CF1BC42FFF30DB
:103EE000C400FF30C5007F30C6000030C7004E0A56
:103EF0007D2FC737C60CC50CC40C890B792F47081A
:103F0000CD004608CC004508CB004408CA00500844
:103F10004A05C40051084B05C50052084C05C600AF
:103F200053084D05C70047084604450444040319D7
:103F300008005008C4005108C5005208C6005308C4
:103F4000C7001F30C736C60CC50CC40C890BA22F86
:103F500044080319B32F4A08D0074B08D13D4C0839
:103F6000D23D4D08D33D4A09C4004B09C5004C0958
:103F7000C6004D09C7004408D0054508D1054608CC
:103F8000D2054708D305F72F5008C4005108C500D3
:103F90005208C6005308C7001F30C736C60CC50CF0
:103FA000C40C890BCD2F4408031DDA2F0030D30039
:103FB0000030F22F5008C4005108C5005208C60056
:103FC0005308C7000130C435C50DC60DC70D890B98
:103FD000E32F47084604450444040319F72FBF3074
:103FE000D3008030D2000030D1000030D000530820
:103FF000C3005208C2005108C1005008C0000800A8
:104000000800F30073089E0093171313131413187A
:1040100007280D08F2000C08F10008004001B30069
:104020003335B1003108AD000230B2003208AE00C5
:104030000030A631CA2608000130450190008F01EA
:104040009101FF308D008C014E0190108F304501A1
:104050008E000800F400F301741C32287108F2008D
:104060007208F3070310F10D0310F40C7408031D1C
:104070002C28730808000130A5001930A60019305B
:10408000A7001930A8001930A900AA010230AB001E
:10409000AC01AD010730A4000800933040019F003F
:1040A0009D019C011D084301DB0040011C084301E8
:1040B000DA004E018C12903040019E000800F8009A
:1040C0000F307805F5000A30F6007608F100780820
:1040D000F7000430F736890B6A287708A0312A20C8
:1040E0007507080001307C019100293092000930E9
:1040F0009300043094000430950096010A30970034
:104100009801990187309000080001307C019B00E4
:1041100028309C0004309D0004309E0004309F0035
:10412000A0010230A100A201A30187309A0008007B
:104130007708BF3EF900FF30783DFA0000307A0280
:104140001A30031979020318080020307704F700A9
:1041500000307804F800080077089F3EF900FF302F
:10416000783DFA0000307A021A30031979020318F8
:1041700008005F307705F70000307805F800080088
:104180007A08F100FF39031D0030F2000230F3001D
:104190000030F400AF31F327A0310030F600F70013
:1041A000F801AF31C227043008007A08F100FF3966
:1041B000031D0030F2000130F3000030F400AF3195
:1041C000F327A0310030F600F700F801AF31C22725
:1041D000023008007A08F100FF39031D0030F200B8
:1041E0000230F3000030F400AF31F327A03100308B
:1041F000F600F700F801AF31C227023008007A0854
:10420000F100FF39031D0030F2000130F3000030EF
:10421000F400AF31F327A0310030F600F700F801C9
:10422000AF31C22704300800D5304001EB006B08E5
:10423000EC00410154084001E400410153084001F1
:10424000E3006C30EB006B08E5000030A5316B2516
:1042500008000B307D01C8001F30C90016307E01F8
:104260009B001730AE004030430199000A309A009D
:104270000F3097004001921143019A120800420149
:104280001908F0007C08BE3E8600013087007008E7
:1042900081000130F0007008FC0708307C02031830
:1042A000FC010130F0007008C00708007108D03E22
:1042B000F300FF30723DF400003074020A3003193D
:1042C000730203186529013066290030F500F601F4
:1042D0007508F1007608F20008007508803AF600CB
:1042E00080307602031D762901307402031808001D
:1042F0007409F6007509F700F60A0319F70A76083B
:10430000F4007708F50008007208F5007108F40061
:104310007108840072088500120003199429013085
:10432000F1070030F23D882974087102F100750828
:10433000723BF20008007108BF3EF300FF30723D8F
:10434000F400003074021A30031973020318AA290A
:104350000130AB290030F500F6017508F100760850
:10436000F200080071089F3EF300FF30723DF40038
:10437000003074021A30031973020318C129013086
:10438000C2290030F500F6017508F1007608F20048
:104390000800F201F20A4301BD18DF293D11FF3088
:1043A000F1007108B600AE31A726A131AE319A26D0
:1043B000A131AE31AA263C08F1007108F200720862
:1043C00008002E08B0003008B1002D08B0003008F9
:1043D000B2002F08B0003008B3003130A800003020
:1043E000A9000330AA000030AB005330A4314B24A5
:1043F00008002E08B0003008B1002D08B0003008C9
:10440000B2002F08B0003008B3003130A8000030EF
:10441000A9000330AA000030AB005330A4314B2474
:104420000800AF002F08AE002E084201C300400173
:104430002D08AE002E084201C40043304001A80000
:104440000130A9000230AA000030AB005130A43185
:104450004B24080042018E018F01900191019201CD
:1044600093018D0141019E019B019C0194019501E5
:104470009601970103309A009901980194309300B6
:1044800010309D0008007A08023E8600870101086E
:10449000F1000030F2007A0886008701403FF30007
:1044A000413FF400AF31F327A2310030F600F700AE
:1044B000F801AF31C22702300800AE002E30A8004C
:1044C0000030A9000130AA000030AB005130A43107
:1044D0004B24A23140012D08A8000030A900013072
:1044E000AA000030AB005130A3313E230800F50193
:1044F000F601711C7F2A7308F5077408F63D013038
:10450000F335F40D890B802A0130F236F10C890B5A
:10451000852A71087204031D792A7608F20075084D
:10452000F1000800403042016C020318AB2A410838
:10453000A03E86000230870001089A000130F0009A
:104540007008C107403041020318C1010130F0007A
:104550007008EC0708004E01191208001C08F3004F
:104560007308FA001D08F3007308FB007A08F300D3
:10457000F4017B08F500F6017508F600F5017308F3
:104580007507F8007408763DF9007908F20078089C
:10459000F1000800F501F50A2030710672040319D4
:1045A000DE2A7108F73EF300FF30723DF400003060
:1045B00074020530031973020318F5017508F3003E
:1045C000F4017308F1007408F20008008030BD06A1
:1045D0004108F4004008F3003F08F2003E08F100F3
:1045E0003D08F8003C08F7003B08F6003A08F500E3
:1045F000943106247408BD007308BC007208BB0027
:104600007108BA00080020307104F3000030720411
:10461000F40073089F3EF500FF30743DF600003053
:1046200076021A30031975020318182B0130192B62
:104630000030F700F8017708F1007808F200080070
:104640004001A600A701A70A4301BD183B2BBD14DA
:104650004001A70126080319312B4301BB01BB0A06
:10466000362B0230FB007B084301BB00AE319C2699
:10467000A331AF317227400127080800AC00400188
:104680002C08A6315C26A331003A03193F2B4001C8
:104690002908F2002808F1002B08F4002A08F3008A
:1046A000AF31F327A331AE31DE26A331A131C921C9
:1046B000A331013A031D0800562BF900F501F6015C
:1046C0007108F300F4017308F7007408F800791C0E
:1046D0006D2B7708F5077808F63D0130F735F80DB2
:1046E000890B6E2B0310F90C7908031D672B7608D4
:1046F000F2007508F1000800F8007208F600710871
:10470000F5007808F3007308F70077088600023098
:104710008700F70A7608F4007508F300F50A031914
:10472000F60A73088400740885000008C03F8908F1
:1047300003190800852B40010F0CF100F10C710CDE
:10474000013942016F060319B62B6F03031DB32B0A
:104750000130F1007108BA0765303A02031CBA2B28
:10476000EF0101300800EF01EF0ABA2B3A080319F4
:10477000BA2BBA01003008002E08AF002F08B00095
:104780002D08AF002F08B1003030A8000030A9007C
:104790000230AA000030AB005330A4314B24A331C7
:1047A00030304001A8000030A9000130AA000030DC
:1047B000AB005330A3313E234001300808002E08DF
:1047C000AF002F08B0002D08AF002F08B100303027
:1047D000A8000030A9000230AA000030AB0053301E
:1047E000A4314B24A33130304001A8000030A9008F
:1047F0000130AA000030AB005330A3313E2340010A
:1048000030080800F20042016C080319032C4E0125
:10481000191A0E2C720842019A00232C19127208E0
:10482000F10042014208A03E860002308700710874
:1048300081000130F1007108C207403042020318C4
:10484000C2010130EC024E0119160800A700A501B3
:10485000A60125082707A10021088600023087004D
:104860000108A2002208A400240803190800240853
:10487000A100A2012108F4002208F5002008A300ED
:104880002308F600A6319326A43101304001A50784
:104890000030A63D292CAC0040012C08A6315C2636
:1048A000A431003A03194C2C40012908F2002808D1
:1048B000F1002B08F4002A08F300AF31F327A431EC
:1048C0000030F600F700F801AF31CE27A431AE3149
:1048D000E226A431A131C921A431013A031D080007
:1048E0006A2CF90177080339031D962C6430F10016
:1048F0000030F2007808F4007708F300A5311225A3
:10490000A43171087204031D942C9030F100013021
:10491000F2007808F4007708F300A5311225A431DD
:1049200071087204031D962CF901F90A7908080030
:10493000F500710872040319B02C7535A03E86008D
:10494000013087007108C03F7208C13F7308F4004E
:104950007508AC3E860001308700740881000800AD
:104960007535A03E8600013087009E30C03F2E3056
:10497000C13F7508AC3E8600013087008101080008
:1049800040080319C02C40016D08203E860001300C
:1049900087000108F10071084201BF0040016D0865
:1049A000BE3E8600013087000108F1007108F20068
:1049B0000130F1007108ED0708306D020318ED01B8
:1049C0004E01991201304201C0024E01991672083F
:1049D0000800AE31A726A43143013D1CFB2CAF31AA
:1049E0001427A431003A0319FB2C0F304001A30017
:1049F00023084301BB003B084001A300A401A335E9
:104A0000A40D003023078400A830243D8500013F19
:104A10008A00003F0A00A5314001A5002508430196
:104A2000BB000800710872040319392DF601F60A5B
:104A3000F21B242D0130F135F20D890B1B2D0130B5
:104A4000F5007508F607182D72087402031D2A2D4B
:104A500071087302031C302D7108F3027208F43BD5
:104A60000130F236F10C890B312D0130F602031DB5
:104A7000242D7408F2007308F1000800AF316A2792
:104A8000A531AF317B27A531A1312921A5319B313A
:104A90007323A531AF318427A53198310020A5318A
:104AA000A2312A22A531A0318520A531A0311C20B8
:104AB000A531A0314D20A531A0317220A531A03102
:104AC0003B20A531AF319627A531A7317B27A531F2
:104AD000AE31FA260800E8006408EA006308E9003D
:104AE0004201B001B1014001690884006A088500F3
:104AF000120003198F2D6930E6006608DC00650896
:104B0000E7006708DD0068088B31DB23A5315C080E
:104B10004201B00740015D084201B13D732D4201E1
:104B200031084001E400420130084001E300080080
:104B30004301BD15A52DAE31CA26080090310020D5
:104B400003300800AE31CE2608002C084001A0003A
:104B50002008FA00430121088A0020080A00A53134
:104B60004001A100A2012208003A0319B82DA22D8C
:104B70002108013A0319A22D033A03199B2D013A8A
:104B800003199B2D073A03199E2DA22D08004301FE
:104B90003D1002304001A00020084301BC00D62D8A
:104BA000AE31CA260800AE31CE2608002E084001DC
:104BB000A0002008FA000430A03E860001308700E3
:104BC000413F8A00403F0A00A5314001A100A201F7
:104BD0002208003A0319ED2DD32D2108023A0319BA
:104BE000D02D013A0319D02DD32D08003530B40053
:104BF0003408AD000030A2315D22A5314001B51E60
:104C0000092E5830B4003408AD000030A231112212
:104C1000A5310030A0310E20A53116304001B4007E
:104C20003408AD001130A2311122A5314001AD018F
:104C3000AD0A1030A2311122A53107304001B40075
:104C40003408AD000130A231112208007C08203E5A
:104C5000860001308700810142011D1D3B2E7C082A
:104C6000203E8600013087008114430161088A00DC
:104C700060080A00A63142019D1C4A2E7C08203E95
:104C8000860001308700011543015F088A005E0835
:104C90000A00A6317C08203E86000130870001080A
:104CA0000319592E43015D088A005C080A00A631E9
:104CB0000800A1313F210800F200F301F30A43018B
:104CC0003D19912E7208F1007108B600BD103D1516
:104CD0003D100E30F1007108BB00F430B40001301B
:104CE000B500BD159E30A0002E30A100AC019E3055
:104CF000A2002E30A300AD019E30A4002E30A500EE
:104D0000AE019E30A6002E30A700AF01A030A80053
:104D10002E30A900B001AE31A726A631AF31A027B1
:104D2000F301730808007608031D7608031D9C2E06
:104D30007408AF31092708007608083E860087010D
:104D4000160001040319C02E7608083E860087016C
:104D5000403FF700413FF8007608023E8600870199
:104D6000403FF900413FFA007A08803AFB0078089A
:104D7000803A7B02031DBE2E7708790203180800D3
:104D80007608023E86008701013081074131031811
:104D9000810A0800B0003008AF002F084201C300AC
:104DA00043304001A8000130A9000130AA000030C2
:104DB000AB005130A4314B24A63144304001A8004F
:104DC0000130A9000130AA000030AB005130A331FE
:104DD0003E23A63140012E09AF002F084201C40531
:104DE00040012D08AF002F084201C40443304001A8
:104DF000A8000130A9000230AA000030AB005130F9
:104E0000A4314B240800F600003099312321A7314A
:104E1000400117109F30AF31AB27A731FF30AF31C2
:104E2000AB27A731F50076088600013087007508AA
:104E300081000130F5007508F607FF30AF31AB2770
:104E4000A731F500760886000130870075088100DB
:104E50000130F5007508F607FF30AF31AB27A731F9
:104E6000F500760886000130870075088100400152
:104E700017148831002008003608AE003508AD0050
:104E8000A331BC23A731B9003908BB003803031D87
:104E9000552F0130B900370A4E2FB935890B4D2FE8
:104EA0003908BA003A08BB04702F3808031D652F73
:104EB0000130B900370A5D2FB935890B5C2F3908ED
:104EC000FF3ABA003A08BB05702F0130B900370A23
:104ED0006A2FB935890B692F3908BA003A08BB0621
:104EE0003608AE003508AD003B08B9003908AF0000
:104EF000A131E12108004E0199122630F10026303F
:104F0000F200AF312627A7314E0119129230F1007D
:104F10002230F200AF312C27A731083042019F0028
:104F200090309D0024309E0040309B0003309C0058
:104F30009930F1002E30F200AF312027A731B63082
:104F4000F1002E30F200AF310427A731A430F10078
:104F50002E30F200AE31FF264201BF01C201C10175
:104F60004030F3007308EC00FC014001ED01420108
:104F7000C0014E0199160800F90000309931232133
:104F8000A7317C019A1751019513E030F800780899
:104F9000F9040030AF31AB27A7310030AF31AB2778
:104FA000A7310030AF31AB27A7310030AF31AB278D
:104FB000A7317908AF31AB27A7317708AF31AB27DD
:104FC000A7317608AF31AB27A7317508AF31AB27D2
:104FD000A731FF30AF31AB27A731FF30AF31AB275F
:104FE000A731FF30AF31AB27A731FF30AF31AB274F
:104FF000A731883100207C019A13510195170800D0
:10500000EB342E3462342F3444342F34B8341A3411
:10501000493418341A342F3498342534C2342E3499
:10502000C6342E34CA342E34CE342E34D2342E34F8
:10503000D6342E34DA342E34F0342E34C7342534BA
:105040000A3446346C34613473346834203449345F
:1050500044343A342034253430343234583425340E
:105060003034323458342534303432345834003407
:105070000A345334523441344D342034453472347C
:1050800072346F347234203425343034343458342C
:105090003A342034253430343234583400340A342D
:1050A000543465346D34703465347234613474341E
:1050B0007534723465343A34203425342E34313426
:1050C000663400340A3457347234693474346534C5
:1050D00020345334523441344D343A34203444343F
:1050E0006F346E34653400340A342534303432344D
:1050F00064343A3425343034323464343A34253428
:105100003034323464342D34003425343034323485
:1051100064342F3425343034323464342F34323410
:105120003034253430343234643400340A34523468
:1051300065346134643420345334523441344D3452
:105140003A34203444346F346E34653400340A34D5
:1051500054346534733474342034503472346F34BE
:105160006734723461346D343A34203400340A3494
:1051700046346C34613473346834203465347234AA
:0851800072346F347234003404
:105D3200080019100800111408000130080005308D
:105D4200080091150800A1313F2108004E010F10F3
:105D52000800430190120800430191140800430116
:105D62001115080043010C08080042011D121D16FE
:105D720008004301911611160800430191121116F1
:105D82000800AE31AD2601300800AE31AD2602303A
:105D92000800AE31AD2601300800AE31B026003029
:105DA2000800AE31BE2605300800AE31BA260A30F0
:105DB2000800AE31BA26093008000130A331202391
:105DC20008000030A33120230800F10071084301CC
:105DD2008C0008004301BD10BC010E3008004301D5
:105DE200BD10BC010E3008004E010F18080043011F
:105DF200F52E510196019630950008007208DD00DB
:105E02007108DC0008007208DF007108DE0008007B
:105E1200F3007308A431022408007E01BF1D0800AC
:105E2200AF31E62708004301110E890C890C0139B4
:105E3200080043013D10AE31A2260430080072086A
:105E42004301E1007108E000080072084301E30029
:105E52007108E200080072084301E5007108E400DD
:105E6200080072084201EB007108EA0008006400B1
:105E720080010131890B392F0034FE0012001E000F
:105E8200FE0B3F2F003443013D143635AE31E6267A
:105E92000330080028346E3475346C346C34293481
:105EA2000034420140080319582F01300800003025
:105EB200080042016C080319602F0130080000300D
:105EC200080043013D140314360DAE31E6260530B9
:105ED20008004F0196019701980199019A019B01CF
:105EE2000800BD1C0800AE31F526AF31A431E9240B
:105EF200AF31722F43018F010830900091011330AE
:105F02008D0090120800603051018D008F019101C7
:105F1200063093009201080074087304720471043D
:105F2200031908008030F40608004701920191012C
:105F3200900144011F08CF3910389F000800430127
:105F4200901A08008F0108309000910113308D00E3
:105F520090160800F1007108430196004E010F1DD2
:105F6200AF2F0F1143011608080003104001961CC1
:105F72000314031CBF2F4001961408004001961021
:105F820008007708F2007608F1007808F90079082D
:105F9200F3000030A431982408007708F200760854
:105FA200F1007808F9007908F3000230A43198244E
:105FB200080000308B1B01304201ED0055307D019D
:105FC2008F00AA308F000F10080042016A086B048C
:105FD2000319F02F6B088A006A080A00AF317E01AC
:105FE200BF1108004301BD1D08007208B800710806
:105FF200B7007408BA007308B900BD1108004A342A
:1060020061346E3420343134383420343234303414
:106012003234323400340A34523454344334433444
:1060220020346534723472346F3472340034323452
:1060320033343A34303439343A3431343934003444
:10604200253473342D34253473340A3400340A343D
:1060520040340F34003449344E34463400344E3424
:1060620041344E34003469346E34663400346E3454
:1060720061346E3400346C346C34733400346C34F8
:04608200663400344C
:020000040001F9
:08000000FF3FFF3FFF3FFF3F00
:0A000E00EC3FFF37FF07FF3FFC3F08
:00000001FF
