:1000000080311E28053008007E1480310B1F1C280B
:100010004E01191A0F1E1328420167088A0066084C
:100020000A0080311C28991A8F1E1C28430146089B
:100030008A0045080A0080317E100900803120289E
:100040004101883100208031ED00FC014001EB01CD
:10005000EC01ED01EE01EF01E53084000030850098
:100060000730A731EB278031203084000130850034
:100070002730A731EB278031A03084000130850084
:100080001030A731EB27803120308400023085000A
:100090005030A731EB278031A0308400023085003A
:1000A0004030A731EB277E1040019331FC2B4101FA
:1000B000BC00BA01BB01400157084101D00040011A
:1000C00056084101CF00400155084101CE004001D2
:1000D00054084101CD0050084001BD0041014F08C6
:1000E0004001BC0041014E084001BB0041014D08E8
:1000F0004001BA000030C1000030C0000030BF0035
:100100000030BE0088311320803103189F28013051
:100110004101BA000030BB005008F4004F08F30062
:100120004E08F2004D08F10098312D2080317408FE
:10013000D0007308CF007208CE007108CD004101D5
:10014000D301D4016608C0006508BF003A083B042B
:10015000031DAD2840016D1DC72841013A083B042D
:10016000031DB4282B30B5282D30A0000030A1008D
:1001700020084001D90059084401A0000130410184
:10018000D3070030D43DFF30BF07FF30C03D4101F1
:100190005008F4004F08F3004E08F2004D08F1003B
:1001A00092311D22803171037204031D1C295808ED
:1001B000BF3ED900FF3003180030DA0000305A0289
:1001C0001A30031959020318E7280130E8280030D3
:1001D000DB00DC015B084101A20040015C08410139
:1001E000A300220823040319F9280430F100A830E1
:1001F000FC280C30F100A830F2005308203E9A3160
:10020000DE228031FD30BF07FF30C03D203040018D
:10021000D9005908A800410140084001AA00410145
:100220003F084001A90041013C089F316927290886
:10023000D5002808D400080041015008F4004F08F8
:10024000F3004E08F2004D08F10092311D2280317A
:1002500071087204031D71295808BF3ED900FF3090
:1002600003180030DA0000305A021A30031959021C
:1002700003183C2901303D290030DB00DC015B081C
:100280004101A40040015C084101A50024082504A7
:1002900003194E290830F100A83051291030F1001F
:1002A000A830F2005308203E9A31DE228031FD3022
:1002B000BF07FF30C03D20304001D9005908A800D9
:1002C000410140084001AA0041013F084001A90046
:1002D00041013C089F3169272908D5002808D4002E
:1002E00008003F304101D8008030D7000030D600F0
:1002F0000030D500D101D2015008F4004F08F300BE
:100300004E08F2004D08F1000030F8000030F70010
:100310000030F6000030F5009F3120278031031CAB
:10032000C0294C2A4130A3002030A2000030A10097
:100330000030A000410158084001A70041015708C2
:100340004001A600410156084001A50041015508A1
:100350004001A4008A317022803123084101D80075
:10036000400122084101D700400121084101D60087
:10037000400120084101D5000130D1070030D23DB5
:10038000410150084001BD0041014F084001BC003F
:1003900041014E084001BB0041014D084001BA0037
:1003A0004130A3002030A2000030A1000030A000A6
:1003B000410158084001A700410157084001A6002B
:1003C000410156084001A500410155084001A40023
:1003D0008A31702280312308C1002208C000210820
:1003E000BF002008BE00883113208031031C272A5B
:1003F00092294130A9002030A8000030A700003029
:10040000A600410158084001AD00410157084001D4
:10041000AC00410156084001AB00410155084001C4
:10042000AA0096318726803129084101D800400171
:1004300028084101D700400127084101D6004001AA
:1004400026084101D500FF30D107FF30D23D4101E0
:1004500050084001BD0041014F084001BC0041016E
:100460004E084001BB0041014D084001BA00410166
:1004700058084001C100410157084001C000410136
:1004800056084001BF00410155084001BE008831B7
:1004900013208031031CF9295808D900DA015908C2
:1004A000F7005A08F8009B315E2380317708DB00A3
:1004B0005B084101C20042084001D90059084101CE
:1004C000C10067304206031D7F2A40016B086C049F
:1004D000031D6E2A0130EB000030EC006C08803AFE
:1004E000D90080305902031D772A01306B020318AE
:1004F000822A06304101BD000030BE008A2A400138
:10050000EC1B792A40016C084101BE0040016B08D8
:100510004101BD0067304206031DBD2A5208803AE2
:100520004001D9007F305902031D992AFC30410156
:100530005102031CB72A41013D08FF3E4001D9008A
:10054000FF3041013E3D4001DA005A08803ADB00AD
:1005500041015208803A40015B02031DB32A410168
:10056000510840015902031CB72A6630B82A653089
:100570004001D90059084101C1003E08B3003D08BF
:10058000B20067304206031DCA2A663041060319CD
:10059000D21FCE2A0130B2070030B33D663041068B
:1005A000031DE62AD21FDE2A3F30D8008030D70054
:1005B0000030D6000030D500D101D20167304206AC
:1005C0000319E62A5108B2075208B33DCB01CC010A
:1005D0005008C6004F08C5004E08C4004D08C300AF
:1005E0005808B7005708B6005608B5005508B400BB
:1005F0004C08803A4001D90041013308803A40015B
:100600005902031D062B410132084B020318D12B5E
:10061000410158084001A900410157084001A800C4
:10062000410156084001A700410155084001A600BC
:10063000410146084001AD00410145084001AC00C0
:10064000410144084001AB00410143084001AA00B8
:100650009631872680312908C3002808C200270860
:10066000C1002608C00093312A238031400143088D
:100670004101CA00400142084101C900400141084E
:100680004101C800400140084101C7004A08F40088
:100690004908F3004808F2004708F1009131B821F9
:1006A00080317208B9007108B8004A084001A700FB
:1006B000410149084001A600410148084001A50048
:1006C000410147084001A400410158084001A3002E
:1006D000410157084001A200410156084001A10014
:1006E000410155084001A0008A3170228031230861
:1006F000BD002208BC002108BB002008BA0041014F
:1007000046084001C100410145084001C0004101C7
:1007100044084001BF00410143084001BE009A3136
:10072000492280313D084101C60040013C08410199
:10073000C50040013B084101C40040013A084101A5
:10074000C30041304001A9002030A8000030A700BC
:100750000030A600410158084001AD004101570892
:100760004001AC00410156084001AB004101550871
:100770004001AA0096318726803129084101D8001E
:10078000400128084101D700400127084101D60057
:10079000400126084101D5000130CB070030CC3D97
:1007A000F82A40304001A300A030A2000030A10090
:1007B0000030A000410158084001A700410157083E
:1007C0004001A600410156084001A500410155081D
:1007D0004001A4008A317022803123084101CA00FF
:1007E000400122084101C900400121084101C8001F
:1007F000400120084101C70046084001BD004101F9
:1008000045084001BC00410144084001BB004101D2
:1008100043084001BA0041014A084001C1004101BA
:1008200049084001C000410148084001BF004101A2
:1008300047084001BE008831132080310318232C63
:10084000003041013D2C41014608F4004508F30009
:100850004408F2004308F1004A08F8004908F7008C
:100860004808F6004708F5009F3120278031031C17
:10087000442C41013818442C0030CA000030C90013
:100880000030C8000030C70041014A08F4004908A0
:10089000F3004808F2004708F1005008F8004F083C
:1008A000F7004E08F6004D08F50088318E208031A3
:1008B00074084101C6007308C5007208C4007108BD
:1008C000C30046084001BD00410145084001BC008D
:1008D000410144084001BB00410143084001BA0006
:1008E0004130A3002030A2000030A1000030A00061
:1008F000410137084001A700410136084001A60028
:10090000410135084001A500410134084001A4001F
:100910008A31702280312308C1002208C0002108DA
:10092000BF002008BE00883113208031031CD02C6A
:1009300001304101D1070030D23D41304001A300D8
:100940002030A2000030A1000030A0004101370893
:100950004001A700410136084001A60041013508C9
:100960004001A500410134084001A4008A317022F1
:10097000803123084101B700400122084101B6003F
:10098000400121084101B500400120084101B400A7
:1009900066304106031DD02C0130B2070030B33D54
:1009A00041013708D8003608D7003508D60034088A
:1009B000D500653041060319E22C5208B1005108F8
:1009C000B000E42CB001B101AE01AF01AC01AD014A
:1009D000CB01CC011C2E410158084001A900410166
:1009E00057084001A800410156084001A7004101F5
:1009F00055084001A600410146084001AD004101F3
:100A000045084001AC00410144084001AB004101F0
:100A100043084001AA009631872680312908C30087
:100A20002808C2002708C1002608C00093312A23E5
:100A30008031400143084101CA00400142084101A0
:100A4000C900400141084101C8004001400841017E
:100A5000C7004A08F4004908F3004808F2004708B4
:100A6000F1009131B82180317208B9007108B800E5
:100A700040016D1A4A2D410138083904031D4A2DE1
:100A8000673042060319B11F4A2D0130AC07003010
:100A9000AD3D9D2D41012E082F040319B11F692D75
:100AA0002E304001D90041015308203E860002301B
:100AB000870040015908810001304101D30700300F
:100AC000D43DFF30BF07FF30C03D0130AE000030E5
:100AD000AF002C082D040319872D30304001D900B8
:100AE00041015308203E860002308700400159082A
:100AF000810001304101D3070030D43DFF30BF07F2
:100B0000FF30C03DFF30AC07FF30AD3D692D3808E8
:100B1000303E4001D90041015308203E860002309A
:100B2000870040015908810001304101D30700309E
:100B3000D43DFF30BF07FF30C03D4A084001A70049
:100B4000410149084001A600410148084001A500B3
:100B5000410147084001A400410158084001A30099
:100B6000410157084001A200410156084001A1007F
:100B7000410155084001A0008A31702280312308CC
:100B8000BD002208BC002108BB002008BA004101BA
:100B900046084001C100410145084001C000410133
:100BA00044084001BF00410143084001BE009A31A2
:100BB000492280313D084101C60040013C08410105
:100BC000C50040013B084101C40040013A08410111
:100BD000C30041304001A9002030A8000030A70028
:100BE0000030A600410158084001AD0041015708FE
:100BF0004001AC00410156084001AB0041015508DD
:100C00004001AA0096318726803129084101D80089
:100C1000400128084101D700400127084101D600C2
:100C2000400126084101D500FF30B007FF30B13D3B
:100C30000130CB070030CC3D4C08803A4001D90050
:100C400041013308803A40015902031D2A2E410117
:100C500032084B0203183A2E41015408803A4001F1
:100C6000D90080305902031D382E4B304101530208
:100C7000031CEB2C41012E082F04031D522E4001B2
:100C80006D1E522E2E30D90041015308203E8600A1
:100C90000230870040015908810001304101D3072B
:100CA0000030D43D41015308203E860002308700C9
:100CB000810165304106031D232F4F30CB000030EA
:100CC000CC004B08203E8600023087008101BA012B
:100CD000BB01D21F742E0130BA000030BB00D10915
:100CE000D209D10A0319D20A0230BD000030BE0079
:100CF000510852040319B22EFF304101CB07FF30D7
:100D0000CC3D0A30F1000030F2005208F4005108E6
:100D1000F3009E314B2680317108303E4001D900EE
:100D200041014B08203E86000230870040015908EF
:100D300081000A30F1000030F20041015208F40055
:100D40005108F30090311C2080317208D2007108E4
:100D5000D100FF30BD07FF30BE3DFF30BF07FF3081
:100D6000C03D782E3E08803A4001D90080305902BB
:100D7000031DBD2E013041013D0203187C2EFF30C2
:100D80004101CB07FF30CC3D3A083B04031DCA2E7E
:100D90002B30CB2E2D30A6000030A70026084001B6
:100DA000D90041014B08203E8600023087004001F7
:100DB00059088100FF304101BF07FF30C03DFF30BF
:100DC000CB07FF30CC3D40015808BF3ED900FF3073
:100DD00003180030DA0000305A021A3003195902A1
:100DE0000318F42E0130F52E0030DB00DC015B0827
:100DF0004101AA0040015C084101AB002A082B0414
:100E0000031D042F6530052F4530A8000030A900D0
:100E100028084001D90041014B08203E86000230DD
:100E20008700400159088100FF304101BF07FF30B2
:100E3000C03D4B08203EF1000230F2005308203E36
:100E40009A31DE22803120304001D9005908A800B3
:100E5000410140084001AA0041013F084001A900AA
:100E600041013C089F3169272908D5002808D40092
:100E70000800AB01AC01A401A501AA01AA0A7708E8
:100E80008400780885001200203A0319592F77084A
:100E90008400780885000008F73EA000FF300318A2
:100EA0000030A10000302102053003192002031890
:100EB000AA012A08A000A1012008A6002108A70075
:100EC0002608270403196E2F0130F7070030F83D7C
:100ED0003D2F0130A4000030A500A02F770884002A
:100EE000780885000008A000A1012108003A031934
:100EF0007A2FA42F20082B3A0319A02F063A0319A2
:100F0000692FA42F77088400780885000008A000C6
:100F10002C08F2002B08F1000A30F3000030F40036
:100F20009931F62187317208A20020087102A100D0
:100F3000031CA2032108303EAB000030223DAC0070
:100F40000130F7070030F83D770884007808850005
:100F50000008D03EA000FF3003180030A100003090
:100F600021020A30031920020318B82F0130B92FCB
:100F70000030A200A3012208A8002308A900280825
:100F80002904031D822F24082504031DD32F2B09B8
:100F9000A0002C09A100A00A0319A10A2008F7004B
:100FA0002108F80008002C08F8002B08F7000800BA
:100FB000F500710872040319F02F7535203E860084
:100FC000013087007108C03F7208C13F7308F40008
:100FD00075082C3E860001308700740881000800E7
:100FE0007535203E8600013087005A30C03F2730DB
:100FF000C13F75082C3E8600013087008101080042
:101000000134933040019F009D019C011D08430164
:10101000BE0040011C084301BD004E018C129030FF
:1010200040019E00080000303A05C20000303B0538
:10103000C30080303C05C4007F303D05C500450835
:10104000440443044204031D2D280030BD00003039
:10105000BC000030BB000030BA0000303E05C200CA
:1010600000303F05C30080304005C4007F3041059B
:10107000C5004508440443044204031D47280030CA
:10108000C1000030C0000030BF000030BE00BD1FF6
:1010900061280030C2000030C3000030C40080303E
:1010A000C5003A08C2023B08C33B3C08C43B3D08AC
:1010B000C53B4508BD004408BC004308BB004208CE
:1010C000BA00C11F7B280030C2000030C3000030CE
:1010D000C4008030C5003E08C2023F08C33B400840
:1010E000C43B4108C53B4508C1004408C000430853
:1010F000BF004208BE008030BD068030C1064108F6
:101100003D02031D080040083C02031D08003F0883
:101110003B02031D08003E083A02080074088039AB
:101120004001A0002008A8007435A0002008AA00F3
:10113000F31B2A142A080319AB282A0A031DA8281E
:101140000030F4000030F3000030F2000030F10015
:10115000F317F401B3280030F4000030F30000303E
:10116000F2000030F10078088039A0002008A900C2
:1011700029082806031D28177835A0002008A90093
:10118000F71B291429080319D328290A031DD0287D
:101190000030F8000030F7000030F6000030F500B5
:1011A000F717F801DB280030F8000030F7000030B6
:1011B000F6000030F5002A08290203182129281F0B
:1011C000E5288030A0002008A8062A08A0002008F2
:1011D000AB002908A0002008AA002B08A0002008C6
:1011E000A9007108A0002008AB007508A000200825
:1011F000F1002B08A0002008F5007208A0002008CC
:10120000AB007608A0002008F2002B08A000200800
:10121000F6007308A0002008AB007708A0002008A3
:10122000F3002B08A0002008F7007408A000200895
:10123000AB007808A0002008F4002B08A0002008CC
:10124000F800AB012908A000A1012108A3002A0889
:101250002002A200031CA3032308803AA4008030CC
:101260002402031D35291A302202031C692974083F
:1012700073047204710403193F29013040290030BE
:101280004001A0002008AB000030F4000030F30063
:101290000030F2000030F1002908A0002008AA0068
:1012A0006E292B1C59292B360138A0002008AB00D1
:1012B0005B290310AB0C7118AB170130A000F43799
:1012C000F30CF20CF10CA00B5F290130A0002008F8
:1012D000AA07400129082A02031C5129281B9F291B
:1012E0002A08031D7C290030F4000030F300003090
:1012F000F2000030F10008007508F1077608F23DB1
:101300007708F33D7808F43D741C192A2B1C8E29AC
:101310002B360138A0002008AB0090290310AB0C3D
:101320007118AB170130A000F437F30CF20CF10C7C
:10133000A00B94290130A0002008AA07192A7408DC
:10134000803AA0007808803A2002031DB12977086E
:101350007302031DB12976087202031DB1297508B5
:1013600071020318E929FF30A000FF30A100FF300F
:10137000A200FF30A30071087502A4007208763B3A
:10138000A5007308773BA6007408783BA7002408E3
:10139000A0072508A13D2608A23D2708A33D230854
:1013A000F4002208F3002108F2002008F100803048
:1013B000A0002008A806AB09AB0A2B08031DF129E1
:1013C0000130F1070030F23D0030F33D0030F43DD4
:1013D000F1297508F1027608F23B7708F33B7808AB
:1013E000F43B7408730472047104031D172A2B085C
:1013F000031D172A0030F4000030F3000030F20023
:101400000030F10008000130F135F20DF30DF40D5C
:10141000890B042AAB1B71142B1C102A0314112AEC
:101420000310AB0D2A080319172A0130AA02F31F73
:10143000032AA901AB1F242A2B087F39031971182D
:10144000222A242AA901A90A29080319502A0130AD
:10145000F1070030F23D0030F33D0030F43D741CE4
:10146000502A7108A0007208A1007308A200740835
:10147000A3000130A400A337A20CA10CA00CA40B64
:101480003B2A2308F4002208F3002108F200200878
:10149000F1002A0A0319502A0130A0002008AA07E7
:1014A0002A0A031D2A08031D602A0030F4000030B8
:1014B000F3000030F2000030F1002A080319A801FF
:1014C0002A1C642AF317682A7F30A0002008F3053D
:1014D0002A36A0002008F400A81F0800F41708000E
:1014E00023088039A8002808AD002335A800280863
:1014F000AF00A21B2F142F0803198B2A2F0A031DDC
:10150000892A0030A3000030A2000030A100003082
:10151000A000A217932A0030A3000030A2000030E0
:10152000A1000030A00027088039A8002808AD06D7
:101530002735A8002808AE00A61B2E142E08031974
:10154000AE2A2E0A031DAC2A0030A7000030A600E8
:101550000030A5000030A400A617B62A0030A7006E
:101560000030A6000030A5000030A4002E08031DA6
:101570002F08031DC42A0030A3000030A200003051
:10158000A1000030A00008002008A8002808F100F1
:1015900026089A31BF228A317208B9007108B80052
:1015A0003808A800A901AA01AB012B08B3002A083A
:1015B000B2002908B1002808B0003908A800A90124
:1015C000AA01AB012B08B7002A08B6002908B5000C
:1015D0002808B4002108A8002808F10025089A313D
:1015E000BF228A317208B9007108B8003808A80013
:1015F000A901AA01AB012808B0072908B13D2A08B2
:10160000B23D2B08B33D3908A800A901AA01AB01DE
:101610002808B4072908B53D2A08B63D2B08B73D70
:101620002208A8002808F10024089A31BF228A3134
:101630007208B9007108B8003808A800A901AA0109
:10164000AB012808B0072908B13D2A08B23D2B0894
:10165000B33D3908A800A901AA01AB012808B407C5
:101660002908B53D2A08B63D2B08B73D0830B035EE
:10167000B10DB20DB30D890B372B2108A800280836
:10168000F10024089A31BF228A317208B90071082A
:10169000B8003808B0073908B13D0030B23DB33D5D
:1016A0002008A8002808F10025089A31BF228A31B5
:1016B0007208B9007108B8003808B0073908B13DA0
:1016C0000030B23DB33D0830B035B10DB20DB30DB1
:1016D000890B642B2008A8002808F10024089A31FF
:1016E000BF228A317208B9007108B8003808B00703
:1016F0003908B13D0030B23DB33D2108A8002808AB
:10170000F10026089A31BF228A317208B9007108A7
:10171000B8003808B4073908B53D0030B63DB73DCC
:101720002208A8002808F10025089A31BF228A3132
:101730007208B9007108B8003808B4073908B53D17
:101740000030B63DB73D2208A8002808F100260861
:101750009A31BF228A317208B9007108B80038087E
:10176000A8003908A900AA01AB010830A835A90DC5
:10177000AA0DAB0D890BB62B2808B4072908B53D77
:101780002A08B63D2B08B73D3308A800A901AA01D5
:10179000AB012808B4072908B53D2A08B63D2B0837
:1017A000B73D0830B035B10DB20DB30D890BD22B5A
:1017B0002F082E07A800A901A90D2808823EB8000D
:1017C000FF30293DB900B61BFA2B0130B435B50DF9
:1017D000B60DB70D890BE62BB31B34140130B035B1
:1017E000B10DB20DB30D890BEF2BFF30B807FF30F1
:1017F000B93DE32BAE01B31F132CFF303005A80019
:10180000FF303105A900FF303205AA007F303305D3
:10181000AB002B082A042904280403193418112CBE
:10182000132CAE01AE0A2E0803193C2C0130B4076C
:101830000030B53D0030B63D0030B73D371C3C2C84
:101840003408A8003508A9003608AA003708AB00FC
:101850000130AC00AB37AA0CA90CA80CAC0B2A2C9D
:101860002B08B7002A08B6002908B5002808B400DC
:101870000130B8070030B93D3908803AA8008030FF
:101880002802031D452CFF303802031C512C7F30E9
:101890004001B7008030B6000030B5000030B40021
:1018A0007B2C40013908803AA80080302802031DB3
:1018B0005B2C013038020318682C00304001B7005F
:1018C0000030B6000030B5000030B400AD017B2C14
:1018D00040013808A8002808AF00FF30B405FF30E9
:1018E000B5057F30B6050030B7052F18B6172F366F
:1018F000A8002808B7002D08A8002808B704370852
:10190000A3003608A2003508A1003408A000080092
:101910004201DF0040015D0886008701403FDF0093
:10192000413FE0005F088400600885001200253A0E
:10193000031DDB2F5D0886008701013081074131DF
:101940000318810A4101E501E6014001ED01EE01C4
:10195000FF30EB00FF30EC004201CF01D001C72C7B
:101960006D145D088600870101308107413103183D
:10197000810AC72CED14B12C6D15B12CED15B12CCD
:101980006D16B12C01304201CF000030D000420171
:101990004F085004031DF22C40015D0886008701AA
:1019A000403FDF00413FE0005F08840060088500A1
:1019B0000008E100E2016208003A0319E02CC22CA1
:1019C0006108203A0319BE2C033A0319C02C083AC7
:1019D0000319BC2C063A0319B02C1D3A0319BA2C72
:1019E000C22CC72C40016D1CF92CFD30ED05FF30D9
:1019F000EE055D0886008701403FDF00413FE000C3
:101A00005F0884006008850012002A3A031D282D13
:101A10005D08860087010130810741310318810A82
:101A20005E08860087010108840085010230810775
:101A3000003F4101E500013FE600E61F6B2D40013C
:101A40006D144101E509E609E50A0319E60A6B2D63
:101A50005D0886008701403FF700413FF80087316D
:101A600039278C3178084101E6007708E500412DDF
:101A700040015D088600870101308107413103186C
:101A8000810A40015D0886008701403FDF00413F39
:101A9000E0005F088400600885000008D03EE10097
:101AA000FF3003180030E200003062020A300319F0
:101AB000610203185D2D01305E2D0030E300E4016A
:101AC00063084201D100400164084201D20051087C
:101AD0005204031D382D40015D0886008701403FF8
:101AE000DF00413FE0005F088400600885001200CD
:101AF0002E3A031DEA2DEB01EC015D0886008701FB
:101B00000130810741310318810A5D088600870191
:101B1000403FDF00413FE0005F088400600885002F
:101B200012002A3A031DA92D5D08860087010130A5
:101B3000810741310318810A5E0886008701010888
:101B40008400850102308107003FEB00013FEC007B
:101B5000EA2D5D0886008701403FF700413FF8000D
:101B6000873139278C317808EC007708EB00C12DDC
:101B700040015D088600870101308107413103186B
:101B8000810A5D0886008701403FDF00413FE00099
:101B90005F088400600885000008D03EE100FF3047
:101BA00003180030E200003062020A3003196102BB
:101BB0000318DC2D0130DD2D0030E300E401630863
:101BC0004201D300400164084201D4005308540488
:101BD000031DB82D40015D0886008701403FDF00EE
:101BE000413FE0005F088400600885000008E100D4
:101BF000E2016108F7006208F8009B315E238C3136
:101C00007708E30063084201DB005B080319472EF5
:101C100040015D0886008701403FDF00413FE00052
:101C200001305F07840060080318600A850000081F
:101C3000E100E2016108F7006208F8009B315E23D1
:101C40008C317708E30063084201DC005C0803196B
:101C5000472E40015D0886008701403FDF00413F7D
:101C6000E00002305F07840060080318600A850006
:101C70000008E100E2016108F7006208F8009B310A
:101C80005E238C317708E30063084201DD00663093
:101C90005B06031D942E40015D0886008701403FCE
:101CA000DF00413FE0005F08840060088500000815
:101CB000E10061084201DE0040015D088600870105
:101CC0000130810741310318810A5E0886008701CF
:101CD00001088400850104308107003F4201D700DC
:101CE000013FD800023FD900033FDA005A08400103
:101CF000D700420159084001D6004201580840016E
:101D0000D500420157084001D40042015E0840015D
:101D1000DF005F08D80042015F0880315720550876
:101D2000DE005408DD0008001430F100A830F20095
:101D30000230F3000030F4005B3090316D208C31C4
:101D400071087204031D2E2F40015D088600870173
:101D5000403FDF00413FE00001305F078400600842
:101D60000318600A85000008E10061084201DE00F6
:101D700040015D0886008701403FDF00413FE000F1
:101D80005F088400600885000008BF3EE100FF3066
:101D900003180030E200003062021A3003196102B9
:101DA0000318D42E0130D52E0030E300E40163087F
:101DB0004201D500400164084201D600550856048E
:101DC0000319F42E40015E08860087010108840093
:101DD000850104308107003F4201D700013FD80050
:101DE000023FD900033F052F40015E0886008701AE
:101DF00001088400850104308107003F4201D700BB
:101E0000013FD800023FD900033FDA0040015D08DE
:101E1000860087010230810741310318810A42019F
:101E20005A084001D700420159084001D60042013A
:101E300058084001D500420157084001D400420132
:101E40005E084001DF005F08D80042015F08803172
:101E500057205508DE005408DD00080040015D08E9
:101E600086008701403FDF00413FE0005F088400BB
:101E7000600885001200783A03194D2F5D0886002E
:101E80008701403FDF00413FE0005F0884006008B9
:101E900085001200583A031DA72F5D0886008701B0
:101EA000403FDF00413FE0005F088400600885009C
:101EB0000008E10061084201DE0040015D08860083
:101EC00087010130810741310318810A5E088600CD
:101ED000870101088400850102308107003F42012B
:101EE000C700013FC800C901CA01CB01CC01CD0127
:101EF000CE0147084001B100420148084001B2004C
:101F0000420149084001B30042014A084001B400BF
:101F100042014B084001B50042014C084001B600A7
:101F200042014D084001B70042014E084001B8008F
:101F300042015E084001DF005F08B90042015F080E
:101F400095313C253208DE003108DD0008005D08CF
:101F500086008701403FDF00413FE0005F088400CA
:101F6000600885001200253A031DD02F5D08860009
:101F700087010130810741310318810A2530F400BF
:101F80000030F50042015F084001DF005F08F60005
:101F90009C31F12401304001DD000030DE000800FA
:101FA0005D08860087010130810741310318810AED
:101FB000DD01DE0108005D0886008701403FDF008B
:101FC000413FE0005F088400600885000008E100F0
:101FD000E2016108F4006208F50042015F08400177
:101FE000E3006308F6009C31F1248C3140015D0868
:101FF000860087010130810741310318810ACA2F09
:10200000F501F50A203071067204031914287108CD
:10201000F73EF300FF30723DF400003074020530EB
:10202000031973020318F5017508F300F40173082E
:10203000F1007408F2000800F701F21F2628F109E8
:10204000F209F10A0319F20AF701F70AF41F31281D
:10205000F309F409F30A0319F40A0130F5007508CD
:10206000F706F801F9017108720403196028F601F6
:10207000F60AF21B45280130F135F20D890B3C2898
:102080000130F5007508F60739280130F835F90DEB
:10209000890B462872087402031D502871087302C8
:1020A000031C57287108F3027208F43B78140130BE
:1020B000F236F10C890B58280130F602031D452831
:1020C000770803196828F809F909F80A0319F90AC1
:1020D0007908F2007808F1000800F6007608F500AB
:1020E0007508F9007208F8007108F7000130F30272
:1020F0000030F43B730A031DA828740A031DA828A6
:10210000F101F201080077088400780885001200C8
:102110000319AF28730874040319AF2877088400E3
:10212000780885000008F5007908860001308700EE
:1021300001087506031DAF280130F5007508F90781
:102140000130F7070030F83D0130F3020030F43B76
:1021500079088600013087000108031D832879086B
:102160008600013087007708840078088500000821
:102170000102F100F201031CF2030800A731CD2790
:102180009031003A031DCE28F428A7318327080098
:10219000A73187270800A7318F27080042012F08A1
:1021A0004001A0002008FA000630203E86000130E1
:1021B0008700413F8A00403F0A0090314001A10062
:1021C000A2012208003A0319E628CB282108013A87
:1021D0000319CB28033A0319C528013A0319C82863
:1021E000073A0319CB28CB2842013C101730203E78
:1021F000860001308700403F84008501810A000885
:10220000A731AF27903101304201B8020030B93B0D
:1022100038083904031D0E29063008000330080071
:10222000A60026088600013087000103031D392916
:102230009A312D229131260A8600013087007108DB
:10224000C03F7208C13F2108A3002008A200A235A8
:10225000A30DA235A30D2608033E8600013087009A
:102260002208C03F2308C13F2608860001308700AE
:1022700081012608033E860001308700403FA2000E
:10228000413FA300260A8600013087009A312D22A3
:102290009131403F7102A400413F723BA5002308E9
:1022A0002502031D552922082402031C5D29260846
:1022B0008600013087008101810A260886000130EE
:1022C00087000108080040019A0109309900960131
:1022D00021309700980107309500FD309100D630ED
:1022E0009200FF309300B630940036307E01D90062
:1022F000FF30CE000630C3000730E400FD30B800E8
:102300000830DA00E501C401B901CF01E601BA01E4
:10231000C501D0010830DB00FF30BB00FF30C60034
:10232000FF30D100FF30DC000730E700FF30BC0099
:10233000FF30C700FF30D200FF30DD000F30E80073
:102340000C307D01CB000F30C5001F30C9001530A7
:102350007E019E0014309F0010309D0016309B00BF
:102360001730AE000E307D01C6000B30C8000800EB
:102370000310730D740DF5007508FB007B08031D39
:10238000CA290030F4000030F3000030F2000030C1
:10239000F10008007108F5007208F6007308F700F4
:1023A0007408F8001F30F836F70CF60CF50C890BA2
:1023B000D3297508F9007908FA00F317FF30F10501
:1023C000FF30F205FF30F3050030F4059630FB02D4
:1023D000FB1FFD297B08803A973E031CC129013071
:1023E000F436F30CF20CF10C890BF0290130F500F6
:1023F0007508FB0703190E2AEF2920307B0203180A
:10240000C1297B0803190E2A0130F135F20DF30DB5
:10241000F40D890B052A0130FB02012A7A08031901
:102420000800F109F209F309F409F10A0319F20AA3
:102430000319F30A0319F40A080042014408400191
:10244000A500420143084001A400420142084001A6
:10245000A300420141084001A2007408A5007308CE
:10246000A4007208A3007108A2002208F500230846
:10247000F6002408F7002508F8001730F836F70CA6
:10248000F60CF50C890B3E2AFF307505A0000030D4
:102490007605A10020082104031D6D2A2208F500FD
:1024A0002308F6002408F7002508F8000130F53568
:1024B000F60DF70DF80D890B572A78087704760486
:1024C0007504031D682A0230F1000030F200080094
:1024D0000330F1000030F2000800200A2104031D3F
:1024E000902A2208F5002308F6002408F7002508A2
:1024F000F8000930F535F60DF70DF80D890B7A2A3D
:102500007808770476047504031D882A0130892A27
:102510000030F900FA017908F1007A08F2000800A9
:102520000430F1000030F2000800A0002008031D74
:10253000F41FAA2A7109A2007209A3007309A4005A
:102540007409A500A20A0319A30A0319A40A03190E
:10255000A50AB22A7408A5007308A4007208A30093
:102560007108A2007408730472047104031DC12A67
:102570000030F4000030F3000030F2000030F100D1
:1025800008009630F5007508A100FE3025050319F6
:10259000E82A0130F5007508A1070130A536A40C22
:1025A000A30CA20C890BCE2AC52A0130F5007508B0
:1025B000A1070130A2070030A33D0030A43D003048
:1025C000A53D0130A536A40CA30CA20C890BE22A70
:1025D000FF3025050319FA2AD52A02302102031CEF
:1025E000FC2A0130A1020130A235A30DA40DA50DD6
:1025F000890BF42AA41FED2A2118062BFF30A2050F
:10260000FF30A3057F30A405FF30A5050310A10C02
:102610002108F500F601F701F8011830F535F60D3F
:10262000F70DF80D890B0E2B7508A2047608A3048C
:102630007708A4047808A5042008031DF41F212BA3
:10264000A5172508F4002408F3002308F200220847
:10265000F1000800420140084001D30042013F0858
:102660004001D20042013E084001D10042013D0834
:102670004001D0004308D3004208D2004108D100F5
:102680004008D0005008C4005108C5005208C600D8
:102690005308C7001730C736C60CC50CC40C890BCD
:1026A0004B2BFF304405C80000304505C9004808E1
:1026B000813ECE00FF30493DCF004F08803AC40034
:1026C00080304402031D662B17304E0203180800A9
:1026D0004001CF1BC02BFF30C400FF30C5007F304E
:1026E000C6000030C7004E0A792BC737C60CC50C90
:1026F000C40C890B752B4708CD004608CC00450853
:10270000CB004408CA0050084A05C40051084B05D4
:10271000C50052084C05C60053084D05C7004708C0
:10272000460445044404031908005008C400510835
:10273000C5005208C6005308C7001F30C736C60C74
:10274000C50CC40C890B9E2B44080319AF2B4A08F7
:10275000D0074B08D13D4C08D23D4D08D33D4A0926
:10276000C4004B09C5004C09C6004D09C700440808
:10277000D0054508D1054608D2054708D305F32BF7
:102780005008C4005108C5005208C6005308C700CD
:102790001F30C736C60CC50CC40C890BC92B4408A6
:1027A000031DD62B0030D3000030EE2B5008C400A0
:1027B0005108C5005208C6005308C7000130C4358F
:1027C000C50DC60DC70D890BDF2B47084604450410
:1027D00044040319F32BBF30D3008030D200003003
:1027E000D1000030D0005308C3005208C200510885
:1027F000C1005008C00008004301B4019931DB2139
:1028000093314301B601B60A400119108B170B171B
:102810000030AC001030AD00AE019831C9209331CA
:1028200002304001AC001030AD00AE019831C9203B
:1028300093316400B32C9B313D239331003A03194B
:10284000C52C4301BB01BC01B401B40A02304001F4
:10285000B4001030B500B601B701B70A9D31CC25E0
:102860009331C52C43013C084001AD0043013B08B6
:102870004001AC0043013B084201E0006008400118
:10288000AE009831DE20933101304301BB070030A8
:10289000BC3D10303C02003003193B02031CC52C28
:1028A000BB01BC0102304201E00060084301B400FA
:1028B00062304101DC00A030DD0099310821933104
:1028C000C52C43013C084001AD0043013B084001D9
:1028D000AC009B311D2393314201E00060084301AD
:1028E000B50035083B060319912C38304101DC0056
:1028F000A030DD0043013C084101DF0043013B08FB
:102900004101DE00430135084201E000E1016008B9
:102910004101E000420161084101E10099310821D3
:10292000933101304301BB070030BC3D10303C0205
:10293000003003193B02031CC52CBB01BC01B401D0
:1029400002304001B4001030B500B601B7019D312E
:10295000CC25933174304101DC00A030DD00993189
:1029600008219331C52C430134084201E000E10104
:102970006108003A0319BD2C1B2C6008013A0319A9
:10298000322C033A0319612C1B2CF4304001A000B7
:102990000130A100B630913110219331003A031972
:1029A000292D0230B4001030B500B60102304201CA
:1029B000E00060084001B7009D31CC259331B03074
:1029C0009D319325933120304101DC00A030DD00A2
:1029D000430130084201E000E10160084101DE00EE
:1029E000420161084101DF00430131084201E20078
:1029F000E30162084101E000420163084101E10096
:102A0000430132084201E400E50164084101E200AB
:102A1000420165084101E3009931082193314F30AB
:102A20004101DC00A030DD009E31D7269331430800
:102A30004101E100400142084101E000400141083C
:102A40004101DF00400140084101DE0099310821C9
:102A50009331A731F8279331003A0319192C983193
:102A600003209331003A0319192C9C310C24933123
:102A70009B31C3239331292D4001C600EC1B442D0B
:102A8000FD30ED05FF30EE056C08803ABA0080306D
:102A90003A02031D4D2D01306B020318552D0130F4
:102AA0004001C7000030C8005A2D40016C08C80022
:102AB0006B08C700410166084001CA004101650872
:102AC0004001C9006D1E682DFE30C907FF30CA3DA8
:102AD0003108CB003208CC003308CD003408CE00DA
:102AE0003508CF003608D0003708D1003808D200AA
:102AF0004F30D3000030D4004401EF01282EFF30C6
:102B00004001D307FF30D43D0F304B05D5000030D6
:102B10004C05D6005608803ABA0080303A02031DB0
:102B2000932D0A305502031C992D40015508573E3C
:102B30009C2D40015508303ED5000030563DD60052
:102B40003908BF3EBA00FF3003180030BB00003028
:102B50003B021A3003193A020318B02D0130B12D8F
:102B60000030BC00BD013C08C2003D08C300420863
:102B700043040319E62D20305504BA0000305604F2
:102B8000BB003A089F3EBC00FF303B3DBD0000301B
:102B90003D021A3003193C020318D02D0130D12D0B
:102BA0000030BE00BF013E08C4003F08C500440815
:102BB00045040319E62D5608F8005508F7009B3127
:102BC0007F2395317808D6007708D5005508BA00DC
:102BD0005308203E8600023087003A088100FF300B
:102BE000C707FF30C83DFF30C907FF30CA3D4B3033
:102BF000860000308700403FBA00413FBB00423FA3
:102C0000BC00433FBD00443FBE00453FBF00463FC0
:102C1000C000473FC10004304001C136C00CBF0CAA
:102C2000BE0CBD0CBC0CBB0CBA0C890B0C2E4001AD
:102C30004108D2004008D1003F08D0003E08CF0034
:102C40003D08CE003C08CD003B08CC003A08CB0044
:102C500040015408803ABA0080303A02031D322EF7
:102C600002305302031C592E40014B084C044D0402
:102C70004E044F04500451045204031D7F2D480894
:102C8000803ABA0080303A02031D482E01304702D4
:102C900003187F2D40014A08803ABA0080303A027A
:102CA000031D542E01304902031C592E4001ED181A
:102CB0007F2D40016D1E762EFF30D307FF30D43DAF
:102CC0003908BA005308203E8600023087003A08CF
:102CD0008100FF30D307FF30D43D3030BA005308B5
:102CE000203E8600023087003A0881005308203ECB
:102CF000BA003A08A8004A08AA004908A9004608EC
:102D00009F3169272908B2002808B10008002D0862
:102D10008039AE002E08B7002D35AE002E08BE005B
:102D2000AC1B3E143E080319A32E3E0A031DA02E21
:102D30000030AD000030AC000030AB000030AA0025
:102D4000AC17AD01AB2E0030AD000030AC00003050
:102D5000AB000030AA0029088039AE002E08B70663
:102D60002935AE002E08BF00A81B3F143F080319E9
:102D7000C72E3F0A031DC42E0030A9000030A80052
:102D80000030A7000030A600A817A901CF2E003000
:102D9000A9000030A8000030A7000030A6002908D4
:102DA000280427042604031DEE2E0030AD00003059
:102DB000AC000030AB000030AA008030AC047F30A3
:102DC000AD043708AE002E08AD042D08A9002C086C
:102DD000A8002B08A7002A08A60008003E08031D2B
:102DE000FA2E0030A9000030A8000030A700003003
:102DF000A60008003E08AE00AF012F08B1003F0852
:102E00002E02B000031CB10330087F3EB800003032
:102E1000313DB9002D08B6002C08B5002B08B400D0
:102E20002A08B3000030AD000030AC000030AB0029
:102E30000030AA000030BD000030BC000030BB00F4
:102E40000030BA00BF011A303F0203185F2F3F085D
:102E50000319412F0130B335B40DB50DB60D890BF3
:102E60002B2F0130AA35AB0DAC0DAD0D890B322FD8
:102E7000BD1B2A140130BA35BB0DBC0DBD0D890B2D
:102E80003B2F29083602031D4F2F28083502031D4A
:102E90004F2F27083402031D4F2F26083302031C2F
:102EA0005A2F3D172608B3022708B43B2808B53B24
:102EB0002908B63B0130AE002E08BF07232F360885
:102EC000350434043304031D3A14AC1B7C2F013049
:102ED000AA35AB0DAC0DAD0D890B682FBD1B2A14A7
:102EE0000130BA35BB0DBC0DBD0D890B712FFF3004
:102EF000B807FF30B93D652FBF01BD1F952FFF30CB
:102F00003A05AE00FF303B05AF00FF303C05B00096
:102F10007F303D05B100310830042F042E04031921
:102F20002A18932F952FBF01BF0A3F080319BE2F00
:102F30000130AA070030AB3D0030AC3D0030AD3D64
:102F40002D1CBE2F2A08AE002B08AF002C08B000A5
:102F50002D08B1000130B200B137B00CAF0CAE0C8F
:102F6000B20BAC2F3108AD003008AC002F08AB001D
:102F70002E08AA000130B8070030B93D3908803A60
:102F8000AE0080302E02031DC72FFF303802031C15
:102F9000D62FFF304001B8000030B9000030AD003E
:102FA0000030AC000030AB000030AA00400139080E
:102FB000803AAE0080302E02031DE02F013038022F
:102FC0000318EE2F4001B801B9010030AD00003008
:102FD000AC000030AB000030AA00B7014001380857
:102FE000AE002E08BE003E1CF72FAC17FB2F7F3023
:102FF000AE002E08AC053E36AE002E08AD00E12E28
:1030000043019A12080041016C0803190928013094
:1030100008000030080042013C140314360DA731AB
:10302000AF27053008004F019601970198019901DB
:103030009A019B01080043018F0108309000910123
:103040004F308D0090120800603051018D008F01CB
:103050009101063093009201080074087304720411
:103060007104031908008030F40608004201BC1CFA
:103070000800A7319F2798319C3135249831362894
:103080004301901A08008F010830900091014F30E1
:103090008D0090160800F1007108430196004E0162
:1030A0000F1D4F280F114301160808007708F20082
:1030B0007608F1007808F9007908F30000308731CC
:1030C000D82708007708F2007608F1007808F900A0
:1030D0007908F30002308731D8270800F30073081D
:1030E0009E00931713131314131874280D08F2007D
:1030F0000C08F1000800F4004201BC1D080074082F
:10310000F3007308B7007208B9007108B800BC1169
:1031100008000230F1000030F2007A0898317B207C
:1031200098310030F600F700F8019831562004304D
:1031300008000130F1000030F2007A0898317B205D
:1031400098310030F600F700F8019831562002302F
:1031500008000230F1000030F2007A0898317B203C
:1031600098310030F600F700F8019831562002300F
:1031700008000130F1000030F2007A0898317B201D
:1031800098310030F600F700F801983156200430ED
:103190000800B0012C08AF002F08B1002E08AF00C6
:1031A0002F08B2003030AF002F08A8000330A9006C
:1031B0000030AA0053309B31A0230800B0012C0836
:1031C000AF002F08B1002E08AF002F08B20030303A
:1031D000AF002F08A8000330A9000030AA00533028
:1031E0009B31A02308000B307D01C8001F30C900AF
:1031F00016307E019B001730AE004030430199002D
:103200009A01013097004001921143019A1208007F
:10321000DE304001EA006A084101E4005D08400137
:10322000E60041015C084001E500E430EA006A087C
:10323000E70000309C31BD2408007A088600870131
:10324000403FF100413FF2007A08023E86008701CC
:10325000010898317B2099310030F600F700F80121
:1032600098315620023008007108D03EF300FF303C
:10327000723DF400003074020A300319730203181F
:103280004329013044290030F500F6017508F100AA
:103290007608F20008007108BF3EF300FF30723D6F
:1032A000F400003074021A300319730203185A290B
:1032B00001305B290030F500F6017508F100760851
:1032C000F200080071089F3EF300FF30723DF400E9
:1032D000003074021A300319730203187129013087
:1032E00072290030F500F6017508F1007608F20049
:1032F000080042011908F0007C08A83E8600013051
:103300008700700881000130F0007008FC07083069
:103310007C020318FC010130F00070084101E9074C
:103320000800F5007508F3007308F40075088600BE
:103330000230870001080319A2290130F300730845
:10334000F507962974087502F100F201F11BF203EA
:103350000800F201F20A4201BC18C0293C11FF30FA
:10336000F1007108B600A7315F279931A7315827BE
:103370009931A731622742013B08F1007108F20040
:103380007208080042018E018F01900191019201A3
:1033900093018D0141019E019B019C0194019501C6
:1033A0009601970103309A00990198019430930097
:1033B00010309D00080098311320993198311B205E
:1033C00099319831F32099319131632199319831B4
:1033D00024209931A731AB2799319931C2219931F4
:1033E0008831012099319E310B260800F501F60144
:1033F000711CFE297308F5077408F63D0130F3359A
:10340000F40D890BFF290130F236F10C890B042AE7
:1034100071087204031DF8297608F2007508F1009E
:103420000800AB0040012B089D315C259A31003A21
:103430000319122A40012A08F2002908F10028087D
:1034400098317B209A31A731A3279A319931A9214C
:103450009A31013A031D0800262A1C08F30073085C
:10346000FA001D08F3007308FB007A08F300F4016A
:103470007B08F500F6017508F600F501730875077D
:10348000F8007408763DF9007908F2007808F10038
:1034900008008030BD064108F4004008F3003F08F2
:1034A000F2003E08F1003D08F8003C08F7003B0838
:1034B000F6003A08F50088318E207408BD007308C4
:1034C000BC007208BB007108BA000800203071040B
:1034D000F30000307204F40073089F3EF500FF30E3
:1034E000743DF600003076021A3003197502031895
:1034F0007B2A01307C2A0030F700F8017708F100C0
:103500007808F2000800403041016C0203189E2A3E
:103510006A08A03E860002308700010842019A0036
:103520000130F00070084101EA0740306A020318D8
:10353000EA010130F0007008EC0708004E01191292
:1035400008004001A600A701A70A4201BC18BC2A36
:10355000BC144001A70126080319B22A4201BA018E
:10356000BA0AB72A0230FB007B084201BA00A73131
:1035700065279A3198313620400127080800F90064
:10358000F501F6017108F300F4017308F7007408FF
:10359000F800791CCF2A7708F5077808F63D013046
:1035A000F735F80D890BD02A0310F90C7908031DA3
:1035B000C92A7608F2007508F1000800F8007208C0
:1035C000F6007108F5007808F3007308F700770833
:1035D000860002308700F70A7608F4007508F300C9
:1035E000F50A0319F60A73088400740885000008B8
:1035F000C03F890803190800E72AAF012C08AE0074
:103600002E08B0002F30AE002E08A8000230A9000E
:103610000030AA0053309B31A0239A312F30400153
:10362000AE002E08A8000130A9000030AA005330D7
:103630009A31112240012F080800AF012C08AE007A
:103640002E08B0002F30AE002E08A8000230A900CE
:103650000030AA0053309B31A0239B312F30400112
:10366000AE002E08A8000130A9000030AA00533097
:103670009A31112240012F08080040010F0CF1007F
:10368000F10C710C013941016D060319582B6D03C2
:10369000031D552B0130F1007108E7076530670203
:1036A000031C5C2BED0101300800ED01ED0A5C2BE1
:1036B000670803195C2BE701003008007708BF3E5C
:1036C000A000FF30783DA100003021021A3003191C
:1036D000200203186D2B01306E2B0030A200A301D5
:1036E0002208F9002308FA0079087A04031908006F
:1036F00020307704F70000307804F80008007708DD
:103700009F3EA000FF30783DA100003021021A301A
:103710000319200203188E2B01308F2B0030A200DA
:10372000A3012208F9002308FA0079087A04031992
:1037300008005F307705F70000307805F8000800D2
:10374000AB0040012B089D315C259B31003A0319E9
:10375000A12B40012A08F2002908F100280898311D
:103760007B209B310030F600F700F8019831622091
:103770009B31A731A7279B319931A9219B31013A70
:10378000031D0800BC2BF20041016C080319C42B77
:103790004E01191ACF2B720842019A00E42B19121C
:1037A0007208F10041016B08A03E860002308700DC
:1037B000710881000130F1007108EB0740306B02A5
:1037C0000318EB010130EC024E0119160800A700A6
:1037D000A501A60125082707A100210886000230BF
:1037E00087000108A2002208A40024080319080089
:1037F0002408A100A2012108F4002208F5002008F5
:10380000A3002308F6009C31F1249B3101304001D4
:10381000A5070030A63DEA2B690803190C2C4001CE
:103820006F08A03E8600013087000108F100710892
:103830004101E80040016F08A83E86000130870082
:103840000108F1007108F2000130F1007108EF0782
:1038500008306F020318EF014E0199120130410147
:10386000E9024E01991672080800A7315F279C31C2
:1038700042013C1C472CA731CD279C31003A03194B
:10388000472C0F304001A30023084201BA00420137
:103890003A084001A300A401A335A40D003023077A
:1038A0008400A030243D8500013F8A00003F0A00CB
:1038B0009C314001A50025084201BA0008004201E0
:1038C000BC156C2CA7318B270800A7317427033057
:1038D0000800A7318F2708002C084001A00020080D
:1038E000FA00420121088A0020080A009C314001A8
:1038F000A100A2012208003A03197F2C692C21089B
:10390000013A0319692C033A0319622C013A03198D
:10391000622C073A0319652C692C080042013C10FF
:1039200002304001A00020084201BB009D2CA731BD
:103930008B270800A7318F2708002E084001A00020
:103940002008FA000430203E860001308700413F05
:103950008A00403F0A009C314001A100A2012208D8
:10396000003A0319B42C9A2C2108023A0319972C17
:10397000013A0319972C9A2C08004101D900400103
:1039800066084101DB00400165084101DA0042019F
:10399000C501C60141015A0884005B088500120078
:1039A0000319E82CDA304001E8006808DD006708F8
:1039B000E9006908DE00410159088C3188249C31F6
:1039C0005D084201C50740015E084201C63DCA2CA0
:1039D000420146084001E600420145084001E50079
:1039E00008007608031D7608031DFA2C7408A73119
:1039F000C82708007608033E8600870116000104E8
:103A000003191D2D7608033E86008701403FF7000D
:103A1000413FF800760A86008701403FF900413FA8
:103A2000FA007A08803AFB007808803A7B02031D8E
:103A30001B2D7708790203180800760A8600870193
:103A40000130810741310318810A08007C08A03E3B
:103A5000860001308700810142011D1D3B2D7C083D
:103A6000A03E8600013087008114430144088A008B
:103A700043080A009D3142019D1C4A2D7C08A03E4E
:103A80008600013087000115430142088A00410881
:103A90000A009D317C08A03E8600013087000108A5
:103AA0000319592D430140088A003F080A009D313F
:103AB0000800993179210800F200F301F30A42016C
:103AC0003C19912D7208F1007108B600BC103C152C
:103AD0003C100E30F1007108BA00F430B40001302F
:103AE000B500BC155A30A0002730A100AC015A30F7
:103AF000A2002730A300AD015A30A4002730A50052
:103B0000AE015A30A6002730A700AF010230A8004E
:103B10000030A900B001A7315F279D3198314020C6
:103B2000F30173080800F60000309F31B3279D3180
:103B3000400117109F3098314B209D31FF30983154
:103B40004B209D31F500760886000130870075080E
:103B500081000130F5007508F607FF3098314B20E1
:103B60009D31F500760886000130870075088100D8
:103B70000130F5007508F607FF3098314B209D3174
:103B8000F500760886000130870075088100400145
:103B900017149831002008003508AD003408AC0037
:103BA0009A31FD229D31B8003808BA003703031D51
:103BB000E52D0130B800360ADE2DB835890BDD2D34
:103BC0003808B9003908BA04002E3708031DF52D4E
:103BD0000130B800360AED2DB835890BEC2D3808C8
:103BE000FF3AB9003908BA05002E0130B800360A8C
:103BF000FA2DB835890BF92D3808B9003908BA06FD
:103C00003508AD003408AC003A08B8003808AE00FA
:103C10009831C92008004E0199122630F1001D305C
:103C2000F200A731DF279E314E0119128330F100D7
:103C30001A30F200A731E5279E3108309F009030FE
:103C40009D0024309E0040309B0003309C00573084
:103C5000F1002730F200A731D9279E317730F100EB
:103C60002730F200A731C3279E315C30F1002730A6
:103C7000F200A731BE274101E801EB01EA01403023
:103C8000F3007308EC00FC014001EF014101E90180
:103C90004E0199160800F701F41F552EF309F40997
:103CA000F30A0319F40AF701F70AF21F5C2EF1096F
:103CB000F209F10A0319F20A710872040319832E3A
:103CC000F601F60AF21B6E2E0130F135F20D890B6A
:103CD000652E0130F5007508F607622E7208740231
:103CE000031D742E71087302031C7A2E7108F302EF
:103CF0007208F43B0130F236F10C890B7B2E013057
:103D0000F602031D6E2E770803198B2EF309F409B2
:103D1000F30A0319F40A7408F2007308F1000800AA
:103D2000A73171279E314001A0004201370886006B
:103D300087014001200881000130A00020084201D5
:103D4000B7070130B8020030B93B3808390403190D
:103D5000AD2EA7317F2705300800BC15B52EA73141
:103D60009B270800A731972708002C084001A000D6
:103D70002008FA00420121088A0020080A009E312A
:103D80004001A100A2012208003A0319C82EB22E58
:103D90002108013A0319B22E033A0319AF2E013A52
:103DA0000319AF2E073A0319B22EB22E08001930AC
:103DB00098316E209E3171084001C4007208C50020
:103DC000C601C7010B30C435C50DC60DC70D890B23
:103DD000E32E0A30F900C737C60CC50CC40CF90B2A
:103DE000EB2E7030C407FE30C53DFF30C63DFF30BE
:103DF000C73D4130A9009C30A8000030A70000302A
:103E0000A6004708F4004608F3004508F2004408FD
:103E1000F1000130923195229E317408AD00730893
:103E2000AC007208AB007108AA00963187262908F9
:103E3000C3002808C2002708C1002608C0000800E7
:103E4000003071054001A00000307205A1008030F3
:103E50007305A2007F307405A30023082204210407
:103E60002004031D3B2F0030F4000030F30000302D
:103E7000F2000030F10000307505A000003076053A
:103E8000A10080307705A2007F307805A3002308C9
:103E9000220421042004031D552F0030F8000030B7
:103EA000F7000030F6000030F50078087406031DB6
:103EB000632F77087306031D632F76087206031DB0
:103EC000632F750871060319672F03100800031488
:103ED00008004001B0006D1C752F3008AB002B08A6
:103EE000A00028089B31E7239F31AA1B7C2F2A08BA
:103EF000AF002908AE007E2FAE01AF01AC01AD01CD
:103F00002D08803AAB002F08803A2B02031D8A2F20
:103F10002E082C0203189E2F2030F4000030F500EC
:103F200040013008AB002B08F6009C31F1249F3192
:103F300001304001AC070030AD3D802F40016D18CD
:103F4000A92F3008AB002B08A00028089B31E723DD
:103F50009F312808993191212E087107A8002F0858
:103F6000723DA9000800F40043019A1A0800740881
:103F7000F100F201F135F20DF135F20D013071076A
:103F80008400A830723D8500000899007408F10093
:103F9000F201F135F20DF135F20D003071078400B8
:103FA000A830723D850000089A009B017408F1005A
:103FB000F201F135F20DF135F20D02307107840096
:103FC000A830723D8500000897007408F100F201E6
:103FD000F135F20DF135F20D033071078400A83090
:103FE000723D85000008F300F30DF30DF30D400161
:103FF00012087306F7397306920043019A160800F7
:10400000B43427340B341834F1342734BE3410342C
:1040100090341E34D33427345F341C348334273433
:10402000873427348B3427348F3427349334273420
:10403000973427349B342734B93427348E341C34D6
:104040000A3446346C34613473346834203449346F
:1040500044343A342034253430343234583425341E
:104060003034323458342534303432345834003417
:104070000A345334523441344D342034453472348C
:1040800072346F347234203425343034343458343C
:104090003A342034253430343234583400340A343D
:1040A000543465346D34703465347234613474342E
:1040B0007534723465343A34203425342E34313436
:1040C000663400340A3457347234693474346534D5
:1040D00020345334523441344D343A34203444344F
:1040E0006F346E34653400340A34523465346134CC
:1040F000643420345334523441344D343A3420340F
:0A41000044346F346E34653400342B
:104EAE000800191008000130080099317921080016
:104EBE004E010F1008004301901208004301111417
:104ECE000800430191140800430111150800430125
:104EDE009115080043010C0808004E010F1408003C
:104EEE0042011D121D1608004301911611160800ED
:104EFE004301911211160800A731682701300800EE
:104F0E00A731682702300800A73168270130080052
:104F1E00A7316B2700300800A7317F270530080026
:104F2E00A7317B270A300800A7317B2709300800FC
:104F3E004E010F1808009F2F01309A31A122080050
:104F4E0000309A31A1220800823052018C000800F4
:104F5E00F100710843018C0008004201BC10BB0136
:104F6E000E3008004201BC10BB010E300800720862
:104F7E00C0007108BF0008007208C2007108C100AD
:104F8E000800F30073089B31C32308004301110E80
:104F9E00890C890C0139080042013C10A7316E279B
:104FAE000430080072084301C4007108C3000800F1
:104FBE0072084301C6007108C5000800720842015C
:104FCE00E7007108E6000800640080010131890BDA
:104FDE00EC2F003442013C143635A731AF27033095
:104FEE000800410169080319FE2F01300800003046
:104FFE000800003440340134003449344E34463411
:10500E0000344E3441344E34003469346E346634D8
:10501E0000346E3461346E3400346C3466340034D3
:020000040001F9
:0A000E00EC3FFF3FFF07FF3FFF3FFD
:00000001FF
