:0400000080311E2805
:100008007E1480310B1F1C284E01191A0F1E13284D
:10001800410153088A0052080A0080311C28991AA5
:100028008F1E1C28410151088A0050080A0080319F
:100038007E10090080312028833136238031EF007B
:10004800FC012030840000308500333083310023E8
:100058008031A030840000308500283083310023AF
:100068008031203084000130850040308331002306
:100078007E1040018131B029DA00530886008701DB
:10008800403FD500413FD6005508840056088500FA
:100098001200253A031D9228530886008701013073
:1000A800810741310318810AC701C801CB01CC017E
:1000B800FF30C900FF30CA00530886008701403F5F
:1000C800D500413FD6005508840056088500120027
:1000D800253A031D872853088600870101308107C8
:1000E80041310318810A2530F4000030F5005A0820
:1000F800D5005508F6008131492101304001D3006F
:100108000030D400080053088600870101308107B9
:1001180041310318810AD301D4010800530886002D
:100128008701403FD500413FD60055088400560856
:1001380085000008D700D8015708F4005808F500D2
:100148005A08D9005908F600813149218031400107
:100158005308860087010130810741310318810A5D
:10016800812840019A0109309900960121309700B1
:10017800980107309500FD309100D6309200FF308D
:100188009300B630940036307E01D900FF30CE009F
:100198000630C3000730E400FD30B8000830DA004C
:1001A800E501C401B901CF01E601BA01C501D001D9
:1001B8000830DB00FF30BB00FF30C600FF30D10045
:1001C800FF30DC000730E700FF30BC00FF30C7001D
:1001D800FF30D200FF30DD000F30E8000C307D0129
:1001E800CB000F30C5001F30C90015307E019E00BE
:1001F80014309F0010309D0016309B001730AE0061
:100208000E307D01C6000B30C80008004E0199125F
:100218007E30F1000130F20083310C2381314E0130
:1002280019124030F1000230F20083310623813187
:10023800083042019F0090309D0024309E004030DD
:100248009B0003309C003730F1000330F20083310B
:10025800122381312F30F1000330F20083311D2346
:1002680081313330F1000330F20083312223400121
:10027800CE01D201D1014030F3007308EE00FC0139
:10028800D001CF014E01991608007608031D7608A3
:10029800031D522974088331182308007608033E89
:1002A8008600870116000104031975297608033EA4
:1002B80086008701403FF700413FF800760A860034
:1002C8008701403FF900413FFA007A08803AFB0075
:1002D8007808803A7B02031D73297708790203188E
:1002E8000800760A8600870101308107413103182A
:1002F800810A08007C083D3E860087018101420191
:100308001D1D91297C083D3E86008701811441010D
:100318004F088A004E080A00813142019D1C9F291E
:100328007C083D3E86008701011541014D088A0081
:100338004C080A0081317C083D3E8600870101088F
:100348000319AD2941014B088A004A080A00813186
:10035800080082319122080082315E2281314001F9
:10036800E901E90A19108B170B1764000310400103
:10037800961C0314031CC32940019614C529400187
:100388009610F930E3008230E4008231CF228131C7
:1003980003304001E8000830E7007730890BD229A4
:1003A800E70BD229E80BD229B929E0005C08E20062
:1003B8005B08E100C501C601610884006208850088
:1003C80012000319F8296130DE005E08D3005D08C9
:1003D800DF005F08D4006008803140208131530875
:1003E800C5075408C63DE0294608DC004508DB007F
:1003F8000800F2006E080319FE294E01191A082A8E
:10040800720842019A001D2A19127208F10040016F
:100418005208203E860001308700710881000130B3
:10042800F1007108D207403052020318D20101309E
:10043800EE024E011916080000340034003400346E
:100448000034003400340034003400340034003404
:1004580000340034003400340034003400340034F4
:1004680000340034003400340034003400340034E4
:100478000034003400340034403040016E02031868
:100488005B2A5108203E860001308700010842019E
:100498009A000130F00070084001D1074030510245
:1004A8000318D1010130F0007008EE0708004E0172
:1004B800191208008231F12282318231E822823118
:1004C8008231A82282318031B52082318231DF2207
:1004D800823183312B2382318231792282318231F8
:1004E800BD22823181310A21080042018E018F012B
:1004F80090019101920193018D0141019E019B019F
:100508009C01940195019601970103309A00990185
:100518009801943093009D01080042011908F000E9
:100528007C08C03E86008701700881000130F00019
:100538007008FC0708307C020318FC010130F00049
:1005480070084001CF0708000B307D01C8001F303C
:10055800C90016307E019B001730AE0040304301C1
:1005680099009A01013097004001921143019A12B3
:100578000800933040019F009D019C011D08410126
:10058800C90040011C084101C8004E018C1290307E
:1005980040019E0008006530E5006508E600640833
:1005A800DC006308DB006630E5006508DD0000302C
:1005B8008131D9210800603051018D008F019101EE
:1005C800063093009201080043018F010830900023
:1005D800910113308D00901208004F019601970188
:1005E800980199019A019B0108000A34483465343E
:1005F8006C346C346F340034640080010131890B31
:10060800012B003472084101D3007108D2000800A0
:1006180072084101D1007108D00008007208410138
:10062800CF007108CE000800F30073088131FD2166
:1006380008007208CD007108CC0008007208CB00D1
:100648007108CA0008000034403401340034823094
:1006580052018C00080042011D121D16080082314B
:08066800912208000134080092
:020000040001F9
:0A000E00EC3FFF3FFF07FF3FFF3FFD
:00000001FF
