:1000000080312528911508007E1480314E01161A82
:100010000C1E0E28A1314C21803123280B1F2328D0
:10002000191A0F1E1A2843015B088A005A080A0091
:1000300080312328991A8F1E2328430159088A00EA
:1000400058080A0080317E100900803127284101BC
:100050008731FF278031EF00FC014001EC01ED0109
:10006000E4308400003085000A30A13176218031EF
:1000700047308400013085001630A131762180316F
:10008000A0308400013085002E30A13176218031EE
:1000900020308400023085005030A131762180313B
:1000A000A0308400023085004030A13176217E10DE
:1000B00040018931F1294101BC00BA01BB01400175
:1000C00057084101D000400156084101CF004001CE
:1000D00055084101CE00400154084101CD005008AF
:1000E0004001BD0041014F084001BC0041014E08E4
:1000F0004001BB0041014D084001BA000030C10081
:100100000030C0000030BF000030BE009D319F2590
:1001100080310318A32801304101BA000030BB0030
:100120005008F4004F08F3004E08F2004D08F100AB
:10013000A131BE2180317408D0007308CF0072084D
:10014000CE007108CD004101D301D4016508C00083
:100150006408BF003A083B04031DB12840016C1D30
:10016000CB2841013A083B04031DB8282B30B9289D
:100170002D30A0000030A10020084001D90059080E
:100180004401A00001304101D3070030D43DFF30CD
:10019000BF07FF30C03D41015008F4004F08F30095
:1001A0004E08F2004D08F1009D3127258031710382
:1001B0007204031D20295808BF3ED900FF300318E0
:1001C0000030DA0000305A021A30031959020318BD
:1001D000EB280130EC280030DB00DC015B0841013A
:1001E000A20040015C084101A30022082304031976
:1001F000FD28B530F100A8300029BD30F100A8304D
:10020000F2005308203EA53146258031FD30BF075E
:10021000FF30C03D20304001D9005908A8004101FD
:1002200040084001AA0041013F084001A9004101E6
:100230003C089A317A222908D5002808D400080001
:1002400041015008F4004F08F3004E08F2004D0839
:10025000F1009D312725803171087204031D752935
:100260005808BF3ED900FF3003180030DA000030D4
:100270005A021A3003195902031840290130412942
:100280000030DB00DC015B084101A40040015C0898
:100290004101A5002408250403195229B930F100B1
:1002A000A8305529C130F100A830F2005308203E93
:1002B000A53146258031FD30BF07FF30C03D2030DD
:1002C0004001D9005908A800410140084001AA0096
:1002D00041013F084001A90041013C089A317A22BE
:1002E0002908D5002808D40008003F304101D80073
:1002F0008030D7000030D6000030D500D101D201C7
:100300005008F4004F08F3004E08F2004D08F100C9
:100310000030F8000030F7000030F6000030F50043
:100320009A3131228031031CC429502A4130A30064
:100330002030A2000030A1000030A0004101580888
:100340004001A700410157084001A600410156089D
:100350004001A500410155084001A4009531E82560
:10036000803123084101D800400122084101D70013
:10037000400121084101D600400120084101D5007B
:100380000130D1070030D23D410150084001BD008D
:1003900041014F084001BC0041014E084001BB0033
:1003A00041014D084001BA004130A3002030A200B5
:1003B0000030A1000030A000410158084001A70012
:1003C000410157084001A600410156084001A5001F
:1003D000410155084001A4009531E82580312308EA
:1003E000C1002208C0002108BF002008BE009D31C6
:1003F0009F258031031C2B2A96294130A9002030EB
:10040000A8000030A7000030A600410158084001B4
:10041000AD00410157084001AC00410156084001C0
:10042000AB00410155084001AA0094316F2480318E
:1004300029084101D800400128084101D7004001A6
:1004400027084101D600400126084101D500FF30B0
:10045000D107FF30D23D410150084001BD004101AC
:100460004F084001BC0041014E084001BB00410162
:100470004D084001BA00410158084001C100410146
:1004800057084001C000410156084001BF0041012A
:1004900055084001BE009D319F258031031CFD2978
:1004A0005808D900DA015908F7005A08F800A531B0
:1004B000862580317708DB005B084101C2004208D5
:1004C0004001D90059084101C10067304206031DAF
:1004D000842A66086704031D712A0130E600003093
:1004E000E7006708803A4001D90080305902031DB7
:1004F0007C2A0130410166020318862A0630410138
:10050000BD000030BE008B2AE71B7E2A4101670830
:10051000BE006608BD0067304206031DBE2A5208B1
:10052000803A4001D9007F305902031D9A2AFC30DD
:1005300041015102031CB82A41013D08FF3E400120
:10054000D900FF3041013E3D4001DA005A08803AAF
:10055000DB0041015208803A40015B02031DB42ACE
:100560004101510840015902031CB82A6630B92ADA
:1005700065304001D90059084101C1003E08B3006F
:100580003D08B20067304206031DCB2A66304106A3
:100590000319D21FCF2A0130B2070030B33D6630B5
:1005A0004106031DE72AD21FDF2A3F30D8008030E2
:1005B000D7000030D6000030D500D101D20167301D
:1005C00042060319E72A5108B2075208B33DCB018E
:1005D000CC015008C6004F08C5004E08C4004D08A5
:1005E000C3005808B7005708B6005608B5005508AC
:1005F000B4004C08803A4001D90041013308803AE8
:1006000040015902031D072B410132084B02031818
:10061000D22B410158084001A9004101570840016F
:10062000A800410156084001A700410155084001BA
:10063000A600410146084001AD00410145084001C6
:10064000AC00410144084001AB00410143084001B6
:10065000AA0094316F2480312908C3002808C20001
:100660002708C1002608C0009F312E278031400195
:1006700043084101CA00400142084101C90040014C
:1006800041084101C800400140084101C7004A0833
:10069000F4004908F3004808F2004708F1009C31D3
:1006A0005C2480317208B9007108B8004A08400122
:1006B000A700410149084001A60041014808400146
:1006C000A500410147084001A4004101580840012C
:1006D000A300410157084001A20041015608400112
:1006E000A100410155084001A0009531E825803165
:1006F0002308BD002208BC002108BB002008BA0066
:10070000410146084001C100410145084001C000C7
:10071000410144084001BF00410143084001BE00BF
:10072000A431922480313D084101C60040013C08BB
:100730004101C50040013B084101C40040013A08A5
:100740004101C30041304001A9002030A800003021
:10075000A7000030A600410158084001AD0041014A
:1007600057084001AC00410156084001AB0041016F
:1007700055084001AA0094316F24803129084101B5
:10078000D800400128084101D70040012708410155
:10079000D600400126084101D5000130CB070030CA
:1007A000CC3DF92A40304001A300A030A200003027
:1007B000A1000030A000410158084001A7004101FC
:1007C00057084001A600410156084001A50041011B
:1007D00055084001A4009531E825803123084101E6
:1007E000CA00400122084101C9004001210841011D
:1007F000C800400120084101C70046084001BD0073
:10080000410145084001BC00410144084001BB00D2
:10081000410143084001BA0041014A084001C100BA
:10082000410149084001C000410148084001BF00A2
:10083000410147084001BE009D319F2580310318CA
:10084000242C003041013E2C41014608F4004508AB
:10085000F3004408F2004308F1004A08F800490890
:10086000F7004808F6004708F5009A313122803138
:10087000031C452C41013818452C0030CA000030BB
:10088000C9000030C8000030C70041014A08F40028
:100890004908F3004808F2004708F1005008F80042
:1008A0004F08F7004E08F6004D08F50088310F207C
:1008B000803174084101C6007308C5007208C40085
:1008C0007108C30046084001BD00410145084001D0
:1008D000BC00410144084001BB0041014308400104
:1008E000BA004130A3002030A2000030A100003047
:1008F000A000410137084001A7004101360840012E
:10090000A600410135084001A5004101340840011D
:10091000A4009531E82580312308C1002208C000D9
:100920002108BF002008BE009D319F258031031C97
:10093000D12C01304101D1070030D23D413040017E
:10094000A3002030A2000030A1000030A00041012F
:1009500037084001A700410136084001A6004101C7
:1009600035084001A500410134084001A40095313B
:10097000E825803123084101B700400122084101E8
:10098000B600400121084101B500400120084101A5
:10099000B40066304106031DD12C0130B20700308F
:1009A000B33D41013708D8003608D7003508D600D6
:1009B0003408D500653041060319E32C5208B10014
:1009C0005108B000E52CB001B101AE01AF01AC019E
:1009D000AD01CB01CC011D2E410158084001A900F9
:1009E000410157084001A800410156084001A700F5
:1009F000410155084001A600410146084001AD00F3
:100A0000410145084001AC00410144084001AB00F0
:100A1000410143084001AA0094316F248031290824
:100A2000C3002808C2002708C1002608C0009F3163
:100A30002E278031400143084101CA00400142088D
:100A40004101C900400141084101C800400140087E
:100A50004101C7004A08F4004908F3004808F200C1
:100A60004708F1009C315C2480317208B90071089C
:100A7000B80040016C1A4B2D410138083904031DA0
:100A80004B2D673042060319B11F4B2D0130AC07C7
:100A90000030AD3D9E2D41012E082F040319B11FDA
:100AA0006A2D2E304001D90041015308203E8600B6
:100AB0000230870040015908810001304101D3070D
:100AC0000030D43DFF30BF07FF30C03D0130AE00E5
:100AD0000030AF002C082D040319882D3030400160
:100AE000D90041015308203E8600023087004001B2
:100AF0005908810001304101D3070030D43DFF3057
:100B0000BF07FF30C03DFF30AC07FF30AD3D6A2D61
:100B10003808303E4001D90041015308203E86008C
:100B20000230870040015908810001304101D3079C
:100B30000030D43DFF30BF07FF30C03D4A084001C0
:100B4000A700410149084001A600410148084001B1
:100B5000A500410147084001A40041015808400197
:100B6000A300410157084001A2004101560840017D
:100B7000A100410155084001A0009531E8258031D0
:100B80002308BD002208BC002108BB002008BA00D1
:100B9000410146084001C100410145084001C00033
:100BA000410144084001BF00410143084001BE002B
:100BB000A431922480313D084101C60040013C0827
:100BC0004101C50040013B084101C40040013A0811
:100BD0004101C30041304001A9002030A80000308D
:100BE000A7000030A600410158084001AD004101B6
:100BF00057084001AC00410156084001AB004101DB
:100C000055084001AA0094316F2480312908410120
:100C1000D800400128084101D700400127084101C0
:100C2000D600400126084101D500FF30B007FF3053
:100C3000B13D0130CB070030CC3D4C08803A40013B
:100C4000D90041013308803A40015902031D2B2E7F
:100C5000410132084B0203183B2E41015408803AEF
:100C60004001D90080305902031D392E4B3041011B
:100C70005302031CEC2C41012E082F04031D532E9C
:100C800040016C1E532E2E30D90041015308203EE6
:100C9000860002308700400159088100013041017F
:100CA000D3070030D43D41015308203E8600023076
:100CB0008700810165304106031D242F4F30CB0092
:100CC0000030CC004B08203E8600023087008101B6
:100CD000BA01BB01D21F752E0130BA000030BB0033
:100CE000D109D209D10A0319D20A0230BD0000305D
:100CF000BE00510852040319B32EFF304101CB0747
:100D0000FF30CC3D0A30F1000030F2005208F40010
:100D10005108F30099315B2180317108303E400168
:100D2000D90041014B08203E860002308700400177
:100D3000590881000A30F1000030F20041015208E8
:100D4000F4005108F3009B31112380317208D20066
:100D50007108D100FF30BD07FF30BE3DFF30BF0737
:100D6000FF30C03D792E3E08803A4001D9008030E6
:100D70005902031DBE2E013041013D0203187D2E94
:100D8000FF304101CB07FF30CC3D3A083B04031D47
:100D9000CB2E2B30CC2E2D30A6000030A7002608FD
:100DA0004001D90041014B08203E860002308700F7
:100DB000400159088100FF304101BF07FF30C03DAD
:100DC000FF30CB07FF30CC3D40015808BF3ED90073
:100DD000FF3003180030DA0000305A021A300319CD
:100DE00059020318F52E0130F62E0030DB00DC012D
:100DF0005B084101AA0040015C084101AB002A08E0
:100E00002B04031D052F6530062F4530A800003048
:100E1000A90028084001D90041014B08203E860066
:100E200002308700400159088100FF304101BF07AF
:100E3000FF30C03D4B08203EF1000230F200530865
:100E4000203EA5314625803120304001D900590887
:100E5000A800410140084001AA0041013F084001AB
:100E6000A90041013C089A317A222908D5002808B6
:100E7000D4000800AB01AC01A401A501AA01AA0A93
:100E800077088400780885001200203A03195A2F49
:100E900077088400780885000008F73EA000FF303E
:100EA00003180030A1000030210205300319200290
:100EB0000318AA012A08A000A1012008A600210801
:100EC000A7002608270403196F2F0130F707003009
:100ED000F83D3E2F0130A4000030A500A12F770877
:100EE0008400780885000008A000A1012108003ACC
:100EF00003197B2FA52F20082B3A0319A12F063A9F
:100F000003196A2FA52F7708840078088500000848
:100F1000A0002C08F2002B08F1000A30F30000308A
:100F2000F400A431222487317208A2002008710243
:100F3000A100031CA2032108303EAB000030223D7B
:100F4000AC000130F7070030F83D770884007808DE
:100F500085000008D03EA000FF3003180030A1003B
:100F6000003021020A30031920020318B92F013082
:100F7000BA2F0030A200A3012208A8002308A9006C
:100F800028082904031D832F24082504031DD42FBA
:100F90002B09A0002C09A100A00A0319A10A20080E
:100FA000F7002108F80008002C08F8002B08F700CB
:100FB0000800AC0040012C08A731C9278731003A4E
:100FC0000319DA2F40012908F2002808F1002B0844
:100FD000F4002A08F300A2310E2287310030F60017
:100FE000F700F801A131F5218731A1311C218731AA
:100FF000A33176238731013A031D0800F82F01340D
:1010000005300800B3003335B1003108AD000230BF
:10101000B2003208AE000030983127200800740872
:1010200080394001A0002008A8007435A0002008E5
:10103000AA00F31B2A142A0803192C282A0A031DC4
:1010400029280030F4000030F3000030F2000030B6
:10105000F100F317F40134280030F4000030F300FD
:101060000030F2000030F10078088039A00020083C
:10107000A90029082806031D28177835A000200894
:10108000A900F71B2914290803195428290A031D4C
:1010900051280030F8000030F7000030F600003032
:1010A000F500F717F8015C280030F8000030F70071
:1010B0000030F6000030F5002A0829020318A228A3
:1010C000281F66288030A0002008A8062A08A00053
:1010D0002008AB002908A0002008AA002B08A000C7
:1010E0002008A9007108A0002008AB007508A00026
:1010F0002008F1002B08A0002008F5007208A000CD
:101100002008AB007608A0002008F2002B08A00001
:101110002008F6007308A0002008AB007708A000A4
:101120002008F3002B08A0002008F7007408A00096
:101130002008AB007808A0002008F4002B08A000CD
:101140002008F800AB012908A000A1012108A30094
:101150002A082002A200031CA3032308803AA4004B
:1011600080302402031DB6281A302202031CEA280C
:1011700074087304720471040319C0280130C12873
:1011800000304001A0002008AB000030F400003027
:10119000F3000030F2000030F1002908A000200820
:1011A000AA00EF282B1CDA282B360138A0002008D3
:1011B000AB00DC280310AB0C7118AB170130A0009A
:1011C000F437F30CF20CF10CA00BE0280130A00076
:1011D0002008AA07400129082A02031CD228281B3C
:1011E00020292A08031DFD280030F4000030F300F8
:1011F0000030F2000030F10008007508F1077608B1
:10120000F23D7708F33D7808F43D741C9A292B1CB5
:101210000F292B360138A0002008AB00112903103C
:10122000AB0C7118AB170130A000F437F30CF20CC3
:10123000F10CA00B15290130A0002008AA079A295B
:101240007408803AA0007808803A2002031D3229F1
:1012500077087302031D322976087202031D3229B2
:101260007508710203186A29FF30A000FF30A10041
:10127000FF30A200FF30A30071087502A4007208BD
:10128000763BA5007308773BA6007408783BA7005F
:101290002408A0072508A13D2608A23D2708A33D54
:1012A0002308F4002208F3002108F2002008F100CE
:1012B0008030A0002008A806AB09AB0A2B08031D4C
:1012C00072290130F1070030F23D0030F33D00306B
:1012D000F43D72297508F1027608F23B7708F33B7A
:1012E0007808F43B7408730472047104031D982990
:1012F0002B08031D98290030F4000030F300003063
:10130000F2000030F10008000130F135F20DF30D6C
:10131000F40D890B8529AB1B71142B1C9129031427
:1013200092290310AB0D2A08031998290130AA024B
:10133000F31F8429A901AB1FA5292B087F390319A5
:101340007118A329A529A901A90A29080319D129D6
:101350000130F1070030F23D0030F33D0030F43D44
:10136000741CD1297108A0007208A1007308A200A2
:101370007408A3000130A400A337A20CA10CA00C98
:10138000A40BBC292308F4002208F3002108F20072
:101390002008F1002A0A0319D1290130A0002008F1
:1013A000AA072A0A031D2A08031DE1290030F400B8
:1013B0000030F3000030F2000030F1002A08031979
:1013C000A8012A1CE529F317E9297F30A00020088D
:1013D000F3052A36A0002008F400A81F0800F4171F
:1013E00008004601A401A5010F304201C1004108D7
:1013F0004601A700A801A901AA01A6310E2689313C
:101400004601AB01AB0A4001191099118B170B175C
:10141000A43175248931DD30F1002130F200A13191
:101420007021893100304001AD001030AE00AF01B5
:10143000A3318E23893102304001AD001030AE005F
:1014400002304201C10041084001AF00A3318E23A8
:10145000893115304201C2004B30C100BE30890BCA
:101460002F2AC10B2F2AC20B2F2A000040019915E9
:10147000A7304101DC00A830DD00A231842289318F
:1014800064007E2BA53165258931003A0319902B24
:101490004601B001B101A501A50A02304001B50025
:1014A0001030B600B701B801B80A983199208931D7
:1014B000203098316020893120304101DC00A83093
:1014C000DD00460120084201C100C201410841017E
:1014D000DE00420142084101DF00460121084201CD
:1014E000C300C40143084101E00042014408410136
:1014F000E100460122084201C500C601450841013C
:10150000E200420146084101E300A2318422893110
:1015100032309E311A26893174304101DC00A83006
:10152000DD00460134084201C100C2014108410109
:10153000DE00420142084101DF004601330842015A
:10154000C300C40143084101E000420144084101D5
:10155000E100460132084201C500C60145084101CB
:10156000E200420146084101E300A23184228931B0
:101570008530DC00A830DD00460135084201C1009D
:10158000C20141084101DE00420142084101DF0081
:10159000460137084201C300C40143084101E0008D
:1015A000420144084101E100460138084201C500FA
:1015B000C60145084101E200420146084101E3003D
:1015C000A231842289314F30DC00A830DD0099310E
:1015D000E821893143084101E1004001420841010D
:1015E000E000400141084101DF00400140084101A5
:1015F000DE00A23184228931902B4601310840015E
:10160000AE00460130084001AD00460130084201FD
:10161000C10041084001AF00A331A6238931013048
:101620004601B0070030B13D1030310200300319DF
:101630003002031C902BB001B10102304201C10005
:1016400041084601A50062304101DC00A830DD0000
:10165000A23184228931902B460131084001AE002D
:10166000460130084001AD00A531EB25893142012A
:10167000C10041084601A6002608300603195C2B6C
:1016800038304101DC00A830DD004601310841015D
:10169000DF00460130084101DE0046012608420114
:1016A000C100C20141084101E0004201420841017C
:1016B000E100A2318422893101304601B0070030B7
:1016C000B13D10303102003003193002031C902B61
:1016D000B001B101A50102304001B5001030B600E3
:1016E000B701B80198319920893196304101DC0069
:1016F000A830DD00A23184228931902B46012508D3
:101700004201C100C2014208003A0319882B422A53
:101710004108013A0319FD2A033A03192C2B422AE6
:1017200040010C0C0139460124060319BE2B003080
:1017300040018C1801304601A4004001AD01AD0A02
:101740001030A331D623893107304201C10041084E
:101750004001AD000130A331D62389310230400170
:10176000B5001030B600B701B70A02304201C1001F
:1017700041084001B8009831992089316430400116
:10178000A0000030A1002B309B31B3238931003AF7
:101790000319032C03304201C10041084601A80788
:1017A00005304201C10041084601A9070730420146
:1017B000C10041084601AA07280829042A04031D7C
:1017C000ED2B01304201C10041084601A70720303E
:1017D0002702031CED2BA701A70A28084201C1001C
:1017E0004108F500460129084201C2004208F600FE
:1017F00046012A084201C3004308F70046012708B2
:10180000993117218931A13183218931003A031996
:10181000402AA1318B218931003A0319402A98319D
:1018200001208931A63132268931032C4201C000C2
:1018300040015D0886008701403FDF00413FE00036
:101840005F088400600885001200253A031DDB2F25
:101850005D08860087010130810741310318810A44
:101860004101E401E5014001EC01ED01FF304101DE
:10187000E600FF30E7004201B001B101562C6C14C4
:101880005D08860087010130810741310318810A14
:10189000562CEC14402C6C15402CEC15402C6C167E
:1018A000402C01304201B0000030B100420130084C
:1018B0003104031D812C40015D0886008701403FF3
:1018C000DF00413FE0005F088400600885000008F9
:1018D000E100E2016208003A03196F2C512C610803
:1018E000203A03194D2C033A03194F2C083A0319D7
:1018F0004B2C063A03193F2C1D3A0319492C512C45
:10190000562C40016C1C882CFD30EC05FF30ED0599
:101910005D0886008701403FDF00413FE0005F082F
:1019200084006008850012002A3A031DB72C5D0868
:10193000860087010130810741310318810A5E0862
:101940008600870101088400850102308107003F7D
:101950004101E400013FE500E51FFA2C40016C1451
:101960004101E409E509E40A0319E50AFA2C5D08D6
:1019700086008701403FF700413FF80087313A2752
:101980008C3178084101E5007708E400D02C400153
:101990005D08860087010130810741310318810A03
:1019A00040015D0886008701403FDF00413FE000C5
:1019B0005F088400600885000008D03EE100FF3029
:1019C00003180030E200003062020A30031961029D
:1019D0000318EC2C0130ED2C0030E300E401630827
:1019E0004201B200400164084201B30032083304EE
:1019F000031DC72C40015D0886008701403FDF00C2
:101A0000413FE0005F0884006008850012002E3A24
:101A1000031D7E2D4101E601E70140015D088600BE
:101A200087010130810741310318810A5D08860072
:101A30008701403FDF00413FE0005F08840060080D
:101A4000850012002A3A031D3B2D5D0886008701A0
:101A50000130810741310318810A5E088600870141
:101A600001088400850102308107003F4101E60042
:101A7000013FE7007E2D5D0886008701403FF700AB
:101A8000413FF80087313A278C3178084101E7005F
:101A90007708E600542D40015D088600870101307B
:101AA000810741310318810A40015D0886008701E2
:101AB000403FDF00413FE0005F0884006008850090
:101AC0000008D03EE100FF3003180030E200003093
:101AD00062020A30031961020318702D0130712D62
:101AE0000030E300E40163084201B40040016408EF
:101AF0004201B50034083504031D4B2D40015D083B
:101B000086008701403FDF00413FE0005F0884001E
:101B1000600885000008E100E2016108F700620842
:101B2000F800A53186258C317708E300630842016F
:101B3000BC003C080319DB2D40015D0886008701CD
:101B4000403FDF00413FE00001305F078400600854
:101B50000318600A85000008E100E2016108F7004F
:101B60006208F800A53186258C317708E300630808
:101B70004201BD003D080319DB2D40015D088600D0
:101B80008701403FDF00413FE00002305F078400F3
:101B900060080318600A85000008E100E20161089E
:101BA000F7006208F800A53186258C317708E3003C
:101BB00063084201BE0040015D0886008701403F86
:101BC000DF00413FE0005F088400600885001200EC
:101BD000643A0319FA2D5D0886008701403FDF0053
:101BE000413FE0005F088400600885001200693A08
:101BF000031D462E5D0886008701013081074131B3
:101C00000318810A5E0886008701010884008501A7
:101C100002308107003FDF00013FE0005F08420122
:101C2000A000400160084201A100890D893B89099B
:101C3000A200A300A400A500A600A7002008400160
:101C4000B100420121084001B200420122084001D6
:101C5000B300420123084001B400420124084001BE
:101C6000B500420125084001B600420126084001A6
:101C7000B700420127084001B800420140089131F5
:101C8000D2213208DE003108DD0008006630420152
:101C90003C06031D942E40015D0886008701403FED
:101CA000DF00413FE0005F08840060088500000815
:101CB000E10061084201BF0040015D088600870124
:101CC0000130810741310318810A5E0886008701CF
:101CD00001088400850104308107003F4201B800FB
:101CE000013FB900023FBA00033FBB003B0840017F
:101CF000D70042013A084001D600420139084001AC
:101D0000D500420138084001D40042013F0840019B
:101D1000DF005F08D8004201400880315B20550891
:101D2000DE005408DD000800C530F100A830F200E4
:101D30000230F3000030F4003C309B3162238C31E0
:101D400071087204031D2E2F40015D088600870173
:101D5000403FDF00413FE00001305F078400600842
:101D60000318600A85000008E10061084201BF0015
:101D700040015D0886008701403FDF00413FE000F1
:101D80005F088400600885000008BF3EE100FF3066
:101D900003180030E200003062021A3003196102B9
:101DA0000318D42E0130D52E0030E300E40163087F
:101DB0004201B600400164084201B700360837040A
:101DC0000319F42E40015E08860087010108840093
:101DD000850104308107003F4201B800013FB9008E
:101DE000023FBA00033F052F40015E0886008701CD
:101DF00001088400850104308107003F4201B800DA
:101E0000013FB900023FBA00033FBB0040015D083B
:101E1000860087010230810741310318810A42019F
:101E20003B084001D70042013A084001D600420178
:101E300039084001D500420138084001D400420170
:101E40003F084001DF005F08D800420140088031B0
:101E50005B205508DE005408DD00080040015D08E5
:101E600086008701403FDF00413FE0005F088400BB
:101E7000600885001200783A03194D2F5D0886002E
:101E80008701403FDF00413FE0005F0884006008B9
:101E900085001200583A031DA72F5D0886008701B0
:101EA000403FDF00413FE0005F088400600885009C
:101EB0000008E10061084201BF0040015D088600A2
:101EC00087010130810741310318810A5E088600CD
:101ED000870101088400850102308107003F42012B
:101EE000A800013FA900AA01AB01AC01AD01AE0100
:101EF000AF0128084001B100420129084001B200A9
:101F000042012A084001B30042012B084001B400FD
:101F100042012C084001B50042012D084001B600E5
:101F200042012E084001B70042012F084001B800CD
:101F300042013F084001DF005F08B900420140084C
:101F400093311C233208DE003108DD0008005D08F3
:101F500086008701403FDF00413FE0005F088400CA
:101F6000600885001200253A031DD02F5D08860009
:101F700087010130810741310318810A2530F400BF
:101F80000030F500420140084001DF005F08F60024
:101F9000A7315E2701304001DD000030DE0008007F
:101FA0005D08860087010130810741310318810AED
:101FB000DD01DE0108005D0886008701403FDF008B
:101FC000413FE0005F088400600885000008E100F0
:101FD000E2016108F4006208F50042014008400196
:101FE000E3006308F600A7315E278C3140015D08ED
:101FF000860087010130810741310318810ACA2F09
:1020000043019A120800F30128308600003087004F
:10201000473FF100F11F2D284001A809A909AA098D
:10202000AB09AC09AD09AE09AF09A80A031D2B28FD
:10203000A90A031D2B28AA0A031D2B28AB0A031D7E
:102040002B28AC0A031D2B28AD0A031D2B28AE0A32
:10205000031D2B28AF0AF301F30A2030860000305D
:102060008700473FF100F11F54284001A009A10952
:10207000A209A309A409A509A609A709A00A031D85
:102080005428A10A031D5428A20A031D5428A30A98
:10209000031D5428A40A031D5428A50A031D54280F
:1020A000A60A031D5428A70A40012008210422047F
:1020B000230424042504260427040319AC28F20170
:1020C000F20AA71B7028A035A10DA20DA30DA40D27
:1020D000A50DA60DA70D0130F1007108F2076128CA
:1020E00027082F02031D8E2826082E02031D8E2886
:1020F00025082D02031D8E2824082C02031D8E287E
:1021000023082B02031D8E2822082A02031D8E2875
:1021100021082902031D8E2820082802031CA0285C
:102120002008A8022108A93B2208AA3B2308AB3BB0
:102130002408AC3B2508AD3B2608AE3B2708AF3B47
:10214000A736A60CA50CA40CA30CA20CA10CA00CE9
:102150000130F202031D702873080319CD28A80965
:10216000A909AA09AB09AC09AD09AE09AF09A80ACA
:10217000031DCD28A90A031DCD28AA0A031DCD28B9
:10218000AB0A031DCD28AC0A031DCD28AD0A031DE3
:10219000CD28AE0A031DCD28AF0A40012808A000B3
:1021A0002908A1002A08A2002B08A3002C08A400DB
:1021B0002D08A5002E08A6002F08A7000800F3018F
:1021C0002030860000308700473FF100F11F0929C9
:1021D0004001A009A109A209A309A409A509A6090A
:1021E000A709A00A031D0729A10A031D0729A20A9E
:1021F000031D0729A30A031D0729A40A031D072994
:10220000A50A031D0729A60A031D0729A70AF3012A
:10221000F30A2830860000308700473FF100F11FA5
:1022200034294001A809A909AA09AB09AC09AD09DB
:10223000AE09AF09A80A031D3029A90A031D3029D8
:10224000AA0A031D3029AB0A031D3029AC0A031D5D
:102250003029AD0A031D3029AE0A031D3029AF0A0B
:102260000130F1007108F3067430860000308700F9
:102270000830F10000301E00F10B3B29400120081E
:10228000210422042304240425042604270403191A
:102290009F29F201F20AA71B5A29A035A10DA20D10
:1022A000A30DA40DA50DA60DA70D0130F100710819
:1022B000F2074B29F435F50DF60DF70DF80DF90D74
:1022C000FA0DFB0D27082F02031D802926082E0278
:1022D000031D802925082D02031D802924082C02B6
:1022E000031D802923082B02031D802922082A02AE
:1022F000031D802921082902031D802920082802A6
:10230000031C93292008A8022108A93B2208AA3B04
:102310002308AB3B2408AC3B2508AD3B2608AE3B6D
:102320002708AF3B7414A736A60CA50CA40CA30C6D
:10233000A20CA10CA00C0130F202031D5A29730853
:102340000319C029F409F509F609F709F809F9098B
:10235000FA09FB09F40A031DC029F50A031DC02967
:10236000F60A031DC029F70A031DC029F80A031D38
:10237000C029F90A031DC029FA0A031DC029FB0A56
:1023800074084001A0007508A1007608A200770833
:10239000A3007808A4007908A5007A08A6007B08A5
:1023A000A70008004001BE003108C5003208C60081
:1023B0003308C7003408C8003508C9003608CA0009
:1023C0003708CB003808CC00453086000030870045
:1023D000473FB900B91FEE290130EF290030400115
:1023E000BA00BB013A08C3003B08C40043084404D8
:1023F0000319182AC509C609C709C809C909CA099C
:10240000CB09CC09C50A031D182AC60A031D182AC0
:10241000C70A031D182AC80A031D182AC90A031D62
:10242000182ACA0A031D182ACB0A031D182ACC0A27
:102430004101E71B202AFD304001EC05FF30ED058E
:1024400041016708803A4001B90080303902031D1C
:102450002C2A0130410166020318342A0130400160
:10246000BF000030C0003C2A410167084001C000A5
:10247000410166084001BF00410165084001C200FA
:10248000410164084001C10043084404031D4A2A75
:102490006C1D4E2AFF30C107FF30C23D4F30CD00CA
:1024A0000030CE004401EF01E12A40014508460416
:1024B0004704480449044A044B044C04031D7A2A87
:1024C0004008803AB90080303902031D692A013082
:1024D0003F0203187A2A40014208803AB90080304E
:1024E0003902031D752A01304102031CED2A400107
:1024F000EC1CED2AFF304001CD07FF30CE3D0A3005
:10250000A000A101A201A301A401A501A601A701A8
:102510004508A8004608A9004708AA004808AB00DB
:102520004908AC004A08AD004B08AE004C08AF00AB
:102530009031032091312108F5002008F400A331E7
:10254000192391317408303E4001B9004D08203EF6
:1025500086000230870039088100FF30BF07FF3056
:10256000C03DFF30C107FF30C23D0A30A000A101CD
:10257000A201A301A401A501A601A7014508A80085
:102580004608A9004708AA004808AB004908AC0063
:102590004A08AD004B08AE004C08AF009031DF2078
:1025A00091312008C5002108C6002208C700230871
:1025B000C8002408C9002508CA002608CB0027083F
:1025C000CC0040014E08803AB90080303902031D2A
:1025D000EB2A01304D020318552A400143084404F8
:1025E000031DF42A6C1D0B2BFF30CD07FF30CE3DB1
:1025F00043084404031DFE2A2B30FF2A2D30BC0063
:102600000030BD003C08B9004D08203E8600023075
:102610008700390881004D08203EB9003908A8001C
:102620004208AA004108A9003E089A317A222908E6
:10263000B2002808B10008004001C6004101E71BB4
:10264000262BFD304001EC05FF30ED054101670808
:10265000803A4001BA0080303A02031D322B01302B
:102660004101660203183A2B01304001C7000030D7
:10267000C800422B410167084001C80041016608BB
:102680004001C700410165084001CA0041016408DA
:102690004001C9006C1E502BFE30C907FF30CA3DF7
:1026A0003108CB003208CC003308CD003408CE000E
:1026B0003508CF003608D0003708D1003808D200DE
:1026C0004F30D3000030D4004401EF01102CFF3014
:1026D0004001D307FF30D43D0F304B05D50000300B
:1026E0004C05D6005608803ABA0080303A02031DE5
:1026F0007B2B0A305502031C812B40015508573EA5
:10270000842B40015508303ED5000030563DD600A0
:102710003908BF3EBA00FF3003180030BB0000305C
:102720003B021A3003193A020318982B0130992BF7
:102730000030BC00BD013C08C2003D08C300420897
:1027400043040319CE2B20305504BA000030560440
:10275000BB003A089F3EBC00FF303B3DBD0000304F
:102760003D021A3003193C020318B82B0130B92B73
:102770000030BE00BF013E08C4003F08C500440849
:1027800045040319CE2B5608F8005508F700A5316B
:10279000A72593317808D6007708D5005508BA00E8
:1027A0005308203E8600023087003A088100FF303F
:1027B000C707FF30C83DFF30C907FF30CA3D4B3067
:1027C000860000308700403FBA00413FBB00423FD7
:1027D000BC00433FBD00443FBE00453FBF00463FF5
:1027E000C000473FC10004304001C136C00CBF0CDF
:1027F000BE0CBD0CBC0CBB0CBA0C890BF42B4001FD
:102800004108D2004008D1003F08D0003E08CF0068
:102810003D08CE003C08CD003B08CC003A08CB0078
:1028200040015408803ABA0080303A02031D1A2C45
:1028300002305302031C412C40014B084C044D0450
:102840004E044F04500451045204031D672B4808E2
:10285000803ABA0080303A02031D302C0130470222
:102860000318672B40014A08803ABA0080303A02C8
:10287000031D3C2C01304902031C412C4001EC1883
:10288000672B40016C1E5E2CFF30D307FF30D43D18
:102890003908BA005308203E8600023087003A0803
:1028A0008100FF30D307FF30D43D3030BA005308E9
:1028B000203E8600023087003A0881005308203EFF
:1028C000BA003A08A8004A08AA004908A900460820
:1028D0009A317A222908B2002808B10008002D0890
:1028E0008039AE002E08B7002D35AE002E08BE0090
:1028F000AC1B3E143E0803198B2C3E0A031D882C8A
:102900000030AD000030AC000030AB000030AA0059
:10291000AC17AD01932C0030AD000030AC0000309E
:10292000AB000030AA0029088039AE002E08B70697
:102930002935AE002E08BF00A81B3F143F0803191D
:10294000AF2C3F0A031DAC2C0030A9000030A800BA
:102950000030A7000030A600A817A901B72C00304E
:10296000A9000030A8000030A7000030A600290808
:10297000280427042604031DD62C0030AD000030A7
:10298000AC000030AB000030AA008030AC047F30D7
:10299000AD043708AE002E08AD042D08A9002C08A0
:1029A000A8002B08A7002A08A60008003E08031D5F
:1029B000E22C0030A9000030A8000030A700003051
:1029C000A60008003E08AE00AF012F08B1003F0886
:1029D0002E02B000031CB10330087F3EB800003067
:1029E000313DB9002D08B6002C08B5002B08B40005
:1029F0002A08B3000030AD000030AC000030AB005E
:102A00000030AA000030BD000030BC000030BB0028
:102A10000030BA00BF011A303F020318472D3F08AB
:102A20000319292D0130B335B40DB50DB60D890B41
:102A3000132D0130AA35AB0DAC0DAD0D890B1A2D40
:102A4000BD1B2A140130BA35BB0DBC0DBD0D890B61
:102A5000232D29083602031D372D28083502031DB2
:102A6000372D27083402031D372D26083302031C97
:102A7000422D3D172608B3022708B43B2808B53B72
:102A80002908B63B0130AE002E08BF070B2D3608D3
:102A9000350434043304031D3A14AC1B642D013097
:102AA000AA35AB0DAC0DAD0D890B502DBD1B2A14F5
:102AB0000130BA35BB0DBC0DBD0D890B592DFF3052
:102AC000B807FF30B93D4D2DBF01BD1F7D2DFF3033
:102AD0003A05AE00FF303B05AF00FF303C05B000CB
:102AE0007F303D05B100310830042F042E04031956
:102AF0002A187B2D7D2DBF01BF0A3F080319A62D83
:102B00000130AA070030AB3D0030AC3D0030AD3D98
:102B10002D1CA62D2A08AE002B08AF002C08B000F3
:102B20002D08B1000130B200B137B00CAF0CAE0CC3
:102B3000B20B942D3108AD003008AC002F08AB006B
:102B40002E08AA000130B8070030B93D3908803A94
:102B5000AE0080302E02031DAF2DFF303802031C63
:102B6000BE2DFF304001B8000030B9000030AD008C
:102B70000030AC000030AB000030AA004001390842
:102B8000803AAE0080302E02031DC82D013038027D
:102B90000318D62D4001B801B9010030AD00003056
:102BA000AC000030AB000030AA00B701400138088B
:102BB000AE002E08BE003E1CDF2DAC17E32D7F308B
:102BC000AE002E08AC053E36AE002E08AD00C92C76
:102BD00023088039A8002808AD002335A80028085C
:102BE000AF00A21B2F142F080319032E2F0A031D59
:102BF000012E0030A3000030A2000030A100003000
:102C0000A000A2170B2E0030A3000030A20000305D
:102C1000A1000030A00027088039A8002808AD06D0
:102C20002735A8002808AE00A61B2E142E0803196D
:102C3000262E2E0A031D242E0030A7000030A600E9
:102C40000030A5000030A400A6172E2E0030A700EB
:102C50000030A6000030A5000030A4002E08031D9F
:102C60002F08031D3C2E0030A3000030A2000030CE
:102C7000A1000030A00008002008A8002808F100EA
:102C80002608A531272595317208B9007108B800CA
:102C90003808A800A901AA01AB012B08B3002A0833
:102CA000B2002908B1002808B0003908A800A9011D
:102CB000AA01AB012B08B7002A08B6002908B50005
:102CC0002808B4002108A8002808F1002508A5312B
:102CD000272595317208B9007108B8003808A80096
:102CE000A901AA01AB012808B0072908B13D2A08AB
:102CF000B23D2B08B33D3908A800A901AA01AB01D8
:102D00002808B4072908B53D2A08B63D2B08B73D69
:102D10002208A8002808F1002408A53127259531AC
:102D20007208B9007108B8003808A800A901AA0102
:102D3000AB012808B0072908B13D2A08B23D2B088D
:102D4000B33D3908A800A901AA01AB012808B407BE
:102D50002908B53D2A08B63D2B08B73D0830B035E7
:102D6000B10DB20DB30D890BAF2E2108A8002808B4
:102D7000F1002408A531272595317208B9007108A2
:102D8000B8003808B0073908B13D0030B23DB33D56
:102D90002008A8002808F1002508A531272595312D
:102DA0007208B9007108B8003808B0073908B13D99
:102DB0000030B23DB33D0830B035B10DB20DB30DAA
:102DC000890BDC2E2008A8002808F1002408A53172
:102DD000272595317208B9007108B8003808B00786
:102DE0003908B13D0030B23DB33D2108A8002808A4
:102DF000F1002608A531272595317208B900710820
:102E0000B8003808B4073908B53D0030B63DB73DC5
:102E10002208A8002808F1002508A53127259531AA
:102E20007208B9007108B8003808B4073908B53D10
:102E30000030B63DB73D2208A8002808F10026085A
:102E4000A531272595317208B9007108B8003808F6
:102E5000A8003908A900AA01AB010830A835A90DBE
:102E6000AA0DAB0D890B2E2F2808B4072908B53DF4
:102E70002A08B63D2B08B73D3308A800A901AA01CE
:102E8000AB012808B4072908B53D2A08B63D2B0830
:102E9000B73D0830B035B10DB20DB30D890B4A2FD7
:102EA0002F082E07A800A901A90D2808823EB80006
:102EB000FF30293DB900B61B722F0130B435B50D76
:102EC000B60DB70D890B5E2FB31B34140130B0352E
:102ED000B10DB20DB30D890B672FFF30B807FF306E
:102EE000B93D5B2FAE01B31F8B2FFF303005A8001B
:102EF000FF303105A900FF303205AA007F303305CD
:102F0000AB002B082A042904280403193418892F3C
:102F10008B2FAE01AE0A2E080319B42F0130B4076F
:102F20000030B53D0030B63D0030B73D371CB42F02
:102F30003408A8003508A9003608AA003708AB00F5
:102F40000130AC00AB37AA0CA90CA80CAC0BA22F1B
:102F50002B08B7002A08B6002908B5002808B400D5
:102F60000130B8070030B93D3908803AA8008030F8
:102F70002802031DBD2FFF303802031CC92F7F30EC
:102F80004001B7008030B6000030B5000030B4001A
:102F9000F32F40013908803AA80080302802031D31
:102FA000D32F013038020318E02F00304001B70062
:102FB0000030B6000030B5000030B400AD01F32F92
:102FC00040013808A8002808AF00FF30B405FF30E2
:102FD000B5057F30B6050030B7052F18B6172F3668
:102FE000A8002808B7002D08A8002808B70437084B
:102FF000A3003608A2003508A1003408A00008008C
:1030000008006A08031901286B08BE3E86000130DB
:1030100087000108F1007108E9006B08C63E8600D0
:10302000013087000108F1007108F2000130F10061
:103030007108EB0708306B020318EB014E0199127F
:1030400001304101EA024E01991672080800B000F1
:103050003008AF002F084201D50055304001A800CC
:103060000130A9000130AA000030AB005130873197
:10307000D927983156304001A8000130A90001300D
:10308000AA000030AB005130A5310825983140012D
:103090002E09AF002F084201D60540012D08AF00D0
:1030A0002F084201D60455304001A8000130A90084
:1030B0000230AA000030AB0051308731D927080018
:1030C000F60000309A31C4229831400117109F3029
:1030D000A131D2219831FF30A131D2219831F500B0
:1030E0007608860003308700750881000130F500FE
:1030F0007508F607FF30A131D2219831F500760826
:10310000860003308700750881000130F5007508DE
:10311000F607FF30A131D2219831F50076088600FC
:10312000033087007508810040011714903100209A
:1031300008003608AE003508AD00A531C825983125
:10314000B9003908BB003803031DB2280130B900AB
:10315000370AAB28B935890BAA283908BA003A08CA
:10316000BB04CD283808031DC2280130B900370A36
:10317000BA28B935890BB9283908FF3ABA003A0894
:10318000BB05CD280130B900370AC728B935890BEE
:10319000C6283908BA003A08BB063608AE0035081A
:1031A000AD003B08B9003908AF00A3318E230800F9
:1031B0004E0199129330F1002730F200A1316421C1
:1031C00098314E011912CC30F1002430F200A131B7
:1031D0006A219831083042019F0090309D002430D0
:1031E0009E0040309B0003309C00D430F100203022
:1031F000F200A1315E219831F030F1002030F20070
:10320000A13142219831DB30F1002030F200A131B0
:103210003D214101E901ED01EC014030F30073086B
:10322000EE00FC01EB01EA014E0199160800F900DD
:1032300000309A31C42299317C019A1751019513BB
:10324000E030F8007808F9040030A131D22199313A
:103250000030A131D22199310030A131D2219931F0
:103260000030A131D22199317908A131D22199318F
:103270007708A131D22199317608A131D221993133
:103280007508A131D2219931FF30A131D221993174
:10329000FF30A131D2219931FF30A131D2219931B2
:1032A000FF30A131D2219931903100207C019A1355
:1032B000510195170800F701F41F6529F309F40976
:1032C000F30A0319F40AF701F70AF21F6C29F1094E
:1032D000F209F10A0319F20A710872040319932919
:1032E000F601F60AF21B7E290130F135F20D890B49
:1032F00075290130F5007508F60772297208740205
:10330000031D842971087302031C8A297108F302C2
:103310007208F43B0130F236F10C890B8B29013035
:10332000F602031D7E29770803199B29F309F40986
:10333000F30A0319F40A7408F2007308F100080094
:10334000A031EA2099314001A000430137088600EE
:103350003808870040012008810001304301B70789
:103360000030B83D0130B9020030BA3B39083A04A8
:103370000319BE29A031F82005300800BD15C62963
:10338000A13114210800A131102108002C084001AE
:10339000A0002008FA00430121088A0020080A0042
:1033A00099314001A100A2012208003A0319D9294C
:1033B000C3292108013A0319C329033A0319C02973
:1033C000013A0319C029073A0319C329C329080080
:1033D0001930A2311B22993171084001C4007208D2
:1033E000C500C601C7010B30C435C50DC60DC70DDC
:1033F000890BF4290A30F900C737C60CC50CC40C78
:10340000F90BFC297030C407FE30C53DFF30C63DC6
:10341000FF30C73D4130A9009C30A8000030A70014
:103420000030A6004708F4004608F3004508F20003
:103430004408F10001309E31992699317408AD009D
:103440007308AC007208AB007108AA0094316F24B5
:103450002908C3002808C2002708C1002608C000A8
:103460000800003071054001A00000307205A10085
:1034700080307305A2007F307405A3002308220466
:1034800021042004031D4C2A0030F4000030F30016
:103490000030F2000030F10000307505A00000306F
:1034A0007605A10080307705A2007F307805A30063
:1034B0002308220421042004031D662A0030F8009A
:1034C0000030F7000030F6000030F5007808740690
:1034D000031D742A77087306031D742A7608720682
:1034E000031D742A750871060319782A0310080051
:1034F000031408004001B0006C1C862A3008AB00A1
:103500002B08A0002808A63156269A31AA1B8D2A1E
:103510002A08AF002908AE008F2AAE01AF01AC0126
:10352000AD012D08803AAB002F08803A2B02031D15
:103530009B2A2E082C020318AF2A2030F4000030FA
:10354000F50040013008AB002B08F600A7315E27DC
:103550009A3101304001AC070030AD3D912A400165
:103560006C18BA2A3008AB002B08A0002808A63136
:1035700056269A312808A331BE232E087107A800C9
:103580002F08723DA9000800F40043019A1A0800B0
:103590007408F100F201F135F20DF135F20DB2309F
:1035A00071078400A830723D8500000899007408F6
:1035B000F100F201F135F20DF135F20DB130710784
:1035C0008400A830723D850000089A009B017408B1
:1035D000F100F201F135F20DF135F20DB330710762
:1035E0008400A830723D8500000897007408F1003F
:1035F000F201F135F20DF135F20DB43071078400AE
:10360000A830723D85000008F300F30DF30DF30DB3
:10361000400112087306F7397306920043019A16A7
:103620000800F701F21F1B2BF109F209F10A031937
:10363000F20AF701F70AF41F262BF309F409F30A3B
:103640000319F40A0130F5007508F706F801F901CD
:10365000710872040319552BF601F60AF21B3A2B76
:103660000130F135F20D890B312B0130F500750871
:10367000F6072E2B0130F835F90D890B3B2B72081C
:103680007402031D452B71087302031C4C2B710837
:10369000F3027208F43B78140130F236F10C890B16
:1036A0004D2B0130F602031D3A2B770803195D2BD1
:1036B000F809F909F80A0319F90A7908F2007808F3
:1036C000F1000800F6007608F5007508F9007208A8
:1036D000F8007108F7000130F3020030F43B730A80
:1036E000031D9D2B740A031D9D2BF101F20108009F
:1036F000770884007808850012000319A42B73084A
:1037000074040319A42B7708840078088500000846
:10371000F500790886000130870001087506031D51
:10372000A42B0130F5007508F9070130F7070030C8
:10373000F83D0130F3020030F43B79088600013097
:1037400087000108031D782B790886000130870067
:10375000770884007808850000080102F100F20172
:10376000031CF2030800A600260886000330870029
:103770000103031DDC2BA4313D249B31260A860066
:10378000033087007108C03F7208C13F2108A300C1
:103790002008A200A235A30DA235A30D2608033EE2
:1037A0008600033087002208C03F2308C13F260857
:1037B00086000330870081012608033E860003301F
:1037C0008700403FA200413FA300260A8600033045
:1037D0008700A4313D249B31403F7102A400413F4A
:1037E000723BA50023082502031DF82B22082402A2
:1037F000031C002C26088600033087008101810A03
:10380000260886000330870001080800A1315221F4
:103810009C31003A031D162C3B2CA031FC200800E3
:10382000A13100210800A131082108002F08400122
:10383000A0002008FA000630A03E86000130870074
:10384000413F8A00403F0A009C314001A100A20193
:103850002208003A03192D2C132C2108013A0319D0
:10386000132C033A03190D2C013A0319102C073AB3
:103870000319132C132C3D1038084001A1004301FB
:1038800037084001A0004301B70A0319B80A4001F4
:1038900020088600210887000108A13124219C31DD
:1038A0000130B9020030BA3B39083A04031D5A2CE2
:1038B00006300800033008000310730D740DF50086
:1038C0007508FB007B08031D6E2C0030F4000030EF
:1038D000F3000030F2000030F10008007108F5003C
:1038E0007208F6007308F7007408F8001F30F83605
:1038F000F70CF60CF50C890B772C7508F900790894
:10390000FA00F317FF30F105FF30F205FF30F30541
:103910000030F4059630FB02FB1FA12C7B08803A97
:10392000973E031C652C0130F436F30CF20CF10CBD
:10393000890B942C0130F5007508FB070319B22C94
:10394000932C20307B020318652C7B080319B22CC2
:103950000130F135F20DF30DF40D890BA92C013076
:10396000FB02A52C7A0803190800F109F209F309F2
:10397000F409F10A0319F20A0319F30A0319F40A04
:10398000080040019A010930990096012130970002
:10399000980107309500CD309100D6309200FF306D
:1039A0009300B630940036307E01D900FF30CE004F
:1039B0000630C3000730E400F530B8000830DA0004
:1039C000E501D030C4000830B900CF01E601BA01EA
:1039D000C501D0010830DB00FF30BB00FF30C6005E
:1039E000FF30D100FF30DC000730E700FF30BC00C3
:1039F000FF30C700FF30D200FF30DD000F30E8009D
:103A0000BF11BE15BD110030F1001830F200A13118
:103A100070214E0116160C307D01CB000F30C50011
:103A20001F30C90001307E01940015309E00143013
:103A30009F0010309D000230950016309B0017301B
:103A4000AE000E307D01C6000B30C80008004201F8
:103A50004E084001A50042014D084001A40042016A
:103A60004C084001A30042014B084001A200740829
:103A7000A5007308A4007208A3007108A200220820
:103A8000F5002308F6002408F7002508F800173091
:103A9000F836F70CF60CF50C890B482DFF30750540
:103AA000A00000307605A10020082104031D772D19
:103AB0002208F5002308F6002408F7002508F8007E
:103AC0000130F535F60DF70DF80D890B612D7808ED
:103AD000770476047504031D722D0230F100003066
:103AE000F20008000330F1000030F2000800200A64
:103AF0002104031D9A2D2208F5002308F60024084E
:103B0000F7002508F8000930F535F60DF70DF80D2A
:103B1000890B842D7808770476047504031D922D93
:103B20000130932D0030F900FA017908F1007A088C
:103B3000F20008000430F1000030F200080000300C
:103B40003A05C20000303B05C30080303C05C4008C
:103B50007F303D05C5004508440443044204031D6D
:103B6000B92D0030BD000030BC000030BB0000307B
:103B7000BA0000303E05C20000303F05C30080306F
:103B80004005C4007F304105C50045084404430496
:103B90004204031DD32D0030C1000030C0000030AE
:103BA000BF000030BE00BD1FED2D0030C200003050
:103BB000C3000030C4008030C5003A08C2023B0890
:103BC000C33B3C08C43B3D08C53B4508BD00440819
:103BD000BC004308BB004208BA00C11F072E0030DA
:103BE000C2000030C3000030C4008030C5003E0871
:103BF000C2023F08C33B4008C43B4108C53B4508DF
:103C0000C1004408C0004308BF004208BE00803025
:103C1000BD068030C10641083D02031D0800400872
:103C20003C02031D08003F083B02031D08003E083C
:103C30003A0208004001AE000430AD002D084201F8
:103C4000D50055304001A8000130A9000130AA007C
:103C50000030AB0051308731D9279E3156304001BA
:103C6000A8000130A9000730AA000030AB00513095
:103C7000A53108259E31420156087F39A2314B22D9
:103C80009E314001AD002E088600033087002D08CC
:103C9000810042015708A2314B229E314001AD0004
:103CA0002E0A8600033087002D0881004201580843
:103CB000A2314B229E314001AD002E08023E86000B
:103CC000033087002D08810042015908A2314B22A0
:103CD0009E314001AD002E08033E86000330870070
:103CE0002D08810042015A084001AD002E08043E13
:103CF0008600033087002D08810042015B08A23155
:103D00004B229E314001AD002E08053E8600033057
:103D100087002D08810042015C08A2314B2240013E
:103D2000AD002E08063E8600033087002D08810076
:103D30000800A0002008031DF41FAE2E7109A20088
:103D40007209A3007309A4007409A500A20A03194B
:103D5000A30A0319A40A0319A50AB62E7408A5001C
:103D60007308A4007208A3007108A2007408730409
:103D700072047104031DC52E0030F4000030F300FE
:103D80000030F2000030F10008009630F5007508B0
:103D9000A100FE3025050319EC2E0130F500750851
:103DA000A1070130A536A40CA30CA20C890BD22EBE
:103DB000C92E0130F5007508A1070130A2070030B7
:103DC000A33D0030A43D0030A53D0130A536A40C34
:103DD000A30CA20C890BE62EFF3025050319FE2E3D
:103DE000D92E02302102031C002F0130A102013024
:103DF000A235A30DA40DA50D890BF82EA41FF12E3D
:103E000021180A2FFF30A205FF30A3057F30A4053B
:103E1000FF30A5050310A10C2108F500F601F701FC
:103E2000F8011830F535F60DF70DF80D890B122F46
:103E30007508A2047608A3047708A4047808A504EA
:103E40002008031DF41F252FA5172508F4002408BA
:103E5000F3002308F2002208F100080042014A089A
:103E60004001D300420149084001D2004201480804
:103E70004001D100420147084001D0004308D3006F
:103E80004208D2004108D1004008D0005008C400C8
:103E90005108C5005208C6005308C7001730C7367E
:103EA000C60CC50CC40C890B4F2FFF304405C8004D
:103EB00000304505C9004808813ECE00FF30493D2D
:103EC000CF004F08803AC40080304402031D6A2F9F
:103ED00017304E02031808004001CF1BC42FFF30DB
:103EE000C400FF30C5007F30C6000030C7004E0A56
:103EF0007D2FC737C60CC50CC40C890B792F47081A
:103F0000CD004608CC004508CB004408CA00500844
:103F10004A05C40051084B05C50052084C05C600AF
:103F200053084D05C70047084604450444040319D7
:103F300008005008C4005108C5005208C6005308C4
:103F4000C7001F30C736C60CC50CC40C890BA22F86
:103F500044080319B32F4A08D0074B08D13D4C0839
:103F6000D23D4D08D33D4A09C4004B09C5004C0958
:103F7000C6004D09C7004408D0054508D1054608CC
:103F8000D2054708D305F72F5008C4005108C500D3
:103F90005208C6005308C7001F30C736C60CC50CF0
:103FA000C40C890BCD2F4408031DDA2F0030D30039
:103FB0000030F22F5008C4005108C5005208C60056
:103FC0005308C7000130C435C50DC60DC70D890B98
:103FD000E32F47084604450444040319F72FBF3074
:103FE000D3008030D2000030D1000030D000530820
:103FF000C3005208C2005108C1005008C0000800A8
:1041A8000800191008001114080001300800A33194
:1041B8005E2308004E010F1008004301901208000A
:1041C80043019114080043011115080043010C082C
:1041D80008004E010F14080042011D121D160800A8
:1041E8004301911611160800430191121116080097
:1041F800A031E42001300800A031E420023008009A
:10420800A031E42001300800A031E7200030080088
:10421800A031F82005300800A031F4200A30080049
:10422800A031F420093008000130A431EA24080044
:104238000030A431EA240800823052018C000800C2
:10424800F100710843018C0008004301BD10BC0156
:104258000E3008004301BD10BC010E3008004E01AD
:104268000F18080043013329510196019630950033
:1042780008007208D1007108D00008007208D30045
:104288007108D2000800F3007308A631322608002E
:104298007E01BF1D0800A231012208004301110E52
:1042A800890C890C0139080043013D108031022036
:1042B8000430080072084301D5007108D4000800D2
:1042C80072084301D9007108D80008007208430138
:1042D800DB007108DA00080072084301D700710892
:1042E800D6000800640080010131890B7729003469
:1042F80043013D143635A131242103300800410122
:104308006A080319892901300800003008004101B2
:104318006E08031991290130080000300800430194
:104328003D140314360DA1312421053008004F0136
:1043380096019701980199019A019B010800BD1CFB
:104348000800A1313321A131A631A326A131A32927
:1043580043018F0108309000910113308D009012B5
:104368000800603051018D008F01910106309300E3
:104378009201080074087304720471040319080098
:104388008030F40608004301901A08008F010830B5
:104398009000910113308D0090160800F10071080B
:1043A800430196004E010F1DD6290F11430116082F
:1043B800080003104001961C0314031CE629400161
:1043C800961408004001961008007708F200760855
:1043D800F1007808F9007908F3000030A6317B264F
:1043E80008007708F2007608F1007808F9007908E3
:1043F800F3000230A6317B26080043015608570413
:1044080003190B2A57088A0056080A00A2317E01B0
:10441800BF1108004301BD1D08007208B8007108EB
:10442800B7007408BA007308B900BD110800F3009A
:1044380073089E009317131313141318212A0D08D9
:10444800F2000C08F1000800F400F301741C302A93
:104458007108F2007208F3070310F10D0310F40C51
:104468007408031D2A2A73080800933040019F002E
:104478009D019C011D084301CF0040011C08430118
:10448800CE004E018C12903040019E000800F800CA
:104498000F307805F5000A30F6007608F100780844
:1044A800F7000430F736890B562A7708A2312822FC
:1044B8007507080001307C0191002930920009300D
:1044C8009300043094000430950096010A30970058
:1044D8009801990187309000080001307C019B0009
:1044E80028309C0004309D0004309E0004309F005A
:1044F800A0010230A100A201A30187309A000800A0
:10450800DE304001EA006A08EB0041015D08DA008C
:104518005C08D9006B304001EA006A084101DB0001
:104528000030A7312A2708007A08F100FF39031D57
:104538000030F2000230F3000030F400A2310E2205
:10454800A2310030F600F700F801A131E92104306A
:1045580008007A08F100FF39031D0030F20001302D
:10456800F3000030F400A2310E22A2310030F60030
:10457800F700F801A131E921023008007A08F100BA
:10458800FF39031D0030F2000230F3000030F40060
:10459800A2310E22A2310030F600F700F801A13155
:1045A800E921023008007A08F100FF39031D0030C4
:1045B800F2000130F3000030F400A2310E22A231E3
:1045C8000030F600F700F801A131E92104300800B5
:1045D8000B307D01C8001F30C90016307E019B00DA
:1045E8001730AE004030430199000A309A000F306E
:1045F80097004001921143019A1208007108D03EB9
:10460800F300FF30723DF400003074020A300319E1
:1046180073020318112B0130122B0030F500F6013C
:104628007508F1007608F20008007508803AF6006F
:1046380080307602031D222B013074020318080013
:104648007409F6007509F700F60A0319F70A7608DF
:10465800F4007708F50008007108BF3EF300FF304A
:10466800723DF400003074021A3003197302031803
:104678003F2B0130402B0030F500F6017508F100A2
:104688007608F200080071089F3EF300FF30723D83
:10469800F400003074021A30031973020318562B01
:1046A8000130572B0030F500F6017508F100760847
:1046B800F200080042011908F0007C08C63E860096
:1046C80001308700700881000130F0007008FC0795
:1046D80008307C020318FC010130F0007008410129
:1046E800EA070800F201F20A4301BD188C2B3D11BC
:1046F800FF30F1007108B600A031DE20A331A031EF
:10470800D520A331A031E1203C08F1007108F20066
:10471800720808002E08B0003008B1002D08B0005B
:104728003008B2002F08B0003008B3003130A800BC
:104738000030A9000330AA000030AB0053308731A5
:10474800D92708002E08B0003008B1002D08B000A5
:104758003008B2002F08B0003008B3003130A8008C
:104768000030A9000330AA000030AB005330873175
:10477800D9270800F5007508F3007308F4007508D8
:1047880086000230870001080319CF2B0130F3009F
:104798007308F507C32B74087502F100F201F11BC9
:1047A800F2030800AF002F08AE002E084201D50022
:1047B80040012D08AE002E084201D60055304001B8
:1047C800A8000130A9000230AA000030AB00513027
:1047D8008731D927080042018E018F01900191018C
:1047E800920193018D0141019E019B019C0194015D
:1047F80095019601970103309A0099019801943028
:10480800930010309D0008007A08023E8600870158
:104818000108F1000030F2007A0886008701403F65
:10482800F300413FF400A2310E22A4310030F6001B
:10483800F700F801A131E92102300800F501F6017D
:10484800711C2A2C7308F5077408F63D0130F335FE
:10485800F40D890B2B2C0130F236F10C890B302C1E
:1048680071087204031D242C7608F2007508F10003
:1048780008001C08F3007308FA001D08F300730809
:10488800FB007A08F300F4017B08F500F6017508CF
:10489800F600F50173087507F8007408763DF9000D
:1048A8007908F2007808F1000800F501F50A2030CF
:1048B8007106720403196D2C7108F73EF300FF307E
:1048C800723DF400003074020530031973020318B6
:1048D800F5017508F300F4017308F1007408F2009B
:1048E8000800003088310220A43116304001B4009D
:1048F8003408AD001130A331D623A4314001AD01F5
:10490800AD0A1030A331D623A43107304001B400DA
:104918003408AD000130A331D62308008030BD062D
:104928004108F4004008F3003F08F2003E08F10097
:104938003D08F8003C08F7003B08F6003A08F50087
:1049480088310F207408BD007308BC007208BB00D2
:104958007108BA00080020307104F30000307204B6
:10496800F40073089F3EF500FF30743DF6000030F8
:1049780076021A30031975020318C42C0130C52CAD
:104988000030F700F8017708F1007808F200080015
:10499800403041016E020318E72C6C08A03E8600E7
:1049A80002308700010842019A000130F0007008C7
:1049B8004101EC0740306C020318EC010130F000B3
:1049C8007008EE0708004E01191208004001A60001
:1049D800A701A70A4301BD18052DBD144001A70171
:1049E80026080319FB2C4301BB01BB0A002D02302A
:1049F800FB007B084301BB00A031D720A431A131C3
:104A0800A321400127080800AC0040012C08A73169
:104A1800C927A531003A0319092D40012908F200D8
:104A28002808F1002B08F4002A08F300A2310E220E
:104A3800A531A1311821A531A3317623A531013A39
:104A4800031D0800202DF900F501F6017108F30097
:104A5800F4017308F7007408F800791C372D7708FB
:104A6800F5077808F63D0130F735F80D890B382D34
:104A78000310F90C7908031D312D7608F20075082A
:104A8800F1000800F8007208F6007108F5007808CF
:104A9800F3007308F7007708860002308700F70AEA
:104AA8007608F4007508F300F50A0319F60A730886
:104AB8008400740885000008C03F890803190800AD
:104AC8004F2D40010F0CF100F10C710C013941011F
:104AD8006F060319802D6F03031D7D2D0130F10032
:104AE8007108E80765306802031C842DEF01013066
:104AF8000800EF01EF0A842D68080319842DE801E6
:104B0800003008007708BF3EA000FF30783DA100C4
:104B1800003021021A30031920020318952D0130A4
:104B2800962D0030A200A3012208F9002308FA00FC
:104B380079087A040319080020307704F700003058
:104B48007804F800080077089F3EA000FF30783D01
:104B5800A100003021021A30031920020318B62DD3
:104B68000130B72D0030A200A3012208F900230864
:104B7800FA0079087A04031908005F307705F7000E
:104B880000307805F80008002E08AF002F08B000A4
:104B98002D08AF002F08B1003030A8000030A90060
:104BA8000230AA000030AB0053308731D927A53135
:104BB80030304001A8000030A9000130AA000030C0
:104BC800AB005330A53108254001300808002E08F5
:104BD800AF002F08B0002D08AF002F08B10030300B
:104BE800A8000030A9000230AA000030AB00533002
:104BF8008731D927A53130304001A8000030A900FD
:104C08000130AA000030AB005330A531082540011F
:104C180030080800A1319B21A631A131AC21A63171
:104C2800A231EC22A6319C31C124A631A131B52193
:104C3800A631A1312021A631A2315E22A631A331AD
:104C4800EF23A631A2317122A631A2313922A63131
:104C58009831D820A631A13138210800F20041014D
:104C68006E080319332E4E01191A3E2E720842019E
:104C78009A00532E19127208F10041016D08A03EE6
:104C8800860002308700710881000130F100710848
:104C9800ED0740306D020318ED010130EE024E01C0
:104CA80019160800A700A501A60125082707A100D5
:104CB80021088600023087000108A2002208A4000B
:104CC8002408031908002408A100A2012108F400FF
:104CD8002208F5002008A3002308F600A7315E2764
:104CE800A63101304001A5070030A63D592EF50038
:104CF800710872040319932E7535A03E86000130A1
:104D080087007108C03F7208C13F7308F400750836
:104D1800AC3E8600013087007408810008007535B4
:104D2800A03E860001308700D930C03F2030C13F07
:104D38007508AC3E86000130870081010800A0316B
:104D4800DE20A63143013D1CB52EA1315221A631EA
:104D5800003A0319B52E0F304001A3002308430180
:104D6800BB003B084001A300A401A335A40D0030FB
:104D780023078400A830243D8500013F8A00003FB6
:104D88000A00A6314001A50025084301BB00080020
:104D98004301BD15D92EA13104210800A031ED2011
:104DA80003300800A131082108002C084001A000A8
:104DB8002008FA00430121088A0020080A00A631C9
:104DC8004001A100A2012208003A0319EC2ED62EB8
:104DD8002108013A0319D62E033A0319CF2E013AB6
:104DE8000319CF2E073A0319D22ED62E08004301F5
:104DF8003D1002304001A00020084301BC000A2FEA
:104E0800A13104210800A131082108002E08400121
:104E1800A0002008FA000430A03E86000130870078
:104E2800413F8A00403F0A00A7314001A100A2018A
:104E38002208003A0319212F072F2108023A0319E3
:104E4800042F013A0319042F072F08004001E70037
:104E580041015A084001E900410159084001E800B0
:104E68004201CF01D001400168088400690885002B
:104E780012000319552F6830E5006508DD0041016F
:104E88005B084001E6006608DE0067088C311624DE
:104E9800A7315D084201CF0740015E084201D03DBD
:104EA800372F420150084101DA0042014F08410101
:104EB800D90008007608031D7608031D672F7408BB
:104EC800A131472108007608033E860087011600B5
:104ED800010403198A2F7608033E86008701403FA4
:104EE800F700413FF800760A86008701403FF90045
:104EF800413FFA007A08803AFB007808803A7B0242
:104F0800031D882F7708790203180800760A86009F
:104F180087010130810741310318810A08007C08A4
:104F2800BE3E860001308700810142011D1DA82F69
:104F38007C08BE3E86000130870081144301550875
:104F48008A0054080A00A73142019D1CB72F7C082B
:104F5800BE3E8600013087000115430153088A00D0
:104F680052080A00A7317C08BE3E8600013087003F
:104F780001080319C62F430151088A0050080A0086
:104F8800A7310800A3315E230800F200F301F30AF9
:104F980043013D19FE2F7208F1007108B600BD10DB
:104FA8003D153D100E30F1007108BB00F430B4001F
:104FB8000130B500BD15D930A0002030A100AC01EA
:104FC800D930A2002030A300AD01D930A400203090
:104FD800A500AE01D930A6002030A700AF010030EF
:104FE800A8000830A900B001A031DE20A731A13106
:104FF800C721F3017308080029342134933421347C
:105008007C34213406341C34A03419345834213407
:10501800CC342634FC342034003421340434213494
:10502800083421340C34213410342134143421341C
:105038002E342134FB3426340A3446346C3461343B
:10504800733468342034493444343A3420342534B1
:1050580030343234583425343034323458342534EA
:1050680030343234583400340A34533452344134EE
:105078004D3420344534723472346F3472342034F1
:1050880025343034343458343A34203425343034E8
:105098003234583400340A34543465346D3470343E
:1050A80065347234613474347534723465343A3426
:1050B800203425342E343134663400340A345734DD
:1050C800723469347434653420345334523441347E
:1050D8004D343A34203444346F346E3465340034FB
:1050E8000A3425343034323464343A342534303494
:1050F800323464343A3425343034323464342D3420
:10510800003425343034323464342F342534303488
:10511800323464342F343234303425343034323439
:10512800643400340A3452346534613464342034CD
:105138005334523441344D343A34203444346F3487
:105148006E34653400340A34523475346E346E3437
:1051580069346E3467340A3400340A3440340F3406
:10516800003449344E34463400344E3441344E34DD
:10517800003469346E34663400346E3461346E340D
:0851880000346C34663400347D
:020000040001F9
:0A000E00EC3FFF3FFF07FF3FFF3FFD
:00000001FF
