:1000000080312528911508007E1480314E01161A82
:100010000C1E0E28A2319E22803123280B1F23287C
:10002000191A0F1E1A28420164088A0063080A0080
:1000300080312328991A8F1E2328420162088A00E2
:1000400061080A0080317E100900803127284101B3
:100050008731FF278031EF00FC014001EC01ED0109
:10006000E4308400003085000A30A231C82280319B
:1000700047308400013085001630A231C82280311B
:10008000A0308400013085002E30A231C82280319A
:1000900020308400023085005030A231C8228031E7
:1000A000A0308400023085004030A231C8227E108A
:1000B000400196313F2E4101BC00BA01BB01400115
:1000C00057084101D000400156084101CF004001CE
:1000D00055084101CE00400154084101CD005008AF
:1000E0004001BD0041014F084001BC0041014E08E4
:1000F0004001BB0041014D084001BA000030C10081
:100100000030C0000030BF000030BE009D319F2590
:1001100080310318A32801304101BA000030BB0030
:100120005008F4004F08F3004E08F2004D08F100AB
:10013000A331102380317408D0007308CF007208F7
:10014000CE007108CD004101D301D4016508C00083
:100150006408BF003A083B04031DB12840016C1D30
:10016000CB2841013A083B04031DB8282B30B9289D
:100170002D30A0000030A10020084001D90059080E
:100180004401A00001304101D3070030D43DFF30CD
:10019000BF07FF30C03D41015008F4004F08F30095
:1001A0004E08F2004D08F1009D3127258031710382
:1001B0007204031D20295808BF3ED900FF300318E0
:1001C0000030DA0000305A021A30031959020318BD
:1001D000EB280130EC280030DB00DC015B0841013A
:1001E000A20040015C084101A30022082304031976
:1001F000FD28B530F100A8300029BD30F100A8304D
:10020000F2005308203EA63149268031FD30BF0759
:10021000FF30C03D20304001D9005908A8004101FD
:1002200040084001AA0041013F084001A9004101E6
:100230003C089B3129232908D5002808D400080050
:1002400041015008F4004F08F3004E08F2004D0839
:10025000F1009D312725803171087204031D752935
:100260005808BF3ED900FF3003180030DA000030D4
:100270005A021A3003195902031840290130412942
:100280000030DB00DC015B084101A40040015C0898
:100290004101A5002408250403195229B930F100B1
:1002A000A8305529C130F100A830F2005308203E93
:1002B000A63149268031FD30BF07FF30C03D2030D8
:1002C0004001D9005908A800410140084001AA0096
:1002D00041013F084001A90041013C089B3129230D
:1002E0002908D5002808D40008003F304101D80073
:1002F0008030D7000030D6000030D500D101D201C7
:100300005008F4004F08F3004E08F2004D08F100C9
:100310000030F8000030F7000030F6000030F50043
:100320009A31E0228031031CC429502A4130A300B5
:100330002030A2000030A1000030A0004101580888
:100340004001A700410157084001A600410156089D
:100350004001A500410155084001A4008931FE215A
:10036000803123084101D800400122084101D70013
:10037000400121084101D600400120084101D5007B
:100380000130D1070030D23D410150084001BD008D
:1003900041014F084001BC0041014E084001BB0033
:1003A00041014D084001BA004130A3002030A200B5
:1003B0000030A1000030A000410158084001A70012
:1003C000410157084001A600410156084001A5001F
:1003D000410155084001A4008931FE2180312308E4
:1003E000C1002208C0002108BF002008BE009D31C6
:1003F0009F258031031C2B2A96294130A9002030EB
:10040000A8000030A7000030A600410158084001B4
:10041000AD00410157084001AC00410156084001C0
:10042000AB00410155084001AA009431C624803137
:1004300029084101D800400128084101D7004001A6
:1004400027084101D600400126084101D500FF30B0
:10045000D107FF30D23D410150084001BD004101AC
:100460004F084001BC0041014E084001BB00410162
:100470004D084001BA00410158084001C100410146
:1004800057084001C000410156084001BF0041012A
:1004900055084001BE009D319F258031031CFD2978
:1004A0005808D900DA015908F7005A08F800A631AF
:1004B000892680317708DB005B084101C2004208D1
:1004C0004001D90059084101C10067304206031DAF
:1004D000842A66086704031D712A0130E600003093
:1004E000E7006708803A4001D90080305902031DB7
:1004F0007C2A0130410166020318862A0630410138
:10050000BD000030BE008B2AE71B7E2A4101670830
:10051000BE006608BD0067304206031DBE2A5208B1
:10052000803A4001D9007F305902031D9A2AFC30DD
:1005300041015102031CB82A41013D08FF3E400120
:10054000D900FF3041013E3D4001DA005A08803AAF
:10055000DB0041015208803A40015B02031DB42ACE
:100560004101510840015902031CB82A6630B92ADA
:1005700065304001D90059084101C1003E08B3006F
:100580003D08B20067304206031DCB2A66304106A3
:100590000319D21FCF2A0130B2070030B33D6630B5
:1005A0004106031DE72AD21FDF2A3F30D8008030E2
:1005B000D7000030D6000030D500D101D20167301D
:1005C00042060319E72A5108B2075208B33DCB018E
:1005D000CC015008C6004F08C5004E08C4004D08A5
:1005E000C3005808B7005708B6005608B5005508AC
:1005F000B4004C08803A4001D90041013308803AE8
:1006000040015902031D072B410132084B02031818
:10061000D22B410158084001A9004101570840016F
:10062000A800410156084001A700410155084001BA
:10063000A600410146084001AD00410145084001C6
:10064000AC00410144084001AB00410143084001B6
:10065000AA009431C62480312908C3002808C200AA
:100660002708C1002608C0009F312E278031400195
:1006700043084101CA00400142084101C90040014C
:1006800041084101C800400140084101C7004A0833
:10069000F4004908F3004808F2004708F1009C31D3
:1006A000C22480317208B9007108B8004A084001BC
:1006B000A700410149084001A60041014808400146
:1006C000A500410147084001A4004101580840012C
:1006D000A300410157084001A20041015608400112
:1006E000A100410155084001A0008931FE2180315F
:1006F0002308BD002208BC002108BB002008BA0066
:10070000410146084001C100410145084001C000C7
:10071000410144084001BF00410143084001BE00BF
:10072000A531952580313D084101C60040013C08B6
:100730004101C50040013B084101C40040013A08A5
:100740004101C30041304001A9002030A800003021
:10075000A7000030A600410158084001AD0041014A
:1007600057084001AC00410156084001AB0041016F
:1007700055084001AA009431C6248031290841015E
:10078000D800400128084101D70040012708410155
:10079000D600400126084101D5000130CB070030CA
:1007A000CC3DF92A40304001A300A030A200003027
:1007B000A1000030A000410158084001A7004101FC
:1007C00057084001A600410156084001A50041011B
:1007D00055084001A4008931FE21803123084101E0
:1007E000CA00400122084101C9004001210841011D
:1007F000C800400120084101C70046084001BD0073
:10080000410145084001BC00410144084001BB00D2
:10081000410143084001BA0041014A084001C100BA
:10082000410149084001C000410148084001BF00A2
:10083000410147084001BE009D319F2580310318CA
:10084000242C003041013E2C41014608F4004508AB
:10085000F3004408F2004308F1004A08F800490890
:10086000F7004808F6004708F5009A31E022803189
:10087000031C452C41013818452C0030CA000030BB
:10088000C9000030C8000030C70041014A08F40028
:100890004908F3004808F2004708F1005008F80042
:1008A0004F08F7004E08F6004D08F50088311C206F
:1008B000803174084101C6007308C5007208C40085
:1008C0007108C30046084001BD00410145084001D0
:1008D000BC00410144084001BB0041014308400104
:1008E000BA004130A3002030A2000030A100003047
:1008F000A000410137084001A7004101360840012E
:10090000A600410135084001A5004101340840011D
:10091000A4008931FE2180312308C1002208C000D3
:100920002108BF002008BE009D319F258031031C97
:10093000D12C01304101D1070030D23D413040017E
:10094000A3002030A2000030A1000030A00041012F
:1009500037084001A700410136084001A6004101C7
:1009600035084001A500410134084001A400893147
:10097000FE21803123084101B700400122084101D6
:10098000B600400121084101B500400120084101A5
:10099000B40066304106031DD12C0130B20700308F
:1009A000B33D41013708D8003608D7003508D600D6
:1009B0003408D500653041060319E32C5208B10014
:1009C0005108B000E52CB001B101AE01AF01AC019E
:1009D000AD01CB01CC011D2E410158084001A900F9
:1009E000410157084001A800410156084001A700F5
:1009F000410155084001A600410146084001AD00F3
:100A0000410145084001AC00410144084001AB00F0
:100A1000410143084001AA009431C62480312908CD
:100A2000C3002808C2002708C1002608C0009F3163
:100A30002E278031400143084101CA00400142088D
:100A40004101C900400141084101C800400140087E
:100A50004101C7004A08F4004908F3004808F200C1
:100A60004708F1009C31C22480317208B900710836
:100A7000B80040016C1A4B2D410138083904031DA0
:100A80004B2D673042060319B11F4B2D0130AC07C7
:100A90000030AD3D9E2D41012E082F040319B11FDA
:100AA0006A2D2E304001D90041015308203E8600B6
:100AB0000230870040015908810001304101D3070D
:100AC0000030D43DFF30BF07FF30C03D0130AE00E5
:100AD0000030AF002C082D040319882D3030400160
:100AE000D90041015308203E8600023087004001B2
:100AF0005908810001304101D3070030D43DFF3057
:100B0000BF07FF30C03DFF30AC07FF30AD3D6A2D61
:100B10003808303E4001D90041015308203E86008C
:100B20000230870040015908810001304101D3079C
:100B30000030D43DFF30BF07FF30C03D4A084001C0
:100B4000A700410149084001A600410148084001B1
:100B5000A500410147084001A40041015808400197
:100B6000A300410157084001A2004101560840017D
:100B7000A100410155084001A0008931FE218031CA
:100B80002308BD002208BC002108BB002008BA00D1
:100B9000410146084001C100410145084001C00033
:100BA000410144084001BF00410143084001BE002B
:100BB000A531952580313D084101C60040013C0822
:100BC0004101C50040013B084101C40040013A0811
:100BD0004101C30041304001A9002030A80000308D
:100BE000A7000030A600410158084001AD004101B6
:100BF00057084001AC00410156084001AB004101DB
:100C000055084001AA009431C624803129084101C9
:100C1000D800400128084101D700400127084101C0
:100C2000D600400126084101D500FF30B007FF3053
:100C3000B13D0130CB070030CC3D4C08803A40013B
:100C4000D90041013308803A40015902031D2B2E7F
:100C5000410132084B0203183B2E41015408803AEF
:100C60004001D90080305902031D392E4B3041011B
:100C70005302031CEC2C41012E082F04031D532E9C
:100C800040016C1E532E2E30D90041015308203EE6
:100C9000860002308700400159088100013041017F
:100CA000D3070030D43D41015308203E8600023076
:100CB0008700810165304106031D242F4F30CB0092
:100CC0000030CC004B08203E8600023087008101B6
:100CD000BA01BB01D21F752E0130BA000030BB0033
:100CE000D109D209D10A0319D20A0230BD0000305D
:100CF000BE00510852040319B32EFF304101CB0747
:100D0000FF30CC3D0A30F1000030F2005208F40010
:100D10005108F3009A310A2280317108303E4001B7
:100D2000D90041014B08203E860002308700400177
:100D3000590881000A30F1000030F20041015208E8
:100D4000F4005108F3009B31BF2380317208D200B8
:100D50007108D100FF30BD07FF30BE3DFF30BF0737
:100D6000FF30C03D792E3E08803A4001D9008030E6
:100D70005902031DBE2E013041013D0203187D2E94
:100D8000FF304101CB07FF30CC3D3A083B04031D47
:100D9000CB2E2B30CC2E2D30A6000030A7002608FD
:100DA0004001D90041014B08203E860002308700F7
:100DB000400159088100FF304101BF07FF30C03DAD
:100DC000FF30CB07FF30CC3D40015808BF3ED90073
:100DD000FF3003180030DA0000305A021A300319CD
:100DE00059020318F52E0130F62E0030DB00DC012D
:100DF0005B084101AA0040015C084101AB002A08E0
:100E00002B04031D052F6530062F4530A800003048
:100E1000A90028084001D90041014B08203E860066
:100E200002308700400159088100FF304101BF07AF
:100E3000FF30C03D4B08203EF1000230F200530865
:100E4000203EA6314926803120304001D900590882
:100E5000A800410140084001AA0041013F084001AB
:100E6000A90041013C089B3129232908D500280805
:100E7000D4000800AB01AC01A401A501AA01AA0A93
:100E800077088400780885001200203A03195A2F49
:100E900077088400780885000008F73EA000FF303E
:100EA00003180030A1000030210205300319200290
:100EB0000318AA012A08A000A1012008A600210801
:100EC000A7002608270403196F2F0130F707003009
:100ED000F83D3E2F0130A4000030A500A12F770877
:100EE0008400780885000008A000A1012108003ACC
:100EF00003197B2FA52F20082B3A0319A12F063A9F
:100F000003196A2FA52F7708840078088500000848
:100F1000A0002C08F2002B08F1000A30F30000308A
:100F2000F400A5315D2587317208A2002008710206
:100F3000A100031CA2032108303EAB000030223D7B
:100F4000AC000130F7070030F83D770884007808DE
:100F500085000008D03EA000FF3003180030A1003B
:100F6000003021020A30031920020318B92F013082
:100F7000BA2F0030A200A3012208A8002308A9006C
:100F800028082904031D832F24082504031DD42FBA
:100F90002B09A0002C09A100A00A0319A10A20080E
:100FA000F7002108F80008002C08F8002B08F700CB
:100FB0000800AC0040012C089831E4208731003A49
:100FC0000319DA2F40012908F2002808F1002B0844
:100FD000F4002A08F300A331602387310030F600C3
:100FE000F700F801A33147238731A23177228731F7
:100FF000A431AE248731013A031D0800F82F0134D3
:10100000F501F50A203071067204031914287108DD
:10101000F73EF300FF30723DF400003074020530FB
:10102000031973020318F5017508F300F40173083E
:10103000F1007408F2000800740880394001A00033
:101040002008A8007435A0002008AA00F31B2A1469
:101050002A08031939282A0A031D36280030F4000B
:101060000030F3000030F2000030F100F317F4011B
:1010700041280030F4000030F3000030F20000306E
:10108000F10078088039A0002008A9002908280666
:10109000031D28177835A0002008A900F71B291484
:1010A000290803196128290A031D5E280030F80069
:1010B0000030F7000030F6000030F500F717F801B7
:1010C00069280030F8000030F7000030F6000030EA
:1010D000F5002A0829020318AF28281F732880303A
:1010E000A0002008A8062A08A0002008AB002908B4
:1010F000A0002008AA002B08A0002008A900710861
:10110000A0002008AB007508A0002008F1002B0803
:10111000A0002008F5007208A0002008AB007608A7
:10112000A0002008F2002B08A0002008F600730899
:10113000A0002008AB007708A0002008F3002B08CF
:10114000A0002008F7007408A0002008AB00780871
:10115000A0002008F4002B08A0002008F800AB0134
:101160002908A000A1012108A3002A082002A2004A
:10117000031CA3032308803AA40080302402031D2B
:10118000C3281A302202031CF7287408730472045F
:1011900071040319CD280130CE2800304001A00091
:1011A0002008AB000030F4000030F3000030F20003
:1011B0000030F1002908A0002008AA00FC282B1C00
:1011C000E7282B360138A0002008AB00E9280310DF
:1011D000AB0C7118AB170130A000F437F30CF20C14
:1011E000F10CA00BED280130A0002008AA07400157
:1011F00029082A02031CDF28281B2D292A08031D81
:101200000A290030F4000030F3000030F200003012
:10121000F10008007508F1077608F23D7708F33D04
:101220007808F43D741CA7292B1C1C292B36013887
:10123000A0002008AB001E290310AB0C7118AB17DF
:101240000130A000F437F30CF20CF10CA00B2229B2
:101250000130A0002008AA07A7297408803AA0003E
:101260007808803A2002031D3F2977087302031D86
:101270003F2976087202031D3F2975087102031881
:101280007729FF30A000FF30A100FF30A200FF301F
:10129000A30071087502A4007208763BA5007308CC
:1012A000773BA6007408783BA7002408A007250810
:1012B000A13D2608A23D2708A33D2308F4002208EB
:1012C000F3002108F2002008F1008030A00020087F
:1012D000A806AB09AB0A2B08031D7F290130F107D3
:1012E0000030F23D0030F33D0030F43D7F297508B9
:1012F000F1027608F23B7708F33B7808F43B740878
:10130000730472047104031DA5292B08031DA5296C
:101310000030F4000030F3000030F2000030F10043
:1013200008000130F135F20DF30DF40D890B92290F
:10133000AB1B71142B1C9E2903149F290310AB0DAA
:101340002A080319A5290130AA02F31F9129A9012E
:10135000AB1FB2292B087F3903197118B029B229A4
:10136000A901A90A29080319DE290130F107003073
:10137000F23D0030F33D0030F43D741CDE2971086D
:10138000A0007208A1007308A2007408A300013035
:10139000A400A337A20CA10CA00CA40BC9292308FC
:1013A000F4002208F3002108F2002008F1002A0AC4
:1013B0000319DE290130A0002008AA072A0A031D0C
:1013C0002A08031DEE290030F4000030F30000303D
:1013D000F2000030F1002A080319A8012A1CF229A2
:1013E000F317F6297F30A0002008F3052A36A00065
:1013F0002008F400A81F0800F4170800230880390B
:10140000A8002808AD002335A8002808AF00A21BBB
:101410002F142F080319192A2F0A031D172A003029
:10142000A3000030A2000030A1000030A000A217ED
:10143000212A0030A3000030A2000030A1000030BB
:10144000A00027088039A8002808AD062735A80085
:101450002808AE00A61B2E142E0803193C2A2E0ABB
:10146000031D3A2A0030A7000030A6000030A50076
:101470000030A400A617442A0030A7000030A600C0
:101480000030A5000030A4002E08031D2F08031D06
:10149000522A0030A3000030A2000030A10000302A
:1014A000A00008002008A8002808F1002608A6319E
:1014B0002A2689317208B9007108B8003808A800D6
:1014C000A901AA01AB012B08B3002A08B200290820
:1014D000B1002808B0003908A800A901AA01AB0191
:1014E0002B08B7002A08B6002908B5002808B40060
:1014F0002108A8002808F1002508A6312A268931EC
:101500007208B9007108B8003808A800A901AA013A
:10151000AB012808B0072908B13D2A08B23D2B08C5
:10152000B33D3908A800A901AA01AB012808B407F6
:101530002908B53D2A08B63D2B08B73D2208A8006A
:101540002808F1002408A6312A2689317208B9003A
:101550007108B8003808A800A901AA01AB01280841
:10156000B0072908B13D2A08B23D2B08B33D390820
:10157000A800A901AA01AB012808B4072908B53DB4
:101580002A08B63D2B08B73D0830B035B10DB20D75
:10159000B30D890BC52A2108A8002808F1002408EA
:1015A000A6312A2689317208B9007108B8003808B6
:1015B000B0073908B13D0030B23DB33D2008A80066
:1015C0002808F1002508A6312A2689317208B900B9
:1015D0007108B8003808B0073908B13D0030B23D95
:1015E000B33D0830B035B10DB20DB30D890BF22A01
:1015F0002008A8002808F1002408A6312A268931ED
:101600007208B9007108B8003808B0073908B13D50
:101610000030B23DB33D2108A8002808F10026089B
:10162000A6312A2689317208B9007108B800380835
:10163000B4073908B53D0030B63DB73D2208A800D3
:101640002808F1002508A6312A2689317208B90038
:101650007108B8003808B4073908B53D0030B63D08
:10166000B73D2208A8002808F1002608A6312A263E
:1016700089317208B9007108B8003808A800390823
:10168000A900AA01AB010830A835A90DAA0DAB0D20
:10169000890B442B2808B4072908B53D2A08B63D14
:1016A0002B08B73D3308A800A901AA01AB012808FF
:1016B000B4072908B53D2A08B63D2B08B73D0830C8
:1016C000B035B10DB20DB30D890B602B2F082E076D
:1016D000A800A901A90D2808823EB800FF30293DC5
:1016E000B900B61B882B0130B435B50DB60DB70D5A
:1016F000890B742BB31B34140130B035B10DB20D0E
:10170000B30D890B7D2BFF30B807FF30B93D712B2E
:10171000AE01B31FA12BFF303005A800FF3031050B
:10172000A900FF303205AA007F303305AB002B083B
:101730002A0429042804031934189F2BA12BAE0175
:10174000AE0A2E080319CA2B0130B4070030B53D8C
:101750000030B63D0030B73D371CCA2B3408A80016
:101760003508A9003608AA003708AB000130AC00E4
:10177000AB37AA0CA90CA80CAC0BB82B2B08B700E4
:101780002A08B6002908B5002808B4000130B807B7
:101790000030B93D3908803AA80080302802031D86
:1017A000D32BFF303802031CDF2B7F304001B70002
:1017B0008030B6000030B5000030B400092C400184
:1017C0003908803AA80080302802031DE92B013037
:1017D00038020318F62B00304001B7000030B60085
:1017E0000030B5000030B400AD01092C40013808CC
:1017F000A8002808AF00FF30B405FF30B5057F30E2
:10180000B6050030B7052F18B6172F36A8002808E0
:10181000B7002D08A8002808B7043708A300360829
:10182000A2003508A1003408A00008004201C00051
:1018300040015D0886008701403FDF00413FE00036
:101840005F088400600885001200253A031DDB2F25
:101850005D08860087010130810741310318810A44
:101860004101E401E5014001EC01ED01FF304101DE
:10187000E600FF30E7004201B001B101562C6C14C4
:101880005D08860087010130810741310318810A14
:10189000562CEC14402C6C15402CEC15402C6C167E
:1018A000402C01304201B0000030B100420130084C
:1018B0003104031D812C40015D0886008701403FF3
:1018C000DF00413FE0005F088400600885000008F9
:1018D000E100E2016208003A03196F2C512C610803
:1018E000203A03194D2C033A03194F2C083A0319D7
:1018F0004B2C063A03193F2C1D3A0319492C512C45
:10190000562C40016C1C882CFD30EC05FF30ED0599
:101910005D0886008701403FDF00413FE0005F082F
:1019200084006008850012002A3A031DB72C5D0868
:10193000860087010130810741310318810A5E0862
:101940008600870101088400850102308107003F7D
:101950004101E400013FE500E51FFA2C40016C1451
:101960004101E409E509E40A0319E50AFA2C5D08D6
:1019700086008701403FF700413FF80087313A2752
:101980008C3178084101E5007708E400D02C400153
:101990005D08860087010130810741310318810A03
:1019A00040015D0886008701403FDF00413FE000C5
:1019B0005F088400600885000008D03EE100FF3029
:1019C00003180030E200003062020A30031961029D
:1019D0000318EC2C0130ED2C0030E300E401630827
:1019E0004201B200400164084201B30032083304EE
:1019F000031DC72C40015D0886008701403FDF00C2
:101A0000413FE0005F0884006008850012002E3A24
:101A1000031D7E2D4101E601E70140015D088600BE
:101A200087010130810741310318810A5D08860072
:101A30008701403FDF00413FE0005F08840060080D
:101A4000850012002A3A031D3B2D5D0886008701A0
:101A50000130810741310318810A5E088600870141
:101A600001088400850102308107003F4101E60042
:101A7000013FE7007E2D5D0886008701403FF700AB
:101A8000413FF80087313A278C3178084101E7005F
:101A90007708E600542D40015D088600870101307B
:101AA000810741310318810A40015D0886008701E2
:101AB000403FDF00413FE0005F0884006008850090
:101AC0000008D03EE100FF3003180030E200003093
:101AD00062020A30031961020318702D0130712D62
:101AE0000030E300E40163084201B40040016408EF
:101AF0004201B50034083504031D4B2D40015D083B
:101B000086008701403FDF00413FE0005F0884001E
:101B1000600885000008E100E2016108F700620842
:101B2000F800A63189268C317708E300630842016A
:101B3000BC003C080319DB2D40015D0886008701CD
:101B4000403FDF00413FE00001305F078400600854
:101B50000318600A85000008E100E2016108F7004F
:101B60006208F800A63189268C317708E300630803
:101B70004201BD003D080319DB2D40015D088600D0
:101B80008701403FDF00413FE00002305F078400F3
:101B900060080318600A85000008E100E20161089E
:101BA000F7006208F800A63189268C317708E30037
:101BB00063084201BE0040015D0886008701403F86
:101BC000DF00413FE0005F088400600885001200EC
:101BD000643A0319FA2D5D0886008701403FDF0053
:101BE000413FE0005F088400600885001200693A08
:101BF000031D462E5D0886008701013081074131B3
:101C00000318810A5E0886008701010884008501A7
:101C100002308107003FDF00013FE0005F08420122
:101C2000A000400160084201A100890D893B89099B
:101C3000A200A300A400A500A600A7002008400160
:101C4000B100420121084001B200420122084001D6
:101C5000B300420123084001B400420124084001BE
:101C6000B500420125084001B600420126084001A6
:101C7000B700420127084001B800420140089231F4
:101C800029223208DE003108DD00080066304201FA
:101C90003C06031D942E40015D0886008701403FED
:101CA000DF00413FE0005F08840060088500000815
:101CB000E10061084201BF0040015D088600870124
:101CC0000130810741310318810A5E0886008701CF
:101CD00001088400850104308107003F4201B800FB
:101CE000013FB900023FBA00033FBB003B0840017F
:101CF000D70042013A084001D600420139084001AC
:101D0000D500420138084001D40042013F0840019B
:101D1000DF005F08D8004201400880315B20550891
:101D2000DE005408DD000800C530F100A830F200E4
:101D30000230F3000030F4003C309C3110248C3130
:101D400071087204031D2E2F40015D088600870173
:101D5000403FDF00413FE00001305F078400600842
:101D60000318600A85000008E10061084201BF0015
:101D700040015D0886008701403FDF00413FE000F1
:101D80005F088400600885000008BF3EE100FF3066
:101D900003180030E200003062021A3003196102B9
:101DA0000318D42E0130D52E0030E300E40163087F
:101DB0004201B600400164084201B700360837040A
:101DC0000319F42E40015E08860087010108840093
:101DD000850104308107003F4201B800013FB9008E
:101DE000023FBA00033F052F40015E0886008701CD
:101DF00001088400850104308107003F4201B800DA
:101E0000013FB900023FBA00033FBB0040015D083B
:101E1000860087010230810741310318810A42019F
:101E20003B084001D70042013A084001D600420178
:101E300039084001D500420138084001D400420170
:101E40003F084001DF005F08D800420140088031B0
:101E50005B205508DE005408DD00080040015D08E5
:101E600086008701403FDF00413FE0005F088400BB
:101E7000600885001200783A03194D2F5D0886002E
:101E80008701403FDF00413FE0005F0884006008B9
:101E900085001200583A031DA72F5D0886008701B0
:101EA000403FDF00413FE0005F088400600885009C
:101EB0000008E10061084201BF0040015D088600A2
:101EC00087010130810741310318810A5E088600CD
:101ED000870101088400850102308107003F42012B
:101EE000A800013FA900AA01AB01AC01AD01AE0100
:101EF000AF0128084001B100420129084001B200A9
:101F000042012A084001B30042012B084001B400FD
:101F100042012C084001B50042012D084001B600E5
:101F200042012E084001B70042012F084001B800CD
:101F300042013F084001DF005F08B900420140084C
:101F4000933173233208DE003108DD0008005D089C
:101F500086008701403FDF00413FE0005F088400CA
:101F6000600885001200253A031DD02F5D08860009
:101F700087010130810741310318810A2530F400BF
:101F80000030F500420140084001DF005F08F60024
:101F90009831AF2001304001DD000030DE00080044
:101FA0005D08860087010130810741310318810AED
:101FB000DD01DE0108005D0886008701403FDF008B
:101FC000413FE0005F088400600885000008E100F0
:101FD000E2016108F4006208F50042014008400196
:101FE000E3006308F6009831AF208C3140015D08B2
:101FF000860087010130810741310318810ACA2F09
:10200000823052018C000800A231A4229031003AA3
:10201000031D14283928A23157220800A2315B225F
:102020000800A231632208002F084001A000200808
:10203000FA000630A03E860001308700413F8A004A
:10204000403F0A0090314001A100A2012208003A5D
:1020500003192B2811282108013A03191128033AE2
:1020600003190B28013A03190E28073A03191128FE
:1020700011283D1038084001A100430137084001F4
:10208000A0004301B70A0319B80A400120088600DE
:10209000210887000108A2317B2290310130B9026A
:1020A0000030BA3B39083A04031D582806300800AE
:1020B00003300800F3012830860000308700473FD6
:1020C000F100F11F84284001A809A909AA09AB0958
:1020D000AC09AD09AE09AF09A80A031D8228A90AF7
:1020E000031D8228AA0A031D8228AB0A031D822829
:1020F000AC0A031D8228AD0A031D8228AE0A031D07
:102100008228AF0AF301F30A2030860000308700EE
:10211000473FF100F11FAB284001A009A109A20926
:10212000A309A409A509A609A709A00A031DAB28AC
:10213000A10A031DAB28A20A031DAB28A30A031D95
:10214000AB28A40A031DAB28A50A031DAB28A60AC9
:10215000031DAB28A70A4001200821042204230400
:10216000240425042604270403190329F201F20A92
:10217000A71BC728A035A10DA20DA30DA40DA50D69
:10218000A60DA70D0130F1007108F207B828270845
:102190002F02031DE52826082E02031DE528250829
:1021A0002D02031DE52824082C02031DE528230821
:1021B0002B02031DE52822082A02031DE528210819
:1021C0002902031DE52820082802031CF7282008FF
:1021D000A8022108A93B2208AA3B2308AB3B2408FC
:1021E000AC3B2508AD3B2608AE3B2708AF3BA736E6
:1021F000A60CA50CA40CA30CA20CA10CA00C0130E5
:10220000F202031DC728730803192429A809A90984
:10221000AA09AB09AC09AD09AE09AF09A80A031DAB
:102220002429A90A031D2429AA0A031D2429AB0A6B
:10223000031D2429AC0A031D2429AD0A031D2429EA
:10224000AE0A031D2429AF0A40012808A00029086E
:10225000A1002A08A2002B08A3002C08A4002D0826
:10226000A5002E08A6002F08A7000800F3012030C3
:10227000860000308700473FF100F11F60294001D0
:10228000A009A109A209A309A409A509A609A709EA
:10229000A00A031D5E29A10A031D5E29A20A031DCF
:1022A0005E29A30A031D5E29A40A031D5E29A50A4F
:1022B000031D5E29A60A031D5E29A70AF301F30A7E
:1022C0002830860000308700473FF100F11F8B293E
:1022D0004001A809A909AA09AB09AC09AD09AE09D1
:1022E000AF09A80A031D8729A90A031D8729AA0A7D
:1022F000031D8729AB0A031D8729AC0A031D872903
:10230000AD0A031D8729AE0A031D8729AF0A0130D4
:10231000F1007108F3067430860000308700083041
:10232000F10000301E00F10B922940012008210429
:102330002204230424042504260427040319F6296F
:10234000F201F20AA71BB129A035A10DA20DA30D20
:10235000A40DA50DA60DA70D0130F1007108F2071F
:10236000A229F435F50DF60DF70DF80DF90DFA0D5E
:10237000FB0D27082F02031DD72926082E02031D57
:10238000D72925082D02031DD72924082C02031D57
:10239000D72923082B02031DD72922082A02031D4F
:1023A000D72921082902031DD72920082802031C48
:1023B000EA292008A8022108A93B2208AA3B2308F1
:1023C000AB3B2408AC3B2508AD3B2608AE3B2708B9
:1023D000AF3B7414A736A60CA50CA40CA30CA20C3E
:1023E000A10CA00C0130F202031DB12973080319DE
:1023F000172AF409F509F609F709F809F909FA099C
:10240000FB09F40A031D172AF50A031D172AF60A09
:10241000031D172AF70A031D172AF80A031D172A96
:10242000F90A031D172AFA0A031D172AFB0A740862
:102430004001A0007508A1007608A2007708A3005B
:102440007808A4007908A5007A08A6007B08A700F0
:1024500008004001BE003108C5003208C60033083C
:10246000C7003408C8003508C9003608CA00370854
:10247000CB003808CC004530860000308700473F4D
:10248000B900B91F452A0130462A00304001BA0080
:10249000BB013A08C3003B08C400430844040319C5
:1024A0006F2AC509C609C709C809C909CA09CB09DC
:1024B000CC09C50A031D6F2AC60A031D6F2AC70A65
:1024C000031D6F2AC80A031D6F2AC90A031D6F2A3C
:1024D000CA0A031D6F2ACB0A031D6F2ACC0A4101C9
:1024E000E71B772AFD304001EC05FF30ED05410187
:1024F0006708803A4001B90080303902031D832A01
:1025000001304101660203188B2A01304001BF00EF
:102510000030C000932A410167084001C00041011A
:1025200066084001BF00410165084001C200410149
:1025300064084001C10043084404031DA12A6C1D26
:10254000A52AFF30C107FF30C23D4F30CD0000301B
:10255000CE004401EF01382B4001450846044704F2
:10256000480449044A044B044C04031DD12A400882
:10257000803AB90080303902031DC02A01303F0281
:102580000318D12A40014208803AB900803039024C
:10259000031DCC2A01304102031C442B4001EC1CDA
:1025A000442BFF304001CD07FF30CE3D0A30A00064
:1025B000A101A201A301A401A501A601A70145084B
:1025C000A8004608A9004708AA004808AB00490827
:1025D000AC004A08AD004B08AE004C08AF0090318B
:1025E0005A2092312108F5002008F400A43151242A
:1025F00092317408303E4001B9004D08203E8600FB
:102600000230870039088100FF30BF07FF30C03D2E
:10261000FF30C107FF30C23D0A30A000A101A20176
:10262000A301A401A501A601A7014508A800460829
:10263000A9004708AA004808AB004908AC004A08AE
:10264000AD004B08AE004C08AF00913136219231FD
:102650002008C5002108C6002208C7002308C800BA
:102660002408C9002508CA002608CB002708CC008A
:1026700040014E08803AB90080303902031D422BD8
:1026800001304D020318AC2A400143084404031DE5
:102690004B2B6C1D622BFF30CD07FF30CE3D430826
:1026A0004404031D552B2B30562B2D30BC0000301D
:1026B000BD003C08B9004D08203E8600023087006E
:1026C000390881004D08203EB9003908A8004208A9
:1026D000AA004108A9003E089B3129232908B2001D
:1026E0002808B10008004001C6004101E71B7D2B0E
:1026F000FD304001EC05FF30ED0541016708803AEF
:102700004001BA0080303A02031D892B013041019B
:1027100066020318912B01304001C7000030C80049
:10272000992B410167084001C8004101660840013A
:10273000C700410165084001CA0041016408400129
:10274000C9006C1EA72BFE30C907FF30CA3D3108F7
:10275000CB003208CC003308CD003408CE00350859
:10276000CF003608D0003708D1003808D2004F30EB
:10277000D3000030D4004401EF01672CFF3040014A
:10278000D307FF30D43D0F304B05D50000304C054A
:10279000D6005608803ABA0080303A02031DD22B88
:1027A0000A305502031CD82B40015508573EDB2B3D
:1027B00040015508303ED5000030563DD60039085E
:1027C000BF3EBA00FF3003180030BB0000303B02B0
:1027D0001A3003193A020318EF2B0130F02B0030A6
:1027E000BC00BD013C08C2003D08C30042084304D0
:1027F0000319252C20305504BA0000305604BB00C4
:102800003A089F3EBC00FF303B3DBD0000303D021A
:102810001A3003193C0203180F2C0130102C003021
:10282000BE00BF013E08C4003F08C500440845047F
:102830000319252C5608F8005508F700A631AA26DA
:1028400093317808D6007708D5005508BA005308A8
:10285000203E8600023087003A088100FF30C7071B
:10286000FF30C83DFF30C907FF30CA3D4B308600FE
:1028700000308700403FBA00413FBB00423FBC00F0
:10288000433FBD00443FBE00453FBF00463FC00040
:10289000473FC10004304001C136C00CBF0CBE0C24
:1028A000BD0CBC0CBB0CBA0C890B4B2C4001410875
:1028B000D2004008D1003F08D0003E08CF003D08BC
:1028C000CE003C08CD003B08CC003A08CB004001CC
:1028D0005408803ABA0080303A02031D712C02304D
:1028E0005302031C982C40014B084C044D044E0429
:1028F0004F04500451045204031DBE2B4808803A73
:10290000BA0080303A02031D872C013047020318B9
:10291000BE2B40014A08803ABA0080303A02031DBB
:10292000932C01304902031C982C4001EC18BE2B5B
:1029300040016C1EB52CFF30D307FF30D43D390861
:10294000BA005308203E8600023087003A08810012
:10295000FF30D307FF30D43D3030BA005308203E5B
:102960008600023087003A0881005308203EBA00F2
:102970003A08A8004A08AA004908A90046089B315D
:1029800029232908B2002808B10008002D08803941
:10299000AE002E08B7002D35AE002E08BE00AC1BD1
:1029A0003E143E080319E22C3E0A031DDF2C0030C2
:1029B000AD000030AC000030AB000030AA00AC1716
:1029C000AD01EA2C0030AD000030AC000030AB00AF
:1029D0000030AA0029088039AE002E08B706293534
:1029E000AE002E08BF00A81B3F143F080319062D98
:1029F0003F0A031D032D0030A9000030A80000305D
:102A0000A7000030A600A817A9010E2D0030A900CC
:102A10000030A8000030A7000030A60029082804D4
:102A200027042604031D2D2D0030AD000030AC001E
:102A30000030AB000030AA008030AC047F30AD0421
:102A40003708AE002E08AD042D08A9002C08A800F8
:102A50002B08A7002A08A60008003E08031D392DF0
:102A60000030A9000030A8000030A7000030A60008
:102A700008003E08AE00AF012F08B1003F082E024B
:102A8000B000031CB10330087F3EB8000030313D78
:102A9000B9002D08B6002C08B5002B08B4002A0890
:102AA000B3000030AD000030AC000030AB000030AF
:102AB000AA000030BD000030BC000030BB00003078
:102AC000BA00BF011A303F0203189E2D3F080319B8
:102AD000802D0130B335B40DB50DB60D890B6A2DBF
:102AE0000130AA35AB0DAC0DAD0D890B712DBD1BA1
:102AF0002A140130BA35BB0DBC0DBD0D890B7A2DE2
:102B000029083602031D8E2D28083502031D8E2D3F
:102B100027083402031D8E2D26083302031C992D2D
:102B20003D172608B3022708B43B2808B53B2908FF
:102B3000B63B0130AE002E08BF07622D36083504C3
:102B400034043304031D3A14AC1BBB2D0130AA35E9
:102B5000AB0DAC0DAD0D890BA72DBD1B2A1401309B
:102B6000BA35BB0DBC0DBD0D890BB02DFF30B807BC
:102B7000FF30B93DA42DBF01BD1FD42DFF303A0554
:102B8000AE00FF303B05AF00FF303C05B0007F30AA
:102B90003D05B100310830042F042E0403192A1812
:102BA000D22DD42DBF01BF0A3F080319FD2D0130DE
:102BB000AA070030AB3D0030AC3D0030AD3D2D1CD0
:102BC000FD2D2A08AE002B08AF002C08B0002D0800
:102BD000B1000130B200B137B00CAF0CAE0CB20B8B
:102BE000EB2D3108AD003008AC002F08AB002E08EB
:102BF000AA000130B8070030B93D3908803AAE006C
:102C000080302E02031D062EFF303802031C152EC5
:102C1000FF304001B8000030B9000030AD00003096
:102C2000AC000030AB000030AA0040013908803A07
:102C3000AE0080302E02031D1F2E01303802031813
:102C40002D2E4001B801B9010030AD000030AC00BC
:102C50000030AB000030AA00B70140013808AE00D8
:102C60002E08BE003E1C362EAC173A2E7F30AE002A
:102C70002E08AC053E36AE002E08AD00202D4301D7
:102C8000D401D201A53142259631400119108B178C
:102C90000B17A531782596312F30F1002330F20043
:102CA000A231C222963100304001AD001030AE009A
:102CB000AF01A431C624963102304001AD0010307E
:102CC000AE00AF01A431C6249631A7304101DC002B
:102CD000A830DD00A331BD2396316400AA2FA631B0
:102CE00068269631003A0319BC2F4301D501D6015D
:102CF000D201D20A02304001B5001030B600B7014F
:102D0000B801B80A9931CB219631CE30993154218E
:102D1000963120304101DC00A830DD0043014E082F
:102D20004201C100C20141084101DE0042014208E6
:102D30004101DF0043014F084201C300C4014308C1
:102D40004101E000420144084101E1004301500813
:102D50004201C500C60145084101E20042014608A2
:102D60004101E300A331BD239631D7309E311A26AD
:102D7000963174304101DC00A830DD004301590870
:102D80004201C100C20141084101DE004201420886
:102D90004101DF00430158084201C300C401430858
:102DA0004101E000420144084101E10043015708AC
:102DB0004201C500C60145084101E2004201460842
:102DC0004101E300A331BD2396318530DC00A830FA
:102DD000DD0043015A084201C100C201410841011E
:102DE000DE00420142084101DF0043015C0842016C
:102DF000C300C40143084101E0004201440841010D
:102E0000E10043015D084201C500C60145084101DA
:102E1000E200420146084101E300A331BD2396319F
:102E20004F30DC00A830DD009A31972296314308FC
:102E30004101E100400142084101E0004001410838
:102E40004101DF00400140084101DE00A331BD2304
:102E50009631BC2F430156084001AE00430155088E
:102E60004001AD00430155084201C1004108400145
:102E7000AF00A431DE2496310130D5070030D63DB5
:102E800010305602003003195502031CBC2FD50127
:102E9000D60102304201C10041084301D200623034
:102EA0004101DC00A830DD00A331BD239631BC2FE9
:102EB000430156084001AE00430155084001AD00F2
:102EC000A631EE2696314201C10041084301D300EC
:102ED000530855060319882F38304101DC00A8300B
:102EE000DD00430156084101DF004301550841015F
:102EF000DE00430153084201C100C2014108410103
:102F0000E000420142084101E100A331BD239631B6
:102F100001304301D5070030D63D10305602003055
:102F200003195502031CBC2FD501D601D201023072
:102F30004001B5001030B600B701B8019931CB217E
:102F4000963196304101DC00A830DD00A331BD236D
:102F50009631BC2F430152084201C100C201420810
:102F6000003A0319B42F6F2E4108013A03192A2F92
:102F7000033A0319582F6F2E40010C0C01394301FD
:102F800054060319ED2F003040018C180130430125
:102F9000D40054080319ED2F4001AD01AD0A1030E3
:102FA000A431F624963107304201C10041084001A6
:102FB000AD000130A431F624963102304001B50055
:102FC0001030B600B701B70A02304201C100410813
:102FD0004001B8009931CB219631A231D5229631EA
:102FE000003A03196D2EA231DD229631003A031901
:102FF0006D2EA7315A279631A73111279631ED2F23
:10300000F5007508F3007308F400750886000230B7
:1030100087000108031911280130F3007308F50730
:10302000052874087502F100F201F11BF203080093
:1030300043013D1002304001A00020084301BC00C4
:103040002728A2315F220800A231632208002E083F
:103050004001A0002008FA000430A03E86000130A4
:103060008700413F8A00403F0A0098314001A1009B
:10307000A2012208003A03193E2824282108023A16
:1030800003192128013A03192128242808007C0863
:10309000BE3E86000130870081011D1D5A287C0834
:1030A000BE3E86000130870081145E088A005D08FC
:1030B0000A00983142019D1C69287C08BE3E8600AA
:1030C000013087000115430163088A0062080A0085
:1030D00098317C08BE3E8600013087000108031944
:1030E0007828430161088A0060080A0098310800C6
:1030F000A431962408004001E70041015A0840012C
:10310000E900410159084001E8004201CF01D00126
:103110004001680884006908850012000319A62888
:103120006830E5006508DD0041015B084001E6000C
:103130006608DE0067088C31162498315D0842016C
:10314000CF0740015E084201D03D88284201500867
:103150004101DA0042014F084101D9000800760818
:10316000031D7608031DB8287408A23199220800AF
:103170007608033E86008701160001040319DB2848
:103180007608033E86008701403FF700413FF80084
:10319000760A86008701403FF900413FFA007A082D
:1031A000803AFB007808803A7B02031DD928770813
:1031B000790203180800760A86008701013081072A
:1031C00041310318810A0800F200F301F30A4301B8
:1031D0003D1919297208F1007108B600BD103D159E
:1031E0003D100E30F1007108BB00F430B400013026
:1031F000B500BD152F30A0002230A100AC012F304A
:10320000A2002230A300AD012F30A4002230A5007F
:10321000AE012F30A6002230A700AF013130A80048
:103220002230A900B001A23136229831A3311923EE
:10323000F30173080800B0003008AF002F08420106
:10324000D50055304001A8000130A9000130AA0086
:103250000030AB0051308731D927993156304001C9
:10326000A8000130A9000130AA000030AB005130A5
:10327000A6310B26993140012E09AF002F084201DB
:10328000D60540012D08AF002F084201D604553065
:103290004001A8000130A9000230AA000030AB00B4
:1032A00051308731D9270800F60000309B31732355
:1032B0009931400117109F30A33124239931FF30F9
:1032C000A33124239931F500760886000130870068
:1032D000750881000130F5007508F607FF30A3314D
:1032E00024239931F500760886000130870075089F
:1032F00081000130F5007508F607FF30A331242363
:103300009931F50076088600013087007508810044
:1033100040011714A231482208004E01991247308B
:10332000F1001830F200A231B62299314E01191283
:10333000CF30F1002530F200A231BC2299310830A3
:103340009F0090309D0024309E0040309B00033051
:103350009C002930F1002230F200A23194229931F0
:103360004B30F1002230F200A231B02299313330DB
:10337000F1002230F200A2318F224101E901ED017A
:10338000EC014030F3007308EE00FC01EB01EA01B0
:103390004E01991608003608AE003508AD00A6317A
:1033A000CB269931B9003908BB003803031DE42945
:1033B0000130B900370ADD29B935890BDC29390814
:1033C000BA003A08BB04FF293808031DF42901306C
:1033D000B900370AEC29B935890BEB293908FF3ACE
:1033E000BA003A08BB05FF290130B900370AF929AC
:1033F000B935890BF8293908BA003A08BB063608EE
:10340000AE003508AD003B08B9003908AF00A43163
:10341000C6240800F701F41F142AF309F409F30A7B
:103420000319F40AF701F70AF21F1B2AF109F2093E
:10343000F10A0319F20A710872040319422AF6010B
:10344000F60AF21B2D2A0130F135F20D890B242AE0
:103450000130F5007508F607212A72087402031D71
:10346000332A71087302031C392A7108F3027208A7
:10347000F43B0130F236F10C890B3A2A0130F602A6
:10348000031D2D2A770803194A2AF309F409F30AC0
:103490000319F40A7408F2007308F1000800A2315D
:1034A00042229A314001A0004301370886003808C3
:1034B000870040012008810001304301B707003038
:1034C000B83D0130B9020030BA3B39083A0403195B
:1034D0006D2AA231532205300800BD15752AA2318C
:1034E0006F220800A2316B2208002C084001A000C6
:1034F0002008FA00430121088A0020080A009A31B6
:103500004001A100A2012208003A0319882A722A68
:103510002108013A0319722A033A03196F2A013A62
:1035200003196F2A073A0319722A722A0800193000
:10353000A3316D239A3171084001C4007208C5009F
:10354000C601C7010B30C435C50DC60DC70D890BAB
:10355000A32A0A30F900C737C60CC50CC40CF90BF6
:10356000AB2A7030C407FE30C53DFF30C63DFF308A
:10357000C73D4130A9009C30A8000030A7000030B2
:10358000A6004708F4004608F3004508F200440886
:10359000F10001309E3199269A317408AD0073080C
:1035A000AC007208AB007108AA009431C624290847
:1035B000C3002808C2002708C1002608C000080070
:1035C000003071054001A00000307205A10080307C
:1035D0007305A2007F307405A30023082204210490
:1035E0002004031DFB2A0030F4000030F3000030FB
:1035F000F2000030F10000307505A00000307605C3
:10360000A10080307705A2007F307805A300230851
:10361000220421042004031D152B0030F800003083
:10362000F7000030F6000030F50078087406031D3E
:10363000232B77087306031D232B76087206031DC0
:10364000232B750871060319272B03100800031498
:1036500008004001B0006C1C352B3008AB002B0873
:10366000A0002808A73135279B31AA1B3C2B2A082C
:10367000AF002908AE003E2BAE01AF01AC01AD0199
:103680002D08803AAB002F08803A2B02031D4A2BED
:103690002E082C0203185E2B2030F4000030F500B9
:1036A00040013008AB002B08F6009831AF209B3169
:1036B00001304001AC070030AD3D402B40016C189B
:1036C000692B3008AB002B08A0002808A73135274C
:1036D0009B312808983100202E087107A8002F0878
:1036E000723DA9000800F4009A1A08007408F1005D
:1036F000F201F135F20DF135F20DB23071078400AF
:10370000A830723D8500000899007408F100F201AC
:10371000F135F20DF135F20DB13071078400A830AA
:10372000723D850000089A009B017408F100F201C7
:10373000F135F20DF135F20DB33071078400A83088
:10374000723D8500000897007408F100F201F13520
:10375000F20DF135F20DB43071078400A830723DDE
:1037600085000008F300F30DF30DF30D400112087E
:103770007306F7397306920043019A160800F701A1
:10378000F21FC92BF109F209F10A0319F20AF70134
:10379000F70AF41FD42BF309F409F30A0319F40A06
:1037A0000130F5007508F706F801F9017108720497
:1037B0000319032CF601F60AF21BE82B0130F13550
:1037C000F20D890BDF2B0130F5007508F607DC2BB5
:1037D0000130F835F90D890BE92B72087402031DCD
:1037E000F32B71087302031CFA2B7108F3027208A1
:1037F000F43B78140130F236F10C890BFB2B0130CD
:10380000F602031DE82B770803190B2CF809F909B8
:10381000F80A0319F90A7908F2007808F10008009B
:10382000F6007608F5007508F9007208F8007108CE
:10383000F7000130F3020030F43B730A031D4B2CF8
:10384000740A031D4B2CF101F20108007708840073
:103850007808850012000319522C730874040319A8
:10386000522C77088400780885000008F500790854
:1038700086000130870001087506031D522C0130B7
:10388000F5007508F9070130F7070030F83D013001
:10389000F3020030F43B790886000130870001080C
:1038A000031D262C790886000130870077088400E4
:1038B0007808850000080102F100F201031CF20300
:1038C000080040019A0109309900960121309700C3
:1038D000980107309500FD309100D6309200FF30FE
:1038E0009300B630940036307E01D900FF30CE0010
:1038F0000630C3000730E400F530B8000830DA00C5
:10390000E501C030C400B901CF01E601BA01C5012B
:10391000D0010830DB00FF30BB00FF30C600FF30B5
:10392000D100FF30DC000730E700FF30BC00FF3083
:10393000C700FF30D200FF30DD000F30E800BF11BC
:10394000BE15BD152A30F1002230F200A231C2228C
:103950004E0116160C307D01CB000F30C5001F3014
:10396000C90015307E019E0014309F0010309D006C
:1039700016309B001730AE000E307D01C6000B30B4
:10398000C80008000310730D740DF5007508FB00E6
:103990007B08031DD42C0030F4000030F30000300D
:1039A000F2000030F10008007108F5007208F6001E
:1039B0007308F7007408F8001F30F836F70CF60C9F
:1039C000F50C890BDD2C7508F9007908FA00F3175E
:1039D000FF30F105FF30F205FF30F3050030F4054C
:1039E0009630FB02FB1F072D7B08803A973E031C95
:1039F000CB2C0130F436F30CF20CF10C890BFA2CC1
:103A00000130F5007508FB070319182DF92C20303B
:103A10007B020318CB2C7B080319182D0130F135DC
:103A2000F20DF30DF40D890B0F2D0130FB020B2D60
:103A30007A0803190800F109F209F309F409F10AF7
:103A40000319F20A0319F30A0319F40A08004201E0
:103A50004E084001A50042014D084001A40042016A
:103A60004C084001A30042014B084001A200740829
:103A7000A5007308A4007208A3007108A200220820
:103A8000F5002308F6002408F7002508F800173091
:103A9000F836F70CF60CF50C890B482DFF30750540
:103AA000A00000307605A10020082104031D772D19
:103AB0002208F5002308F6002408F7002508F8007E
:103AC0000130F535F60DF70DF80D890B612D7808ED
:103AD000770476047504031D722D0230F100003066
:103AE000F20008000330F1000030F2000800200A64
:103AF0002104031D9A2D2208F5002308F60024084E
:103B0000F7002508F8000930F535F60DF70DF80D2A
:103B1000890B842D7808770476047504031D922D93
:103B20000130932D0030F900FA017908F1007A088C
:103B3000F20008000430F1000030F200080000300C
:103B40003A05C20000303B05C30080303C05C4008C
:103B50007F303D05C5004508440443044204031D6D
:103B6000B92D0030BD000030BC000030BB0000307B
:103B7000BA0000303E05C20000303F05C30080306F
:103B80004005C4007F304105C50045084404430496
:103B90004204031DD32D0030C1000030C0000030AE
:103BA000BF000030BE00BD1FED2D0030C200003050
:103BB000C3000030C4008030C5003A08C2023B0890
:103BC000C33B3C08C43B3D08C53B4508BD00440819
:103BD000BC004308BB004208BA00C11F072E0030DA
:103BE000C2000030C3000030C4008030C5003E0871
:103BF000C2023F08C33B4008C43B4108C53B4508DF
:103C0000C1004408C0004308BF004208BE00803025
:103C1000BD068030C10641083D02031D0800400872
:103C20003C02031D08003F083B02031D08003E083C
:103C30003A0208004001AE000430AD002D084201F8
:103C4000D50055304001A8000130A9000130AA007C
:103C50000030AB0051308731D9279E3156304001BA
:103C6000A8000130A9000730AA000030AB00513095
:103C7000A6310B269E31420156087F39A331AA2373
:103C80009E314001AD002E088600013087002D08CE
:103C9000810042015708A331AA239E314001AD00A3
:103CA0002E0A8600013087002D0881004201580845
:103CB000A331AA239E314001AD002E08023E8600AA
:103CC000013087002D08810042015908A331AA2341
:103CD0009E314001AD002E08033E86000130870072
:103CE0002D08810042015A084001AD002E08043E13
:103CF0008600013087002D08810042015B08A33156
:103D0000AA239E314001AD002E08053E86000130F9
:103D100087002D08810042015C08A331AA234001DD
:103D2000AD002E08063E8600013087002D08810078
:103D30000800A0002008031DF41FAE2E7109A20088
:103D40007209A3007309A4007409A500A20A03194B
:103D5000A30A0319A40A0319A50AB62E7408A5001C
:103D60007308A4007208A3007108A2007408730409
:103D700072047104031DC52E0030F4000030F300FE
:103D80000030F2000030F10008009630F5007508B0
:103D9000A100FE3025050319EC2E0130F500750851
:103DA000A1070130A536A40CA30CA20C890BD22EBE
:103DB000C92E0130F5007508A1070130A2070030B7
:103DC000A33D0030A43D0030A53D0130A536A40C34
:103DD000A30CA20C890BE62EFF3025050319FE2E3D
:103DE000D92E02302102031C002F0130A102013024
:103DF000A235A30DA40DA50D890BF82EA41FF12E3D
:103E000021180A2FFF30A205FF30A3057F30A4053B
:103E1000FF30A5050310A10C2108F500F601F701FC
:103E2000F8011830F535F60DF70DF80D890B122F46
:103E30007508A2047608A3047708A4047808A504EA
:103E40002008031DF41F252FA5172508F4002408BA
:103E5000F3002308F2002208F100080042014A089A
:103E60004001D300420149084001D2004201480804
:103E70004001D100420147084001D0004308D3006F
:103E80004208D2004108D1004008D0005008C400C8
:103E90005108C5005208C6005308C7001730C7367E
:103EA000C60CC50CC40C890B4F2FFF304405C8004D
:103EB00000304505C9004808813ECE00FF30493D2D
:103EC000CF004F08803AC40080304402031D6A2F9F
:103ED00017304E02031808004001CF1BC42FFF30DB
:103EE000C400FF30C5007F30C6000030C7004E0A56
:103EF0007D2FC737C60CC50CC40C890B792F47081A
:103F0000CD004608CC004508CB004408CA00500844
:103F10004A05C40051084B05C50052084C05C600AF
:103F200053084D05C70047084604450444040319D7
:103F300008005008C4005108C5005208C6005308C4
:103F4000C7001F30C736C60CC50CC40C890BA22F86
:103F500044080319B32F4A08D0074B08D13D4C0839
:103F6000D23D4D08D33D4A09C4004B09C5004C0958
:103F7000C6004D09C7004408D0054508D1054608CC
:103F8000D2054708D305F72F5008C4005108C500D3
:103F90005208C6005308C7001F30C736C60CC50CF0
:103FA000C40C890BCD2F4408031DDA2F0030D30039
:103FB0000030F22F5008C4005108C5005208C60056
:103FC0005308C7000130C435C50DC60DC70D890B98
:103FD000E32F47084604450444040319F72FBF3074
:103FE000D3008030D2000030D1000030D000530820
:103FF000C3005208C2005108C1005008C0000800A8
:1044520008000800191008001114080001300800B3
:1044620005300800A431962408004E010F10080000
:1044720043019012080043019114080043011115F1
:10448200080043010C0808004E010F140800430104
:104492009A12080042011D121D16080043019116CE
:1044A200111608004301911211160800A2313C2294
:1044B20001300800A2313C2202300800A2313C2225
:1044C20001300800A2313F2200300800A2315322FD
:1044D20005300800A2314F220A300800A2314F22D3
:1044E200093008000130A531ED2508000030A53162
:1044F200ED250800F100710843018C00080043011A
:10450200BD10BC010E3008004301BD10BC010E30CD
:1045120008004E010F18080043018A2A7208E100C0
:104522007108E00008007208DE007108DD00080072
:10453200F3007308A731112708007E01BF1D080090
:10454200A331532308004301110E890C890C013950
:10455200080043013D108031022004300800720837
:104562004301E3007108E200080072084201E20020
:104572007108E100080072084201E4007108E300DA
:10458200080072084201E0007108DF0008006400C0
:1045920080010131890BC92A003443013D143635AB
:1045A200A2317B220330080041016A080319DB2A89
:1045B200013008000030080041016E080319E32AA7
:1045C200013008000030080043013D140314360D89
:1045D200A2317B22053008004F0196019701980114
:1045E20099019A019B010800BD1C0800A2318A2290
:1045F200A231A731A827A231F52A43018F01083041
:104602009000910113308D0090120800603051012A
:104612008D008F0191010630930092010800740809
:10462200730472047104031908008030F406080050
:104632004301901A08008F01083090009101133055
:104642008D0090160800F1007108430196004E019A
:104652000F1D282B0F1143011608080003104001FB
:10466200961C0314031C382B4001961408004001C9
:10467200961008007708F2007608F1007808F90031
:104682007908F3000030A731802708007708F2008C
:104692007608F1007808F9007908F3000230A731B2
:1046A2008027080042015F08600403195D2B60083F
:1046B2008A005F080A00A3317E01BF11080043018E
:1046C200BD1D08007208B8007108B7007408BA006E
:1046D2007308B900BD110800F30073089E00931718
:1046E200131313141318732B0D08F2000C08F100A6
:1046F2000800B3003335B1003108AD000230B2001A
:104702003208AE00003099311B210800F400F30199
:10471200741C8F2B7108F2007208F3070310F10D5D
:104722000310F40C7408031D892B730808009330DE
:1047320040019F009D019C011D084301DF004001D3
:104742001C084301DE004E018C12903040019E0095
:104752000800F8000F307805F5000A30F6007608F8
:10476200F1007808F7000430F736890BB52B77088B
:10477200A331872375070800DE304001EA006A088A
:10478200EB0041015D08DA005C08D9006B304001A2
:10479200EA006A084101DB00003098317B20080002
:1047A2007A08F100FF39031D0030F2000230F300F5
:1047B2000030F400A3316023A3310030F600F7008B
:1047C200F801A3313B23043008007A08F100FF39D5
:1047D200031D0030F2000130F3000030F400A33179
:1047E2006023A3310030F600F700F801A3313B2328
:1047F200023008007A08F100FF39031D0030F20090
:104802000230F3000030F400A3316023A331003002
:10481200F600F700F801A3313B23023008007A08C2
:10482200F100FF39031D0030F2000130F3000030C7
:10483200F400A3316023A4310030F600F700F80140
:10484200A3313B23043008000B307D01C8001F3028
:10485200C90016307E019B001730AE004030430184
:1048620099009A01013097004001921143019A1276
:1048720008007108D03EF300FF30723DF4000030B2
:1048820074020A30031973020318492C01304A2CAE
:104892000030F500F6017508F1007608F200080014
:1048A2007508803AF60080307602031D5A2C0130DA
:1048B2007402031808007409F6007509F700F60A75
:1048C2000319F70A7608F4007708F5000800710862
:1048D200BF3EF300FF30723DF400003074021A3024
:1048E200031973020318772C0130782C0030F5007D
:1048F200F6017508F1007608F200080071089F3E83
:10490200F300FF30723DF400003074021A300319D4
:10491200730203188E2C01308F2C0030F500F60143
:104922007508F1007608F200080042011908F0004B
:104932007C08C63E86000130870070088100013085
:10494200F0007008FC0708307C020318FC010130FB
:10495200F00070084101EA070800F201F20A43017F
:10496200BD18C42C3D11FF30F1007108B600A23110
:104972003622A431A2312B22A431A23139223C08A1
:10498200F1007108F200720808002E08B000300829
:10499200B1002D08B0003008B2002F08B000300876
:1049A200B3003130A8000030A9000330AA00003063
:1049B200AB0053308731D92708002E08B0003008E9
:1049C200B1002D08B0003008B2002F08B000300846
:1049D200B3003130A8000030A9000330AA00003033
:1049E200AB0053308731D9270800AF002F08AE0043
:1049F2002E084201D50040012D08AE002E084201CA
:104A0200D60055304001A8000130A9000230AA00AA
:104A12000030AB0051308731D927080042018E01A6
:104A22008F0190019101920193018D0141019E013B
:104A32009B019C01940195019601970103309A0014
:104A4200990198019430930010309D0008007A0873
:104A5200023E860087010108F1000030F2007A0868
:104A620086008701403FF300413FF400A3316023F9
:104A7200A5310030F600F700F801A3313B230230E4
:104A82000800A231ED22A531A231FE22A531A431C6
:104A92002524A5319C316124A531A3310723A531F9
:104AA20090310020A531A5310F25A531A3319823DE
:104AB200A53199318D210800F501F601711C652D92
:104AC2007308F5077408F63D0130F335F40D890BD0
:104AD200662D0130F236F10C890B6B2D71087204D0
:104AE200031D5F2D7608F2007508F1000800003002
:104AF200A3317A23A53116304001B4003408AD0049
:104B02001130A431F624A5314001AD01AD0A1030B7
:104B1200A431F624A53107304001B4003408AD00B9
:104B22000130A431F62408008030BD064108F400AB
:104B32004008F3003F08F2003E08F1003D08F8008B
:104B42003C08F7003B08F6003A08F50088311C20C3
:104B52007408BD007308BC007208BB007108BA007B
:104B6200080020307104F30000307204F40073086E
:104B72009F3EF500FF30743DF600003076021A3099
:104B8200031975020318C72D0130C82D0030F70034
:104B9200F8017708F1007808F2000800403041017E
:104BA2006E020318EA2D6C08A03E860002308700D0
:104BB200010842019A000130F00070084101EC073F
:104BC20040306C020318EC010130F0007008EE076F
:104BD20008004E01191208004001A600A701A70A09
:104BE2004301BD18082EBD144001A7012608031970
:104BF200FE2D4301BB01BB0A032E0230FB007B08E2
:104C02004301BB00A2312D22A531A231F522400180
:104C120027080800AC0040012C089831E420A63196
:104C2200003A03190C2E40012908F2002808F1006D
:104C32002B08F4002A08F300A3316023A631A23125
:104C42007322A631A431AE24A631013A031D080015
:104C5200232EF900F501F6017108F300F40173083F
:104C6200F7007408F800791C3A2E7708F5077808DF
:104C7200F63D0130F735F80D890B3B2E0310F90C88
:104C82007908031D342E7608F2007508F100080039
:104C9200F8007208F6007108F5007808F30073084E
:104CA200F7007708860002308700F70A7608F400DA
:104CB2007508F300F50A0319F60A730884007408EC
:104CC20085000008C03F890803190800522E4001E0
:104CD2000F0CF100F10C710C013941016F0603193F
:104CE200832E6F03031D802E0130F1007108E80747
:104CF20065306802031C872EEF0101300800EF01C6
:104D0200EF0A872E68080319872EE8010030080091
:104D12007708BF3EA000FF30783DA100003021029D
:104D22001A30031920020318982E0130992E0030F0
:104D3200A200A3012208F9002308FA0079087A04E4
:104D42000319080020307704F70000307804F800D7
:104D5200080077089F3EA000FF30783DA100003098
:104D620021021A30031920020318B92E0130BA2E7B
:104D72000030A200A3012208F9002308FA007908F2
:104D82007A04031908005F307705F70000307805D0
:104D9200F80008002E08AF002F08B0002D08AF0061
:104DA2002F08B1003030A8000030A9000230AA005C
:104DB2000030AB0053308731D927A6313030400163
:104DC200A8000030A9000130AA000030AB00533027
:104DD200A6310B264001300808002E08AF002F082C
:104DE200B0002D08AF002F08B1003030A80000300D
:104DF200A9000230AA000030AB0053308731D92716
:104E0200A63130304001A8000030A9000130AA00CC
:104E12000030AB005330A6310B26400130080800A9
:104E2200F20041016E080319122F4E01191A1D2FAB
:104E3200720842019A00322F19127208F1004101E0
:104E42006D08A03E860002308700710881000130A3
:104E5200F1007108ED0740306D020318ED010130D9
:104E6200EE024E0119160800A700A501A6012508A9
:104E72002707A10021088600023087000108A2004E
:104E82002208A4002408031908002408A100A20192
:104E92002108F4002208F5002008A3002308F600E8
:104EA2009831AF20A73101304001A5070030A63D5F
:104EB200382F6A0803195A2F6B08BE3E860001304C
:104EC20087000108F1007108E9006B08C63E860000
:104ED200013087000108F1007108F2000130F10091
:104EE2007108EB0708306B020318EB014E019912AF
:104EF20001304101EA024E01991672080800F500DC
:104F0200710872040319982F7535A03E860001308E
:104F120087007108C03F7208C13F7308F40075082A
:104F2200AC3E8600013087007408810008007535A8
:104F3200A03E8600013087002F30C03F2230C13FA3
:104F42007508AC3E86000130870081010800A2315D
:104F52003622A73143013D1CBA2FA231A422A73128
:104F6200003A0319BA2F0F304001A300230843016E
:104F7200BB003B084001A300A401A335A40D0030EF
:104F820023078400A830243D8500013F8A00003FAA
:104F92000A00A7314001A50025084301BB00080013
:104FA2004301BD15DE2FA2315F220800A231452246
:104FB20003300800A231632208002C084001A0003F
:104FC2002008FA00430121088A0020080A00A731BC
:104FD2004001A100A2012208003A0319F12FDB2FA0
:104FE2002108013A0319DB2F033A0319D42F013A9E
:104FF2000319D42F073A0319D72FDB2F0800803467
:105002002234E5342234CE342234043410344F3482
:105012001A34AA342234D1342734573422345B343C
:1050220022345F34223463342234673422346B34C2
:1050320022346F34223485342234183418340A343A
:1050420046346C3461347334683420344934443423
:105052003A34203425343034323458342534303420
:1050620032345834253430343234583400340A342B
:105072005334523441344D34203445347234723412
:105082006F347234203425343034343458343A3462
:105092002034253430343234583400340A34543411
:1050A20065346D34703465347234613474347534FB
:1050B200723465343A34203425342E343134663433
:1050C20000340A3457347234693474346534203409
:1050D2005334523441344D343A34203444346F34EE
:1050E2006E34653400340A34253430343234643456
:1050F2003A3425343034323464343A34253430345A
:10510200323464342D34003425343034323464344F
:105112002F3425343034323464342F343234303442
:10512200253430343234643400340A345234653431
:105132006134643420345334523441344D343A347B
:10514200203444346F346E34653400340A345234BB
:1051520075346E346E3469346E3467340A34003414
:10516200003440340134003449344E34463400347F
:105172004E3441344E34003469346E346634003473
:0E5182006E3461346E3400346C3466340034A4
:020000040001F9
:0A000E00EC3FFF3FFF07FF3FFF3FFD
:00000001FF
