:0400000080312528FE
:100008007E1480314E01161A0C1E0E2884314F249E
:10001800803123280B1F2328191A0F1E1A28400184
:100028006C088A006B080A0080312328991A8F1EF1
:10003800232840016A088A0069080A0080317E1076
:10004800090080312728FC01203084000030850019
:100058002930843131248031A0308400003085007B
:100068003D308431312480312030840001308500D6
:100078004030843131247E10400181312729D0005D
:10008800490886008701403FCB00413FCC004B0820
:1000980084004C0885001200253A031D952849085C
:1000A800860087010130810741310318810AB201B6
:1000B800B301B601B701FF30B400FF30B5004908FD
:1000C80086008701403FCB00413FCC004B088400AD
:1000D8004C0885001200253A031D8A284908860025
:1000E80087010130810741310318810A2530F40066
:1000F8000030F5005008CB004B08F6008131C421D0
:1001080001304001C9000030CA00080049088600D3
:1001180087010130810741310318810AC901CA01E9
:100128000800490886008701403FCB00413FCC00CA
:100138004B0884004C0885000008CD00CE014D080E
:10014800F4004E08F5005008CF004F08F600813142
:10015800C4218031400149088600870101308107A8
:1001680041310318810A842840019A01013099001D
:10017800960121309700980107309500CD30910005
:10018800D6309200FF309300B630940036307E01AE
:10019800D900FF30CE000630C3000730E400F53048
:1001A800B8000830DA00E501D030C4000830B900E2
:1001B800CF01E601BA01C501D001DB01FF30BB0068
:1001C800FF30C600FF30D100FF30DC000730E70009
:1001D800FF30BC00FF30C700FF30D200FF30DD0029
:1001E8000F30E800BF11BE15BD117830F1000430A2
:1001F800F2008431372480314E0116168331F22300
:1002080080310C30CB000F30C5001F30C9001530CD
:100218007E019E0014309F0010309D000F30910029
:100228001730AE000E307D01C6000B30C80001301B
:100238007E0194000330AB000230950016309B001D
:100248008331D823080082312D2281318331F22372
:1002580081317E019101AB018331D8238131961020
:100268009915911094118B170B1783310323813142
:1002780072084101DE007108DD00640049298231FD
:10028800A222813182317E2281318431222481313E
:10029800003A03195629991184312A248131003AE8
:1002A800031D432983310323813141015D08710214
:1002B8004001DD0041015E08723B4001DE000F3065
:1002C8005E02A03003195D02031C41290310961C2D
:1002D8000314031C722940019614742940019610D6
:1002E800991583310323813172084101DE007108B9
:1002F800DD00BC304001D9008330DA0083319D2312
:10030800813141294E019912FB30F1000130F20090
:100318008431432481314E011912E630F100023054
:10032800F20084313D248131083042019F00903031
:100338009D0024309E0040309B0003309C007930A3
:10034800F1000430F2008431492481317130F10028
:100358000430F20084315A2481317530F1000430C0
:10036800F20084315F24BC01C001BF014030F300BA
:100378007308ED00FC01BE01BD014E01991608008D
:100388007608031D7608031DCD2974088431552489
:1003980008007608083E8600870116000104031944
:1003A800F1297608083E86008701403FF700413F63
:1003B800F8007608023E86008701403FF900413F79
:1003C800FA007A08803AFB007808803A7B02031D1D
:1003D800EF2977087902031808007608023E86009C
:1003E80087010130810741310318810A08007C0820
:1003F800203E86008701810142011D1D0E2A7C08CE
:10040800203E860087018114400166088A0065083D
:100418000A00823142019D1C1C2A7C08203E86006D
:1004280087010115400164088A0063080A008231C7
:100438007C08203E86008701010803192A2A40010A
:1004480062088A0061080A00823108008331382373
:10045800080084311A248231843111248231833195
:100468004F2382318031B82082318431082482318F
:1004780084316D24823183311F2382318331652396
:1004880082318331CA2382318331AD238231833172
:100498007823823183318B2382318331FE23823169
:1004A800813186218231843164240800D6005208C3
:1004B800D8005108D700B001B10157088400580886
:1004C800850012000319792A5730D4005408C9004E
:1004D8005308D5005508CA00560880314320823198
:1004E8004908B0074A08B13D612A3108D2003008EE
:1004F800D1000800F20040016D0803197F2A4E015F
:10050800191A8A2A720842019A009F2A1912720837
:10051800F10040014008203E860001308700710844
:1005280081000130F1007108C00740304002031813
:10053800C0010130ED024E01191608003D080319EB
:10054800A22A3E08203E860087010108F1007108B2
:10055800BC003E08283E860087010108F1007108AA
:10056800F2000130F1007108BE0708303E0203189E
:10057800BE014E01991201304001BD024E0199168B
:1005880072080800003400340034003400340034A9
:1005980000340034003400340034003400340034B3
:1005A80000340034003400340034003400340034A3
:1005B8000034003400340034003400340034003493
:1005C8000034003440306D020318002B3F08203EF1
:1005D800860001308700010842019A000130F000CE
:1005E80070084001BF0740303F020318BF010130C7
:1005F800F0007008ED0708004E01191208001C08E9
:10060800F3007308FA001D08F3007308FB007A086A
:10061800F300F4017B08F500F6017508F600F50112
:1006280073087507F8007408763DF9007908F20038
:100638007808F100080042018E018F0190019101B4
:10064800920193018D0141019E019B019C0194013E
:1006580095019601970103309A0099019801943009
:10066800930010309D00080042011908F0007C0832
:10067800283E86008701700881000130F00070086C
:10068800FC0708307C020318FC010130F0007008F8
:100698004001BD0708000B307D01C8001F30C900AC
:1006A80016307E019B001730AE00403043019900A0
:1006B8000A309A000F3097004001921143019A12B4
:1006C800080001307C019B0028309C0004309D000C
:1006D80004309E0004309F00A0010230A100A20156
:1006E800A30187309A00080001307C01910029306D
:1006F800920009309300043094000430950096016C
:100708000A3097009801990187309000080001305D
:10071800A5001930A6001930A7001930A800193013
:10072800A900AA010230AB00AC01AD010730A4005A
:1007380008005B30DB005B08DC005A08D20059086F
:10074800D1005C30DB005B08D300003082315A22D4
:100758000800933040019F009D019C011D08E000A6
:100768001C08DF004E018C12903040019E000800EA
:100778000A34483465346C346C346F34203477343C
:100788006F3472346C3464340A34003401304501F7
:1007980090008F019101FF308D008C014E01901067
:1007A8008F3045018E00080055307D018F00AA303A
:1007B8008F000F1440016E0C031C8B1303188B174A
:1007C80008004001670868040319EF2B68088A00CD
:1007D80067080A0083317E01BF11080000308B1BB7
:1007E80001304001EE0055307D018F00AA308F00A6
:1007F8000F100800470192019101900144011F0860
:10080800CF3910389F000800603051018D008F01EA
:100818009101063093009201080043018F010830CE
:100828009000910113308D00901208004F0196013D
:100838009701980199019A019B01080040013D0820
:100848000319282C01300800003008006D0803192E
:100858002F2C0130080000300800640080010131AD
:10086800890B322C003472084001E8007108E70057
:10087800080072084001EC007108EB0008007208DB
:100888004001EA007108E900080072084001E6002A
:100898007108E50008007E01BF1D08008331E523CB
:1008A8000800F300730882317E2208007208E40011
:1008B8007108E30008007208E2007108E10008000E
:1008C800510196019630950008000A3440340F34DF
:1008D8000034823052018C00080042011D121D169E
:0C08E800080083313823080008000800D5
:020000040001F9
:08000000FF3FFF3FFF3FFF3F00
:0A000E00EC3FFF37FF07FF3FFC3F08
:00000001FF
