:0400000080312528FE
:100008007E1480314E01161A0C1E0E288331DB2314
:10001800803123280B1F2328191A0F1E1A28400184
:100028006E088A006D080A0080312328991A8F1EED
:10003800232840016C088A006B080A0080317E1072
:10004800090080312728FC01203084000030850019
:1000580029308331BD238031A030840000308500F1
:100068003D308331BD23803120308400013085004C
:1000780040308331BD237E10400181311E29D000DC
:10008800490886008701403FCB00413FCC004B0820
:1000980084004C0885001200253A031D952849085C
:1000A800860087010130810741310318810AB201B6
:1000B800B301B601B701FF30B400FF30B5004908FD
:1000C80086008701403FCB00413FCC004B088400AD
:1000D8004C0885001200253A031D8A284908860025
:1000E80087010130810741310318810A2530F40066
:1000F8000030F5005008CB004B08F60081319B21F9
:1001080001304001C9000030CA00080049088600D3
:1001180087010130810741310318810AC901CA01E9
:100128000800490886008701403FCB00413FCC00CA
:100138004B0884004C0885000008CD00CE014D080E
:10014800F4004E08F5005008CF004F08F600813142
:100158009B218031400149088600870101308107D1
:1001680041310318810A842840019A010930990015
:10017800960121309700980107309500CD30910005
:10018800D6309200FF309300B630940036307E01AE
:10019800D900FF30CE000630C3000730E400F53048
:1001A800B8000830DA00E501D030C4000830B900E2
:1001B800CF01E601BA01C501D0010830DB00FF30EC
:1001C800BB00FF30C600FF30D100FF30DC00073035
:1001D800E700FF30BC00FF30C700FF30D200FF301F
:1001E800DD000F30E800BF11BE15BD110430F1006D
:1001F8000430F2008331C3234E0116160C307D0102
:10020800CB000F30C5001F30C90001307E019400BB
:1002180015309E0014309F0010309D00023095006C
:1002280016309B001730AE000E307D01C6000B3033
:10023800C800080082314C2281318B170B1782319C
:10024800B42281317208E0007108DF0064003229AD
:100258008231702281318231282281318331AE236B
:100268008131003A03193E298331B6238131003A9E
:10027800031D2C298231B42281315F087102DD000F
:100288006008723BDE000F305E02A03003195D0289
:10029800031C2A298231B42281317208E0007108D6
:1002A800DF007930D9008330DA0083315A23813175
:1002B8002A294E019912D230F1000130F20083311F
:1002C800CF2381314E011912D130F1000230F200F2
:1002D8008331C9238131083042019F0090309D004D
:1002E80024309E0040309B0003309C000530F10014
:1002F8000430F2008331D5238131FD30F100033021
:10030800F2008331E62381310130F1000430F2003C
:100318008331EB23BC01C001BF014030F3007308F7
:10032800EF00FC01BE01BD014E01991608007608D8
:10033800031D7608031DA42974088331E1230800EE
:100348007608083E86008701160001040319C829AB
:100358007608083E86008701403FF700413FF800D5
:100368007608023E86008701403FF900413FFA00C7
:100378007A08803AFB007808803A7B02031DC62978
:1003880077087902031808007608023E860087017C
:100398000130810741310318810A08007C08203E9A
:1003A80086008701810142011D1DE5297C08203E48
:1003B800860087018114400168088A0067080A00DE
:1003C800813142019D1CF3297C08203E860087016B
:1003D8000115400166088A0065080A0081317C0819
:1003E800203E8600870101080319012A400164089C
:1003F8008A0063080A008131080083310723080056
:10040800D6005208D8005108D700B001B1015708EA
:1004180084005808850012000319232A5730D40095
:100428005408C9005308D5005508CA005608803139
:10043800432082314908B0074A08B13D0B2A3108E8
:10044800D2003008D1000800F20040016F080319FB
:10045800292A4E01191A342A720842019A00492A97
:1004680019127208F10040014008203E8600013050
:100478008700710881000130F1007108C007403021
:1004880040020318C0010130EF024E01191608009E
:100498008331A623823183319D23823183311E2308
:1004A80082318031B8208231833194238231833183
:1004B800F92382318331472382318231EE2282311E
:1004C80083313423823183316A23823181315D2142
:1004D80082318331F02308003D080319702A3E0851
:1004E800203E860087010108F1007108BC003E0823
:1004F800283E860087010108F1007108F2000130EA
:10050800F1007108BE0708303E020318BE014E0113
:10051800991201304001BD024E0199167208080077
:100528000034003400340034003400340034003423
:100538000034003400340034003400340034003413
:100548000034003400340034003400340034003403
:1005580000340034003400340034003400340034F3
:1005680040011C08F3007308FA001D08F300730823
:10057800FB007A08F300F4017B08F500F601750822
:10058800F600F50173087507F8007408763DF90060
:100598007908F2007808F100080040306F0203186B
:1005A800EB2A3F08203E86000130870001084201FF
:1005B8009A000130F00070084001BF0740303F0248
:1005C8000318BF010130F0007008EF0708004E0162
:1005D8001912080042018E018F01900191019201C8
:1005E80093018D0141019E019B019C01940195019C
:1005F8009601970103309A0099019801943093006D
:1006080010309D00080042011908F0007C08283EBF
:1006180086008701700881000130F0007008FC072F
:1006280008307C020318FC010130F000700840011A
:10063800BD0708000B307D01C8001F30C900163007
:100648007E019B001730AE004030430199000A300C
:100658009A000F3097004001921143019A12080046
:1006680001307C019B0028309C0004309D00043040
:100678009E0004309F00A0010230A100A201A30146
:1006880087309A00080001307C01910029309200DF
:1006980009309300043094000430950096010A3024
:1006A8009700980199018730900008005B30DB00C3
:1006B8005B08DC005A08D2005908D1005C30DB0026
:1006C8005B08D300003082310422080093304001D7
:1006D8009F009D019C011D08E2001C08E1004E01DD
:1006E8008C12903040019E0008000A34483465346A
:1006F8006C346C346F34203477346F3472346C3427
:1007080064340A340034400169086A040319912BDF
:100718006A088A0069080A0083317E01BF1108004F
:10072800603051018D008F019101063093009201D4
:10073800080043018F0108309000910113308D00AB
:10074800901208004F0196019701980199019A01AA
:100758009B01080040013D080319B42B0130080033
:10076800003008006F080319BB2B01300800003067
:100778000800640080010131890BBE2B0034720827
:100788004001EA007108E900080072084001EE0023
:100798007108ED00080072084001EC007108EB00D8
:1007A800080072084001E8007108E70008007E01AF
:1007B800BF1D0800833187230800F30073088231C6
:1007C800282208007208E6007108E500080072088F
:1007D800E4007108E3000800510196019630950085
:1007E80008000A3440340F340034823052018C003F
:1007F800080042011D121D16080083310723080056
:0408080008000800DC
:020000040001F9
:08000000FF3FFF3FFF3FFF3F00
:0A000E00EC3FFF3FFF07FF3FFF3FFD
:00000001FF
