:1000000080313728FF3FFF3F7E1480314E01961E1E
:100010000A280B2813288C1E0E280F281328863137
:100020001926803135280B1F162817283528991EC8
:100030001A281B2826288F1E1E281F282628410123
:100040006D088A006C080A0080313528191E29289D
:100050002A2835280F1E2D282E28352841016F0803
:100060008A006E080A00803135287E100900803130
:100070003928FC0153308400003085001930863166
:100080004D268031A0308400003085004430863118
:100090004D268031203084000130850020308631AB
:1000A0004D268031A03084000130850040308631FB
:1000B0004D2680312030840002308500403086316A
:1000C0004D2680317E104001803166284001C901F3
:1000D0008531D02580318531FE2580314001DE011A
:1000E0000130C4004408E3000130E000F430DF00D8
:1000F0000130E200F430E1000130C4004408CA00DD
:100100008B170B17912886312D268031003A031961
:100110008A288B2834298531212580318431F624A1
:100120008031863136268031003A031D982899287F
:1001300083283429C701C8010130C4004408C90715
:100140009614E030BB008530BC008531BE2580317F
:10015000912847088531EF2580314001C4004408CB
:10016000C6000130C7070030C83D013048020030EA
:1001700003194702031CBD28BE28C4280130C4004F
:100180004408C907961091288B30BB008630BC000C
:100190004608C400C5014408BD004508BE008531BD
:1001A000BE25803191280130C4004408C9070030C1
:1001B000E0006430DF000030E2006430E100023033
:1001C000C4004408DE0091280130C4004408C90777
:1001D0000030E000C830DF000030E200C830E1004D
:1001E0000230C4004408DE0091280130C4004408F5
:1001F000C9070130E000F430DF000130E200F430E4
:10020000E1000230C4004408DE0091280130C4003F
:100210004408C9070030E0006430DF000330E2002A
:100220008430E1000230C4004408DE009128C90196
:1002300091280030B3000030B2001330B100883094
:10024000B000B4014A30823107228031003A0319EC
:100250002A292B29302901304001C4004408C9074C
:10026000833165238031912840014908C400C501CC
:100270004508003A03193D2919294408003A031991
:100280009A28013A0319A928033A0319D328063AF0
:100290000319E428023A0319F5280E3A031906292E
:1002A000023A031917291929803137284001B20071
:1002B0002A0886008701403FAC00413FAD002C0872
:1002C00084002D0885001200253A031D682969293C
:1002D000E3292A088600870101308107413103188C
:1002E000810AD301D401D501D601FF304101E200DA
:1002F000FF30E30040012A0886008701403FAC0040
:10030000413FAD002C0884002D0885001200633A9F
:10031000031D8B298C29AE292A088600870101300C
:10032000810741310318810A2B08860087010108E3
:1003300084008501023081070008AC002C08B10060
:100340003108AC002C08A00032088231B222813181
:1003500040012108AB002008AA00062A2A088600CE
:100360008701403FAC00413FAD002C0884002D08C0
:1003700085001200253A031DBE29BF29D8292A0865
:10038000860087010130810741310318810A253039
:10039000F4000030F5003208AC002C08F600833180
:1003A000EA23813101304001AA000030AB00062A67
:1003B0002A08860087010130810741310318810A2C
:1003C000AA01AB01062A2A0886008701403FAC003B
:1003D000413FAD002C0884002D0885000008AE00C8
:1003E000AF012E08F4002F08F5003208B0003008E5
:1003F000F6008331EA23813140012A088600870113
:100400000130810741310318810AD22908004001D7
:10041000C10041088600870101080319102A112A2A
:100420006A2A41088600870181013408031D192AC0
:100430001A2A3B2A3308F4003208F3003108F2008C
:100440003008F1000030F8000030F7000030F6000E
:100450000330F50084316224823140014108053EB9
:10046000860087017108C03F7208C13F7308C23F10
:100470007408C33F5B2A3308F4003208F3003108E4
:10048000F2003008F1000030F8000030F700793059
:10049000F6001830F50084316224823140014108B1
:1004A000053E860087017108C03F7208C13F73088E
:1004B000C23F7408C33F83311C2382314001410A8B
:1004C000860087012008C03F2108C13F2208C23FA3
:1004D0002308C33F4108053E86008701403FB50021
:1004E000413FB600423FB700433FB800410A860093
:1004F0008701403FB900413FBA00423FBB00433F44
:10050000BC0083311C23823140012008BD0021083A
:10051000BE002208BF002308C0003908BD023A0807
:10052000BE3B3B08BF3B3C08C03B38084002031DB4
:10053000A32A37083F02031DA32A36083E02031DE3
:10054000A32A35083D02031CA62AA72AB02A013097
:10055000B500410886008701350881000130B12AC5
:10056000003008004001A90053085404031DB92AB3
:10057000BA2ABF2A5408A8005308A700C52A53085E
:10058000FF3EA700FF30543DA800551CC82AC92AC9
:10059000D72A2008A200A3012208F4002308F500AE
:1005A0002908A4002408F6008331EA23823140019F
:1005B000A81BDB2ADC2ADD2ADF2AA701A801A50166
:1005C000A601F32A2030F4000030F500400129088C
:1005D000A2002208F6008331EA2382310130400173
:1005E000A5070030A63D2608803AA2002808803AD8
:1005F0002202031DFD2A27082502031C002B012BC4
:10060000E22A40015518052B062B142B2008A200C6
:10061000A3012208F4002308F5002908A4002408F7
:10062000F6008331EA23823140012508013EA00013
:100630000030263DA100080040015708AC005808D2
:10064000AD00AE01AF012F08AB002E08AA002D08A7
:10065000A9002C08A8001030A835A90DAA0DAB0DD3
:10066000890B2C2B85316F25833171084001A40043
:100670007208A500A601A7012408A8042508A9045A
:100680002608AA042708AB045708A4005808A500A8
:10069000A601A7012F082706031D582B2E082606A2
:1006A000031D582B2D082506031D582B2C08240646
:1006B000031D5B2B5C2B1C2B2B08A3002A08A2001C
:1006C0002908A1002808A0000800982B6108B000A4
:1006D0006208B100B201B301B40163308231072274
:1006E0008331003A0319752B762BA92B4001961400
:1006F0000130C2004208DE00A92B5F08B00060088C
:10070000B100B201B301B4016330823107228331F9
:10071000003A03198C2B8D2BA92B40019610DE017A
:10072000A92B0130C2004208E3009610DE01A92B7C
:1007300040015E08C200C3014308003A0319A12B1F
:10074000912B4208003A0319662B013A03197D2BBD
:10075000912B08004E0199122930F1000430F2006B
:100760008631652683314E0119124C30F100053077
:10077000F20086315F268331083042019F009030BD
:100780009D0024309E00A0309B0001309C008F30E3
:10079000F1000630F2008631712683318330F1009A
:1007A0000630F20086316B2683318730F100063047
:1007B000F2008631772683314001D901DD01DC0169
:1007C0004030F3007308EE00FC01DB01DA014E015A
:1007D0009916080076080319EE2BEF2BF42B7608F8
:1007E000031DF32BF42BF92B740886315326833128
:1007F000282C7608033E86008701160001040319A1
:10080000022C032C202C7608033E86008701403FF3
:10081000F700413FF800760A86008701403FF90063
:10082000413FFA007A08803AFB007808803A7B0260
:10083000031D1C2C7708790203181F2C202C282C50
:10084000760A860087010130810741310318810A49
:1008500008007C08A03E86008701810142011D1D21
:10086000322C332C3E2C7C08A03E8600870181145C
:1008700041016B088A006A080A00843142019D1C0C
:10088000422C432C4E2C7C08A03E8600870101158B
:10089000410169088A0068080A0084317C08A03E8A
:1008A0008600870101080319562C572C5E2C410144
:1008B00067088A0066080A008431612C85318C251E
:1008C0008431080000304001A3000030A200003055
:1008D000A1000030A000711C6E2C6F2C782C7508C4
:1008E0004001A0077608A13D7708A23D7808A33D06
:1008F0000130F535F60DF70DF80D890B792C013027
:10090000F436F30CF20CF10C890B802C7408730490
:1009100072047104031D8D2C8E2C6B2C4001230856
:10092000F4002208F3002108F2002008F10008007A
:100930004001B8003408BA003308B9004101E001B1
:10094000E101B62C3930B6003608AA003508B700E8
:100950003708AB00380881315621843140012A081C
:100960004101E00740012B084101E13D4001390808
:1009700084003A0885001200031DBF2CC02CA22C55
:10098000410161084001B400410160084001B30029
:10099000080040019601803097009801FD309100D9
:1009A0007F309200FF3093003F307E01CE003F3019
:1009B000C300FD30B800E501C401B901CF01BA019F
:1009C000C501D001FF30BB00FF30C600FF30D100B1
:1009D000FF30BC00FF30C700FF30D200E8010E300E
:1009E0007D01CB0010307E019F000800F200400125
:1009F0006E080319FC2CFD2CF72C4E01191A012D41
:100A0000022D062D720842019A001E2D191272083D
:100A1000F10040015D08A03E8600013087007108AA
:100A200081000130F1007108DD0740305D02031CD8
:100A30001A2D1B2D1C2DDD010130EE024E01191661
:100A4000080040015A080319262D272D212D5B0887
:100A5000A03E860087010108F1007108D9005B08FB
:100A6000203E8600023087000108F1007108F20084
:100A70000130F1007108DB0740305B02031C412D9F
:100A8000422D432DDB014E01991201304001DA0263
:100A90004E01991672080800403040016E0203189A
:100AA000522D532D6C2D5C08A03E8600013087002E
:100AB000010842019A000130F00070084001DC0793
:100AC00040305C02031C652D662D672DDC01013072
:100AD000F0007008EE076E2D4E011912080040015B
:100AE0001C08F3007308FA001D08F3007308FB00EC
:100AF0007A08F300F4017B08F500F6017508F600AA
:100B0000F50173087507F8007408763DF900790857
:100B1000F2007808F100080042011908F0007C0892
:100B2000203E860002308700700881000130F0000E
:100B30007008FC0740307C02031C9F2DA02DA12DC6
:100B4000FC010130F00070084001DA070800833032
:100B500040019F009D019C011D08ED001C08EC0058
:100B60004E018C1296168E30F1000630F20086315E
:100B700059268531903040019E0008003D304001EB
:100B8000BF003F08C2003C08B4003B08B30042303D
:100B9000BF003F08B500003084319824853108003B
:100BA00086313F2685318431C9248531863124261A
:100BB00085318531A72585318331AA238531080008
:100BC0000A3445344534503452344F344D34203493
:100BD00064346134743461343A340A340034F100DA
:100BE000640050019E18F52DF62DF02D1E1771088A
:100BF0009A0070309B001E141C08080040019E13D0
:100C0000D701D8017D30F1000630F2008631592637
:100C1000853140019E1708004101640865040319ED
:100C2000122E132E182E65088A0064080A008631D9
:100C300008004E018C1240016D089D006C089C005C
:100C400086310C2686310800603051018D008F01FD
:100C50009101063093009201080040016E08031DC7
:100C6000322E342E0130352E0030080040015A0853
:100C7000031D3B2E3D2E01303E2E003008004F015B
:100C800096019701980199019A019B010800FE00C5
:100C900012001E00FE0B482E00346400800101315A
:100CA000890B4E2E0034F30073088431F62486310C
:100CB000080072084101E5007108E40008007208AC
:100CC0004101EF007108EE00080072084101ED00DB
:100CD0007108EC00080072084101E9007108E800A1
:100CE000080072084101EB007108EA000800720870
:100CF0004101E7007108E600080001304001D70714
:100D00000030D83D080042011D121D160800853133
:100D10008C2586310800253463340034080008002F
:020000040001F9
:080000000200010004000500EC
:02000E00EC3FC5
:020012009F3F0E
:10E00000680074007400700073003A002F002F0045
:10E010006700690074006800750062002E006300EC
:10E020006F006D002F00730061006D0070006900CB
:10E030006400650076006B00690074002F005000DA
:10E040004900430031003600460044006500760078
:10E050004B00690074002F007400720065006500B9
:10E060002F00700069006300310036006C0066000C
:10E07000310038003800350037000A0054006800CD
:10E0800069007300200069007300200061006E00C9
:10E0900020006F00700065006E00200073006F00AC
:10E0A00075007200630065002000700072006F0050
:10E0B0006A006500630074002C00200061002000ED
:10E0C00064006500760065006C006F0070006D00F4
:10E0D00065006E00740020006B0069007400200071
:10E0E0006F006600200050004900430031003600F8
:10E0F0004C004600310038003800350037002E0053
:10E100000A00410072006400750069006E006F0033
:10E11000200055006E006F002000500043004200B8
:10E12000200066006F0072006D00200061006E002C
:10E1300064002000700069006E006F0075007400BC
:10E140002E000A0044007200610067002D006E007E
:10E150002D00440072006F007000200070007200FB
:10E160006F006700720061006D006D006500720055
:10E170003A00200059006F00750020006300610024
:10E180006E00200064006F0077006E006C006F006E
:10E190006100640020006400690072006500630093
:10E1A00074006C00790020006100200068006500A8
:10E1B00078002000660069006C0065002000740093
:10E1C0006F00200079006F0075007200200074005D
:10E1D0006100720067006500740020006300680041
:0CE1E000690070002E000A000000000022
:00000001FF
