:100000000C9487000C94D51D0C94D51D0C94D51D13
:100010000C94EA0E0C9433140C94D51D0C945B15BF
:100020000C9432150C947C0C0C94D51D0C94D51D9D
:100030000C94D51D0C94D51D0C94D51D0C94D51D78
:100040000C949D050C94D51D0C94D51D0C9476161E
:100050000C949D160C9471120C94D10C0C94431DAD
:100060000C9441130C94D51D0C94C4160C94EB16EF
:100070000C94A6120C94D51D0C94D51D0C94D51D72
:100080000C94D51D0C94D51DBA15BD15D415C015ED
:10009000D415C315C815D415CB15CE156000650051
:1000A00080650065BA003BFC65BA666E80666E6668
:1000B0009E003CB6669E66B28066B266C4003CE6B0
:1000C00066C466DF8066DF66E9003CF866E96704BF
:1000D0008067046714003D026714671B80671B6715
:1000E00024003D1267246728806728672C003D1B89
:1000F000672C678C80678C6790003D1F67906798BE
:1001000080679867A0003D2367A067B48000809156
:1001100001108F7C8060806898ED94BF80930110FF
:1001200011241FBECFEFCDBFDFE7DEBFECE9F0E06B
:1001300041E017C0B591A59135912591059107FD35
:100140000CC095918591EF01F92FE82F05900D9244
:10015000A217B307D9F7FE0104C01D92A217B30777
:10016000E1F7ED30F40731F70E942E100C94671C74
:10017000F894FFCFE80301002D24242D24240282CB
:10018000FF920F931F93CF93DF930F92CDB7DEB7FC
:10019000082FCB01142F202F2F77F22E1982AE01BA
:1001A0004F5F5F4F612F0E942D0F811100C12F2DD6
:1001B00030E0233031050CF0FCC0143008F0FBC0F7
:1001C000113041F018F0143060F408C08981806467
:1001D000898307C08981806C898303C08981806895
:1001E000898300230CF46DC0E0E0FCE0838582FD90
:1001F000FDCFF901EE0FFF1FEE0FFF1FEF5BF34F77
:1002000082E08083E0E0FCE0838582FDFDCFF901A0
:10021000EE0FFF1FEE0FFF1FE05CF34F8DEF8083AB
:10022000F901E295F295F07FFE27E07FFE27EA5C78
:10023000F9491086118689818783F901E858FE47BC
:10024000808183FF20C0F901E295F295F07FFE27BF
:10025000E07FFE27EA5CF949878180628783F901A4
:10026000E858FE47808184FF16C0F901E295F295B7
:10027000F07FFE27E07FFE27EA5CF94987818061F5
:10028000878380E00BC0F901E858FE47808184FD38
:1002900004C080E003C080E001C08BEFF901E858A2
:1002A000FE47908195FD88C022953295307F322798
:1002B000207F3227F901EA5CF9499781986097839A
:1002C0007BC0E0E0FCE0838582FDFDCFF901EE0F0D
:1002D000FF1FEE0FFF1FED5BF34F82E08083E0E036
:1002E000FCE0838582FDFDCFF901EE0FFF1FEE0FCD
:1002F000FF1FEE5BF34F8DEF8083F901E295F295DE
:10030000F07FFE27E07FFE27EA5BF9491082118229
:100310008981F901E295F295F07FFE27E07FFE27C3
:10032000EA5CF9498787F901E858FE47808180FF38
:1003300020C0F901E295F295F07FFE27E07FFE27CD
:10034000EA5CF949878580628787F901E858FE47AA
:10035000808181FF16C0F901E295F295F07FFE27BA
:10036000E07FFE27EA5CF94987858061878780E026
:100370000BC0F901E858FE47808181FD04C080E090
:1003800003C080E001C08BEFF901E858FE4790817F
:1003900092FD12C022953295307F3227207F32277E
:1003A000F901EA5CF94997859860978705C08FEF56
:1003B00003C08EEF01C08CEF0F90DF91CF911F91A2
:1003C0000F91FF900895EF92FF920F931F93CF9399
:1003D000DF93182F082F0F77202F30E0E901CC0F83
:1003E000DD1F87FD219688230CF05BC0F901E295A3
:1003F000F295F07FFE27E07FFE27EA5CF9498785CA
:1004000085FF0CC022953295307F3227207F32271E
:10041000F901EA5CF949248935890BC022953295A6
:10042000307F3227207F3227F901EA5BF9492081AA
:100430003181FE01EE0FFF1FCF01880F991F880F3A
:10044000991FE80FF91FE650FA4986819781820FBC
:10045000931F86839783248135818217930779F4CC
:10046000FE01EE0FFF1FCF01880F991F880F991F04
:10047000E80FF91FE650FA49818180FF05C0812FFE
:100480000E94F102F82E7AC0CC0FDD1FCE01880F3A
:10049000991F880F991FC80FD91FC650DA491882B3
:1004A00096C0F901E295F295F07FFE27E07FFE27E6
:1004B000EA5CF949E084F184FE01EE0FFF1FCF01F1
:1004C000880F991F880F991FE80FF91FE650FA4906
:1004D0004481558186819781BA01681B790B6E151D
:1004E0007F0508F05FC022953295307F3227207F4C
:1004F0003227F901EA5CF949E484F5846E157F0539
:1005000009F450C0CC0FDD1FCE01880F991F880F52
:10051000991FC80FD91FC650DA4983E088830F2E70
:10052000F5EFFF2EF02D38C0FE01EE0FFF1FCF01BB
:10053000880F991F880F991FE80FF91FE650FA4995
:10054000818180FF0EC0812F0E94C60BBC01C701B4
:100550000E94461B892B29F4812F0E94D304F82E78
:100560000DC0CC0FDD1FCE01880F991F880F991F7A
:10057000C80FD91FC650DA49188229C0CC0FDD1F19
:10058000CE01880F991F880F991FC80FD91FC65019
:10059000DA4988818130E9F0812F8078802B0E94B0
:1005A000271617C08E0D9F1DFE01EE0FFF1F9F0126
:1005B000220F331F220F331FE20FF31FE650FA49B9
:1005C000868397838417950708F0AECFBCCFF12CB4
:1005D000E3CF8F2DDF91CF911F910F91FF90EF907F
:1005E0000895CF92DF92FF920F931F93CF93DF93E3
:1005F000082F0F7710E0E801CC0FDD1F87FD219653
:1006000088230CF0D9C0FE01EE0FFF1F9F01220FBF
:10061000331F220F331FE20FF31FE650FA4991E018
:100620009083C480D58026813781C21AD30A09F00D
:1006300051C0FE01EE0FFF1FCF01880F991F880FD9
:10064000991FE80FF91FE650FA49818180FF34C0F5
:10065000F801E295F295F07FFE27E07FFE27EA5B46
:10066000F94910821182F801E295F295F07FFE2798
:10067000E07FFE27EA5CF949148A158AE0E0FCE095
:10068000838582FDFDCF000F111F000F111FF801A0
:10069000EE5BF34F82E08083CC0FDD1FCE01880F2D
:1006A000991F880F991FC80FD91FC550DA49888133
:1006B0008E7F888380E081C0CC0FDD1FCE01880F44
:1006C000991F880F991FC80FD91FC650DA49188281
:1006D00080E073C0F82E0E94C60BBC01F801E558FB
:1006E000FE47808180FD03C06C157D0548F1FE0149
:1006F000EE0FFF1FCF01880F991F880F991FE80F7A
:10070000F91FE650FA49818180FF08C0C6010E94A6
:10071000461B21E0892B19F020E001C020E0FE01FA
:10072000EE0FFF1FCF01880F991F880F991FE80F49
:10073000F91FE550FA49808120FB80F9808301C0D0
:100740006B01CC0FDD1FCE01880F991F880F991FF9
:10075000C80FD91FC650DA496A817B818E819F817B
:10076000680F791F8F2D0E940514811126C0F80192
:10077000E295F295F07FFE27E07FFE27EA5BF949DC
:10078000C082D182F801E295F295F07FFE27E07FEA
:10079000FE27EA5CF949148A158AE0E0FCE09385BB
:1007A00092FDFDCF000F111F000F111FF801EE5B2E
:1007B000F34F92E0908301C08DEFDF91CF911F91B5
:1007C0000F91FF90DF90CF9008950F931F93CF93D9
:1007D000DF93C82F8F7709F0DDC0182F8C2F0E9470
:1007E000B414D82F8111D9C08091A465813009F447
:1007F0005FC008F4CBC0823021F0833009F4BBC065
:10080000CBC0C0688C2F0E94A51A20E1129FF00176
:100810001124EA5CF94904891589080F191FC06879
:10082000B8018C2F0E94BD1AC0688C2F0E948D1AAF
:100830000817190779F5E9EAF5E680819181080F33
:10084000191F008311838091A7659091A8650817EF
:10085000190729F480E00E94B10FD82F20C0E09141
:10086000AD65F091AE65309779F0099581110CC0B6
:10087000C0688C2F0E94D51A6091A7657091A865F9
:10088000C0688C2F0E94751A8C2F80680E94F1021C
:10089000D82F05C08C2F80680E94F102D82FE0E08D
:1008A000FCE0838582FDFDCF80E48093420C75C01F
:1008B000CF778C2F0E94A51A20E1129FF0011124FE
:1008C000EA5CF94900851185080F191FCF77B80137
:1008D0008C2F0E94BD1ACF778C2F0E948D1A08177B
:1008E0001907D9F5E9EAF5E680819181080F191F0A
:1008F000008311838091A7659091A8650817190757
:1009000029F481E00E94B10FD82F2CC0E091AD6591
:10091000F091AE653097A9F00995811112C0CF779B
:100920008C2F0E94D51A6091A7657091A865CF772A
:100930008C2F0E94751A8C2F8F770E94F102D82F6E
:1009400011C084E08093A465E6E3F6E687858460C1
:10095000878787818460878305C08C2F8F770E946B
:10096000D304D82FE0E0FCE0838582FDFDCF80E456
:100970008093400C12C0E091AF65F091B065309764
:1009800009F009950E94C80DD82F07C00E94C80D14
:10099000D82F03C0DEEF01C0DBEE8D2FDF91CF91AA
:1009A0001F910F910895CF92DF92EF92FF920F93D4
:1009B0001F93CF93DF93C82FCF77D0E07E01EE0C4B
:1009C000FF1C982F990FE11CF11C88230CF4A7C081
:1009D000D82E8701000F111FC801880F991F880F9B
:1009E000991F080F191F06501A4981E0F8018083EA
:1009F0006281738186819781680F791F8D2D0E9496
:100A00000514C82E8D2D0E94C60BBC01F80124814F
:100A1000358186819781281B390BFE01E558FE47F9
:100A2000808183FD20C02617370768F4FE01E29518
:100A3000F295F07FFE27E07FFE27EA5CF949878187
:100A40008062878310C06217730708F49B01FE0160
:100A5000E295F295F07FFE27E07FFE27EA5CF949F8
:100A600087818F7D878321153105A1F4EE0CFF1C52
:100A7000C701880F991F880F991F8E0D9F1DFC01BC
:100A8000E550FA4940814E7F4083FC01E650FA4927
:100A900010822AC0F701EE0FFF1FCF01880F991FA8
:100AA000880F991FE80FF91FE650FA49818180FFEE
:100AB00009C0C9010E94461B41E0892B09F040E0B2
:100AC000842F01C080E0EE0CFF1CF701EE0FFF1F2A
:100AD000EE0FFF1FA7014E0F5F1FFA01E550FA4905
:100AE000908180FB90F99083FE01E295F295F07F72
:100AF000FE27E07FFE27EA5CF949108611862487ED
:100B00003587E0E0FCE0838582FDFDCFCC0FDD1F63
:100B1000CC0FDD1FC05CD34F82E0888304C00F2E52
:100B2000FDEFCF2EF02D8C2DDF91CF911F910F91E6
:100B3000FF90EF90DF90CF9008951F920F920FB625
:100B40000F9211242F933F934F935F936F937F9353
:100B50008F939F93AF93BF93EF93FF9380910B0974
:100B600083FD04C080910B0982FF1EC080910B0998
:100B700083FF0AC082E08093A367E0914267F0910F
:100B8000436785E0099510C080910B0982FF0AC078
:100B900081E08093A367E0914267F091436785E02D
:100BA000099502C01092A36780910B09882324F055
:100BB00080910B0986FF6FC080910B0986FF12C0E0
:100BC00080910B0980FD0EC01092A267E0914267F0
:100BD000F091436784E00995E0E0F9E08385806C5B
:100BE000838759C080910B0986FF20C080910B0933
:100BF00080FF1CC080910D09869590E0809344672A
:100C00009093456781E08093A2671092A367E0917B
:100C10004267F09143670995882321F083E0809330
:100C20000A0939C086E080930A0935C080910B0912
:100C300088238CF580910B0981FF1CC08091A267ED
:100C4000811108C080910B0984FF04C083E0809368
:100C50000A091FC0E0914267F091436783E009955C
:100C6000811104C086E080930A0913C083E0809359
:100C70000A090FC0E0914267F091436782E009954D
:100C8000882321F083E080930A0903C086E08093E3
:100C90000A091092A267FF91EF91BF91AF919F91C6
:100CA0008F917F916F915F914F913F912F910F9015
:100CB0000FBE0F901F901895CF93DF9380E094E0C4
:100CC000FC011482C0E4D4E01C82A0E6B4E028E574
:100CD00014962C93149740EA54E031E0FA013483DF
:100CE00030E3FC01308318822C9323E0FA01208347
:100CF000FC01108A118A128A138A148A158A168AAC
:100D0000178A188A198A1A8A1B8A1C8A1D8A1E8ABF
:100D10001F8A50961C92509751961C92519752964A
:100D20001C92529753961C92539754961C92549728
:100D300055961C92559756961C92569757961C920C
:100D4000FA01108A118A128A138A148A158A168A5D
:100D5000178AE0EEF5E01182108215821782108664
:100D6000168283E1828380EE9DE180936467909395
:100D7000656781EE9DE1809362679093636782EE81
:100D80009DE1809360679093616783EE9DE180931E
:100D90005E6790935F6784EE9DE180935C679093BC
:100DA0005D6785EE9DE180935A6790935B6786EE61
:100DB0009DE1809358679093596787EE9DE18093FA
:100DC00056679093576788EE9DE1809354679093A0
:100DD000556789EE9DE180935267909353678AEE41
:100DE0009DE180935067909351678BEE9DE18093D6
:100DF0004E6790934F678CEE9DE180934C67909384
:100E00004D678DEE9DE180934A6790934B678EEE20
:100E10009DE180934867909349678FEE9DE18093B1
:100E2000466790934767DF91CF9108958F929F9285
:100E3000AF92BF92CF92DF92EF92FF920F931F93E8
:100E4000CF93DF9300D0CDB7DEB7E0919667F091F6
:100E50009767309709F46DC0A42E962EB82EE983BB
:100E6000FA83028113810E0F1F1FBE016F5F7F4F38
:100E700084E00E944D19882E811177C0E981FA81A2
:100E8000E017F10708F06CC0C12CD12C8B2D90E03D
:100E90009C012C563849790192819B1110C0D701D1
:100EA0009C91838198130BC060E0CF010E94DB12FC
:100EB000811105C0B1E0BB1510F0F7011082AA2026
:100EC00009F445C0E981FA818281B81237C0838173
:100ED000891134C06F0132C0C114D104F1F009830B
:100EE0001A8340C0811141C0E981FA81E017F107FE
:100EF00098F238C0C114D10491F061E0C6010E949B
:100F0000DB12882E811132C0F1E0FB1568F0EB2D69
:100F1000F0E0EC56F849908229C0882E27C00F2EA9
:100F2000FDED8F2EF02D22C00F2EF8ED8F2EF02D1F
:100F30001DC00F2EF2EE8F2EF02D18C0BE016F5F78
:100F40007F4F84E00E944D198D3D61F6C5CFBE01F3
:100F50006F5F7F4F84E00E944D198D3D19F6BFCF22
:100F6000C12CD12CA110C6CF01C0882E882D0F9086
:100F70000F90DF91CF911F910F91FF90EF90DF9035
:100F8000CF90BF90AF909F908F900895EF92FF9277
:100F90000F931F93CF93DF9300D0CDB7DEB7962F7B
:100FA0008A017901883040F4863008F05EC08130D3
:100FB00031F08230C9F03FC08F3049F13CC0E09140
:100FC0009267F0919367309709F459C080819181BD
:100FD000DA018D939C930190F081E02D808190E067
:100FE000F9018083918349C0BE016F5F7F4F892FD4
:100FF0000E94260D81113AC0E981FA81D801ED9352
:10100000FC9382819381F7018083918336C0E091C4
:101010009267F091936784819581009791F1DA014D
:101020008D939C930480F581E02D82819381F90159
:101030008083918322C0803230F120919667309175
:10104000976729833A83BE016F5F7F4F0E944D19D6
:1010500081110CC0E981FA81D801ED93FC93808164
:1010600090E0F7018083918308C082E0D8011D924F
:101070001C92F7011082118208C080E006C082EE47
:10108000F5CF82E0F3CF8EEDF1CF0F900F90DF918F
:10109000CF911F910F91FF90EF900895CF9381E032
:1010A00080930B0C8091A465843009F476C0E0E055
:1010B000FCE0838582FDFDCF80E18093400CE0E081
:1010C000FCE0838582FDFDCF80E18093420CE6E366
:1010D000F6E6108A118A148A158A148615861086F7
:1010E000118688E0E4E6F5E6A1EBB5E601900D9205
:1010F0008A95E1F7E091AB65F091AC65309709F422
:101100004EC081EB95E60995823069F484E08093C6
:10111000A465E6E3F6E68785846087878781846037
:10112000878380E03DC081113BC08091A76590918D
:10113000A865892B21F481E00E94B10F31C0109283
:10114000A9651092AA65C0E0C0688091B165882346
:1011500024F482E08093A4650BC06091A565709132
:10116000A6658C2F0E940514CF7781E08093A4653B
:101170008C2F0E94D51A6091A5657091A6658C2F61
:101180000E945D1A6091A7657091A8658C2F0E94DE
:10119000751A8C2F0E94E50303C080E001C08AEE1F
:1011A000CF910895FF920F931F93CF93DF9300D0B9
:1011B000CDB7DEB72091926730919367232B09F466
:1011C00060C0F82EE0919667F0919767309709F428
:1011D0005CC0E983FA830481002309F456C0BE0190
:1011E0006F5F7F4F84E00E944D19182F811150C00E
:1011F000A981BA8112968C911297E82FF0E0EC56F3
:10120000F849208113969C91291308C040E060E0C2
:101210000E941607182F015081113AC00111DFCF2B
:1012200034C0109296671092976710E031C066E95B
:1012300077E68F2D0E94260D182F811129C0E0918D
:101240009667F0919767E983FA830481002301F19F
:10125000BE016F5F7F4F84E00E944D19182F8111EE
:1012600017C0E981FA818381811108C041E060E003
:1012700082810E9416070150811105C00111E8CF3B
:1012800007C012EE05C0182F03C0FF2051F2CFCFC8
:10129000812F0F900F90DF91CF911F910F91FF90B1
:1012A00008951F93CF93DF9321E0DC012C931596D3
:1012B000ED91FC911697309709F00994EC010E948A
:1012C000CC1DFC0180932C6790932D67892B09F42A
:1012D00055C01FEF828181112CC06381748141E070
:1012E000CF0109960E947A0D8823D1F1E0912C67F5
:1012F000F0912D6740814095618184E094E00E94E7
:10130000700FE0912C67F0912D67878190858F3F5A
:10131000BFEF9B0719F481E0828322C082309105E0
:1013200030F001978783908781E0828319C0128310
:1013300017C08130A9F46581768141E0CF0109961B
:101340000E947A0D8823D1F0E0912C67F0912D67EF
:1013500012824081618184E094E00E94700F0EC08F
:10136000E0912C67F0912D670684F785E02DE093DE
:101370002C67F0932D67309709F0ACCF18821D824F
:101380001E82DF91CF911F910895CF93DF930E942A
:10139000131D882349F00E94AE1DE091AA66F091CA
:1013A000AB66309709F009950E94751D882321F1DD
:1013B0000E94B21DE091AC66F091AD66309709F0E5
:1013C0000995D0E0C0E080E0D06881114AC0D078B3
:1013D0008C2F8F77D82B8D2F0E941B1BDF778111CD
:1013E00003C08D2F0E941B1BCF5FCF77C33061F7E7
:1013F0000E94ED1CC82F01C0C0E00E94BD1C8823C4
:1014000059F00E94F41C0E946A19882321F00E945E
:10141000111AC82F01C0C0E00E94191D882349F08D
:101420000E94B61DE091AE66F091AF66309709F06C
:1014300009950E941F1D882349F00E94BA1DE09162
:10144000B066F091B166309709F009950E94251DAC
:10145000882349F00E94BE1D80E00E945911C82FC8
:1014600002C0DF77C1CF8C2FDF91CF910895CF924B
:10147000DF92EF92FF920F931F93CF93DF9300D0F1
:10148000CDB7DEB70091926710919367D801169699
:10149000ED91FC911797309709F444C0882341F0EF
:1014A0000280F381E02D6E177F0789F082E03DC056
:1014B000DA01ED93FC93D8011696ED91FC91179704
:1014C000808190E0F9018083918380E02EC0D80173
:1014D00018966D917C9119976115710529F1790123
:1014E0006A01082F69837A83813071F0C8F011E0B6
:1014F000BE016F5F7F4F83E00E944D191F5F011394
:10150000F7CF811112C001C080E0E981FA81D601D4
:10151000ED93FC93208130E0F7012083318305C0F7
:1015200081E003C082E001C082EE0F900F90DF9156
:10153000CF911F910F91FF90EF90DF90CF90089582
:10154000E091A667F0E0EE0FFF1FE050F04A108236
:1015500011828091010882FF11C0E091A667F0E03E
:10156000EE0FFF1FE050F04A808182608083E0919F
:101570007867F0917967309709F0099580910108B3
:1015800081FF0CC0EAE7F7E6808181608083E0910B
:101590007467F0917567309709F00995809101089B
:1015A00086FF11C0E091A667F0E0EE0FFF1FE0504C
:1015B000F04A808184608083E0917667F09177675C
:1015C000309709F00995209100088091A6678F5FF8
:1015D0008F779091A567891769F0E091A667F0E091
:1015E000E050FE4920838093A6678091A4678F5FB7
:1015F0008093A467E0916C67F0916D67309709F074
:1016000009950895E091AD67F0E0EE0FFF1FE050FF
:10161000FF49108211828091210882FF11C0E09160
:10162000AD67F0E0EE0FFF1FE050FF498081826060
:101630008083E0918867F0918967309709F0099578
:101640008091210881FF0CC0EAE8F7E68081816083
:101650008083E0918467F0918567309709F0099560
:101660008091210886FF11C0E091AD67F0E0EE0F98
:10167000FF1FE050FF49808184608083E09186678E
:10168000F0918767309709F00995209120088091A3
:10169000AD678F5F8F779091AC67891769F0E091A4
:1016A000AD67F0E0E050FD4920838093AD67809105
:1016B000AB678F5F8093AB67E0917C67F0917D674C
:1016C000309709F0099508950F931F93CF93DF93F7
:1016D00000D000D0CDB7DEB78C01DC011296EC91C2
:1016E000129713968C91803450F0E091A466F0919B
:1016F000A566309709F43FC0C80109953FC0803204
:1017000048F0E091A666F091A7663097B1F1C80164
:10171000099534C01B821C8219821A82833079F4A5
:10172000D80114966D917C9115979E012F5F3F4FC4
:10173000AE014D5F5F4F8E2F0E94370A09C09E0198
:101740002F5F3F4FAE014D5F5F4F6E2F0E94C60768
:10175000811114C0F8018681978129813A8182170D
:10176000930710F489839A8369817A818B819C81A4
:101770000E94441A03C082E001C082E02496CDBFDB
:10178000DEBFDF91CF911F910F910895982F9F7722
:1017900088233CF1892F90E0FC01E295F295F07FDF
:1017A000FE27E07FFE27EA5CF9492781207C203C68
:1017B00061F482959295907F9827807F9827FC010D
:1017C000EA5CF9499781977032C082959295907F33
:1017D0009827807F9827FC01EA5CF94997819370EC
:1017E00026C0892F90E0FC01E295F295F07FFE275C
:1017F000E07FFE27EA5CF9492785207C203C61F4E4
:1018000082959295907F9827807F9827FC01EA5CCB
:10181000F949978597700BC082959295907F98278C
:10182000807F9827FC01EA5CF9499785937097308F
:1018300051F028E030E0A90102C0440F551F9A95ED
:10184000E2F7CA0108958FEF93E00895CF93DF93F5
:10185000EC019881892F807659F5992324F48E81A3
:101860009F81892BD9F160E070E080E090E00E94D8
:10187000441A88818F71813071F028F0823039F0FC
:10188000833069F02DC0CE010E94AD1532C0CE016B
:101890000E94D6152EC0CE010E9412192AC0E091D6
:1018A000A866F091A9663097E9F0CE01099521C0AC
:1018B000803249F4E091A666F091A7663097A1F0D6
:1018C000CE01099516C0803489F4E091A466F091A8
:1018D000A566309769F0CE0109950BC089EE09C065
:1018E00082E007C082E005C082E003C082E001C060
:1018F00082E0DF91CF9108951F920F920FB60F9261
:1019000011242F933F934F935F936F937F938F9304
:101910009F93AF93BF93EF93FF931B9B05C0E09101
:101920005867F091596709951A9B05C0E091566771
:10193000F09157670995189B05C0E0915467F091A5
:1019400055670995199B05C0E0915267F09153675F
:1019500009951F9B05C0E0915067F091516709956B
:101960001C9B05C0E0914E67F0914F6709951D9B48
:1019700005C0E0914C67F0914D6709958FEF83B9F1
:10198000FF91EF91BF91AF919F918F917F916F9157
:101990005F914F913F912F910F900FBE0F901F902D
:1019A00018951F920F920FB60F9211242F933F9309
:1019B0004F935F936F937F938F939F93AF93BF9357
:1019C000EF93FF937F9B05C0E0916467F09165679B
:1019D00009957E9B05C0E0916267F0916367099568
:1019E0007D9B05C0E0916067F091616709957C9BE4
:1019F00005C0E0915E67F0915F670995789B05C02F
:101A0000E0915C67F0915D670995799B05C0E09175
:101A10005A67F0915B6709957B9B05C0E0914A6727
:101A2000F0914B6709958FEF8FB9FF91EF91BF91BF
:101A3000AF919F918F917F916F915F914F913F9166
:101A40002F910F900FBE0F901F901895EF92FF925D
:101A50000F931F93CF93DF9300D0CDB7DEB7E09104
:101A60009267F0919367A081B18151969C919817EC
:101A7000B8F1913039F482819381DB018D939C938D
:101A800080E02FC07B01082F8281938189839A8314
:101A90000190F081E02D118981E013C0E981FA8184
:101AA0009581091751F0BE016F5F7F4F82E00E9460
:101AB0004D19811105C0115004C010E080E001C033
:101AC00010E01111EBCF81110CC0E981FA819581F1
:101AD000091304C0D701ED93FC9303C08DED01C041
:101AE00081EE0F900F90DF91CF911F910F91FF909A
:101AF000EF900895EF92FF921F93CF93DF93EC0145
:101B00007B01142F8881823041F50E94C91D898391
:101B10009A83113081F4E0913067F091316722812E
:101B200033812E9DC0012F9D900D3E9D900D11245F
:101B30008B839C830FC0E0913067F09131672081E7
:101B400031812E9DC0012F9D900D3E9D900D112441
:101B50008B839C83188280E015C00E94C91D298157
:101B60003A81821B930B2B813C818217930748F0AB
:101B700088818F5F8883988181E0923018F480E0BB
:101B800001C080E0DF91CF911F91FF90EF90089509
:101B9000CF93DF93C0E0CF778C2F0E94A710D82F70
:101BA000811140C080E80E94A710D82F81113AC04F
:101BB000E0E0FCE0838582FDFDCF8DEF8093400C5B
:101BC000E0E0FCE0838582FDFDCF8DEF8093420C49
:101BD00064E675E68C2F0E945D1A68E070E08C2F39
:101BE0000E94751A8C2F0E94D51A60E070E08C2F2D
:101BF0000E94ED1AE6E3F6E6108A118A148A158A25
:101C000014861586108611861092AF651092B06505
:101C10001092AD651092AE651092A7651092A865FE
:101C20001092A4658D2FDF91CF91089540E068ED6B
:101C300080E690E00E94921D40E068ED81E690E031
:101C40000E94921D40E068ED88E790E00E94921D9E
:101C500044E268ED88E690E00E94921D40E068ED65
:101C600089E690E00E94921D40E068ED8CE790E0EC
:101C70000E94921D40E068ED82E690E00E94921D75
:101C800040E068ED83E690E00E94921D40E068ED40
:101C900084E690E00E94921D40E068ED80E890E0CC
:101CA0000E94921D48E168ED86E690E00E94921D38
:101CB000E0E6F0E0858181FFFDCF089580EA9AE0BB
:101CC00080936E6790936F6788EB98E1809372675B
:101CD00090937367E0E0F8E080E197E28087918776
:101CE00080ED858380EC868383E08783138614866A
:101CF0001686158680EF9DE18093786790937967CB
:101D000081EF9DE1809376679093776782EF9DE105
:101D1000809374679093756710927A6710927B67CF
:101D20001092AA671092A96780E88093A86781E063
:101D30008093A7671092A6671092A5671092A46778
:101D4000858180688583089582E09BE080937E672B
:101D500090937F6786ED98E1809382679093836785
:101D6000E0E2F8E080E197E28087918780ED85836B
:101D700080EC868383E08783138614861686158617
:101D800083EF9DE1809388679093896784EF9DE15D
:101D9000809386679093876785EF9DE18093846742
:101DA0009093856710928A6710928B671092B16743
:101DB0001092B06780E88093AF6781E08093AE6750
:101DC0001092AD671092AC671092AB678581806806
:101DD000858308951F920F920FB60F9211242F93AF
:101DE0003F934F935F936F937F938F939F93AF93A3
:101DF000BF93EF93FF938091420180FF0BC08091CE
:101E0000430180FF07C0E0916A67F0916B673097EC
:101E100009F009958091420181FF0BC08091430137
:101E200081FF07C0E0916867F0916967309709F01A
:101E3000099583E080934301FF91EF91BF91AF91AA
:101E40009F918F917F916F915F914F913F912F91D2
:101E50000F900FBE0F901F901895FC01613089F410
:101E6000E11584E0F80768F5EF3F83E0F80798F59F
:101E7000309749F1CF0101978E239F23892B29F5B4
:101E80002AC001978034910510F58E239F23892B5A
:101E900001F521C0E930F10538F490E00EC087E08B
:101EA000FA01808380E0089528E030E090E09F5FB1
:101EB000220F331F2E173F07D0F3FA01908380E0E3
:101EC00008958FEF08958FEF08958FEF08958FEFA6
:101ED00008958FEF0895EF3F83E0F807D9F6DFCF3D
:101EE0009C0136502630310548F0411102C004965D
:101EF00005C0413011F4089601C00C96683000F11D
:101F0000603120F480589F4F68501AC0683118F42F
:101F10009395605115C0603220F480589E4F6851EF
:101F20000FC0683218F49E5F68510AC06F3220F407
:101F300080589D4F685104C0693390F49D5F68518B
:101F400041E050E002C0440F551F6A95E2F7052EAC
:101F5000000C660B770BFC01408351836283738313
:101F60000895CF93C82FE6E3F6E6108A118A148A03
:101F7000158A148615861086118664E675E680E05B
:101F80000E945D1A64E675E680E00E9405148111E6
:101F900026C093E09093A465C13089F4E0E0FCE0B2
:101FA000938592FDFDCF92E09093420CE0E0FCE03F
:101FB000938592FDFDCF90E49093420C10C0E0E039
:101FC000FCE0938592FDFDCF92E09093400CE0E021
:101FD000FCE0938592FDFDCF90E49093400CCF916F
:101FE00008950E94CC1DFC0180932C6790932D676F
:101FF000892B49F1178210861282CF0109960E941F
:102000008E1DE0912C67F0912D6740814095618194
:1020100084E094E00E94700FE0912C67F0912D67AE
:1020200041E0618180E094E00E94700FE0912C67B4
:10203000F0912D670684F785E02DE0932C67F093EF
:102040002D673097B9F681E599E08093F366909318
:10205000F46682EF96E60E948A1408950E945C1846
:102060008FEB99E10E94F91B0E94DF1C0E94F10F87
:102070004AEF5DE168E070E080E090E00E94DB19EB
:1020800020E030E040E050E060E070E084ED96E673
:102090000E94871C0E94091C80E2809305048091A5
:1020A000A1678823F1F3A0913467B09135678C91D3
:1020B000811106C01196ED91FC911297CD01099501
:1020C000E0913467F091356787819085809334671C
:1020D00090933567E4CF0F931F9384E097E60E94B7
:1020E0005C1C811115C080917F810E94F6198111BD
:1020F0000FC0409106675091076700E91CE121E09D
:1021000060E074E680917F810E94031281111CC0FF
:102110008CE097E60E94311B8034910590F080910D
:102120007E810E94F61981110EC004E815E120E0BD
:1021300040E450E06AEB75E680917E810E943A129D
:1021400003C080E001C080E01F910F910895282F07
:102150002F7730E023303105A4F588237CF0E0E0D0
:10216000FCE0938592FDFDCFF901EE0FFF1FEE0F0E
:10217000FF1FEF5BF34F92E090830EC0E0E0FCE0C6
:10218000938592FDFDCFF901EE0FFF1FEE0FFF1FAC
:10219000ED5BF34F92E09083220F331F880F211DD8
:1021A000311D220F331FF901EE0FFF1FEE0FFF1F2E
:1021B0002E0F3F1FF901E650FA4982E0808380E04C
:1021C00008958EEF0895FC019081892F8F718130E1
:1021D00059F599237CF49076903241F581818132D2
:1021E00039F540E050E067E070E084E197E60E9456
:1021F000921B089590769032E9F48181803219F033
:10220000823251F019C040E050E067E070E084E1B4
:1022100097E60E94921B0895828193818093906734
:102220009093916780E0089582E0089582E0089598
:1022300082E0089582E0089582E00895282F2F77A4
:1022400030E0233031059CF588237CF0E0E0FCE0B1
:10225000938592FDFDCFF901EE0FFF1FEE0FFF1FDB
:10226000E05CF34F90E290830EC0E0E0FCE09385E9
:1022700092FDFDCFF901EE0FFF1FEE0FFF1FEE5B8A
:10228000F34F90E29083220F331F880F211D311DE1
:10229000220F331FF901EE0FFF1FEE0FFF1F2E0F4E
:1022A0003F1FF901E650FA49108280E008958EEF51
:1022B0000895E82FEF77A0E0BCE01B969C911B9758
:1022C00092FDFBCFF0E0DF01AA0FBB1FAA0FBB1FDF
:1022D000AE5BB34F98E09C93A0E0BCE01B969C9152
:1022E0001B9792FDFBCFDF01AA0FBB1FAA0FBB1FDD
:1022F000A05CB34F98E09C93E295F295F07FFE27A7
:10230000E07FFE27EA5CF94997859B7F9787978155
:102310009B7F9783982F9F7719F40E94C80D08958B
:102320000E94A71008950E94D71D80912067909168
:102330002167A0912267B09123678F3F9F4FAF4FD6
:10234000B10549F18091246790912567A091266796
:10235000B09127670196A11DB11D809324679093CA
:102360002567A0932667B093276740912067509117
:102370002167609122677091236784179507A607EC
:10238000B70749F4E0912E67F0912F67309709F075
:1023900009950E94FB1C0895E0E0F6E080818E7FA5
:1023A000808386818A7F868387818A7F8783118263
:1023B00084E0828388E083838FEF848380E2858357
:1023C00080E1828711861386108A118A128A138A05
:1023D00010923E6710923F671092406710924167DB
:1023E00010923C6710923D671092366710923767E3
:1023F000109238671092396710923A6710923B67D3
:1024000081E080830895CF92DF92EF92FF920F9345
:102410001F93CF93DF93C82F6B017A01D22F0E94B5
:10242000F61981111DC08C2F0E94A413811119C0AF
:10243000B6018C2F0E945D1AB7018C2F0E94751A6D
:102440008C2F0E94D51ADD2319F08C2F0E940815BD
:10245000B8018C2F0E94ED1A8C2F0E94F10201C04E
:1024600086EFDF91CF911F910F91FF90EF90DF905A
:10247000CF900895CF92DF92EF92FF920F931F9328
:10248000CF93DF93C82F6B017A01D22F0E94F619E8
:1024900081111DC08C2F0E94A413811119C0B60197
:1024A0008C2F0E945D1AB7018C2F0E94751A8C2FF9
:1024B0000E94D51ADD2319F08C2F0E940815B8014F
:1024C0008C2F0E94ED1A8C2F0E94D30401C086EF3E
:1024D000DF91CF911F910F91FF90EF90DF90CF9000
:1024E00008951F920F920FB60F9211242F933F93CE
:1024F0004F935F936F937F938F939F93AF93BF930C
:10250000EF93FF938091040886FB882780F98093DE
:10251000A767E0917067F0917167309709F00995AE
:10252000E0E0F8E0848180648483FF91EF91BF91C3
:10253000AF919F918F917F916F915F914F913F915B
:102540002F910F900FBE0F901F9018951F920F9212
:102550000FB60F9211242F933F934F935F936F9376
:102560007F938F939F93AF93BF93EF93FF9380914C
:10257000240886FB882780F98093AE67E091806706
:10258000F0918167309709F00995E0E2F8E08481E5
:1025900080648483FF91EF91BF91AF919F918F9160
:1025A0007F916F915F914F913F912F910F900FBE4F
:1025B0000F901F9018950F931F93CF93DF93EC010B
:1025C0008981843019F51C81112311F1062F81E0D6
:1025D0009881C90FD11D99819530A9F4002341F04C
:1025E0004B8143706C817D818A810E94C00008C04C
:1025F0008A810E941B1B81110CC08A810E9439179D
:102600001150811106C01111E3CF03C08FED01C03D
:1026100080E0DF91CF911F910F910895CF93DF93C9
:10262000C0E0CF77D0E0D06840E060E470E08C2F6D
:102630000E94C000811122C040E060E470E08D2F54
:102640000E94C00081111AC064E675E68C2F0E94BA
:102650000514811113C064E675E68D2F0E940514E0
:1026600081110CC08C2F0E94DE14811107C08D2FA8
:102670000E94B414811102C01092A465DF91CF9121
:1026800008951F920F920FB60F9211242F933F932C
:102690004F935F936F937F938F939F93AF93BF936A
:1026A000EF93FF93B89B05C0E0914867F0914967AD
:1026B0000995B99B05C0E0914667F0914767099578
:1026C0008FEF87BBFF91EF91BF91AF919F918F915A
:1026D0007F916F915F914F913F912F910F900FBE1E
:1026E0000F901F9018951F93CF93DF9386E29CE085
:1026F0000E947F1D0E94D513C0E0D0E0D1110DC013
:102700001C2F1F77812F0E94A413D82F811105C081
:102710001068812F0E94A413D82FCF5FCF77C330CA
:1027200069F7D1110CC00E940E13D82F811107C078
:102730000E94C80DD82F811102C00E942B1D8D2F21
:10274000DF91CF911F910895282F2F7730E0F90165
:10275000EE0FFF1F87FD31962330310524F5EE0F74
:10276000FF1FCF01880F991F880F991FE80FF91FCE
:10277000DF01A650BA491C9212961D921C92139723
:1027800014961D921C92159716961D921C921797DF
:1027900018961D921C921997E550FA4980818E7FF8
:1027A000808380E008958EEF0895E0E0FCE0808172
:1027B0008068808380818061808380818062808363
:1027C00085818F61858384818F6184838CE396E624
:1027D000868397838081807F826080838FEF82876A
:1027E000838780E090E0FC01E295F295F07FFE2780
:1027F000E07FFE27EA5CF949178216821786168663
:1028000001968330910579F70895282F2F7730E0CE
:102810002330310524F58823ACF0F901E858FE4750
:10282000808183FF02C060FD1CC022953295307FFD
:102830003227207F3227F901EA5CF94962877387E2
:1028400080E0089522953295307F3227207F32270D
:10285000F901EA5CF949628B738B80E008958EEF91
:1028600008958AEF08951F920F920FB60F921124C8
:102870002F933F934F935F936F937F938F939F9388
:10288000AF93BF93EF93FF93E0916667F091676713
:10289000309709F0099581E080935301FF91EF9102
:1028A000BF91AF919F918F917F916F915F914F9168
:1028B0003F912F910F900FBE0F901F901895CF93BF
:1028C000DF930F92CDB7DEB70E94AA1D882319F0BF
:1028D0000E944E081BC00E940D1D8823B1F0CE013E
:1028E00001960E94FF15811111C089810E941E115D
:1028F00081110CC089818F7721F489810E94E503C1
:1029000005C089810E94E30101C080E00F90DF9142
:10291000CF910895DC0117962D913C911897232BA8
:1029200011F51C9215961D921C9216972091A16785
:10293000222369F0E0913467F09135672781308573
:1029400017962D933C9318978783908707C0FC01B7
:102950008783908780933467909335678091A167D0
:102960008F5F8093A1670895282F2F7730E0233061
:10297000310514F5882384F0E0E0FCE0838582FDD6
:10298000FDCF220F331F220F331FF901EF5BF34FEF
:1029900081E0808380E00895E0E0FCE0838582FDB3
:1029A000FDCF220F331F220F331FF901ED5BF34FD1
:1029B00081E0808380E008958EEF0895282F2F779F
:1029C00030E02330310514F5882384F0E0E0FCE0AA
:1029D000838582FDFDCF220F331F220F331FF901A4
:1029E000E05CF34F81E0808380E00895E0E0FCE06C
:1029F000838582FDFDCF220F331F220F331FF90184
:102A0000EE5BF34F81E0808380E008958EEF0895C0
:102A1000282F2F77882344F4E22FF0E0E558FE4773
:102A2000908191FD1EC007C0E22FF0E0E558FE47FF
:102A3000908194FD16C030E0220F331FF90187FD0D
:102A40003196CF01880F991FFC01EE0FFF1FEE0F8B
:102A5000FF1F8E0F9F1FFC01E550FA4980818160A6
:102A6000808308951F920F920FB60F9211242F9317
:102A70003F934F935F936F937F938F939F93AF9306
:102A8000BF93EF93FF93E0918E67F0918F6730973C
:102A900009F00995FF91EF91BF91AF919F918F91AF
:102AA0007F916F915F914F913F912F910F900FBE4A
:102AB0000F901F9018951F920F920FB60F9211242E
:102AC0002F933F934F935F936F937F938F939F9336
:102AD000AF93BF93EF93FF93E0918C67F0918D6775
:102AE000309709F00995FF91EF91BF91AF919F91B8
:102AF0008F917F916F915F914F913F912F910F90A7
:102B00000FBE0F901F901895EF92FF920F931F9397
:102B1000CF93DF9361111AC07A0100E010E021E049
:102B20006AEB75E680917F810E940312E114F10443
:102B300069F0CAEBD5E6870106541A4969918CE021
:102B400097E60E94F418C017D107C1F7DF91CF9123
:102B50001F910F91FF90EF900895DC011196EC9179
:102B60004E2F50E04A305105F8F4FA01EC5BFF4F6C
:102B70000C943D1D0E947B1808950E94D91D089554
:102B80000E94DB1D0895FC0182810E94CF1C0895E4
:102B90000E94640B08950E94D71B0895DC011296D1
:102BA0008C910E94A21C089582E00895CF93DF9338
:102BB000EC018C819D810E94071D8F7790E0039727
:102BC000C4F48981813051F028F0833059F08C3081
:102BD00069F011C0CE010E9430190EC0CE010E94D2
:102BE000341C0AC0CE010E94051B06C00E946D1B4A
:102BF00003C08EEF01C082E0DF91CF910895CF93A3
:102C0000DF93EC010E940D1D8823D9F0E091050CA3
:102C10000E2E000CFF0BE45CF9499081292F2295C0
:102C20002F70422F50E0433051056CF4888180783A
:102C300093FB992790F9822B90FB87F9888380E09A
:102C400003C085EF01C08EEFDF91CF910895282F4B
:102C50002F7730E0220F331F982F990F211D311D40
:102C6000F901EE0FFF1FAF01440F551F440F551F11
:102C7000E40FF51FE650FA490084F185E02D309706
:102C800069F0220F331F240F351FD901A650BA490E
:102C900016964D915C9117976C9109950895CF9375
:102CA000DF9321E0DC012C931596ED91FC911697B2
:102CB000309709F00994EC0141E064EF71E08BE199
:102CC00097E60E947A0D882359F01092246710929B
:102CD0002567109226671092276782E00E94DF1D09
:102CE00018821D821E82DF91CF9108951F920F924C
:102CF0000FB60F9211242F933F934F935F936F93CF
:102D00007F938F939F93AF93BF93EF93FF93E09144
:102D10006E67F0916F670995FF91EF91BF91AF9149
:102D20009F918F917F916F915F914F913F912F91E3
:102D30000F900FBE0F901F9018951F920F920FB615
:102D40000F9211242F933F934F935F936F937F9331
:102D50008F939F93AF93BF93EF93FF93E09172672D
:102D6000F09173670995FF91EF91BF91AF919F919A
:102D70008F917F916F915F914F913F912F910F9024
:102D80000FBE0F901F9018951F920F920FB60F92C3
:102D900011242F933F934F935F936F937F938F9360
:102DA0009F93AF93BF93EF93FF93E0917E67F09172
:102DB0007F670995FF91EF91BF91AF919F918F919F
:102DC0007F916F915F914F913F912F910F900FBE27
:102DD0000F901F9018951F920F920FB60F9211240B
:102DE0002F933F934F935F936F937F938F939F9313
:102DF000AF93BF93EF93FF93E0918267F091836766
:102E00000995FF91EF91BF91AF919F918F917F9124
:102E10006F915F914F913F912F910F900FBE0F9047
:102E20001F9018958FED96E60E94F51780919E678A
:102E300090919F670E94611D80919C6790919D6712
:102E40000E946B1D80919A6790919B670E94701DF4
:102E500080919867909199670E94661D0E94D21D8B
:102E600089E89DE10E94521D84E89DE10E94571D62
:102E70000895282F2F7730E023303105F4F488238C
:102E800074F022953295307F3227207F3227F90166
:102E9000EA5CF94987818F73878380E008952295E2
:102EA0003295307F3227207F3227F901EA5CF949D9
:102EB00087858F73878780E008958EEF0895282F88
:102EC0002F7730E023303105F4F4882374F0229515
:102ED0003295307F3227207F3227F901EA5CF949A9
:102EE00087818460878380E0089522953295307FC2
:102EF0003227207F3227F901EA5CF949878584600F
:102F0000878780E008958EEF0895282F2F7730E08F
:102F100023303105F4F4882374F022953295307F04
:102F20003227207F3227F901EA5CF94987818B7FBC
:102F3000878380E0089522953295307F3227207F65
:102F40003227F901EA5CF94987858B7F878780E022
:102F500008958EEF0895282F2F7730E02330310524
:102F6000F4F4882374F022953295307F3227207F45
:102F70003227F901EA5CF949878182FB882780F9C9
:102F8000089522953295307F3227207F3227F9012C
:102F9000EA5CF949878582FB882780F9089580E0FB
:102FA0000895CF93DF930F92CDB7DEB7FC01228156
:102FB0003381232B99F4268137812130310581F427
:102FC000BE016F5F7F4F84810E944F1C811109C039
:102FD00061E0CE0101960E94A31903C087ED01C0F4
:102FE00087ED0F90DF91CF9108950097A1F0DC015C
:102FF000ED91FC911197309781F02181213079F486
:103000001296ED91FC911397309759F0218122305F
:1030100051F082EE089582EE089582EE089582EED8
:10302000089582EE0895809392679093936780E06D
:103030000895CF93DF9321E0DC012C931596ED9159
:10304000FC911697309709F00994EC010E94E81B57
:1030500081110AC00E94A61D882341F081E080935F
:10306000A0670E946B1002C01092A06718821D8298
:103070001E82DF91CF910895DC0113969C911397E6
:10308000903448F0E091A466F091A566309771F015
:10309000CD0109950895903258F0E091A666F0911F
:1030A000A766309739F0CD010995089582E008951B
:1030B00082E0089582E008950E94160E0E94961DF7
:1030C0000E945C060E94CC110E94A41B0E94E61C78
:1030D0000E94B51B0E949A180E94181C0E945E0E46
:1030E0000E94A40E0E94C21D0E94261C0E9412175C
:1030F0000E94421C0895CF93DF9300D0CDB7DEB776
:1031000019821A820E94AB1C882319F08981816080
:1031100089830E94B41C882319F089818260898385
:1031200062E0CE0101960E94A3190F900F90DF91EB
:10313000CF910895E0E4F1E081818111FDCFE0E4D9
:10314000F1E08FEF9FEF8487958710861186828745
:1031500093871782168A81E08283158289E28083B1
:1031600081898111FDCFE0E4F1E0128A158A08958A
:103170008091A8678823A4F0E091A967F0E0E05867
:10318000FD498081809302088091A9678F5F8F77C6
:103190008093A9678091A8678F5F8093A86708953F
:1031A000E0E0F8E085818F7D858308958091AF67A9
:1031B0008823A4F0E091B067F0E0E058FC498081FA
:1031C000809322088091B0678F5F8F778093B0677C
:1031D0008091AF678F5F8093AF670895E0E2F8E07A
:1031E00085818F7D85830895FC01828193819C0177
:1031F0002F5F3F4F468157812417350710F020E09D
:1032000030E0448155812417350751F040815181C8
:10321000DA01A80FB91F6C932283338380E00895ED
:103220008FEF0895FC0191819630A1F018F4992355
:1032300031F014C09A3031F09B3041F00FC00E9441
:10324000C61B0895CF010E94D1170895CF010E9497
:103250002B1A0895CF010E943C18089582E008952A
:10326000CF93DF9300D0CDB7DEB7FC018481958189
:103270000E94071D19821A820E94AB17882319F039
:1032800089818160898362E0CE0101960E94A31941
:103290000F900F90DF91CF910895DB01ED91FC919C
:1032A000119790E2823041F42181223029F4228169
:1032B0003381E20FF31F03C02081E20FF11D218152
:1032C000821304C0ED93FC9380E00895915051F770
:1032D0008DED089580913C6686FF0AC0E0E0FCE039
:1032E000838582FDFDCF80E48093400C81E001C0A6
:1032F00080E09091446696FF09C08260E0E0FCE0C7
:10330000938592FDFDCF90E49093420C0895CF9366
:10331000DF930E94311D0E94C61CC0E080E0811135
:103320000BC0DC2FDF778D2F0E941B1B811104C087
:10333000D0688D2F0E941B1BCF5FCF77C33079F7EA
:10334000DF91CF910895CF93DF936134A0F4C62F1E
:10335000BC01D0E0AE0184E695E60E94721C84E6D2
:1033600095E68093A5659093A665C093A765D093D5
:10337000A86580E001C08CEEDF91CF910895809127
:10338000A1678823B9F0A0913467B09135678C911B
:10339000811106C01196ED91FC911297CD0109950E
:1033A000E0913467F0913567878190858093346729
:1033B0009093356708956093206770932167809399
:1033C00022679093236710922467109225671092CA
:1033D00026671092276740932E6750932F670E94AD
:1033E000801B83E991E10E94CF1D0895282F982F1B
:1033F0009F77892F90E0880F991F27FD0196880FEE
:10340000991FFC01EE0FFF1FEE0FFF1F8E0F9F1F76
:10341000FC01E650FA4981E09081913009F080E0AA
:1034200008959091A465923031F4813071F480E078
:103430000E94B10F08959091A465913041F48230BB
:1034400041F481E00E94B10F089580E0089580E08A
:10345000089580E008951F93CF93DF93EC0141E03E
:103460006A818C810E941607182F811108C0E09193
:10347000A066F091A166309711F0CE010995812FD9
:10348000DF91CF911F910895009759F484E695E656
:103490008093A5659093A6656115710541F480E060
:1034A00007C08093A5659093A66580E001C08CEE6F
:1034B0006093A7657093A8650895282F982F9F772C
:1034C000892F90E0880F991F27FD0196880F991F7B
:1034D000FC01EE0FFF1FEE0FFF1F8E0F9F1FFC0161
:1034E000E650FA49628373830895282F982F9F77B7
:1034F000892F90E0880F991F27FD0196880F991F4B
:10350000FC01EE0FFF1FEE0FFF1F8E0F9F1FFC0130
:10351000E650FA49648375830895282F982F9F7782
:10352000892F90E0880F991F27FD0196880F991F1A
:10353000FC01EE0FFF1FEE0FFF1F8E0F9F1FFC0100
:10354000E650FA49848195810895282F982F9F7716
:10355000892F90E0880F991F27FD0196880F991FEA
:10356000FC01EE0FFF1FEE0FFF1F8E0F9F1FFC01D0
:10357000E650FA49868197810895282F982F9F77E2
:10358000892F90E0880F991F27FD0196880F991FBA
:10359000FC01EE0FFF1FEE0FFF1F8E0F9F1FFC01A0
:1035A000E650FA49668377830895282F982F9F77EE
:1035B000892F90E0880F991F27FD0196880F991F8A
:1035C000FC01EE0FFF1FEE0FFF1F8E0F9F1FFC0170
:1035D000E650FA49168217820895282F982F9F7770
:1035E000892F90E0880F991F27FD0196880F991F5A
:1035F000FC01EE0FFF1FEE0FFF1F8E0F9F1FFC0140
:10360000E650FA49608771870895CF93FC012281C3
:103610003381232B69F4848195810E94071DC82F73
:103620000E941B1B811105C08C2F0E945F1701C0D7
:1036300082E0CF910895CF93DF93C82F0E94F619AF
:10364000882351F08C2F0E94A710D82F811105C01C
:103650008C2F0E94271601C0D0E08D2FDF91CF91D3
:103660000895FC014281538124813581421753071B
:1036700040F086819781820F931F0197841B950BE1
:103680000895C9010197841B950B0895AA1BBB1BC4
:1036900051E107C0AA1FBB1FA617B70710F0A61B52
:1036A000B70B881F991F5A95A9F780959095BC0173
:1036B000CD0108951092906710929167E4E1F7E6CA
:1036C00010821182128213821482158288E086830E
:1036D00083EE90E10E945C1D0895CF93DF9300D0AC
:1036E000CDB7DEB70E94371D89839A8362E0CE0191
:1036F00001960E94A3190F900F90DF91CF9108952A
:1037000081E00E94DF1D8BE197E60E948E1D8FE411
:1037100096E18093FC669093FD668BEF96E60E949F
:103720008A1408950F931F93CF93DF93EC018B01BD
:10373000CA010E947A1DB801CE010E94441ADF918D
:10374000CF911F910F910895E0E0F9E0108212826D
:1037500087EA8487168681EE81871286158613860E
:10376000109242671092436708950E94011D40E045
:1037700068ED81E090E10E94921D40E068ED82E0FA
:1037800090E10E94921D109204100895CF93DF9350
:1037900000D0CDB7DEB719821A8262E0CE01019661
:1037A0000E94A3190F900F90DF91CF910895CF93AE
:1037B000DF930F92CDB7DEB70E947D1C898361E055
:1037C000CE0101960E94A3190F90DF91CF91089529
:1037D0008091B36781110AC00E945F148093B36720
:1037E000811104C00E94C5098093B3678091B367BB
:1037F0000895CF93DF93EC010E94C61D809330673C
:1038000090933167C0933267D0933367DF91CF9144
:1038100008951092A0670E94731389E198E1809344
:10382000EA669093EB6689EE96E60E948A14089504
:1038300040E068ED80E590E00E94921D40E068ED78
:1038400081E590E00E94921D80E008954BE068EDD4
:1038500080E091E00E94921D40E868ED81E091E0F7
:103860000E94921D80E00895FC0122813381232B68
:1038700039F4848195810E94071D0E94851708955F
:1038800082E0089540E068ED80E191E00E94921DA1
:10389000E0E1F1E012821382789480E008958230B2
:1038A00048F4E82FF0E0EC56F8498081FB01808372
:1038B00080E0089587ED0895FC0181E04281538105
:1038C000248135814217530709F080E00895EC0107
:1038D0000E94FC1D0E94FB1DCE010E94FD1DCE0119
:1038E0000E94DD1DFB01DC01480F591FA417B5071D
:1038F00019F021912D93FACF0895E0919667F091F8
:103900009767309711F08581089580E00895FC0154
:103910001082658376834783508721873287089595
:10392000611106C0E4E0F7E6128213821482158268
:1039300008958091B2670E94D71C80E090E00E94B9
:103940007A1D08959091B267992319F00E94D208C8
:1039500008958EEC0895E0919667F09197678781BE
:1039600086FB882780F90895E0919667F091976724
:10397000878185FB882780F90895E0E0FCE0828557
:1039800086958170928592FD82600895E0E0FCE06A
:1039900080818F778083838180788383089580936B
:1039A000B26789E99CE10E947A1D80E00895E0E019
:1039B000FCE0938190788F77892B83830895109210
:1039C0003467109235671092A1670895E0E0FCE03B
:1039D000108611860E949A1D08950E9487198111F0
:1039E00002C00E9473130895E0E0FCE082E0828749
:1039F00084E08287089591E088ED84BF9093410030
:103A0000FFCFE0E0F0E186818F788683089587FB21
:103A1000992790F990FB87F9089580910B0C85FB0D
:103A2000882780F9089580910A0C881F8827881FAD
:103A3000089580910A0C86FB882780F9089580916B
:103A40000A0C85FB882780F9089580910A0C83FB76
:103A5000882780F90895E0E0FCE08181816081831E
:103A60000895E0E0FCE081818E7F8183089580915C
:103A70006C6690916D6697700895EE0FFF1F05902C
:103A8000F491E02D09948F938FEF8BB98F91189556
:103A9000809366679093676708958091480190913D
:103AA0004901089580938E6790938F67089580935E
:103AB0008C6790938D6708958093A6669093A76610
:103AC00008958093AA669093AB6608958093AC6640
:103AD0009093AD6608958093AE669093AF66089517
:103AE0008093B0669093B166089580910A0C829598
:103AF000817008958093AF659093B0650895809329
:103B0000AB659093AC6508950E94C5098093B36737
:103B100008950E945F148093B367089522E0FC012A
:103B200020830895FC0164BF4083089581E0809361
:103B3000060F089581E08093060F089583E2809335
:103B40000B0C08958EEF80930A0C08958091906776
:103B50008170089580910B0C8170089580E88093A6
:103B60000A0C089580E180930A0C089580E4809304
:103B70000A0C089580E280930A0C089588E08093EF
:103B80000A0C08951092B00080E0089584E791E84F
:103B900008950E944D1D089584EC96E608950E94B4
:103BA000481D08950E945A1B08950C940000A89582
:103BB000089581E0089581E008950E94B800089575
:103BC000089508950895089508950895089508950D
:103BD00008950895089508950895089508950895FD
:103BE00008950895089508950895089508950895ED
:103BF0000895089508950895089508951E035300A3
:103C000041004D005000490020004400650076004E
:103C100020004B0069007400730024035000490029
:103C2000430031003600460038007800780020005C
:103C300044006500760020004B00690074002203F8
:103C4000530044004B0030003000300030003000A2
:103C500030003000300030003300300037003200D8
:103C60000000000000000000000000000000000054
:103C70000000000000000000000000000000000044
:103C80000000000000000000000000000000000034
:103C90000000000000000000000000000000000024
:103CA000006465000000000000000000000000004B
:103CB00000000000000009023000020100C03209CB
:103CC0000400000102020000070581034000010911
:103CD000040100020A0000000705820240000007FC
:103CE0000502024000001201000202000040D80458
:103CF000150B100101020301B2666E660000286711
:103D00000065006400000000800080640000000086
:103D100080000100000000FFFFFFFF04030904A270
:0B3D20001D9E1DF91DF81DF71DF61D6E
:02000004008278
:0C0000000B65000000D80F00200003007A
:00000001FF
