:0400000080311B2808
:100008007E1480310B1F19284E019A18901C19284C
:1000180090104001160C0139F0000130F006F00D87
:1000280016087006FD39700696007E1009008031AA
:100038001D287E10400180312128603051018D003B
:10004800063093007E01B8104001911096104F01C0
:100058001711193045018E000430900040308F0090
:100068008C019A308D004E0190109A1445018E171C
:060078000B178B173E2858
:020000040001F9
:08000000FF3FFF3FFF3FFF3F00
:0A000E008C3FFF3F9F3FFF3FFF3F85
:00000001FF
