:08000000803102288731F42F42
:100F64000134013440010F0CF400F40C740C013909
:100F740073060319C62F00308F190130F30073086C
:100F8400031DC62F013008000030080060305101F5
:100F94008D008F019101063093009201400196105B
:100FA40091107E01B810400194157E01D911DA1513
:100FB4008731B4278731003A0319EB2F160C013916
:100FC400F5000130F506F50D16087506FD397506B0
:100FD40096000B30F5006230890BEE2FF50BEE2FE7
:100FE4000032DA2F8731B2278731F2008731B327F5
:0C0FF400F300F001F10140018731C82F2B
:020000040001F9
:08000000FF3FFF3FFF3FFF3F00
:0A000E008C3FFF3F9F3FFF3FFF3F85
:00000001FF
