:08000000803102288731F42F42
:100F68000134013440010F0CF400F40C740C013905
:100F780073060319C82F00308F190130F300730866
:100F8800031DC82F013008000030080060305101EF
:100F98008D00063093007E01B81040019110961024
:100FA8007E01D911400194157E01DA158731B627E3
:100FB8008731003A0319EB2F160C0139F50001307F
:100FC800F506F50D16087506FD39750696000B3001
:100FD800F5006230890BEE2FF50BEE2F0032DA2F79
:100FE8008731B4278731F2008731B527F300F00144
:080FF800F10140018731CA2F0D
:020000040001F9
:08000000FF3FFF3FFF3FFF3F00
:0A000E008C3FFF3F9F3FFF3FFF3F85
:00000001FF
