:08000000803102288731F42F42
:100F7E000134013440018F19C62F013008000030B2
:100F8E000800603051018D008F01910106309300F1
:100F9E0092014001961091107E01B81040019415F7
:100FAE007E01D911DA158731C1278731003A03192D
:100FBE00EB2F160C0139F4000130F406F40D16086F
:100FCE007406FD39740696000B30F4006230890BFE
:100FDE00EE2FF40BEE2F0032DA2F8731BF27873139
:100FEE00F2008731C027F300F001F1014001873193
:020FFE00C82FFA
:020000040001F9
:08000000FF3FFF3FFF3FFF3F00
:0A000E008C3FFF3F9F3FFF3FFF3F85
:00000001FF
