:100000008031412800000030A0180130A300941571
:1000100000308F190130230203192528A01C232842
:10002000A10A0319A20A2208023C03182228FF3A57
:10003000031D1E282108E83C03182228A0100130C7
:10004000F80029282428A0142728A201A1010030A3
:10005000F8008031682820308500033084000008D3
:1000600003193F280A30F800F701F70B3528F80B81
:1000700034285F30F700F70B3B28800B32288031A3
:100080007228510192018F019101053093001030C7
:100090008D007E01B801C301CE01D901E4015301F5
:1000A00091019201930190019501960197019401AC
:1000B00040012014A014A101A201FD309100910083
:1000C0009610FF30940008307E01DA0040010328CA
:1000D000F80803196F28FD309100023096060130B0
:0800E000A3002B286728630030
:020000040001F9
:0A000E009C3FFD3F9F3FFF1FFF3F97
:00000001FF
;PIC16F18877
;CRC=1665  CREATED="20-Mar-22 16:06"
