:10000000803131280000003020180130A300941501
:1000100000308F190130230203191728941520107E
:100020008F192014201817280130F80019280030E3
:10003000F800803158282030850003308400000803
:1000400003192F280A30F800F701F70B2528F80BC1
:1000500024285F30F700F70B2B28800B22288031F3
:100060006228510192018F019101053093001030F7
:100070008D007E01B801C301CE01D901E401530115
:1000800091019201930190019501960197019401CC
:1000900040012014A014A101A201FD3091009100A3
:1000A0009610FF30940008307E01DA0040010328EA
:1000B000F80803195F28FD309100023096060130E0
:0800C000A3001B285728630070
:020000040001F9
:0A000E009C3FFD3F9F3FFF1FFF3F97
:00000001FF
;PIC16F18877
;CRC=5CE9  CREATED="20-Mar-22 16:04"
