:100000000C946F000C94A0160C94A0160C94A016DF
:100010000C94A0160C94A0160C94A0160C9423100B
:100020000C94FA0F0C942B0B0C94A0160C94A016A5
:100030000C94A0160C94A0160C94A0160C94A01668
:100040000C94A0160C94A0160C94A0160C94A01658
:100050000C94A0160C94A0160C94260F0C94411628
:100060000C94590D0C94A0160C94A0160C94A01688
:100070000C94A0160C94A0160C94A0160C94A01628
:100080000C94A0160C94A016821085109C10881059
:100090009C108B1090109C109310961060006100C3
:1000A00080610061AC002D6861AC6260806260625A
:1000B00090002E14629062A48062A462D0002E444C
:1000C00062D062D78062D762DB002E7062DB62EDA5
:1000D0008062ED62F1002E7462F162FB800080911B
:1000E00001108F7C8060806898ED94BF8093011030
:1000F00011241FBECFEFCDBFDFE7DEBFECE9F0E09C
:1001000040E017C0B591A59135912591059107FD66
:100110000CC095918591EF01F92FE82F05900D9274
:10012000A217B307D9F7FE0104C01D92A217B307A7
:10013000E1F7ED3DF40731F70E946D0C0C94751555
:10014000F894FFCF2D24242D24240282FF920F93B4
:100150001F93CF93DF930F92CDB7DEB7082FCB015C
:10016000142F202F2F77F22E1982AE014F5F5F4F91
:10017000612F0E94720B811100C12F2D30E02330BE
:1001800031050CF0FCC0143008F0FBC0113041F018
:1001900018F0143060F408C089818064898307C036
:1001A0008981806C898303C0898180688983002369
:1001B0000CF46DC0E0E0FCE0838582FDFDCFF90129
:1001C000EE0FFF1FEE0FFF1FEF5BF34F82E0808308
:1001D000E0E0FCE0838582FDFDCFF901EE0FFF1F1B
:1001E000EE0FFF1FE05CF34F8DEF8083F901E29586
:1001F000F295F07FFE27E07FFE27E85DFD4910863F
:10020000118689818783F901EC5BFE47808183FF3A
:1002100020C0F901E295F295F07FFE27E07FFE27EE
:10022000E85DFD49878180628783F901EC5BFE47C9
:10023000808184FF16C0F901E295F295F07FFE27D8
:10024000E07FFE27E85DFD4987818061878380E04C
:100250000BC0F901EC5BFE47808184FD04C080E0A7
:1002600003C080E001C08BEFF901EC5BFE47908199
:1002700095FD88C022953295307F3227207F322726
:10028000F901E85DFD499781986097837BC0E0E0C4
:10029000FCE0838582FDFDCFF901EE0FFF1FEE0F1D
:1002A000FF1FED5BF34F82E08083E0E0FCE083859D
:1002B00082FDFDCFF901EE0FFF1FEE0FFF1FEE5B7A
:1002C000F34F8DEF8083F901E295F295F07FFE27E1
:1002D000E07FFE27E85CFD49108211828981F901E7
:1002E000E295F295F07FFE27E07FFE27E85DFD496D
:1002F0008787F901EC5BFE47808180FF20C0F90110
:10030000E295F295F07FFE27E07FFE27E85DFD494C
:10031000878580628787F901EC5BFE47808181FFDA
:1003200016C0F901E295F295F07FFE27E07FFE27E7
:10033000E85DFD4987858061878780E00BC0F90112
:10034000EC5BFE47808181FD04C080E003C080E05B
:1003500001C08BEFF901EC5BFE47908192FD12C06A
:1003600022953295307F3227207F3227F901E85DD0
:10037000FD4997859860978705C08FEF03C08EEF82
:1003800001C08CEF0F90DF91CF911F910F91FF90E3
:100390000895EF92FF920F931F93CF93DF93182F3F
:1003A000082F0F77202F30E0E901CC0FDD1F87FDEC
:1003B000219688230CF05BC0F901E295F295F07F5D
:1003C000FE27E07FFE27E85DFD49878585FF0CC09D
:1003D00022953295307F3227207F3227F901E85D60
:1003E000FD49248935890BC022953295307F32270B
:1003F000207F3227F901E85CFD4920813181FE012F
:10040000EE0FFF1FCF01880F991F880F991FE80F6C
:10041000F91FE451FE4986819781820F931F8683DD
:100420009783248135818217930779F4FE01EE0FBB
:10043000FF1FCF01880F991F880F991FE80FF91F21
:10044000E451FE49818180FF05C0812F0E94D702BF
:10045000F82E7AC0CC0FDD1FCE01880F991F880FB0
:10046000991FC80FD91FC451DE49188296C0F901DF
:10047000E295F295F07FFE27E07FFE27E85DFD49DB
:10048000E084F184FE01EE0FFF1FCF01880F991F5A
:10049000880F991FE80FF91FE451FE4944815581E7
:1004A00086819781BA01681B790B6E157F0508F06C
:1004B0005FC022953295307F3227207F3227F901A5
:1004C000E85DFD49E484F5846E157F0509F450C0AC
:1004D000CC0FDD1FCE01880F991F880F991FC80F01
:1004E000D91FC451DE4983E088830F2EF5EFFF2E1C
:1004F000F02D38C0FE01EE0FFF1FCF01880F991FAE
:10050000880F991FE80FF91FE451FE49818180FF90
:100510000EC0812F0E948B09BC01C7010E94851467
:10052000892B29F4812F0E94B904F82E0DC0CC0F1D
:10053000DD1FCE01880F991F880F991FC80FD91F83
:10054000C451DE49188229C0CC0FDD1FCE01880FAF
:10055000991F880F991FC80FD91FC451DE49888180
:100560008130E9F0812F8078802B0E94EF1017C036
:100570008E0D9F1DFE01EE0FFF1F9F01220F331FE7
:10058000220F331FE20FF31FE451FE498683978346
:100590008417950708F0AECFBCCFF12CE3CF8F2D99
:1005A000DF91CF911F910F91FF90EF900895CF921F
:1005B000DF92FF920F931F93CF93DF93082F0F7754
:1005C00010E0E801CC0FDD1F87FD219688230CF099
:1005D000D9C0FE01EE0FFF1F9F01220F331F220F14
:1005E000331FE20FF31FE451FE4991E09083C48072
:1005F000D58026813781C21AD30A09F051C0FE0185
:10060000EE0FFF1FCF01880F991F880F991FE80F6A
:10061000F91FE451FE49818180FF34C0F801E29561
:10062000F295F07FFE27E07FFE27E85CFD4910820F
:100630001182F801E295F295F07FFE27E07FFE2718
:10064000E85DFD49148A158AE0E0FCE0838582FDBF
:10065000FDCF000F111F000F111FF801EE5BF34FCC
:1006600082E08083CC0FDD1FCE01880F991F880F99
:10067000991FC80FD91FC351DE4988818E7F888397
:1006800080E081C0CC0FDD1FCE01880F991F880F3D
:10069000991FC80FD91FC451DE49188280E073C06A
:1006A000F82E0E948B09BC01F801E95BFE478081AE
:1006B00080FD03C06C157D0548F1FE01EE0FFF1FA4
:1006C000CF01880F991F880F991FE80FF91FE45178
:1006D000FE49818180FF08C0C6010E94851421E087
:1006E000892B19F020E001C020E0FE01EE0FFF1F72
:1006F000CF01880F991F880F991FE80FF91FE35149
:10070000FE49808120FB80F9808301C06B01CC0F02
:10071000DD1FCE01880F991F880F991FC80FD91FA1
:10072000C451DE496A817B818E819F81680F791F68
:100730008F2D0E94F80E811126C0F801E295F295E6
:10074000F07FFE27E07FFE27E85CFD49C082D18272
:10075000F801E295F295F07FFE27E07FFE27E85D45
:10076000FD49148A158AE0E0FCE0938592FDFDCFF7
:10077000000F111F000F111FF801EE5BF34F92E005
:10078000908301C08DEFDF91CF911F910F91FF906A
:10079000DF90CF9008950F931F93CF93DF93C82FCF
:1007A0008F7709F0DDC0182F8C2F0E947C0FD82F77
:1007B0008111D9C080914061813009F45FC008F493
:1007C000CBC0823021F0833009F4BBC0CBC0C068FD
:1007D0008C2F0E94D01320E1129FF0011124E85DBC
:1007E000FD4904891589080F191FC068B8018C2FAD
:1007F0000E94E813C0688C2F0E94B81308171907CD
:1008000079F5E5E4F1E680819181080F191F0083F5
:10081000118380914361909144610817190729F46D
:1008200080E00E94B50BD82F20C0E0914961F09183
:100830004A61309779F0099581110CC0C0688C2FFE
:100840000E9400146091436170914461C0688C2FD4
:100850000E94A0138C2F80680E94D702D82F05C059
:100860008C2F80680E94D702D82FE0E0FCE08385BF
:1008700082FDFDCF80E48093420C75C0CF778C2F32
:100880000E94D01320E1129FF0011124E85DFD4980
:1008900000851185080F191FCF77B8018C2F0E9492
:1008A000E813CF778C2F0E94B81308171907D9F5D2
:1008B000E5E4F1E680819181080F191F008311831F
:1008C00080914361909144610817190729F481E0F0
:1008D0000E94B50BD82F2CC0E0914961F0914A617C
:1008E0003097A9F00995811112C0CF778C2F0E9403
:1008F00000146091436170914461CF778C2F0E9406
:10090000A0138C2F8F770E94D702D82F11C084E0BC
:1009100080934061E8E2F2E687858460878787817B
:100920008460878305C08C2F8F770E94B904D82FED
:10093000E0E0FCE0838582FDFDCF80E48093400C05
:1009400012C0E0914B61F0914C61309709F009952C
:100950000E94950AD82F07C00E94950AD82F03C07D
:10096000DEEF01C0DBEE8D2FDF91CF911F910F9154
:100970000895CF92DF92EF92FF920F931F93CF9340
:10098000DF93C82FCF77D0E07E01EE0CFF1C982FAD
:10099000990FE11CF11C88230CF4A7C0D82E870105
:1009A000000F111FC801880F991F880F991F080F8A
:1009B000191F04511E4981E0F8018083628173810F
:1009C00086819781680F791F8D2D0E94F80EC82EA1
:1009D0008D2D0E948B09BC01F8012481358186810F
:1009E0009781281B390BFE01E95BFE47808183FD5F
:1009F00020C02617370768F4FE01E295F295F07FD4
:100A0000FE27E07FFE27E85DFD49878180628783BE
:100A100010C06217730708F49B01FE01E295F2957E
:100A2000F07FFE27E07FFE27E85DFD4987818F7D0F
:100A3000878321153105A1F4EE0CFF1CC701880F37
:100A4000991F880F991F8E0D9F1DFC01E351FE49D0
:100A500040814E7F4083FC01E451FE4910822AC050
:100A6000F701EE0FFF1FCF01880F991F880F991F05
:100A7000E80FF91FE451FE49818180FF09C0C901D7
:100A80000E94851441E0892B09F040E0842F01C0C9
:100A900080E0EE0CFF1CF701EE0FFF1FEE0FFF1FB3
:100AA000A7014E0F5F1FFA01E351FE49908180FBC1
:100AB00090F99083FE01E295F295F07FFE27E07FAA
:100AC000FE27E85DFD491086118624873587E0E022
:100AD000FCE0838582FDFDCFCC0FDD1FCC0FDD1F39
:100AE000C05CD34F82E0888304C00F2EFDEFCF2E71
:100AF000F02D8C2DDF91CF911F910F91FF90EF90F2
:100B0000DF90CF9008958F929F92AF92BF92CF9235
:100B1000DF92EF92FF920F931F93CF93DF9300D05A
:100B2000CDB7DEB7E091F762F091F862309709F443
:100B30006DC0A42E962EB82EE983FA83028113810C
:100B40000E0F1F1FBE016F5F7F4F84E00E94AF1228
:100B5000882E811177C0E981FA81E017F10708F04A
:100B60006CC0C12CD12C8B2D90E09C012B503D49A9
:100B7000790192819B1110C0D7019C9183819813B8
:100B80000BC060E0CF010E94000E811105C0B1E0F2
:100B9000BB1510F0F7011082AA2009F445C0E981C5
:100BA000FA818281B81237C08381891134C06F0104
:100BB00032C0C114D104F1F009831A8340C08111FD
:100BC00041C0E981FA81E017F10798F238C0C114F9
:100BD000D10491F061E0C6010E94000E882E8111BF
:100BE00032C0F1E0FB1568F0EB2DF0E0EB50FD4971
:100BF000908229C0882E27C00F2EFDED8F2EF02D5C
:100C000022C00F2EF8ED8F2EF02D1DC00F2EF2EE0C
:100C10008F2EF02D18C0BE016F5F7F4F84E00E94C1
:100C2000AF128D3D61F6C5CFBE016F5F7F4F84E08F
:100C30000E94AF128D3D19F6BFCFC12CD12CA1104F
:100C4000C6CF01C0882E882D0F900F90DF91CF91D5
:100C50001F910F91FF90EF90DF90CF90BF90AF90DA
:100C60009F908F900895CF93DF9380E094E0FC01F4
:100C70001482C0E4D4E01C82A0E6B4E028E014961C
:100C80002C93149740EA54E031E0FA01348330E3C6
:100C9000FC01308318822C9333E0FA013083FC018D
:100CA000108A118A128A138A148A158A168A178A58
:100CB000188A198A1A8A1B8A1C8A1D8A1E8A1F8A08
:100CC00050961C92509751961C92519752961C9296
:100CD000529753961C92539754961C92549755963C
:100CE0001C92559756961C92569757961C92FA014D
:100CF000108A118A128A138A148A158A168A278BF7
:100D0000E0EEF5E0118210821582178210861682BD
:100D100083E1828388EA96E18093EB629093EC62B0
:100D200089EA96E18093E9629093EA628AEA96E121
:100D30008093E7629093E8628BEA96E18093E562A4
:100D40009093E6628CEA96E18093E3629093E4628A
:100D50008DEA96E18093E1629093E2628EEA96E1F9
:100D60008093DF629093E0628FEA96E18093DD6288
:100D70009093DE6280EB96E18093DB629093DC627D
:100D8000DF91CF910895EF92FF920F931F93CF932E
:100D9000DF9300D0CDB7DEB7962F8A017901883076
:100DA00040F4863008F05EC0813031F08230C9F006
:100DB0003FC08F3049F13CC0E091F362F091F462A2
:100DC000309709F459C080819181DA018D939C9309
:100DD0000190F081E02D808190E0F9018083918382
:100DE00049C0BE016F5F7F4F892F0E94410A811168
:100DF0003AC0E981FA81D801ED93FC938281938115
:100E0000F7018083918336C0E091F362F091F46240
:100E100084819581009791F1DA018D939C930480F0
:100E2000F581E02D82819381F9018083918322C035
:100E3000803230F12091F7623091F86229833A8351
:100E4000BE016F5F7F4F0E94AF1281110CC0E9811C
:100E5000FA81D801ED93FC93808190E0F7018083C3
:100E6000918308C082E0D8011D921C92F701108284
:100E7000118208C080E006C082EEF5CF82E0F3CF99
:100E80008EEDF1CF0F900F90DF91CF911F910F91C9
:100E9000FF90EF900895CF9381E080930B0C8091A9
:100EA0004061843009F476C0E0E0FCE0838582FD97
:100EB000FDCF80E18093400CE0E0FCE0838582FD83
:100EC000FDCF80E18093420CE8E2F2E6108A118ABD
:100ED000148A158A148615861086118688E0E0E04B
:100EE000F1E6ADE4B1E601900D928A95E1F7E0916B
:100EF0004761F0914861309709F44EC08DE491E666
:100F00000995823069F484E080934061E8E2F2E67A
:100F100087858460878787818460878380E03DC080
:100F200081113BC08091436190914461892B21F4F0
:100F300081E00E94B50B31C010924561109246616C
:100F4000C0E0C06880914D61882324F482E08093E2
:100F500040610BC060914161709142618C2F0E9491
:100F6000F80ECF7781E0809340618C2F0E940014AF
:100F700060914161709142618C2F0E948813609151
:100F80004361709144618C2F0E94A0138C2F0E94AA
:100F9000CB0303C080E001C08AEECF910895FF9299
:100FA0000F931F93CF93DF9300D0CDB7DEB720917F
:100FB000F3623091F462232B09F460C0F82EE091C3
:100FC000F762F091F862309709F45CC0E983FA8324
:100FD0000481002309F456C0BE016F5F7F4F84E097
:100FE0000E94AF12182F811150C0A981BA811296A8
:100FF0008C911297E82FF0E0EB50FD492081139679
:101000009C91291308C040E060E00E948305182FDE
:10101000015081113AC00111DFCF34C01092F76244
:101020001092F86210E031C067EF72E68F2D0E94D7
:10103000410A182F811129C0E091F762F091F862FE
:10104000E983FA830481002301F1BE016F5F7F4FC2
:1010500084E00E94AF12182F811117C0E981FA8134
:101060008381811108C041E060E082810E94830594
:101070000150811105C00111E8CF07C012EE05C073
:10108000182F03C0FF2051F2CFCF812F0F900F9068
:10109000DF91CF911F910F91FF900895CF93DF9330
:1010A0000E941116882349F00E948616E0919C62E6
:1010B000F0919D62309709F009950E94551688239A
:1010C00021F10E948A16E0919E62F0919F62309712
:1010D00009F00995D0E0C0E080E0D06881114AC0F5
:1010E000D0788C2F8F77D82B8D2F0E944614DF77E6
:1010F000811103C08D2F0E944614CF5FCF77C3307C
:1011000061F70E94EB15C82F01C0C0E00E94C21514
:10111000882359F00E94F2150E94CC12882321F0F6
:101120000E943C13C82F01C0C0E00E9417168823FC
:1011300049F00E948E16E091A062F091A162309772
:1011400009F009950E941D16882349F00E94921605
:10115000E091A262F091A362309709F009950E9494
:101160002316882349F00E94961680E00E941F0DE6
:10117000C82F02C0DF77C1CF8C2FDF91CF910895A8
:10118000CF92DF92EF92FF920F931F93CF93DF9353
:1011900000D0CDB7DEB70091F3621091F462D801B0
:1011A0001696ED91FC911797309709F444C0882367
:1011B00041F00280F381E02D6E177F0789F082E015
:1011C0003DC0DA01ED93FC93D8011696ED91FC91A8
:1011D0001797808190E0F9018083918380E02EC091
:1011E000D80118966D917C9119976115710529F1B7
:1011F00079016A01082F69837A83813071F0C8F020
:1012000011E0BE016F5F7F4F83E00E94AF121F5F4E
:101210000113F7CF811112C001C080E0E981FA818A
:10122000D601ED93FC93208130E0F70120833183D8
:1012300005C081E003C082E001C082EE0F900F90F4
:10124000DF91CF911F910F91FF90EF90DF90CF90A2
:1012500008950F931F93CF93DF9300D000D0CDB7A5
:10126000DEB78C01DC011296EC91129713968C91EB
:10127000803450F0E0919662F0919762309709F4D3
:101280003FC0C80109953FC0803248F0E0919862A4
:10129000F09199623097B1F1C801099534C01B8271
:1012A0001C8219821A82833079F4D80114966D91C8
:1012B0007C9115979E012F5F3F4FAE014D5F5F4FB1
:1012C0008E2F0E94C00809C09E012F5F3F4FAE01C4
:1012D0004D5F5F4F6E2F0E94C306811114C0F8014D
:1012E0008681978129813A818217930710F4898337
:1012F0009A8369817A818B819C810E946F1303C0DC
:1013000082E001C082E02496CDBFDEBFDF91CF91A5
:101310001F910F910895982F9F7788233CF1892F73
:1013200090E0FC01E295F295F07FFE27E07FFE273A
:10133000E85DFD492781207C203C61F482959295EF
:10134000907F9827807F9827FC01E85DFD49978171
:10135000977032C082959295907F9827807F9827CA
:10136000FC01E85DFD499781937026C0892F90E0CC
:10137000FC01E295F295F07FFE27E07FFE27E85D15
:10138000FD492785207C203C61F482959295907FD1
:101390009827807F9827FC01E85DFD499785977025
:1013A0000BC082959295907F9827807F9827FC01AB
:1013B000E85DFD4997859370973051F028E030E063
:1013C000A90102C0440F551F9A95E2F7CA0108957A
:1013D0008FEF93E00895CF93DF93EC019881892FED
:1013E000807659F5992324F48E819F81892BD9F138
:1013F00060E070E080E090E00E946F1388818F7160
:10140000813071F028F0823039F0833069F02DC0DE
:10141000CE010E94751032C0CE010E949E102EC0D7
:10142000CE010E9474122AC0E0919A62F0919B62F0
:101430003097E9F0CE01099521C0803249F4E0915E
:101440009862F09199623097A1F0CE01099516C08B
:10145000803489F4E0919662F0919762309769F058
:10146000CE0109950BC089EE09C082E007C082E079
:1014700005C082E003C082E001C082E0DF91CF912D
:101480000895EF92FF920F931F93CF93DF9300D0B5
:10149000CDB7DEB7E091F362F091F462A081B18143
:1014A00051969C919817B8F1913039F482819381CB
:1014B000DB018D939C9380E02FC07B01082F8281FC
:1014C000938189839A830190F081E02D118981E0D5
:1014D00013C0E981FA819581091751F0BE016F5F50
:1014E0007F4F82E00E94AF12811105C0115004C0ED
:1014F00010E080E001C010E01111EBCF81110CC0B1
:10150000E981FA819581091304C0D701ED93FC9319
:1015100003C08DED01C081EE0F900F90DF91CF9150
:101520001F910F91FF90EF900895CF93DF93C0E04C
:10153000CF778C2F0E94310CD82F811140C080E8CA
:101540000E94310CD82F81113AC0E0E0FCE0838585
:1015500082FDFDCF8DEF8093400CE0E0FCE08385C1
:1015600082FDFDCF8DEF8093420C60E071E68C2F01
:101570000E94881368E070E08C2F0E94A0138C2FCB
:101580000E94001460E070E08C2F0E941814E8E2C2
:10159000F2E6108A118A148A158A14861586108636
:1015A000118610924B6110924C6110924961109219
:1015B0004A611092436110924461109240618D2FF4
:1015C000DF91CF91089540E068ED80E690E00E94C1
:1015D0006E1640E068ED81E690E00E946E1640E0F5
:1015E00068ED88E790E00E946E1644E268ED88E6B8
:1015F00090E00E946E1640E068ED89E690E00E945F
:101600006E1640E068ED8CE790E00E946E1640E0B8
:1016100068ED82E690E00E946E1640E068ED83E699
:1016200090E00E946E1640E068ED84E690E00E9433
:101630006E1640E068ED80E890E00E946E1648E18A
:1016400068ED86E690E00E946E16E0E6F0E08581A7
:1016500081FFFDCF08951F920F920FB60F921124B4
:101660002F933F934F935F936F937F938F939F93AA
:10167000AF93BF93EF93FF93189B05C0E091EB628C
:10168000F091EC620995199B05C0E091E962F09137
:10169000EA6209951F9B05C0E091E762F091E8625C
:1016A00009951C9B05C0E091E362F091E462099505
:1016B0001D9B05C0E091E162F091E26209958FEF18
:1016C00083B9FF91EF91BF91AF919F918F917F91DE
:1016D0006F915F914F913F912F910F900FBE0F909F
:1016E0001F901895FC01613089F4E11584E0F8073A
:1016F00068F5EF3F83E0F80798F5309749F1CF019F
:1017000001978E239F23892B29F52AC001978034C6
:10171000910510F58E239F23892B01F521C0E93017
:10172000F10538F490E00EC087E0FA01808380E094
:10173000089528E030E090E09F5F220F331F2E17BE
:101740003F07D0F3FA01908380E008958FEF08956A
:101750008FEF08958FEF08958FEF08958FEF08951D
:10176000EF3F83E0F807D9F6DFCFCF93C82FE8E249
:10177000F2E6108A118A148A158A14861586108654
:10178000118660E071E680E00E94881360E071E6F7
:1017900080E00E94F80E811126C093E09093406192
:1017A000C13089F4E0E0FCE0938592FDFDCF92E04A
:1017B0009093420CE0E0FCE0938592FDFDCF90E435
:1017C0009093420C10C0E0E0FCE0938592FDFDCFC9
:1017D00092E09093400CE0E0FCE0938592FDFDCF19
:1017E00090E49093400CCF9108950F931F9380EC59
:1017F00092E60E946A15811115C080914B810E946A
:10180000211381110FC04091C2625091C36205E95A
:1018100015E121E060E070E680914B810E94920D1D
:1018200081111CC088EC92E60E945C148034910502
:1018300090F080914A810E94211381110EC00CE426
:1018400010E120E040E450E06CEA71E680914A81CA
:101850000E94C90D03C080E001C080E01F910F917C
:101860000895282F2F7730E023303105A4F5882301
:101870007CF0E0E0FCE0938592FDFDCFF901EE0FF6
:10188000FF1FEE0FFF1FEF5BF34F92E090830EC040
:10189000E0E0FCE0938592FDFDCFF901EE0FFF1F24
:1018A000EE0FFF1FED5BF34F92E09083220F331F8B
:1018B000880F211D311D220F331FF901EE0FFF1F6D
:1018C000EE0FFF1F2E0F3F1FF901E451FE4982E08A
:1018D000808380E008958EEF0895CF93DF9300D04A
:1018E0000F92CDB7DEB71A821B820E9417150E9495
:1018F000660E00E010E00F2EF7E0CF2EF4E0DF2EB2
:10190000F02D6894FF24F5F8A8950E9406158A83A7
:101910008A81882331F00F5F1F4FB1F7F601F08203
:10192000F3CF0E947E16882379F30E942615811139
:101930000CC0CE0101960E94F9158B838B81811119
:1019400004C089810E94FF158B830E94F50B8A8356
:10195000DBCFFC019081892F8F71813059F599235C
:101960007CF49076903241F58181813239F540E006
:1019700050E067E070E080ED92E60E94D214089596
:1019800090769032E9F48181803219F0823251F000
:1019900019C040E050E067E070E080ED92E60E9400
:1019A000D2140895828193818093F1629093F262C0
:1019B00080E0089582E0089582E0089582E008952D
:1019C00082E0089582E00895282F2F7730E02330B9
:1019D00031059CF588237CF0E0E0FCE0938592FDE6
:1019E000FDCFF901EE0FFF1FEE0FFF1FE05CF34F7D
:1019F00090E290830EC0E0E0FCE0938592FDFDCF85
:101A0000F901EE0FFF1FEE0FFF1FEE5BF34F90E2A9
:101A10009083220F331F880F211D311D220F331F8A
:101A2000F901EE0FFF1FEE0FFF1F2E0F3F1FF901F1
:101A3000E451FE49108280E008958EEF0895E82F6A
:101A4000EF77A0E0BCE01B969C911B9792FDFBCF2B
:101A5000F0E0DF01AA0FBB1FAA0FBB1FAE5BB34FA5
:101A600098E09C93A0E0BCE01B969C911B9792FD94
:101A7000FBCFDF01AA0FBB1FAA0FBB1FA05CB34F98
:101A800098E09C93E295F295F07FFE27E07FFE2799
:101A9000E85DFD4997859B7F978797819B7F97831B
:101AA000982F9F7719F40E94950A08950E94310C8F
:101AB00008951F920F920FB60F9211242F933F9308
:101AC0004F935F936F937F938F939F93AF93BF9346
:101AD000EF93FF93BF9B05C0E091E562F091E66252
:101AE0000995B89B05C0E091DD62F091DE62099531
:101AF000B99B05C0E091DB62F091DC6209958FEF44
:101B000087BBFF91EF91BF91AF919F918F917F9193
:101B10006F915F914F913F912F910F900FBE0F905A
:101B20001F901895CF92DF92EF92FF920F931F9321
:101B3000CF93DF93C82F6B017A01D22F0E9421131C
:101B400081111DC08C2F0E94970E811119C0B60102
:101B50008C2F0E948813B7018C2F0E94A0138C2F0A
:101B60000E940014DD2319F08C2F0E94D00FB801C1
:101B70008C2F0E9418148C2F0E94D70201C086EF70
:101B8000DF91CF911F910F91FF90EF90DF90CF9059
:101B90000895CF92DF92EF92FF920F931F93CF930E
:101BA000DF93C82F6B017A01D22F0E94211381117C
:101BB0001DC08C2F0E94970E811119C0B6018C2F69
:101BC0000E948813B7018C2F0E94A0138C2F0E94B3
:101BD0000014DD2319F08C2F0E94D00FB8018C2F38
:101BE0000E9418148C2F0E94B90401C086EFDF9167
:101BF000CF911F910F91FF90EF90DF90CF900895BC
:101C00000F931F93CF93DF93EC018981843019F5F3
:101C10001C81112311F1062F81E09881C90FD11D7C
:101C200099819530A9F4002341F04B8143706C8178
:101C30007D818A810E94A60008C08A810E94461484
:101C400081110CC08A810E9417111150811106C0A8
:101C50001111E3CF03C08FED01C080E0DF91CF9180
:101C60001F910F910895CF93DF93C0E0CF77D0E01D
:101C7000D06840E060E470E08C2F0E94A6008111E3
:101C800022C040E060E470E08D2F0E94A600811128
:101C90001AC060E071E68C2F0E94F80E811113C00B
:101CA00060E071E68D2F0E94F80E81110CC08C2F20
:101CB0000E94A60F811107C08D2F0E947C0F8111F9
:101CC00002C010924061DF91CF9108951F93CF938E
:101CD000DF938BEE99E00E945F160E94C80EC0E071
:101CE000D0E0D1110DC01C2F1F77812F0E94970EBD
:101CF000D82F811105C01068812F0E94970ED82F10
:101D0000CF5FCF77C33069F7D1110CC00E94330E7B
:101D1000D82F811107C00E94950AD82F811102C0C7
:101D20000E9429168D2FDF91CF911F910895282FA2
:101D30002F7730E0F901EE0FFF1F87FD319623303A
:101D4000310524F5EE0FFF1FCF01880F991F880F73
:101D5000991FE80FF91FDF01A451BE491C9212968A
:101D60001D921C92139714961D921C92159716960D
:101D70001D921C92179718961D921C921997E35169
:101D8000FE4980818E7F808380E008958EEF0895E4
:101D9000E0E0FCE0808180688083808180618083D6
:101DA00080818062808385818F61858384818F615A
:101DB00084838EE292E6868397838081807F82602F
:101DC00080838FEF8287838780E090E0FC01E2953B
:101DD000F295F07FFE27E07FFE27E85DFD49178240
:101DE00016821786168601968330910579F7089535
:101DF000282F2F7730E02330310524F58823ACF0ED
:101E0000F901EC5BFE47808183FF02C060FD1CC0CE
:101E100022953295307F3227207F3227F901E85D05
:101E2000FD496287738780E0089522953295307F5F
:101E30003227207F3227F901E85DFD49628B738BE1
:101E400080E008958EEF08958AEF08951F920F9213
:101E50000FB60F9211242F933F934F935F936F937D
:101E60007F938F939F93AF93BF93EF93FF937B9B4E
:101E700005C0E091DF62F091E06209958FEF8FB9C4
:101E8000FF91EF91BF91AF919F918F917F916F9152
:101E90005F914F913F912F910F900FBE0F901F9028
:101EA0001895CF93DF930F92CDB7DEB70E948216BD
:101EB000882319F00E944B071BC00E940B16882331
:101EC000B1F0CE0101960E94C710811111C0898125
:101ED0000E94E40C81110CC089818F7721F48981E3
:101EE0000E94CB0305C089810E94C90101C080E026
:101EF0000F90DF91CF910895282F2F7730E0233076
:101F0000310514F5882384F0E0E0FCE0838582FD50
:101F1000FDCF220F331F220F331FF901EF5BF34F69
:101F200081E0808380E00895E0E0FCE0838582FD2D
:101F3000FDCF220F331F220F331FF901ED5BF34F4B
:101F400081E0808380E008958EEF0895282F2F7719
:101F500030E02330310514F5882384F0E0E0FCE024
:101F6000838582FDFDCF220F331F220F331FF9011E
:101F7000E05CF34F81E0808380E00895E0E0FCE0E6
:101F8000838582FDFDCF220F331F220F331FF901FE
:101F9000EE5BF34F81E0808380E008958EEF08953B
:101FA000282F2F77882344F4E22FF0E0E95BFE47E7
:101FB000908191FD1EC007C0E22FF0E0E95BFE4773
:101FC000908194FD16C030E0220F331FF90187FD88
:101FD0003196CF01880F991FFC01EE0FFF1FEE0F06
:101FE000FF1F8E0F9F1FFC01E351FE49808181601E
:101FF000808308951F920F920FB60F9211242F9392
:102000003F934F935F936F937F938F939F93AF9380
:10201000BF93EF93FF93E091EF62F091F0623097FE
:1020200009F00995FF91EF91BF91AF919F918F9129
:102030007F916F915F914F913F912F910F900FBEC4
:102040000F901F9018951F920F920FB60F921124A8
:102050002F933F934F935F936F937F938F939F93B0
:10206000AF93BF93EF93FF93E091ED62F091EE6237
:10207000309709F00995FF91EF91BF91AF919F9132
:102080008F917F916F915F914F913F912F910F9021
:102090000FBE0F901F901895EF92FF920F931F9312
:1020A000CF93DF9361111AC07A0100E010E021E0C4
:1020B0006CEA71E680914B810E94920DE114F1046B
:1020C00069F0CCEAD1E6870104551E49699188EC94
:1020D00092E60E945612C017D107C1F7DF91CF9147
:1020E0001F910F91FF90EF900895DC011196EC91F4
:1020F0004E2F50E04A305105F8F4FA01EC5BFF4FE7
:102100000C943B160E94371208950E94A21608955F
:102110000E94A4160895FC0182810E94D41508959E
:102120000E94290908950E94F5140895DC01129671
:102130008C910E94A715089582E00895CF93DF93B4
:10214000EC018C819D810E9405168F7790E00397AA
:10215000C4F48981813051F028F0833059F08C30FB
:1021600069F011C0CE010E9492120EC0CE010E94F1
:1021700043150AC0CE010E94301406C00E94AC1460
:1021800003C08EEF01C082E0DF91CF910895CF931D
:10219000DF93EC010E940B168823D9F0E091050C27
:1021A0000E2E000CFF0BE25DFD499081292F229538
:1021B0002F70422F50E0433051056CF488818078B5
:1021C00093FB992790F9822B90FB87F9888380E015
:1021D00003C085EF01C08EEFDF91CF910895282FC6
:1021E0002F7730E0220F331F982F990F211D311DBB
:1021F000F901EE0FFF1FAF01440F551F440F551F8C
:10220000E40FF51FE451FE490084F185E02D30977D
:1022100069F0220F331F240F351FD901A451BE4985
:1022200016964D915C9117976C9109950895282FFA
:102230002F7730E023303105F4F4882374F02295B1
:102240003295307F3227207F3227F901E85DFD4942
:1022500087818F73878380E0089522953295307F40
:102260003227207F3227F901E85DFD4987858F738A
:10227000878780E008958EEF0895282F2F7730E02C
:1022800023303105F4F4882374F022953295307FA1
:102290003227207F3227F901E85DFD49878184607C
:1022A000878380E0089522953295307F3227207F02
:1022B0003227F901E85DFD4987858460878780E0E2
:1022C00008958EEF0895282F2F7730E023303105C1
:1022D000F4F4882374F022953295307F3227207FE2
:1022E0003227F901E85DFD4987818B7F878380E094
:1022F000089522953295307F3227207F3227F901C9
:10230000E85DFD4987858B7F878780E008958EEFA4
:102310000895282F2F7730E023303105F4F48823F7
:1023200074F022953295307F3227207F3227F901D1
:10233000E85DFD49878182FB882780F90895229511
:102340003295307F3227207F3227F901E85DFD4941
:10235000878582FB882780F9089580E00895CF93D0
:10236000DF930F92CDB7DEB7FC0122813381232B9F
:1023700099F4268137812130310581F4BE016F5FE8
:102380007F4F84810E945115811109C061E0CE0107
:1023900001960E94051303C087ED01C087ED0F90E1
:1023A000DF91CF9108950097A1F0DC01ED91FC91B0
:1023B0001197309781F02181213079F41296ED91B7
:1023C000FC911397309759F02181223051F082EE21
:1023D000089582EE089582EE089582EE089582EEC9
:1023E00008958093F3629093F46280E00895FC0175
:1023F000848195812281338128173907B1F09C01AE
:102400002F5F3F4F468157812417350710F020E09A
:1024100030E040815181DA01A80FB91F8C91DB01B6
:102420008C932483358380E008958EEF0895DC013A
:1024300013969C911397903448F0E0919662F09136
:102440009762309771F0CD0109950895903258F058
:10245000E0919862F0919962309739F0CD01099539
:10246000089582E0089582E0089582E00895CF9370
:10247000DF9300D0CDB7DEB719821A820E94B01563
:10248000882319F08981816089830E94B915882386
:1024900019F089818260898362E0CE0101960E94F1
:1024A00005130F900F90DF91CF910895FC01828169
:1024B00093819C012F5F3F4F468157812417350739
:1024C00010F020E030E0448155812417350751F0A9
:1024D00040815181DA01A80FB91F6C9322833383A5
:1024E00080E008958FEF0895FC0191819630A1F06E
:1024F00018F4992331F014C09A3031F09B3041F038
:102500000FC00E94E4140895CF010E94AF110895F6
:10251000CF010E9456130895CF010E94171208950B
:1025200082E00895CF93DF9300D0CDB7DEB7FC01F2
:10253000848195810E94051619821A820E94891150
:10254000882319F089818160898362E0CE01019638
:102550000E9405130F900F90DF91CF910895DB013A
:10256000ED91FC91119790E2823041F4218122306B
:1025700029F422813381E20FF31F03C02081E20F8F
:10258000F11D2181821304C0ED93FC9380E0089536
:10259000915051F78DED089580912E6286FF0AC00B
:1025A000E0E0FCE0838582FDFDCF80E48093400C79
:1025B00081E001C080E09091366296FF09C08260A0
:1025C000E0E0FCE0938592FDFDCF90E49093420C17
:1025D0000895CF93DF930E942F160E94CB15C0E081
:1025E00080E081110BC0DC2FDF778D2F0E94461415
:1025F000811104C0D0688D2F0E944614CF5FCF7721
:10260000C33079F7DF91CF910895CF93DF93613491
:10261000A0F4C62FBC01D0E0AE0180E091E60E949C
:10262000801580E091E68093416190934261C09370
:102630004361D093446180E001C08CEEDF91CF9183
:102640000895282F982F9F77892F90E0880F991F42
:1026500027FD0196880F991FFC01EE0FFF1FEE0F5B
:10266000FF1F8E0F9F1FFC01E451FE4981E0908106
:10267000913009F080E0089590914061923031F4FA
:10268000813071F480E00E94B50B08959091406113
:10269000913041F4823041F481E00E94B50B0895FD
:1026A00080E0089580E0089580E008951F93CF931F
:1026B000DF93EC0141E06A818C810E948305182F31
:1026C000811108C0E0919262F0919362309711F00D
:1026D000CE010995812FDF91CF911F910895009729
:1026E00059F480E091E680934161909342616115D5
:1026F000710541F480E007C080934161909342618D
:1027000080E001C08CEE6093436170934461089552
:10271000282F982F9F77892F90E0880F991F27FDEA
:102720000196880F991FFC01EE0FFF1FEE0FFF1F90
:102730008E0F9F1FFC01E451FE496283738308954D
:10274000282F982F9F77892F90E0880F991F27FDBA
:102750000196880F991FFC01EE0FFF1FEE0FFF1F60
:102760008E0F9F1FFC01E451FE4964837583089519
:10277000282F982F9F77892F90E0880F991F27FD8A
:102780000196880F991FFC01EE0FFF1FEE0FFF1F30
:102790008E0F9F1FFC01E451FE49848195810895AD
:1027A000282F982F9F77892F90E0880F991F27FD5A
:1027B0000196880F991FFC01EE0FFF1FEE0FFF1F00
:1027C0008E0F9F1FFC01E451FE4986819781089579
:1027D000282F982F9F77892F90E0880F991F27FD2A
:1027E0000196880F991FFC01EE0FFF1FEE0FFF1FD0
:1027F0008E0F9F1FFC01E451FE4966837783089585
:10280000282F982F9F77892F90E0880F991F27FDF9
:102810000196880F991FFC01EE0FFF1FEE0FFF1F9F
:102820008E0F9F1FFC01E451FE4916821782089506
:10283000282F982F9F77892F90E0880F991F27FDC9
:102840000196880F991FFC01EE0FFF1FEE0FFF1F6F
:102850008E0F9F1FFC01E451FE4960877187089528
:10286000CF93FC0122813381232B69F484819581EC
:102870000E940516C82F0E944614811105C08C2F96
:102880000E943D1101C082E0CF910895CF93DF9364
:10289000C82F0E942113882351F08C2F0E94310CE5
:1028A000D82F811105C08C2F0E94EF1001C0D0E0FD
:1028B0008D2FDF91CF910895FC01428153812481B6
:1028C00035814217530740F086819781820F931F0D
:1028D0000197841B950B0895C9010197841B950BE3
:1028E0000895FC01228133812F5F3F4F86819781BC
:1028F0002817390710F020E030E081E0448155814D
:102900004217530709F080E00895AA1BBB1B51E151
:1029100007C0AA1FBB1FA617B70710F0A61BB70B4F
:10292000881F991F5A95A9F780959095BC01CD01F4
:1029300008951092F1621092F262E0EDF2E61082D8
:102940001182128213821482158288E0868389EABA
:102950009CE00E9450160895CF93DF9300D0CDB72E
:10296000DEB70E94351689839A8362E0CE01019614
:102970000E9405130F900F90DF91CF91089586EB81
:1029800092E60E94D3110E949D1689E696E10E946C
:10299000461684E696E10E944B160E94660E8093CE
:1029A000FA6208950F931F93CF93DF93EC018B018D
:1029B000CA010E945A16B801CE010E946F13DF911E
:1029C000CF911F910F910895CF93DF9300D0CDB792
:1029D000DEB719821A8262E0CE0101960E940513C9
:1029E0000F900F90DF91CF910895CF93DF930F92C7
:1029F000CDB7DEB70E948B15898361E0CE010196C9
:102A00000E9405130F90DF91CF9108958091FA6293
:102A100081110AC00E94510F8093FA62811104C093
:102A20000E944E088093FA628091FA6208950E9493
:102A3000E30A0E949A160E9433060E94E4150E943F
:102A400035150E94BF140E945E15089580EC92E631
:102A50000E947114811105C080914B810E94211345
:102A600002C081E090E0817008954BE068ED80E065
:102A700091E00E946E1640E868ED81E091E00E94CE
:102A80006E1680E00895FC0122813381232B39F4F6
:102A9000848195810E9405160E946311089582E049
:102AA0000895823048F4E82FF0E0EB50FD49808132
:102AB000FB01808380E0089587ED089540E068ED94
:102AC00080E191E00E946E16E0E1F1E01282138253
:102AD00080E00895FC0181E04281538124813581A9
:102AE0004217530709F080E00895EC010E94B216E6
:102AF0000E94B116CE010E94B316CE010E94A61606
:102B0000FB01DC01480F591FA417B50719F02191EB
:102B10002D93FACF0895E091F762F091F862309723
:102B200011F08581089580E00895611106C0E0EC00
:102B3000F2E6128213821482158208958091F9625E
:102B40000E94DC1580E090E00E945A160895909152
:102B5000F962992319F00E94CF0708958EEC089529
:102B6000E091F762F091F862878186FB882780F90F
:102B70000895E091F762F091F862878185FB8827DC
:102B800080F90895E0E0FCE0828586958170928569
:102B900092FD82600895E0E0FCE080818F77808381
:102BA00083818078838308958093F9628EE995E12B
:102BB0000E945A1680E00895E0E0FCE0938190784E
:102BC0008F77892B83830895E0E0FCE010861186DF
:102BD0000E94721608950E94E912811102C00E949B
:102BE000660E0895E0E0FCE082E0828784E0828760
:102BF0000895BC0188EC92E60E94F7110895682FB1
:102C000080EC92E60E945612089587FB992790F96E
:102C100090FB87F9089580910B0C85FB882780F93C
:102C2000089580910A0C881F8827881F0895809135
:102C30000A0C86FB882780F9089580910A0C85FB91
:102C4000882780F9089580910A0C83FB882780F9F2
:102C50000895E0E0FCE08181816081830895E0E0F7
:102C6000FCE081818E7F8183089580915E629091E6
:102C70005F6297700895EE0FFF1F0590F491E02DAD
:102C800009948F938FEF8BB98F9118958093EF6292
:102C90009093F06208958093ED629093EE620895B0
:102CA0008093986290939962089580910A0C82951E
:102CB0008170089580934B6190934C610895809347
:102CC00047619093486108950E944E088093FA628C
:102CD00008950E94510F8093FA620895FC0164BF29
:102CE000408308958EEF8093060F089583E28093CA
:102CF0000B0C08958EEF80930A0C08958091F16279
:102D00008170089580910B0C8170089580E8809304
:102D10000A0C089580E180930A0C089580E4809362
:102D20000A0C089580E280930A0C089588E080934D
:102D30000A0C08951092060F08950E9499140895A0
:102D40000C94000081E0089581E008950E94A000A5
:102D5000089508950895089508950895089508958B
:102D600008950895089508950000000000000000EF
:102D70000000000000000000000000000000000053
:102D80000000000000000000000000000000000043
:102D90000000000000000000000000000000000033
:102DA00000000000000000000000610000000000C2
:102DB00000000000000000000000000000001E03F2
:102DC000530041004D0050004900200044006500C0
:102DD000760020004B006900740073001603420067
:102DE0006F006F0074006C006F006100640065008C
:102DF00072002203530044004B00300030003000CA
:102E0000300030003000300030003000330030003F
:102E1000370032000902300002010080010904007D
:102E200000010202000007058103400001090401BE
:102E300000020A00000007058202400000070502A8
:102E4000024000001201000202000040D804150BED
:102E5000100101020301A46260620000D7625661A2
:102E60000060000000008000806000000000800022
:082E7000040309047A1676162A
:02000004008278
:0C0000000B65000000D80F00200003007A
:00000001FF
