:10000000803119280000203085000130840000086C
:10001000031917280A30F800F701F70B0D28F80B21
:100020000C285F30F700F70B1328800B0A2880316B
:100030004228510192018F01910105309300103047
:100040008D007E01B801C301CE01D901E401530145
:1000500091019201930190019501960197019401FC
:10006000FD304001910091009610FF30940008305F
:100070007E01DA00FD3040019100023096066430C6
:0A008000A10003287E013A28630066
:020000040001F9
:0A000E009C3FFD3F9F3FFF1FFF3F97
:00000001FF
;PIC16F18877
;CRC=0884  CREATED="20-Mar-22 15:55"
