:1000000080313728080001347E1480312E00161EFE
:100010000A280B2813280C1E0E280F2813288F31AE
:100020002627803135280B1F162817283528191E3A
:100030001A281B2826280F1E1E281F2826282100C4
:1000400055088A0054080A0080313528991E29284D
:100050002A2835288F1E2D282E28352821005308C0
:100060008A0052080A00803135287E10090080314C
:1000700039282100803103208031D900FC01A030D3
:100080008400003085002A308F31182780312030DD
:1000900084000130850040308F3118278031A03036
:1000A00084000130850040308F31182780317E1068
:1000B00020008531ED2D2000BE003108C50032083A
:1000C000C6003308C7003408C8003508C900360820
:1000D000CA003708CB003808CC0045308600003015
:1000E0008700473FB900B91B762878280130792866
:1000F00000302000BA00BB013A08C3003B08C4002E
:1001000043084404031985288628A428C509C6097C
:10011000C709C809C909CA09CB09CC09C50A031D01
:10012000A428C60A031DA428C70A031DA428C80AB8
:10013000031DA428C90A031DA428CA0A031DA42854
:10014000CB0A031DA428CC0A2100C21BA828A92879
:10015000AD28FD30C305FF30C4054208803A2000B9
:10016000B90080303902031DB82801302100410256
:100170000318BB28BC28C22801302000BF00003073
:10018000C000CA28210042082000C0002100410808
:100190002000BF00210040082000C20021003F08CD
:1001A0002000C10043084404031DD728D828DD28B7
:1001B0002100431DDC28DD28E228FF302000C10794
:1001C000FF30C23D1F302000CD000030CE002300A4
:1001D000DF015329FF302000CD07FF30CE3D0A302C
:1001E000A000A101A201A301A401A501A601A701EC
:1001F0004508A8004608A9004708AA004808AB001F
:100200004908AC004A08AD004B08AE004C08AF00EE
:100210008231CC22803120002108F5002008F40032
:100220008F31CC2780317408303E2000B9004D0852
:10023000C03E86000130870039088100FF30BF07CB
:10024000FF30C03DFF30C107FF30C23D0A30A00083
:10025000A101A201A301A401A501A601A7014508CE
:10026000A8004608A9004708AA004808AB004908AA
:10027000AC004A08AD004B08AE004C08AF0081311D
:10028000CB21803120002008C5002108C6002208AB
:10029000C7002308C8002408C9002508CA0026088A
:1002A000CB002708CC0020004E08803AB9008030EF
:1002B0003902031D5D2901304D02031C60296129AB
:1002C0008E292000450846044704480449044A048E
:1002D0004B044C04031D6D296E29EA284008803A1E
:1002E000B90080303902031D772901303F0203181D
:1002F0007A297B29EA2820004208803AB900803018
:100300003902031D852901304102031C88298929EE
:100310008E292100C3188D298E29EA282000430840
:100320004404031D942995299A292100431D9929E4
:100330009A29B729FF302000CD07FF30CE3D430872
:100340004404031DA429A529AA292B30BC00003090
:10035000BD00AE292D30BC000030BD003C08B90006
:100360004D08C03E8600013087003908810020001A
:100370004D08C03EB9003908A8004208AA0041084B
:10038000A9003E0885315425803120002908B2009B
:100390002808B1000800F3012030860000308700F3
:1003A000473FF100F11FD529D629F7292000A009E0
:1003B000A109A209A309A409A509A609A709A00AD8
:1003C000031DF529A10A031DF529A20A031DF5291C
:1003D000A30A031DF529A40A031DF529A50A031D77
:1003E000F529A60A031DF529A70AF301F30A283007
:1003F000860000308700473FF100F11F002A012AE4
:10040000242A2000A809A909AA09AB09AC09AD0949
:10041000AE09AF09A80A031D202AA90A031D202A34
:10042000AA0A031D202AAB0A031D202AAC0A031DB9
:10043000202AAD0A031D202AAE0A031D202AAF0A76
:100440000130F1007108F306743086000030870037
:100450000830F10000301E00F10B2B2A200020088C
:100460002104220423042404250426042704031958
:100470003A2A3B2A972AF201F20A4A2AA035A10D0C
:10048000A20DA30DA40DA50DA60DA70D0130F10021
:100490007108F207A71F4D2A4E2A3E2AF435F50DA2
:1004A000F60DF70DF80DF90DFA0DFB0D27082F02CB
:1004B000031D742A26082E02031D742A25082D0206
:1004C000031D742A24082C02031D742A23082B02FE
:1004D000031D742A22082A02031D742A21082902F6
:1004E000031D742A20082802031C772A782A892AE7
:1004F0002008A8022108A93B2208AA3B2308AB3BFD
:100500002408AC3B2508AD3B2608AE3B2708AF3B93
:100510007414A736A60CA50CA40CA30CA20CA10C59
:10052000A00C0130F202031D962A972A4E2A730866
:1005300003199B2A9C2ABA2AF409F509F609F70936
:10054000F809F909FA09FB09F40A031DBA2AF50AA0
:10055000031DBA2AF60A031DBA2AF70A031DBA2A8E
:10056000F80A031DBA2AF90A031DBA2AFA0A031D5A
:10057000BA2AFB0A74082000A0007508A1007608BA
:10058000A2007708A3007808A4007908A5007A08DB
:10059000A6007B08A7000800F30128308600003081
:1005A0008700473FF100F11FD62AD72AF82A2000FA
:1005B000A809A909AA09AB09AC09AD09AE09AF0997
:1005C000A80A031DF62AA90A031DF62AAA0A031D72
:1005D000F62AAB0A031DF62AAC0A031DF62AAD0A59
:1005E000031DF62AAE0A031DF62AAF0AF301F30A29
:1005F0002030860000308700473FF100F11F012BBB
:10060000022B212B2000A009A109A209A309A409FA
:10061000A509A609A709A00A031D212BA10A031DEC
:10062000212BA20A031D212BA30A031D212BA40A9F
:10063000031D212BA50A031D212BA60A031D212B17
:10064000A70A2000200821042204230424042504EE
:100650002604270403192D2B2E2B812BF201F20ADD
:100660003D2BA035A10DA20DA30DA40DA50DA60D2A
:10067000A70D0130F1007108F207A71F402B412B95
:10068000312B27082F02031D5F2B26082E02031D86
:100690005F2B25082D02031D5F2B24082C02031D50
:1006A0005F2B23082B02031D5F2B22082A02031D48
:1006B0005F2B21082902031D5F2B20082802031C41
:1006C000622B632B732B2008A8022108A93B220868
:1006D000AA3B2308AB3B2408AC3B2508AD3B2608CE
:1006E000AE3B2708AF3BA736A60CA50CA40CA30C69
:1006F000A20CA10CA00C0130F202031D802B812B57
:10070000412B73080319852B862BA42BA809A90953
:10071000AA09AB09AC09AD09AE09AF09A80A031DC6
:10072000A42BA90A031DA42BAA0A031DA42BAB0A00
:10073000031DA42BAC0A031DA42BAD0A031DA42B7F
:10074000AE0A031DA42BAF0A20002808A000290828
:10075000A1002A08A2002B08A3002C08A4002D0841
:10076000A5002E08A6002F08A70008002000DE0024
:100770004F0886008701403FD100413FD200510819
:100780008400520885001200253A031DC82BC92B8E
:100790006D2C4F0886008701013081074131031815
:1007A000810A2100BF01C001C301C401FF30C100A3
:1007B000FF30C20020004F0886008701403FD10073
:1007C000413FD20051088400520885001200643A6B
:1007D0000319EB2BEC2BFD2B4F0886008701403FC4
:1007E000D100413FD2005108840052088500120018
:1007F000693A031DFC2BFD2B382C4F08860087011E
:100800000130810741310318810A500886008701B1
:1008100001088400850102308107003FD100013FBB
:10082000D2005108D6005208D700890D893B8909AA
:10083000D800D900DA00DB00DC00DD005608B1008A
:100840005708B2005808B3005908B4005A08B50058
:100850005B08B6005C08B7005D08B8005E08803130
:100860005B20833120003208D0003108CF00902C6B
:100870004F0886008701403FD100413FD200510818
:100880008400520885001200253A031D482C492C8B
:10089000622C4F088600870101308107413103181F
:1008A000810A2530F4000030F5005E08D1005108BF
:1008B000F60086312C26833101302000CF00003035
:1008C000D000902C4F08860087010130810741310C
:1008D0000318810ACF01D001902C4F0886008701B0
:1008E000403FD100413FD2005108840052088500AA
:1008F0000008D300D4015308F4005408F5005E0842
:10090000D5005508F60086312C26833120004F088B
:10091000860087010130810741310318810A5C2C70
:10092000080020009A010130990002309600213021
:1009300097004030980007309500FD309100D63088
:100940009200FF309300BE30940036303E00D90054
:10095000BF30CE000630C3000730E400F530B800E9
:10096000DA01E5011030C4000830B9008030CF0052
:10097000E601BA01C501D001DB01FF30BB00FF3049
:10098000C600FF30D100FF30DC000730E700FF3049
:10099000BC00FF30C700FF30D200FF30DD000F3059
:1009A000E800BF11BE15BD150230F1000030F200A5
:1009B0008F310C2784312E0016160C303D00CB00F1
:1009C0000F30C5001F30C90015303E009E001430A6
:1009D0009F0010309D0016309B001730AE000E3087
:1009E0003D00C6000B30C8000800F701F21FF92CCB
:1009F000FA2C012DF109F209F10A0319F20AF701A3
:100A0000F70AF41F042D052D0E2DF309F409F30A3E
:100A10000319F40A0130F5007508F706F801F90129
:100A2000710872040319152D162D452DF601F60ACD
:100A3000222D0130F135F20D890B1A2D0130F50010
:100A40007508F607F21F252D262D192D0130F835D2
:100A5000F90D890B272D72087402031D312D7108C1
:100A60007302031C342D352D3A2D7108F3027208E0
:100A7000F43B78140130F236F10C890B3B2D013038
:100A8000F602031D442D452D262D77080319492D07
:100A90004A2D4F2DF809F909F80A0319F90A7908BE
:100AA000F2007808F10008002000B0002100431C8B
:100AB0005A2D5B2D642D20003008AB002B08A000C0
:100AC000280887315E2785312000AA1B682D692DF3
:100AD0006E2D2A08AF002908AE00702DAE01AF01BF
:100AE000AC01AD01842D2030F4000030F500200071
:100AF0003008AB002B08F60086312C2685310130FA
:100B00002000AC070030AD3D2D08803AAB002F0827
:100B1000803A2B02031D8E2D2E082C02031C912DD2
:100B2000922D732D21004318962D972DA02D200076
:100B30003008AB002B08A000280887315E278531DC
:100B4000200028088F31E627853120002E08710704
:100B5000A8002F08723DA90008002E0099126B30E2
:100B6000F1000630F2008F31002785312E00191276
:100B70008730F1000730F2008F31062785310830C9
:100B800022009F0090309D0024309E0040309B004A
:100B900003309C00E130F1000E30F2008E31F4267B
:100BA0008531E630F1000E30F2008E31FA268531C3
:100BB000E230F1000E30F2008E31EE268531210058
:100BC000C501C901C8012030F3007308D600FC013B
:100BD000C701C6012E00991608008F31B327853151
:100BE000200019108B170B170030E7009030E80039
:100BF0008F31722785310A2E8F3138278531003A9F
:100C00000319032E042E122E8731072785318731D1
:100C1000332785318F312F278531003A031D112E5F
:100C2000122EFC2D8731CA278531003A0319192E5F
:100C30001A2E0A2E03102000961C03140318212ECE
:100C4000242E20009614262E200096108631D926B8
:100C500085310A2E8031372876080319302E312E3F
:100C6000362E7608031D352E362E3B2E74088F3116
:100C7000122786316A2E7608033E86008701160009
:100C800001040319442E452E622E7608033E860089
:100C90008701403FF700413FF800760A8600870150
:100CA000403FF900413FFA007A08803AFB0078089B
:100CB000803A7B02031D5E2E770879020318612EAD
:100CC000622E6A2E760A8600870101308107413143
:100CD0000318810A08007C08203E86000130870046
:100CE000810122001D1D752E762E822E7C08203E4D
:100CF0008600013087008114210051088A005008C5
:100D00000A00863122009D1C862E872E932E7C0899
:100D1000203E860001308700011521004F088A001F
:100D20004E080A0086317C08203E8600013087008C
:100D3000010803199C2E9D2EA42E21004D088A0027
:100D40004C080A008631A72E8731E5278631080036
:100D50002000E4006008E6005F08E5002100BD0116
:100D6000BE01C62E6530E2006208CF006108E300D4
:100D70006308D00064088331B623863120004F0811
:100D80002100BD07200050082100BE3D200065085D
:100D90008400660885001200031DCF2ED02EB22ECF
:100DA00021003E082000E00021003D082000DF0077
:100DB000080019308F316227863172082100D8006F
:100DC0007108D7000530F1000030F2005808F40037
:100DD0005708F3008431F524863172082100D800C9
:100DE0007108D700CE30D707FF30D83D0B30200038
:100DF000E7009030E800210058082000EA002100B8
:100E000057082000E9008F31722786310800210041
:100E1000460803190C2F0D2F072F4708203E860088
:100E2000013087000108F1007108C5004708A03EA5
:100E30008600013087000108F1007108F2000130DE
:100E4000F1007108C70720304702031C282F292F03
:100E50002A2FC7012E00991201302100C6022E0050
:100E6000991672080800F200210056080319392F5C
:100E70003A2F342F2E00191A3E2F3F2F432F72087E
:100E800022009A005B2F19127208F1002100490814
:100E9000403E860001308700710881000130F1007A
:100EA0007108C90720304902031C572F582F592FAA
:100EB000C9010130D6022E00191608002000A70033
:100EC000A501A601762F2408A100A2012108F400A3
:100ED0002208F5002008A3002308F60086312C26FE
:100EE000873101302000A5070030A63D25082707DF
:100EF000A10021088600013087000108A200220815
:100F0000A4002408031D852F862F632F080020309E
:100F10002100560203188D2F8E2FA72F4808403E20
:100F2000860001308700010822009A000130F0009D
:100F300070082100C80720304802031CA02FA12FF1
:100F4000A22FC8010130F0007008D607A92F2E008B
:100F50001912080000340034003400340034003426
:100F600000340034003400340034003400340034E1
:100F700000340034003400340034003400340034D1
:100F800000340034003400340034003400340034C1
:100F90000034003420000F0CF100F10C710C013909
:100FA000210059060319D52FD62FE32F003020003A
:100FB0008F1901302100D9005908031DE02FE12FBE
:100FC000E32F0130E42F0030080022001908F00060
:100FD0007C08A03E86000130870070088100013047
:100FE000F0007008FC0720307C02031CF82FF92F5A
:100FF000FA2FFC010130F00070082100C60708003C
:101DC20008008731E5278E31080022001D121D16FA
:101DD20008008A3032008C00080072082100CD0011
:101DE2007108CC00080072082100D1007108D000EF
:101DF200080072082100CF007108CE0008007208A6
:101E02002100D3007108D200080072082100D50019
:101E12007108D400080072082100CB007108CA00C2
:101E22000800F3007308873133278F3108006400FC
:101E320080010131890B192F00342F00960197017F
:101E4200980199019A019B0108003E00BF1D2A2FAB
:101E52002B2F2E2F8F3153278F3108002100460858
:101E6200031D342F362F0130372F00300800210098
:101E72005608031D3D2F3F2F0130402F0030080030
:101E820023008F010830900091014F308D00901295
:101E92000800603031008D008F01910106309300FF
:101EA2009201080021004A084B040319592F5A2FA6
:101EB2005F2F4B088A004A080A008F313E00BF118B
:101EC2000800F400740821009E00931713131314E2
:101ED20013186C2F6D2F692F0D08F2000C08F100FA
:101EE200080069302000EB006B08EE006808E00093
:101EF2006708DF006E30EB006B08E10000308631CE
:101F0200A8268F3108000B303D00C8001F30C900E1
:101F120016303E009B001730AE004030230099007F
:101F22000A309A004F3097002000921123009A1233
:101F3200080022008E018F0190019101920193010C
:101F42008D0121009E019B019C0194019501960146
:101F5200970103309A00990198019430930001305F
:101F62009D0008008F311E278F318F3141278F311D
:101F72008F3184278F31843191248F318F314A27D9
:101F82008F318E31EA268F318F319A278F31853109
:101F9200AD258F3108007508803AF6008030760250
:101FA200031DD52F013074020318D82FD92FE52F26
:101FB2007409F6007509F700F60A0319F70A76089C
:101FC200F4007708F500E52F0800F5007508F30026
:101FD2007308F400F02F0130F3007308F507750859
:101FE2008600013087000108031DF82FF92FEC2F1E
:101FF20074087502F100F201F11BF20308000A34C1
:102002000A34523475346E346E3469346E34673443
:102012000A3400340A34543465346D3470343D3437
:0E2022002534643400340A3440344F34003422
:020000040001F9
:0A000E00EC3FFF3F9F3FFF3FFF3F25
:00000001FF
