:1000000080313728053008007E1480312E00161EFE
:100010000A280B2813280C1E0E280F2813289F319E
:10002000B027803135280B1F162817283528191EB0
:100030001A281B2826280F1E1E281F2826282200C3
:100040006C088A006B080A0080313528991E29281F
:100050002A2835288F1E2D282E28352822006A08A8
:100060008A0069080A00803135287E100900803135
:1000700039282200883100208031EE00FC01210067
:10008000EF01203084000130850043309F319327F9
:100090008031A03084000130850040309F319327AB
:1000A0008031203084000230850040309F3193271A
:1000B00080317E1020008F310D2F2100B5002000EF
:1000C000570886008701403FD900413FDA005908B0
:1000D00084005A0885001200253A031D70287128F3
:1000E000BC2B570886008701013081074131031876
:1000F000810A2200C001C101C401C501FF30C20054
:10010000FF30C3002100A001A101C928220044142E
:10011000200057088600870101308107413103180C
:10012000810AC9282200C41488282200441588287E
:100130002200C41588282200441688280130210096
:10014000A0000030A100C9282000570886008701C0
:10015000403FD900413FDA00590884005A08850021
:100160000008DB00DC015C08003A0319B8289E286F
:100170005B08203A03199828033A03199B28083A88
:1001800003199528063A031986281D3A031992285F
:100190009E282100200821040319CF28D028A42854
:1001A0002200441CD428D528D928FD30C405FF30AE
:1001B000C5052000570886008701403FD900413F10
:1001C000DA00590884005A08850012002A3A031DF3
:1001D000EA28EB280B2957088600870101308107A0
:1001E00041310318810A58088600870101088400FC
:1001F000850102308107003F2200C000013FC1009D
:10020000C11F0329042951294414C009C109C00A86
:100210000319C10A5129570886008701403FF7009A
:10022000413FF8008C318F24803178082200C100D2
:100230007708C00024292000570886008701013074
:10024000810741310318810A200057088600870181
:10025000403FD900413FDA00590884005A08850020
:100260000008D03EDB00FF3003180030DC00003017
:100270005C020A3003195B02031C3F29412901304B
:1002800042290030DD00DE015D082100A2002000CF
:100290005E082100A30022082304031D50295129D0
:1002A0001B292000570886008701403FD900413FA5
:1002B000DA00590884005A0885001200643A0319CC
:1002C000622963297429570886008701403FD900B5
:1002D000413FDA00590884005A0885001200693A43
:1002E000031D73297429C22957088600870101302C
:1002F000810741310318810A5808860087010108E7
:100300008400850102308107003FD900013FDA00F7
:1003100059082100A40020005A082100A500890DD9
:10032000893B8909A600A700A800A900AA00AB0084
:1003300024082000B100210025082000B20021007F
:1003400026082000B300210027082000B400210067
:1003500028082000B500210029082000B60021004F
:100360002A082000B70021002B082000B800210037
:10037000350885315925803120003208D8003108F0
:10038000D700E12B570886008701403FF100413F2D
:10039000F2002F30F300A030F4000230F5000030FE
:1003A000F600893182218031710872040319D9293C
:1003B000DA29F3292000570886008701403FF10021
:1003C000413FF2003930F300A030F4000230F50074
:1003D0000030F60089318221803171087204031DDA
:1003E000F229F3294C2A20005708860087010230A1
:1003F000810741310318810A5808860087010108E6
:100400008400850104308107003FD900013FDA00F4
:10041000023FDB00033FDC0059082100A40020005C
:100420005A082100A50020005B082100A60020003A
:100430005C082100A7000030A71BFF30A800A9001E
:10044000AA00AB0024082000B100210025082000EC
:10045000B200210026082000B30021002708200058
:10046000B400210028082000B50021002908200040
:10047000B60021002A082000B70021002B08200028
:10048000B800210035088531592580312000320817
:10049000D8003108D700E12B2000570886008701DB
:1004A000403FD900413FDA00590884005A088500CE
:1004B0001200783A03195D2A5E2A6F2A57088600CF
:1004C0008701403FD900413FDA00590884005A08AB
:1004D00085001200583A031D6E2A6F2ACB2A57084E
:1004E00086008701403FD900413FDA005908840067
:1004F0005A0885000008DB005B082100B4002000DA
:100500005708860087010130810741310318810AAD
:1005100058088600870101088400850102308107A0
:10052000003F2100AC00013FAD00AE01AF01B001C2
:10053000B101B201B3012C082000B10021002D0847
:100540002000B20021002E082000B30021002F0857
:100550002000B400210030082000B500210031083F
:100560002000B600210032082000B7002100330827
:100570002000B800210034082000D9005908B90033
:10058000210035088331E223803120003208D80071
:100590003108D700E12B570886008701403FF10062
:1005A000413FF2003C30F300A030F4000230F5008F
:1005B0000030F600893182218031710872040319FC
:1005C000E22AE32AFC2A2000570886008701403FE0
:1005D000F100413FF2003630F300A030F400023069
:1005E000F5000030F60089318221803171087204F3
:1005F000031DFB2AFC2A842B200057088600870154
:10060000403FD900413FDA000130590784005A08C1
:1006100003185A0A85000008DB005B082100B400BB
:1006200020005708860087010230810741310318F6
:10063000810A58088600870101088400850104307A
:100640008107003FD900013FDA00023FDB00033F92
:10065000DC005908DD005A08DE005B08DF005C089A
:10066000E000E101E201E301E40164082100B300DC
:10067000200063082100B200200062082100B100C0
:10068000200061082100B000200060082100AF00B8
:1006900020005F082100AE0020005E082100AD00B0
:1006A00020005D082100AC002C082000B1002100D2
:1006B0002D082000B20021002E082000B3002100E8
:1006C0002F082000B400210030082000B5002100D0
:1006D00031082000B600210032082000B7002100B8
:1006E00033082000B800210034082000D900590840
:1006F000B900210035088331E2238031200032081F
:10070000D8003108D700E12B200057088600870168
:10071000403FD900413FDA00590884005A0885005B
:100720001200253A031D952B962BB12B57088600F6
:1007300087010130810741310318810A2530F40017
:100740000030F500210035082000D9005908F600D6
:1007500095318525803101302000D7000030D80048
:10076000E12B5708860087010130810741310318CA
:10077000810AD701D801E12B570886008701403F45
:10078000D900413FDA00590884005A088500000862
:10079000DB00DC015B08F4005C08F5002100350893
:1007A0002000DD005D08F6009531852580312000B0
:1007B0005708860087010130810741310318810AFB
:1007C000AB2B08002000C8002200C31BE82BE92B3C
:1007D000ED2BFD30C405FF30C5054308803A2000ED
:1007E000BA0080303A02031DF82B01302200420289
:1007F0000318FB2BFC2B022C01302000C60000301C
:10080000C7000A2C220043082000C700220042082B
:100810002000C600220041082000CA002200400833
:100820002000C9002200441E162C172C1C2CFE3060
:100830002000C907FF30CA3D20003108CB00320834
:10084000CC003308CD003408CE003508CF00360880
:10085000D0003708D1003808D2001F30D300003054
:10086000D4002300DF01EA2CFF302000D307FF3043
:10087000D43D0F304B05D50000304C05D60056084E
:10088000803ABA0080303A02031D482C0A305502E3
:10089000031C4B2C4C2C542C20005508573ED500E3
:1008A0000030563DD6005B2C20005508303ED50068
:1008B0000030563DD6003908BF3EBA00FF3003185D
:1008C0000030BB0000303B021A3003193A02031C0F
:1008D0006A2C6C2C01306D2C0030BC00BD013C0832
:1008E000C2003D08C300420843040319782C792C48
:1008F000A82C20305504BA0000305604BB003A083A
:100900009F3EBC00FF303B3DBD0000303D021A3031
:1009100003193C02031C8D2C8F2C0130902C0030CD
:10092000BE00BF013E08C4003F08C500440845049E
:1009300003199B2C9C2CA82C5608F8005508F7008E
:1009400093317323833178082000D6007708D500CF
:100950005508BA005308C03E8600013087003A08A7
:100960008100FF30C607FF30C73DFF30C907FF30A9
:10097000CA3D4B30860000308700403FBA00413FFF
:10098000BB00423FBC00433FBD00443FBE00453F6B
:10099000BF00463FC000473FC10004302000C136C1
:1009A000C00CBF0CBE0CBD0CBC0CBB0CBA0C890B34
:1009B000CE2C20004108D2004008D1003F08D000D2
:1009C0003E08CF003D08CE003C08CD003B08CC00DF
:1009D0003A08CB0020005408803ABA0080303A022E
:1009E000031DF42C02305302031CF72CF82C252D88
:1009F00020004B084C044D044E044F045004510495
:100A00005204031D042D052D342C4708803ABA00EA
:100A100080303A02031D0E2D013046020318112DBD
:100A2000122D342C20004A08803ABA0080303A0255
:100A3000031D1C2D01304902031C1F2D202D252DC7
:100A40002200C418242D252D342C2200441E292DCB
:100A50002A2D452DFF302000D307FF30D43D390823
:100A6000BA005308C03E8600013087003A08810072
:100A7000FF30D307FF30D43D3030BA005308C03EBA
:100A80008600013087003A08810020005308C03EEC
:100A9000BA003A08A8004A08AA004908A90048086C
:100AA00089312921833120002908B2002808B100AA
:100AB00008002000C0003108C5003208C600330815
:100AC000C7003408C8003508C9003608CA0037080E
:100AD000CB003808CC004530860000308700473F07
:100AE000B900B91B742D762D0130772D0030200010
:100AF000BA00BB013A08C3003B08C40043084404E1
:100B00000319832D842DA22DC509C609C709C8095B
:100B1000C909CA09CB09CC09C50A031DA22DC60AF9
:100B2000031DA22DC70A031DA22DC80A031DA22D55
:100B3000C90A031DA22DCA0A031DA22DCB0A031D3B
:100B4000A22DCC0A2200C31BA62DA72DAB2DFD3054
:100B5000C405FF30C5054308803A2000B900803045
:100B60003902031DB62D0130220042020318B92DAF
:100B7000BA2DC02D01302000BE000030BF00C82DAE
:100B8000220043082000BF00220042082000BE00CF
:100B9000220041082000C200220040082000C100BD
:100BA00043084404031DD52DD62DDB2D2200441D02
:100BB000DA2DDB2DE02DFF302000C107FF30C23DD4
:100BC0001F302000CD000030CE002300DF01512E69
:100BD000FF302000CD07FF30CE3D0A30A000A1013C
:100BE000A201A301A401A501A601A7014508A8002F
:100BF0004608A9004708AA004808AB004908AC000D
:100C00004A08AD004B08AE004C08AF008E312326D9
:100C1000853120002108F5002008F4009131D3210E
:100C200085317408303E2000B9004D08C03E860072
:100C30000130870039088100FF30BE07FF30BF3D1B
:100C4000FF30C107FF30C23D0A30A000A101A20160
:100C5000A301A401A501A601A7014508A800460813
:100C6000A9004708AA004808AB004908AC004A0898
:100C7000AD004B08AE004C08AF008631C926853167
:100C800020002008C5002108C6002208C70023084C
:100C9000C8002408C9002508CA002608CB00270878
:100CA000CC0020004E08803AB90080303902031D84
:100CB0005B2E01304D02031C5E2E5F2E8C2E200019
:100CC000450846044704480449044A044B044C04BC
:100CD000031D6B2E6C2EE82D3F08803AB900803042
:100CE0003902031D752E01303E020318782E792E2D
:100CF000E82D20004208803AB90080303902031DF7
:100D0000832E01304102031C862E872E8C2E22005A
:100D1000C4188B2E8C2EE82D200043084404031D9C
:100D2000922E932E982E2200441D972E982EB52E8B
:100D3000FF302000CD07FF30CE3D43084404031DA3
:100D4000A22EA32EA82E2B30BC000030BD00AC2E4E
:100D50002D30BC000030BD003C08B9004D08C03E3D
:100D60008600013087003908810020004D08C03E10
:100D7000B9003908A8004208AA004108A9004008A3
:100D800089312921853120002908B2002808B100C5
:100D90000800F3012030860000308700473FF10053
:100DA000F11FD32ED42EF52E2000A009A109A209EF
:100DB000A309A409A509A609A709A00A031DF32EE2
:100DC000A10A031DF32EA20A031DF32EA30A031D7D
:100DD000F32EA40A031DF32EA50A031DF32EA60A63
:100DE000031DF32EA70AF301F30A28308600003012
:100DF0008700473FF100F11FFE2EFF2E222F20001B
:100E0000A809A909AA09AB09AC09AD09AE09AF093E
:100E1000A80A031D1E2FA90A031D1E2FAA0A031DBF
:100E20001E2FAB0A031D1E2FAC0A031D1E2FAD0A79
:100E3000031D1E2FAE0A031D1E2FAF0A0130F10045
:100E40007108F30674308600003087000830F10026
:100E500000301E00F10B292F20002008210422045D
:100E6000230424042504260427040319382F392FCA
:100E7000952FF201F20A482FA035A10DA20DA30D66
:100E8000A40DA50DA60DA70D0130F1007108F20704
:100E9000A71F4B2F4C2F3C2FF435F50DF60DF70DFA
:100EA000F80DF90DFA0DFB0D27082F02031D722F07
:100EB00026082E02031D722F25082D02031D722FF6
:100EC00024082C02031D722F23082B02031D722FEE
:100ED00022082A02031D722F21082902031D722FE6
:100EE00020082802031C752F762F872F2008A802C0
:100EF0002108A93B2208AA3B2308AB3B2408AC3BB2
:100F00002508AD3B2608AE3B2708AF3B7414A73637
:100F1000A60CA50CA40CA30CA20CA10CA00C0130D7
:100F2000F202031D942F952F4C2F73080319992F4C
:100F30009A2FB82FF409F509F609F709F809F90904
:100F4000FA09FB09F40A031DB82FF50A031DB82F8F
:100F5000F60A031DB82FF70A031DB82FF80A031D60
:100F6000B82FF90A031DB82FFA0A031DB82FFB0A80
:100F700074082000A0007508A1007608A200770878
:100F8000A3007808A4007908A5007A08A6007B08C9
:100F9000A70008002000BC003C08B1003108B400E4
:100FA000BD01E82F3D08B100B20131082E078600CF
:100FB00032082F3D87000108B3003D08013E343E52
:100FC00086008701330881000130B1003108BD0778
:100FD00030083D02031CED2FEE2FD22F3430B1002C
:100FE0003108A8003008013EB2003208A900523092
:100FF0008831D42087310130080023009A1208007C
:101000000134F20022006D0803190728082802287D
:101010002E00191A0C280D281128720822009A0097
:10102000292819127208F10022004A08403E860061
:1010300002308700710881000130F1007108CA0791
:1010400020304A02031C252826282728CA010130FF
:10105000ED022E0019160800F701F41F3028312880
:101060003828F309F409F30A0319F40AF701F70A17
:10107000F21F3B283C284128F109F209F10A031923
:10108000F20A710872040319462847287028F601ED
:10109000F60A53280130F135F20D890B4B28013047
:1010A000F5007508F607F21F562857284A287208D7
:1010B0007402031D5D2871087302031C60286128F7
:1010C00065287108F3027208F43B0130F236F10C26
:1010D000890B66280130F602031D6F2870285728F7
:1010E00077080319742875287A28F309F409F30A94
:1010F0000319F40A7408F2007308F10008002000D4
:10110000AD002D0895310F2588312000AB002B084C
:10111000AE002E0303198D288E28812802302E065A
:10112000031D9328942896280030D3282908F2001C
:101130002808F1002A08AB00AC012B08F3002C08AA
:10114000F40090315F2088310030F600F700F8019C
:1011500090311C2088310130933150238831200098
:10116000AB002B08AE002E030319B728B828AB2814
:1011700002302E06031DBD28BE28BF2894289231B8
:101180003D2288312000AB002B08AE002E0303194E
:10119000CA28CB28BF2802302E06031DD028D1280C
:1011A000D2289428013008002000AC002C0895318A
:1011B0000F2588312000AA002A08AD002D0303194D
:1011C000E228E328D62802302D06031DE828E92866
:1011D000EB28003028292808F1000030F200290807
:1011E000AA00AB012A08F3002B08F40090315F201D
:1011F00088310030F600F700F80190311C2088316A
:1012000000309331502388312000AA002A08AD0015
:101210002D0303190C290D29002902302D06031D69
:10122000122913291429E92892313D2288312000FE
:10123000AA002A08AD002D0303191F29202914290B
:1012400002302D06031D252926292729E9280130EA
:1012500008002000B0002200441C2F293029392921
:1012600020003008AB002B08A000280893319923F8
:1012700089312000AA1B3D293E2943292A08AF00B5
:101280002908AE004529AE01AF01AC01AD015929D5
:101290002030F4000030F50020003008AB002B08AF
:1012A000F60095318525893101302000AC070030EA
:1012B000AD3D2D08803AAB002F08803A2B02031D6C
:1012C00063292E082C02031C66296729482922005D
:1012D00044186B296C29752920003008AB002B08B5
:1012E000A0002808933199238931200028089131E2
:1012F000ED21893120002E087107A8002F08723DCA
:10130000A90008007208F9007108F8007408FB00D1
:101310007308FA000130F5020030F63B750A031D30
:101320009529760A031D95299629A529F101F2012F
:10133000DD290130F8070030F93D0130FA070030AF
:10134000FB3D0130F5020030F63B78088400790857
:10135000850012000319AD29AE29CD297A08840031
:101360007B08850012000319B629B729CD29750815
:1013700076040319BC29BD29CD297A0884007B088D
:1013800085000008F70078088400790885000008C7
:1013900077060319CC29CD29992978088400790882
:1013A00085000008F7007A0884007B0885000008A3
:1013B0007702F100F201031CF2030800F701F21FAB
:1013C000E229E329EA29F109F209F10A0319F20AEB
:1013D000F701F70AF41FED29EE29F729F309F409BB
:1013E000F30A0319F40A0130F5007508F706F8014D
:1013F000F901710872040319FE29FF292E2AF6014A
:10140000F60A0B2A0130F135F20D890B032A01305F
:10141000F5007508F607F21F0E2A0F2A022A01307E
:10142000F835F90D890B102A72087402031D1A2A67
:1014300071087302031C1D2A1E2A232A7108F30255
:101440007208F43B78140130F236F10C890B242A2F
:101450000130F602031D2D2A2E2A0F2A77080319C0
:10146000322A332A382AF809F909F80A0319F90A3D
:101470007908F2007808F10008009F315D278A3171
:10148000003A0319442A452A782A522A9F313527DF
:101490008A319C2A9F313A278A319C2A9F314427DE
:1014A0008A319C2A22002F082000A0002008FA0080
:1014B0000630203E860001308700413F8A00403FD1
:1014C0000A008A312000A100A2012208003A031973
:1014D0006A2A4E2A2108013A03194E2A033A0319AF
:1014E000462A013A03194A2A073A03194E2A4E2A74
:1014F00022003D1038082000A100220037082000FB
:10150000A0002200B70A0319B80A200020088600AC
:101510002108870001089F312B278A3101302200E2
:10152000B9020030BA3B39083A04031D982A992AB7
:101530009B2A06309C2A0330080020009A010130C3
:101540009900023096002130970040309800073013
:101550009500FD309100D6309200FF309300BE30F0
:10156000940036303E00D900BF30CE000630C300B4
:101570000730E400F530B800DA01E5011030C400AE
:101580000830B9008030CF00E601BA01C501D001B2
:10159000DB01FF30BB00FF30C600FF30D100FF3061
:1015A000DC000730E700FF30BC00FF30C700FF3031
:1015B000D200FF30DD000F30E800BF11BE15BD15B1
:1015C000FB30F1001E30F2009F318D278A312E0052
:1015D00016160C303D00CB000F30C5001F30C9007F
:1015E00015303E009E0014309F0010309D001630D4
:1015F0009B001730AE000E303D00C6000B30C80017
:1016000008002000BF003F088600870101089431D0
:10161000DD248B312000BE003E082200CF002000D8
:101620003F08023E8600870101089431DD248B319A
:101630002000BE003E082200D00020003F08043EEB
:101640008600870101089431DD248B312000BE0023
:101650003E082200D10020003F080C3E8600870192
:1016600001089431DD248B312000BE003E082200A9
:10167000D20020003F08063E860087010108943111
:10168000DD248B312000BE003E082200D300200064
:101690003F08083E8600870101089431DD248B3124
:1016A0002000BE003E082200D40020003F080A3E71
:1016B0008600870101089431DD248B312000BE00B3
:1016C0003E082200D5004F302000AE000130AF00B0
:1016D0000730BE003E08B00000308731CA278B318A
:1016E000003A0319742B762B0130772B0030080059
:1016F0002000B6005730AF000130B0000730B40012
:101700003408B100003093312F238B31003A031994
:101710008A2B8B2BFE2B220057087F399131872192
:101720008B312000B400B5013608860087013408EB
:10173000C03F3508C13F220058087F3991318721C9
:101740008B312000B400B5013608023E86008701C7
:101750003408C03F3508C13F220059083F39913154
:1017600087218B312000B400B5013608043E860085
:1017700087013408C03F3508C13F22005A082000C5
:10178000B400B50136080C3E860087013408C03F1E
:101790003508C13F22005B083F39913187218B31E9
:1017A0002000B400B5013608063E860087013408E3
:1017B000C03F3508C13F22005C081F3991318721A5
:1017C0008B312000B400B5013608083E8600870141
:1017D0003408C03F3508C13F22005D0891318721A0
:1017E0008B312000B400B50136080A3E860087011F
:1017F0003408C03F3508C13F0030FF2B01300800DE
:10180000923175228C31FF3071052100C6000F30F6
:101810007205C7004708C0004008C2004608C00063
:101820004008C30020001C082100C0004008C4007C
:10183000C501C230C00040082000A80003302100CC
:10184000C10041082000A90053308831D4208C31D8
:10185000003A03192C2C2D2C862CC2302100C000FC
:1018600040082000A80002302100C10041082000EB
:10187000A90053308831D4208C31003A0319412C0F
:10188000422C7D2CC5302000A8000030A900AA0100
:10189000AA0A533088317F208C31003A0319512C29
:1018A000522C742C210044084506031D582C592C39
:1018B0006C2C3830B6009830B7004708B90046089D
:1018C000B8004508C000C1014008BA004108BB008B
:1018D0009031FD208C318E2C6130BE000030BF0075
:1018E000903129208C318E2C64302100BE000030D4
:1018F000BF00903129208C318E2C67302100BE0032
:101900000030BF00903129208C318E2C6A302100AC
:10191000BE000030BF00903129208C31080020002B
:10192000AB01AC01A401A501992C0130F7070030EF
:10193000F83DAA01AA0A77088400780885001200F9
:10194000203A0319A42CA52CBA2C77088400780817
:1019500085000008F73EA000FF3003180030A1000A
:1019600000302102053003192002031CB82CB92CC9
:10197000BA2CAA012A08A000A1012008A60021086B
:10198000A70026082704031DC62CC72C952CD12C94
:101990000130A4000030A5000130F7070030F83D09
:1019A000052D77088400780885000008A000A101B3
:1019B0002108003A0319DD2C052D20082B3A0319C4
:1019C000CC2C063A0319C82C052D7708840078081A
:1019D00085000008A0002C08F2002B08F1000A3056
:1019E000F3000030F4009231CE228C3172082000D6
:1019F000A20020087102A100031CA2032108303EAE
:101A0000AB000030223DAC00CC2C77088400780875
:101A100085000008D03EA000FF3003180030A10070
:101A2000003021020A3003192002031C182D1A2D40
:101A300001301B2D0030A200A3012208A8002308BA
:101A4000A90028082904031D262D272DE52C24088C
:101A50002504031D2C2D2D2D392D2B09A0002C091B
:101A6000A100A00A0319A10A2008F7002108F80024
:101A70003D2D2C08F8002B08F7000800220046082E
:101A8000031D432D442DB22D10302100C00040080D
:101A9000C200C301C230C00040082000A8000230CC
:101AA0002100C10041082000A90053308831D42012
:101AB0008D31003A03195D2D5E2DA92DC430200013
:101AC000A8000030A900AA01AA0A533088317F205B
:101AD0008D31003A03196D2D6E2DA02D2100C4010A
:101AE000C230C00040082000A80003302100C1001F
:101AF00041082000A90053308831D4208D31003AAC
:101B00000319832D842D972D2200C601C60A183093
:101B10002100B600A030B7004408C000C101400851
:101B2000B8004108B9009031FD208D31B22D8430CC
:101B30002100BE000030BF00903129208D31222EBF
:101B40008A302100BE000030BF00903129208D3145
:101B5000222E90302100BE000030BF00903129209D
:101B60008D31222E10302100C0004008C20002300A
:101B7000C0004008C300C230C00040082000A800D8
:101B800002302100C10041082000A90053308831F3
:101B9000D4208D31003A0319CE2DCF2D1A2EC4300A
:101BA0002000A8000030A900AA01AA0A53308831F9
:101BB0007F208D31003A0319DE2DDF2D112EFF30ED
:101BC0002100C0004008C406C230C0004008200008
:101BD000A80003302100C10041082000A9005330B3
:101BE0008831D4208D31003A0319F72DF82D082EB5
:101BF00023302100B600A030B7004408C000C10166
:101C00004008B8004108B9009031FD208D31222EE6
:101C1000A1302100BE000030BF00903129208D315D
:101C2000222EA4302100BE000030BF0090312920B8
:101C30008D31222EA7302100BE000030BF00903130
:101C400029208D310800F3012830860000308700FC
:101C5000473FF100F11F2D2E2E2E4F2E2000A809F8
:101C6000A909AA09AB09AC09AD09AE09AF09A80ACF
:101C7000031D4D2EA90A031D4D2EAA0A031D4D2E2C
:101C8000AB0A031D4D2EAC0A031D4D2EAD0A031DDC
:101C90004D2EAE0A031D4D2EAF0AF301F30A20307C
:101CA000860000308700473FF100F11F582E592E63
:101CB000782E2000A009A109A209A309A409A50959
:101CC000A609A709A00A031D782EA10A031D782ED4
:101CD000A20A031D782EA30A031D782EA40A031D51
:101CE000782EA50A031D782EA60A031D782EA70AB2
:101CF00020002008210422042304240425042604AF
:101D000027040319842E852ED82EF201F20A942E70
:101D1000A035A10DA20DA30DA40DA50DA60DA70D17
:101D20000130F1007108F207A71F972E982E882E18
:101D300027082F02031DB62E26082E02031DB62EDD
:101D400025082D02031DB62E24082C02031DB62ED5
:101D500023082B02031DB62E22082A02031DB62ECD
:101D600021082902031DB62E20082802031CB92EC3
:101D7000BA2ECA2E2008A8022108A93B2208AA3B95
:101D80002308AB3B2408AC3B2508AD3B2608AE3B03
:101D90002708AF3BA736A60CA50CA40CA30CA20CDD
:101DA000A10CA00C0130F202031DD72ED82E982EC4
:101DB00073080319DC2EDD2EFB2EA809A909AA0938
:101DC000AB09AC09AD09AE09AF09A80A031DFB2E8A
:101DD000A90A031DFB2EAA0A031DFB2EAB0A031D35
:101DE000FB2EAC0A031DFB2EAD0A031DFB2EAE0A13
:101DF000031DFB2EAF0A20002808A0002908A1001F
:101E00002A08A2002B08A3002C08A4002D08A50076
:101E10002E08A6002F08A7000800923159228F3102
:101E2000200019140B302100D6002630D5005D307B
:101E3000890B182FD50B182FD60B182F00320B300B
:101E40002100D6002630D5005D30890B252FD50B1B
:101E5000252FD60B252F00320B302100D60026303F
:101E6000D5005D30890B322FD50B322FD60B322F98
:101E700000320B302100D6002630D5005D30890BB2
:101E80003F2FD50B3F2FD60B3F2F00326400200091
:101E900019100B302100D6002630D5005D30890B9B
:101EA0004F2FD50B4F2FD60B4F2F00320B30210069
:101EB000D6002630D5005D30890B5C2FD50B5C2F0A
:101EC000D60B5C2F00320B302100D6002630D50017
:101ED0005D30890B692FD50B692FD60B692F003226
:101EE0000B302100D6002630D5005D30890B762FCF
:101EF000D50B762FD60B762F00326400E630F1003A
:101F00001F30F2009F318D278F318B170B17C03098
:101F10002100BE000030BF00903129208F310530F4
:101F20009731B1278F312100D5005508D7005703CD
:101F300003199B2F9C2F8F2F02305706031DA12FB3
:101F4000A22FC72FC830BE000030BF00903129201B
:101F50008F312100DC01DD01DA01DB01D801D9017B
:101F60000630E4000030E5000130DE000030DF0024
:101F7000E201E301D8308B3101238F312100D500FC
:101F80005508D70057030319C62FC72FBA2FD030D3
:101F9000BE000030BF00903129208F316400DE2F59
:101FA0009F31C2278F31003A0319D72FD82FE62F40
:101FB00094311A248F31883101208F319F31B92714
:101FC0008F31003A031DE52FE62FD02F92310722E3
:101FD0008F31003A0319ED2FEE2FCE2F96310426C4
:101FE0008F31963187268F319231B0228F318C31EB
:101FF00000248F318D313E258F31CE2F803137280F
:102000000130080009289F31632790319331EC2378
:1020100090312200BD180D280E2803280800230047
:10202000901A132814281B288F0108309000910162
:10203000FF308D00901608007708F2007608F10056
:102040007808F9007908F30002309331C223903107
:1020500008002D302100B600A030B7003F08B900BD
:102060003E08B8009031FD2090310800F100710861
:10207000230096002E000F1D3E283F283A280F11FE
:102080002300160808002000B4003408AF00013017
:10209000B000B101B10A0E3093312F239031080006
:1020A0002200650866040319562857285C2866082C
:1020B0008A0065080A0090313E00BF110800220026
:1020C000BD1D632864286D287208B8007108B70028
:1020D0007408BA007308B900BD110800F300730852
:1020E00021009E00931713131314131878287928CE
:1020F00075280D08F2000C08F10008004630200099
:102100009F009D019C011D082200E40020001C0886
:102110002200E3002E008C12903020009E00080068
:10212000F400F301741C952896289A287108F2008F
:102130007208F3070310F10D0310F40C7408031D6B
:10214000A228A3289228730808007A08F100FF3912
:10215000031D0030F2000230F3000030F400903133
:102160005F2090310030F600F700F8019F31F3272F
:102170009031043008007A08F100FF39031D003067
:10218000F2000130F3000030F40090315F20903114
:102190000030F600F700F8019F31F327903102304C
:1021A00008007A08F100FF39031D0030F200023008
:1021B000F3000030F40090315F2090310030F600E1
:1021C000F700F8019F31F3279031023008007A08B8
:1021D000F100FF39031D0030F2000130F300003040
:1021E000F40090315F2090310030F600F700F801E4
:1021F0009F31F327903104300800B8302000ED0003
:102200006D08EE00210037082000E60021003608A6
:102210002000E5006E30ED006D08E70000309431DD
:102220007A24903108002000BF00172964003E3056
:102230002000AE000030AF00B001B00A3F08873187
:10224000CA279131003A0319262927291629013076
:1022500008000B303D00C8001F30C90016303E009A
:102260009B001730AE004030230099000A309A00DE
:102270004F3097002000921123009A120800710835
:10228000D03EF300FF30723DF400003074020A309B
:1022900003197302031C4D294F29013050290030C6
:1022A000F500F6017508F1007608F20008007108E3
:1022B000BF3EF300FF30723DF400003074021A306C
:1022C00003197302031C652967290130682900304E
:1022D000F500F6017508F1007608F20008007108B3
:1022E0009F3EF300FF30723DF400003074021A305C
:1022F00003197302031C7D297F29013080290030D6
:10230000F500F6017508F1007608F2000800FA0001
:102310000F307A05F5000A30F6007608F1007A08E9
:10232000F7000430F736890B922977080F3990317E
:10233000902091317507F8007808F90079080800B5
:1023400022008E018F0190019101920193018D0174
:1023500021009E019B019C0194019501960197012A
:1023600003309A00990198019430930001309D0048
:10237000080022001908F0007C08203E8600023088
:102380008700700881000130F0007008FC072030E1
:102390007C02031CCC29CD29CE29FC010130F000A0
:1023A0007008C80708007508803AF6008030760289
:1023B000031DDC29013074020318DF29E029EC2910
:1023C0007409F6007509F700F60A0319F70A76088A
:1023D000F4007708F500EC290800F5007508F30013
:1023E0007308F400F7290130F3007308F507750846
:1023F0008600013087000108031DFF29002AF32908
:1024000074087502F100F201F11BF20308002000CC
:102410000F0CF100F10C710C013922006E0603194A
:10242000122A132A202A003020008F19013022009E
:10243000EE006E08031D1D2A1E2A202A0130212AC3
:10244000003008007A08023E860087010108F1008A
:102450000030F2007A0886008701403FF300413FD8
:10246000F40090315F2092310030F600F700F8015F
:102470009F31F327923102300800F201F20A220064
:10248000BD18432A442A572A3D11FF30F100710834
:10249000B6009E31FC2692319F31022792319E3147
:1024A000FF26923122003C08F1007108F200720808
:1024B00008009F31A82792319F31D4279231913162
:1024C000292192318A319D2292319F31DD2792312B
:1024D0009F31272792319131A021923190317E2076
:1024E0009231963145269231080020001C08F300F5
:1024F0007308FA001D08F3007308FB007A08F30064
:10250000F4017B08F500F6017508F600F501730883
:102510007507F8007408763DF9007908F20078082C
:10252000F100080020307104F30000307204F40060
:1025300073089F3EF500FF30743DF60000307602D0
:102540001A3003197502031CA62AA82A0130A92AE9
:102550000030F700F8017708F1007808F200080071
:10256000BE308B3178239231013A0319B82AB92A47
:10257000B02A49302100B6009830B7004308B900AE
:102580004208B8004108BB004008BA003F08BD003F
:102590003E08BC009031FD2092310800F501F601A3
:1025A000711CD32AD42AD82A7308F5077408F63D7B
:1025B0000130F335F40D890BD92A0130F236F10CD4
:1025C000890BDE2A71087204031DE72AE82AD02A43
:1025D0007608F2007508F1000800203022006D0234
:1025E0000318F32AF42A0B2B4908403E86000230D8
:1025F000870001089A000130F0007008C9072030F8
:102600004902031C042B052B062BC9010130F000E5
:102610007008ED070D2B2E0019120800F501F50AC0
:102620002030710672040319162B172B272B710803
:10263000F73EF300FF30723DF400003074020530C5
:1026400003197302031C252B262B272BF501750874
:10265000F300F4017308F1007408F2000800200090
:10266000B3003330B2003208A800A901A90A5230E1
:102670008831D4209331003A03193F2B402B4E2B45
:1026800020003008A9002F08A8003108B200320845
:10269000AA00523088317F2093314F2B0030080040
:1026A0002000A600A701A70A2200BD18582B592B0D
:1026B000702BBD142000A70126080319602B612B85
:1026C000652B2200BB01BB0A6A2B0230FB007B0892
:1026D0002200BB009F3105279331903102209331B6
:1026E00020002708080077089F3E2000A000FF3048
:1026F000783DA100003021021A3003192002031C8A
:10270000822B842B0130852B0030A200A3012208EC
:10271000F9002308FA0079087A040319902B912B09
:10272000982B5F307705F70000307805F800982B7C
:1027300008002000A700A501A601B12B2408A100D4
:10274000A2012108F4002208F5002008A3002308B4
:10275000F60095318525933101302000A507003022
:10276000A63D25082707A100210886000130870023
:102770000108A2002208A4002408031DC02BC12BBD
:102780009E2B0800F500710872040319C82BC92B91
:10279000DC2B7535203E8600013087007108C03F74
:1027A0007208C13F7308F40075082C3E86000130A2
:1027B000870074088100EB2B7535203E86000130C0
:1027C00087000030C03F1030C13F75082C3E8600A6
:1027D00001308700810108009E31FC2693312200E0
:1027E0003D1CF32BF42B022C9F315D279331003AD3
:1027F0000319FB2BFC2B022C0F302000A300230815
:102800002200BB0022003B082000A300A401A33546
:10281000A40D0030230784009830243D8500013F3B
:102820008A00003F0A0094312000A50025082200FC
:10283000BB0008002200480803191F2C202C1A2C6A
:1028400021006F08A03E8600013087000108F100DA
:1028500071082200C70021006F08203E8600023068
:1028600087000108F1007108F2000130F1007108E1
:10287000EF0720306F02031C3E2C3F2C402CEF0151
:102880002E00991201302200C8022E0099167208FB
:10289000080022003D1002302000A0002008220085
:1028A000BC005A2C9F313F279431792C9F3144270B
:1028B0009431792C2E082000A0002008FA00043062
:1028C000203E860001308700413F8A00403F0A00D9
:1028D00094312000A100A2012208003A0319712CB2
:1028E000562C2108023A0319522C013A0319522C92
:1028F000562C08002000EA006608EC006508EB0092
:102900002200BE01BF01982C6B30E8006808D70098
:102910006708E9006908D8006A0880315D209431B1
:10292000200057082200BE07200058082200BF3DA3
:1029300020006B0884006C0885001200031DA12C88
:10294000A22C842C22003F082000E60022003E0832
:102950002000E50008002200BD15BB2C9F313F2759
:102960009431DC2C9F31142794310330DC2C9F31BF
:1029700044279431DC2C2C082000A0002008FA0009
:10298000220021088A0020080A0094312000A100BA
:10299000A2012208003A0319CE2CB72C2108013AD3
:1029A0000319B72C033A0319AE2C013A0319AE2CC4
:1029B000073A0319B22CB72C0800FA000A30F100CC
:1029C0000030F2007A082000A000A1012008F300E6
:1029D0002108F4008931DE21943171082000A20021
:1029E0000330A235FF3E031DF12C2235A30023083E
:1029F000FB000A30F1000030F2007A08A000A101CB
:102A00002008F3002108F40088312C20943171084B
:102A10007B042000A2002208FB007B080800F200D3
:102A2000F301F30A22003D19162D172D472D7208C8
:102A3000F1007108B600BD103D153D100E30F100DB
:102A40007108BB00F430B4000130B500BD15003092
:102A5000A0001030A100AC010030A2001030A30093
:102A6000AD010030A4001030A500AE010030A6007A
:102A70001030A700AF010230A8000030A900B0015B
:102A80009E31FC26953190310F209531F30173086A
:102A900008007C08A03E86000130870081012200EA
:102AA0001D1D532D542D5F2D7C08A03E8600013046
:102AB0008700811468088A0067080A00953122009F
:102AC0009D1C632D642D702D7C08A03E8600013076
:102AD00087000115230063088A0062080A00953107
:102AE0007C08A03E86000130870001080319792D7B
:102AF0007A2D812D230061088A0060080A00953133
:102B0000842D9131B9219531080076080319892D5A
:102B10008A2D8F2D7608031D8E2D8F2D942D7408F0
:102B20009F3169279531C32D7608033E86008701C2
:102B30001600010403199D2D9E2DBB2D7608033E22
:102B400086008701403FF700413FF800760A860083
:102B50008701403FF900413FFA007A08803AFB00C4
:102B60007808803A7B02031DB72D77087902031895
:102B7000BA2DBB2DC32D760A86008701013081074F
:102B800041310318810A08002000BF0022004C08D0
:102B9000031DCB2DCC2DEE2D60302000AF00013079
:102BA000B000B101B10A103093312F239531003AB2
:102BB0000319DB2DDC2D022E2200CC01CC0A2000D3
:102BC0003F080319E42DE52DE82D2200E014022E24
:102BD000FD30BE003E082200E005022E60302000DD
:102BE000AE000130AF00B001B00A10308731CA2703
:102BF0009531003A0319FD2DFE2D022E2200CC0145
:102C00000130032E00300800193090316E209631CB
:102C100072082100BF007108BE003E35C0003F0DA4
:102C2000C1000C30C007FE30C13D0A30F100003059
:102C3000F2004108F4004008F3009231CE229631B0
:102C400072082100C1007108C000C330F1000030DB
:102C5000F2004108F4004008F3008931DE2196318A
:102C600072082100C1007108C0005930B6009830C8
:102C7000B7003F08B9003E08B8004108BB00400853
:102C8000BA009031FD20963108002E00991249308B
:102C9000F1001530F2009F31812796312E00191274
:102CA000ED30F1001230F2009F3187279631083065
:102CB00022009F0090309D0024309E0040309B00F9
:102CC00003309C00FA30F1001E30F2009F3175276E
:102CD00096311B30F1001F30F2009F317B27963177
:102CE0001730F1001F30F2009F316F27963122001C
:102CF000C701CA01C9012030F3007308ED00FC01CF
:102D00002100EF012200C8012E00991608000030B2
:102D1000973162279631200017109F30903136206E
:102D20009631FF309031362096312100BE003E08AA
:102D3000C400FF309031362096312100BE003E089D
:102D4000C500FF309031362096312100BE003E088C
:102D5000C600200017148731FD279631203021004E
:102D6000B6009830B7004408BE00BF013E08B80066
:102D70003F08B9004508C000C1014008BA00410839
:102D8000BB004608C200C3014208BC004308BD00A6
:102D90009031FD20963108002000BF0022004E082F
:102DA000031DD32ED42EE82E62302000AF00013058
:102DB000B000B101B10A353093312F239631003A7A
:102DC0000319E32EE42E132F2200CE01CE0A132F77
:102DD000083020003F02031CEE2EEF2EF32E0730AA
:102DE000BE003E08BF00F830BE003E082200E205EB
:102DF00020003F088038BE003E082200E204623016
:102E00002000AE000130AF00B001B00A353087318C
:102E1000CA279631003A03190E2F0F2F132F2200C5
:102E2000CE010130142F003008009F311127973157
:102E30002000A00022003708860038088700200004
:102E40002008810001302200B7070030B83D013072
:102E5000B9020030BA3B39083A040319302F312F38
:102E6000362F9F31232797310530612FBD15402F15
:102E70009F3153279731612F9F314E279731612F13
:102E80002C082000A0002008FA00220021088A0057
:102E900020080A0097312000A100A2012208003A70
:102EA0000319532F3C2F2108013A03193C2F033AF1
:102EB0000319382F013A0319382F073A03193C2F09
:102EC0003C2F0800F40023009A1A672F682FB02FB8
:102ED0007408F100F201F135F20DF135F20D3330E5
:102EE00071078400A030723D8500000899007408C5
:102EF000F100F201F135F20DF135F20D32307107CA
:102F00008400A030723D850000089A009B0174087F
:102F1000F100F201F135F20DF135F20D34307107A7
:102F20008400A030723D8500000897007408F1000D
:102F3000F201F135F20DF135F20D353071078400F3
:102F4000A030723D85000008F300F30DF30DF30D82
:102F5000200012087306F7397306920023009A16B0
:102F600008002000C200E92F42089631CC26973194
:102F7000003A0319BC2FBD2FFE2F2200CB01CB0A34
:102F8000FE2F00309531C4259731003A0319C92F1F
:102F9000CA2FFE2F02302000C00040082200CB00C4
:102FA000FE2FBE010E309131132197315F309031E9
:102FB00043209731003A0319DE2FDF2FFE2F220026
:102FC000CB01DF1AE42FE52FE72F0230FF2F00306F
:102FD000FF2F22004B082000C000C1014108003A29
:102FE0000319F32FD12F4008003A0319B42F013AE7
:102FF0000319C12F033A0319D12FD12F0130080033
:1030000030341F34CB341F34A0341F343D340A34E1
:103010001534173499341F34AB34143435341F3419
:103020003A341F343F341F3444341F3449341F347E
:103030004E341F3453341F3458341F34493414343D
:103040000A344A3445344434453443342D34493405
:1030500044343A342034253430343234583425342E
:103060003034323458342534303432345834003427
:103070000A345334523441344D34203425343034FE
:10308000343458342C3420342534303432345834E9
:1030900000340A3425343034323458343A34253448
:1030A0003034323458343A342534303432345834AD
:1030B00000340A344134443443343D34253430340C
:1030C000343458342C34203454343D34253464346E
:0230D0000034CA
:103DF400080008002E000F1008002300901208008D
:103E04002E00191008002300111408002300911437
:103E14000800230011150800230091150800230051
:103E24000C0808002E000F1408009131B9219F31AD
:103E3400080022001D121D160800230091161116F9
:103E4400080023009112111608008A3032008C00F9
:103E54000800F100710823008C0008002200BD1046
:103E6400BC010E3008009F3108279F310130080043
:103E74009F3108279F31023008009F3108279F3166
:103E8400013008009F310B279F31003008009F311B
:103E940023279F31053008009F311F279F310A30A7
:103EA40008009F311F279F31093008002200BD10F0
:103EB400BC010E3008002300110E890C890C013955
:103EC40008002E000F1C672F682F632F0800F300D3
:103ED4007308883101209F31080072082300E10033
:103EE4007108E000080072082200E8007108E70089
:103EF400080072082300E3007108E2000800720859
:103F04002200EA007108E900080072082200EC00AF
:103F14007108EB00080072082200E6007108E50051
:103F24000800640080010131890B942F00342200C1
:103F34003D109F310E279F310430080022003D14AC
:103F440036359F312B279F31033008002F0096010F
:103F54009701980199019A019B0108003E00BF1D39
:103F6400B42FB52FB82F903150209F310800220074
:103F74004808031DBE2FC02F0130C12F0030080098
:103F840022006D08031DC72FC92F0130CA2F00302E
:103F9400080022003D140314360D9F312B279F3156
:103FA4000530080023008F01083090009101FF3094
:103FB4008D0090120800603031008D008F01910156
:103FC400063093009201080003102000961C03148D
:103FD4000318ED2FF02F20009614F22F20009610D6
:103FE40008007708F2007608F1007808F9007908EB
:103FF400F30000309331C2239F31080000340334AE
:1040040002340534003403340534013404340634F2
:10401400023404341F341C341F341E341F341E3441
:104024001F341F341E341F341E341F340A345434D6
:104034005234493453343D342534303432345834D2
:1040440000340A344C34413454343D34253430344F
:104054003234583400340A3425346C346434003433
:104064000A3440344F3400346C34583400346C34E3
:0A407400693400346C3478340034F1
:020000040001F9
:0A000E00EC3FFF3FEB07FF3FFF3F11
:00000001FF
