:1000000080313728013008007E1480312E00161E02
:100010000A280B2813280C1E0E280F2813289031AD
:10002000C820803135280B1F162817283528191E9F
:100030001A281B2826280F1E1E281F2826282200C3
:100040006C088A006B080A0080313528991E29281F
:100050002A2835288F1E2D282E28352822006A08A8
:100060008A0069080A00803135287E100900803135
:1000700039282200883100208031EE00FC01210067
:10008000D701D801D90120308400013085004530E6
:100090009031AB208031A0308400013085004030A9
:1000A0009031AB2080312030840002308500403018
:1000B0009031AB2080317E10200086318E2E2100C1
:1000C000B5002000570886008701403FD900413F16
:1000D000DA00590884005A0885001200253A031DE9
:1000E000722873287C2A570886008701013081070F
:1000F00041310318810A2200C001C1012100D7014A
:10010000D801FF302200C200FF30C3002100B1013E
:10011000B201CD282100571420005708860087011E
:100120000130810741310318810ACD282100D714FD
:100130008C28210057158C282100D7158C282100E8
:1001400057168C2801302100B1000030B200CD28B4
:100150002000570886008701403FD900413FDA0060
:10016000590884005A0885000008DB00DC015C089F
:10017000003A0319BC28A2285B08203A03199C28DE
:10018000033A03199F28083A03199928063A0319D4
:100190008A281D3A03199628A22821003108320422
:1001A0000319D328D428A828571CD728D828DC28F6
:1001B000FD30D705FF30D80520005708860087019D
:1001C000403FD900413FDA00590884005A088500B1
:1001D00012002A3A031DED28EE2810295708860040
:1001E00087010130810741310318810A58088600D0
:1001F000870101088400850102308107003F220049
:10020000C000013FC100C11F06290729562921004E
:1002100057142200C009C109C00A0319C10A56298E
:10022000570886008701403FF700413FF8008D31B5
:100230007825803178082200C1007708C00029297C
:1002400020005708860087010130810741310318DB
:10025000810A2000570886008701403FD900413FAE
:10026000DA00590884005A0885000008D03EDB00F7
:10027000FF3003180030DC0000305C020A30031944
:100280005B02031C44294629013047290030DD0068
:10029000DE015D082100B30020005E082100B400EB
:1002A00033083404031D55295629202920005708F6
:1002B00086008701403FD900413FDA005908840099
:1002C0005A0885001200643A0319672968297929B8
:1002D000570886008701403FD900413FDA0059089E
:1002E00084005A0885001200693A031D782979298B
:1002F000C72957088600870101308107413103185B
:10030000810A5808860087010108840085010230AF
:100310008107003FD900013FDA0059082100A00001
:1003200020005A082100A100890D893B8909A200FB
:10033000A300A400A500A600A70020082000B1008B
:10034000210021082000B200210022082000B30073
:10035000210023082000B400210024082000B5005B
:10036000210025082000B600210026082000B70043
:10037000210027082000B8002100350884311B2403
:10038000803120003208D8003108D700A12A570850
:1003900086008701403FD900413FDA0059088400B8
:1003A0005A0885001200783A0319D729D829E92973
:1003B000570886008701403FD900413FDA005908BD
:1003C00084005A0885001200583A031DE829E929DB
:1003D000452A570886008701403FD900413FDA008F
:1003E000590884005A0885000008DB005B082100DA
:1003F000B000200057088600870101308107413195
:100400000318810A580886008701010884008501C5
:1004100002308107003F2100A800013FA900AA0186
:10042000AB01AC01AD01AE01AF0128082000B10065
:10043000210029082000B20021002A082000B30072
:1004400021002B082000B40021002C082000B5005A
:1004500021002D082000B60021002E082000B70042
:1004600021002F082000B800210030082000D9000A
:100470005908B900210035088231A22280312000BC
:100480003208D8003108D700A12A57088600870112
:10049000403FD900413FDA00590884005A088500DE
:1004A0001200253A031D552A562A712A570886003C
:1004B00087010130810741310318810A2530F4009A
:1004C0000030F500210035082000D9005908F60059
:1004D0009631EC26803101302000D7000030D80062
:1004E000A12A57088600870101308107413103188E
:1004F000810AD701D801A12A570886008701403F09
:10050000D900413FDA00590884005A0885000008E4
:10051000DB00DC015B08F4005C08F5002100350815
:100520002000DD005D08F6009631EC2680312000C9
:100530005708860087010130810741310318810A7D
:100540006B2A08002000C6002200C31BA82AA92A83
:10055000AE2AFD302100D705FF30D8052200430820
:10056000803A2000BA0080303A02031DBA2A0130D6
:10057000220042020318BD2ABE2AC42A01302000EC
:10058000C7000030C800CC2A220043082000C80061
:10059000220042082000C700220041082000CA00B3
:1005A000220040082000C9002100571ED82AD92A5D
:1005B000DE2AFE302000C907FF30CA3D2000310886
:1005C000CB003208CC003308CD003408CE0035080B
:1005D000CF003608D0003708D1003808D2001F30CD
:1005E000D3000030D4002300DF01AC2BFF3020000B
:1005F000D307FF30D43D0F304B05D50000304C05FC
:10060000D6005608803ABA0080303A02031D0A2B01
:100610000A305502031C0D2B0E2B162B20005508FB
:10062000573ED5000030563DD6001D2B2000550802
:10063000303ED5000030563DD6003908BF3EBA00E6
:10064000FF3003180030BB0000303B021A300319A2
:100650003A02031C2C2B2E2B01302F2B0030BC0018
:10066000BD013C08C2003D08C30042084304031911
:100670003A2B3B2B6A2B20305504BA00003056042D
:10068000BB003A089F3EBC00FF303B3DBD00003040
:100690003D021A3003193C02031C4F2B512B013031
:1006A000522B0030BE00BF013E08C4003F08C50009
:1006B0004408450403195D2B5E2B6A2B5608F8008D
:1006C0005508F70094317B24823178082000D60049
:1006D0007708D5005508BA005308C03E860001309F
:1006E00087003A088100FF30C707FF30C83DFF3060
:1006F000C907FF30CA3D4B30860000308700403FBD
:10070000BA00413FBB00423FBC00433FBD00443FF5
:10071000BE00453FBF00463FC000473FC100043018
:100720002000C136C00CBF0CBE0CBD0CBC0CBB0CF9
:10073000BA0C890B902B20004108D2004008D10050
:100740003F08D0003E08CF003D08CE003C08CD0059
:100750003B08CC003A08CB0020005408803ABA008D
:1007600080303A02031DB62B02305302031CB92B12
:10077000BA2BE72B20004B084C044D044E044F04C9
:10078000500451045204031DC62BC72BF62A4808F7
:10079000803ABA0080303A02031DD02B0130470264
:1007A0000318D32BD42BF62A20004A08803ABA002B
:1007B00080303A02031DDE2B01304902031CE12B7D
:1007C000E22BE72B2100D718E62BE72BF62A210096
:1007D000571EEB2BEC2B072CFF302000D307FF30EC
:1007E000D43D3908BA005308C03E86000130870066
:1007F0003A088100FF30D307FF30D43D3030BA00D3
:100800005308C03E8600013087003A08810020006E
:100810005308C03EBA003A08A8004A08AA0049088E
:10082000A90046088A31C722823120002908B20077
:100830002808B10008002000BE003108C5003208B9
:10084000C6003308C7003408C8003508C900360898
:10085000CA003708CB003808CC004530860000308D
:100860008700473FB900B91B362C382C0130392C92
:1008700000302000BA00BB013A08C3003B08C400A6
:10088000430844040319452C462C642CC509C609A9
:10089000C709C809C909CA09CB09CC09C50A031D7A
:1008A000642CC60A031D642CC70A031D642CC80AE5
:1008B000031D642CC90A031D642CCA0A031D642C81
:1008C000CB0A031D642CCC0A2200C31B682C692CA4
:1008D0006E2CFD302100D705FF30D80522004308DB
:1008E000803A2000B90080303902031D7A2C013093
:1008F0002200420203187D2C7E2C842C0130200023
:10090000BF000030C0008C2C220043082000C00033
:10091000220042082000BF00220041082000C2003F
:10092000220040082000C10043084404031D992C04
:100930009A2C9F2C2100571D9E2C9F2CA42CFF30FD
:100940002000C107FF30C23D1F302000CD00003025
:10095000CE002300DF01152DFF302000CD07FF3032
:10096000CE3D0A30A000A101A201A301A401A5016E
:10097000A601A7014508A8004608A9004708AA0043
:100980004808AB004908AC004A08AD004B08AE006F
:100990004C08AF008E312726843120002108F50055
:1009A0002008F4009231DB2284317408303E2000AC
:1009B000B9004D08C03E860001308700390881002B
:1009C000FF30BF07FF30C03DFF30C107FF30C23DE1
:1009D0000A30A000A101A201A301A401A501A60162
:1009E000A7014508A8004608A9004708AA0048082A
:1009F000AB004908AC004A08AD004B08AE004C08FB
:100A0000AF0085318D25843120002008C5002108E4
:100A1000C6002208C7002308C8002408C90025080A
:100A2000CA002608CB002708CC0020004E08803AD8
:100A3000B90080303902031D1F2D01304D02031C07
:100A4000222D232D502D200045084604470448043C
:100A500049044A044B044C04031D2F2D302DAC2CAB
:100A60004008803AB90080303902031D392D013029
:100A70003F0203183C2D3D2DAC2C20004208803A4B
:100A8000B90080303902031D472D01304102031C9B
:100A90004A2D4B2D502D2100D7184F2D502DAC2C09
:100AA000200043084404031D562D572D5C2D2100C2
:100AB000571D5B2D5C2D792DFF302000CD07FF30B9
:100AC000CE3D43084404031D662D672D6C2D2B304D
:100AD000BC000030BD00702D2D30BC000030BD00CA
:100AE0003C08B9004D08C03E860001308700390837
:100AF000810020004D08C03EB9003908A800420816
:100B0000AA004108A9003E088A31C722843120008A
:100B10002908B2002808B1000800F301203086003F
:100B200000308700473FF100F11F972D982DB92D18
:100B30002000A009A109A209A309A409A509A609E1
:100B4000A709A00A031DB72DA10A031DB72DA20AEC
:100B5000031DB72DA30A031DB72DA40A031DB72D2E
:100B6000A50A031DB72DA60A031DB72DA70AF30179
:100B7000F30A2830860000308700473FF100F11F5C
:100B8000C22DC32DE62D2000A809A909AA09AB0989
:100B9000AC09AD09AE09AF09A80A031DE22DA90AE7
:100BA000031DE22DAA0A031DE22DAB0A031DE22D4F
:100BB000AC0A031DE22DAD0A031DE22DAE0A031D92
:100BC000E22DAF0A0130F1007108F306743086009F
:100BD000003087000830F10000301E00F10BED2DD1
:100BE00020002008210422042304240425042604D0
:100BF00027040319FC2DFD2D592EF201F20A0C2EAB
:100C0000A035A10DA20DA30DA40DA50DA60DA70D38
:100C10000130F1007108F207A71F0F2E102E002ED1
:100C2000F435F50DF60DF70DF80DF90DFA0DFB0D78
:100C300027082F02031D362E26082E02031D362EEE
:100C400025082D02031D362E24082C02031D362EE6
:100C500023082B02031D362E22082A02031D362EDE
:100C600021082902031D362E20082802031C392ED4
:100C70003A2E4B2E2008A8022108A93B2208AA3BA5
:100C80002308AB3B2408AC3B2508AD3B2608AE3B14
:100C90002708AF3B7414A736A60CA50CA40CA30C14
:100CA000A20CA10CA00C0130F202031D582E592EEB
:100CB000102E730803195D2E5E2E7C2EF409F509A3
:100CC000F609F709F809F909FA09FB09F40A031DFD
:100CD0007C2EF50A031D7C2EF60A031D7C2EF70AD6
:100CE000031D7C2EF80A031D7C2EF90A031D7C2EA1
:100CF000FA0A031D7C2EFB0A74082000A000750868
:100D0000A1007608A2007708A3007808A40079085B
:100D1000A5007A08A6007B08A7000800933161238C
:100D20008631200019140B302100D6002630D50062
:100D30005D30890B992ED50B992ED60B992E00324A
:100D40000B302100D6002630D5005D30890BA62E51
:100D5000D50BA62ED60BA62E00320B302100D600C6
:100D60002630D5005D30890BB32ED50BB32ED60BB4
:100D7000B32E00320B302100D6002630D5005D3076
:100D8000890BC02ED50BC02ED60BC02E00326400AE
:100D9000200019100B302100D6002630D5005D3020
:100DA000890BD02ED50BD02ED60BD02E00320B3087
:100DB0002100D6002630D5005D30890BDD2ED50B05
:100DC000DD2ED60BDD2E00320B302100D600263072
:100DD000D5005D30890BEA2ED50BEA2ED60BEA2E14
:100DE00000320B302100D6002630D5005D30890B53
:100DF000F72ED50BF72ED60BF72E00326400FE30FF
:100E0000F1001030F2009031A52086318B170B17BE
:100E1000CA302000E9000030EA0091318721863194
:100E200005308931272186312100D500550825005C
:100E3000A000200303191D2F1E2F102F02302006A3
:100E4000031D232F242F4B2FD2302000E900003028
:100E5000EA009131872186312500A501A601A30171
:100E6000A401A101A2010630AD000030AE000130A6
:100E7000A7000030A800AB01AC01A1308B31DF230B
:100E800086312100D50055082500A0002003031954
:100E90004A2F4B2F3D2FDA302000E9000030EA00C6
:100EA0009131872186316400632F9031DA208631B9
:100EB000003A03195C2F5D2F6B2F95314D2586313C
:100EC0009431F42486319031D1208631003A031DCB
:100ED0006A2F6B2F552F93310F238631003A031958
:100EE000722F732F532F8831412086318931C921C8
:100EF00086319331B82386319731B62786318C31CC
:100F0000E52486318F3111278631532F80313728E0
:100F100020009A010130990002309600213097009C
:100F20004030980007309500FD309100D630920097
:100F3000FF309300BE30940036303E00D900BF3001
:100F4000CE000630C3000730E400F530B800DA0107
:100F5000E5011030C4000830B9008030CF00E60150
:100F6000BA01C501D001DB01FF30BB00FF30C60074
:100F7000FF30D100FF30DC000730E700FF30BC005D
:100F8000FF30C700FF30D200FF30DD000F30E80037
:100F9000BF11BE15BD151030F1001030F2009031B8
:100FA000A52087312E0016160C303D00CB000F30E7
:100FB000C5001F30C90015303E009E0014309F0050
:100FC00010309D0016309B001730AE000E303D00F3
:100FD000C6000B30C8000800463020009F009D016D
:100FE0009C011D082200E60020001C082200E500EC
:100FF0002E008C12903020009E0008000530080062
:1010000001342000BF0022004A08031D08280928D7
:101010002B2862302000AF000130B000B101B10ACE
:101020001030943137248831003A031918281928D0
:101030003F282200CA01CA0A20003F0803192128BC
:10104000222825282200E2143F28FD30BE003E0859
:101050002200E2053F2862302000AE000130AF00E0
:10106000B001B00A1030963142268831003A031997
:101070003A283B283F282200CA010130402800308E
:101080000800193091317721883172082000EA0078
:101090007108E9006935EB006A0DEC000C30EB07D4
:1010A000FE30EC3D0A30F1000030F2006C08F40034
:1010B0006B08F3009331D623883172082000EC00CE
:1010C0007108EB00C330F1000030F2006C08F4004E
:1010D0006B08F3008B312023883172082000EC006C
:1010E0007108EB0059302100B6009830B70020009D
:1010F0006A082100B900200069082100B80020001A
:101100006C082100BB0020006B082100BA0092315E
:101110000522883108009031262088312000A00067
:101120002200370886003808870020002008810048
:1011300001302200B7070030B83D0130B90200305D
:10114000BA3B39083A040319A628A728AC289031DD
:101150003B2088310530D728BD15B62890316B204B
:101160008831D728903166208831D7282C08200074
:10117000A0002008FA00220021088A0020080A00A6
:1011800088312000A100A2012208003A0319C928D1
:10119000B2282108013A0319B228033A0319AE28EC
:1011A000013A0319AE28073A0319B228B2280800F9
:1011B000F40023009A1ADD28DE2826297408F1009D
:1011C000F201F135F20DF135F20DE53071078400D1
:1011D0009830723D8500000899007408F100F20112
:1011E000F135F20DF135F20DE430710784009830DD
:1011F000723D850000089A009B017408F100F2011D
:10120000F135F20DF135F20DE630710784009830BA
:10121000723D8500000897007408F100F201F13575
:10122000F20DF135F20DE730710784009830723D10
:1012300085000008F300F30DF30DF30D20001208F4
:101240007306F7397306920023009A1608002000EF
:10125000C2005F29420897316D278931003A03198E
:101260003229332974292200C901C90A742900309E
:10127000883101208931003A03193F294029742916
:1012800002302000C00040082200C9007429BE01BD
:101290000E3092311B228931613091314C218931DC
:1012A000003A03195429552974292200C901E11A69
:1012B0005A295B295D2902307529003075292200E1
:1012C00049082000C000C1014108003A03196929FA
:1012D00047294008003A03192A29013A03193729F6
:1012E000033A03194729472901300800F701F41F81
:1012F0007A297B298229F309F409F30A0319F40AEC
:10130000F701F70AF21F852986298B29F109F209CD
:10131000F10A0319F20A710872040319902991293C
:10132000BA29F601F60A9D290130F135F20D890B33
:1013300095290130F5007508F607F21FA029A129AB
:10134000942972087402031DA72971087302031CF3
:10135000AA29AB29AF297108F3027208F43B0130C6
:10136000F236F10C890BB0290130F602031DB929C0
:10137000BA29A12977080319BE29BF29C429F3096D
:10138000F409F30A0319F40A7408F2007308F1006F
:10139000080000308831D8208931200017109F3094
:1013A00091313F218931FF3091313F218931200036
:1013B000E90069082100BE00FF3091313F218931E9
:1013C0002000E90069082100BF00FF3091313F2172
:1013D00089312000E90069082100C00020001714AD
:1013E00090312C20893120302100B6009830B70090
:1013F0003E082000E900EA0169082100B800200049
:101400006A082100B9003F082000EB00EC016B08DE
:101410002100BA0020006C082100BB004008200019
:10142000ED00EE016D082100BC0020006E082100D7
:10143000BD0092310522893108002000AD002D0841
:10144000963175268A312000AB002B08AE002E03A2
:1014500003192B2A2C2A1F2A02302E06031D312A9B
:10146000322A342A0030712A2908F2002808F100B3
:101470002A08AB00AC012B08F3002C08F4009131D2
:1014800068218A310030F600F700F80191313221ED
:101490008A310130943158248A312000AB002B0866
:1014A000AE002E030319552A562A492A02302E0669
:1014B000031D5B2A5C2A5D2A322A933145238A3137
:1014C0002000AB002B08AE002E030319682A692AFE
:1014D0005D2A02302E06031D6E2A6F2A702A322AD8
:1014E000013008002000AC002C08963175268A31A6
:1014F0002000AA002A08AD002D030319802A812AA2
:10150000742A02302D06031D862A872A892A003074
:10151000C62A2808F1000030F2002908AA00AB0111
:101520002A08F3002B08F400913168218A31003039
:10153000F600F700F801913132218A310030943100
:1015400058248A312000AA002A08AD002D0303196F
:10155000AA2AAB2A9E2A02302D06031DB02AB12AE0
:10156000B22A872A933145238A312000AA002A080B
:10157000AD002D030319BD2ABE2AB22A02302D0662
:10158000031DC32AC42AC52A872A01300800200067
:10159000B0002100571CCD2ACE2AD72A20003008BF
:1015A000AB002B08A00028089431A1248A31200028
:1015B000AA1BDB2ADC2AE12A2A08AF002908AE0090
:1015C000E32AAE01AF01AC01AD01F72A2030F400EF
:1015D0000030F50020003008AB002B08F6009631F3
:1015E000EC268A3101302000AC070030AD3D2D08DB
:1015F000803AAB002F08803A2B02031D012B2E08E6
:101600002C02031C042B052BE62A21005718092B5A
:101610000A2B132B20003008AB002B08A000280851
:101620009431A1248A31200028089231F5228A3190
:1016300020002E087107A8002F08723DA90008009D
:10164000F701F21F242B252B2C2BF109F209F10AAB
:101650000319F20AF701F70AF41F2F2B302B392B4D
:10166000F309F409F30A0319F40A0130F5007508C7
:10167000F706F801F901710872040319402B412B98
:10168000702BF601F60A4D2B0130F135F20D890B66
:10169000452B0130F5007508F607F21F502B512B32
:1016A000442B0130F835F90D890B522B7208740266
:1016B000031D5C2B71087302031C5F2B602B652BD1
:1016C0007108F3027208F43B78140130F236F10C21
:1016D000890B662B0130F602031D6F2B702B512BEB
:1016E00077080319742B752B7A2BF809F909F80A76
:1016F0000319F90A7908F2007808F100080090311E
:1017000075208B31003A0319862B872BBA2B942B2B
:1017100090314D208B31DE2B903152208B31DE2BDE
:1017200090315C208B31DE2B22002F082000A0009E
:101730002008FA000630203E860001308700413F35
:101740008A00403F0A008B312000A100A20122083C
:10175000003A0319AC2B902B2108013A0319902B66
:10176000033A0319882B013A03198C2B073A031902
:10177000902B902B22003D1038082000A100220061
:1017800037082000A0002200B70A0319B80A200079
:1017900020088600210887000108903143208B3102
:1017A00001302200B9020030BA3B39083A04031D67
:1017B000DA2BDB2BDD2B0630DE2B0330080020007C
:1017C000BF003F08860002308700010896311026CE
:1017D0008B312000BE003E082200CD0020003F08D3
:1017E000023E8600023087000108963110268B31B8
:1017F0002000BE003E082200CE0020003F08043E2C
:101800008600023087000108963110268B312000B7
:10181000BE003E082200CF0020003F080C3E86009C
:10182000023087000108963110268B312000BE005F
:101830003E082200D00020003F08063E860002300D
:1018400087000108963110268B312000BE003E082B
:101850002200D10020003F08083E860002308700A9
:101860000108963110268B312000BE003E08220070
:10187000D20020003F080A3E86000230870001089F
:10188000963110268B312000BE003E082200D30086
:101890004D302000AE000130AF000730BE003E08E2
:1018A000B0000030963142268B31003A0319592C92
:1018B0005B2C01305C2C003008002000B600553055
:1018C000AF000130B0000730B4003408B100003080
:1018D000943137248C31003A03196F2C702CE32C8F
:1018E000220055087F3992318F228C312000B400BC
:1018F000B5013608860087013408C03F3508C13F6E
:10190000220056087F3992318F228C312000B4009A
:10191000B5013608023E860087013408C03F35080D
:10192000C13F220057083F3992318F228C3120006D
:10193000B400B5013608043E860087013408C03F74
:101940003508C13F220058082000B400B501360810
:101950000C3E860087013408C03F3508C13F220095
:1019600059083F3992318F228C312000B400B501E3
:101970003608063E860087013408C03F3508C13F5F
:1019800022005A081F3992318F228C312000B40076
:10199000B5013608083E860087013408C03F350887
:1019A000C13F22005B0892318F228C312000B400AD
:1019B000B50136080A3E860087013408C03F350865
:1019C000C13F0030E42C0130080093317D238C317D
:1019D000FF3071052100C2000F307205C3004308BB
:1019E0002000EB006B082100BE0042082000EB0045
:1019F0006B082100BF0020001C08EB006B082100D1
:101A0000C000C101BE302000EB006B08A80003300D
:101A1000EC006C08A90053308A3172228C31003AF4
:101A20000319132D142D6F2DBE302000EB006B0811
:101A3000A8000230EC006C08A90053308A317222F1
:101A40008C31003A0319252D262D662DC13020003A
:101A5000A8000030A900AA01AA0A53308A311D2229
:101A60008C31003A0319352D362D5D2D21004008AB
:101A70004106031D3C2D3D2D542D3830B6009830C5
:101A8000B7004308B9004208B80041082000EB0045
:101A9000EC016B082100BA0020006C082100BB009B
:101AA000923105228C31772D61302000E900003021
:101AB000EA00913187218C31772D64302000E900D4
:101AC0000030EA00913187218C31772D673020007A
:101AD000E9000030EA00913187218C31772D6A309E
:101AE0002000E9000030EA00913187218C310800A4
:101AF0002000AB01AC01A401A501822D0130F70744
:101B00000030F83DAA01AA0A770884007808850009
:101B10001200203A03198D2D8E2DA32D77088400F5
:101B2000780885000008F73EA000FF300318003059
:101B3000A10000302102053003192002031CA12D51
:101B4000A22DA32DAA012A08A000A1012008A60009
:101B50002108A70026082704031DAF2DB02D7E2DD8
:101B6000BA2D0130A4000030A5000130F707003085
:101B7000F83DEE2D77088400780885000008A00065
:101B8000A1012108003A0319C62DEE2D20082B3A99
:101B90000319B52D063A0319B12DEE2D77088400EF
:101BA000780885000008A0002C08F2002B08F1003E
:101BB0000A30F3000030F4009331D6238D317208DF
:101BC0002000A20020087102A100031CA20321082A
:101BD000303EAB000030223DAC00B52D77088400CC
:101BE000780885000008D03EA000FF3003180030C0
:101BF000A100003021020A3003192002031C012E2B
:101C0000032E0130042E0030A200A3012208A800F8
:101C10002308A90028082904031D0F2E102ECE2DFD
:101C200024082504031D152E162E222E2B09A00094
:101C30002C09A100A00A0319A10A2008F700210815
:101C4000F800262E2C08F8002B08F7000800F301F6
:101C50002830860000308700473FF100F11F312E09
:101C6000322E532E2000A809A909AA09AB09AC09F4
:101C7000AD09AE09AF09A80A031D512EA90A031D1B
:101C8000512EAA0A031D512EAB0A031D512EAC0A78
:101C9000031D512EAD0A031D512EAE0A031D512EF8
:101CA000AF0AF301F30A2030860000308700473F77
:101CB000F100F11F5C2E5D2E7C2E2000A009A109F1
:101CC000A209A309A409A509A609A709A00A031D39
:101CD0007C2EA10A031D7C2EA20A031D7C2EA30AC2
:101CE000031D7C2EA40A031D7C2EA50A031D7C2E39
:101CF000A60A031D7C2EA70A200020082104220426
:101D0000230424042504260427040319882E892E7D
:101D1000DC2EF201F20A982EA035A10DA20DA30D22
:101D2000A40DA50DA60DA70D0130F1007108F20755
:101D3000A71F9B2E9C2E8C2E27082F02031DBA2E28
:101D400026082E02031DBA2E25082D02031DBA2EC9
:101D500024082C02031DBA2E23082B02031DBA2EC1
:101D600022082A02031DBA2E21082902031DBA2EB9
:101D700020082802031CBD2EBE2ECE2E2008A8024D
:101D80002108A93B2208AA3B2308AB3B2408AC3B13
:101D90002508AD3B2608AE3B2708AF3BA736A60C6F
:101DA000A50CA40CA30CA20CA10CA00C0130F202F7
:101DB000031DDB2EDC2E9C2E73080319E02EE12E72
:101DC000FF2EA809A909AA09AB09AC09AD09AE09FA
:101DD000AF09A80A031DFF2EA90A031DFF2EAA0A98
:101DE000031DFF2EAB0A031DFF2EAC0A031DFF2EA1
:101DF000AD0A031DFF2EAE0A031DFF2EAF0A200001
:101E00002808A0002908A1002A08A2002B08A30086
:101E10002C08A4002D08A5002E08A6002F08A70056
:101E2000080022004408031D162F172F492F1030D9
:101E30002000EB006B082100BE00BF01C001C10102
:101E4000C201C20ABE302000EB006B08A8000530BA
:101E5000EC006C08A90053308A3172228F31003AAD
:101E60000319332F342F402F2200C401C40ABC3081
:101E70002100B6009830B700923105228F31492FEA
:101E800082302000E9000030EA00913187218F3153
:101E9000FF2F10302000EB006B082100BE00BF01B7
:101EA000BE302000EB006B08A8000230EC006C088C
:101EB000A90053308A3172228F31003A0319612F01
:101EC000622FF72FC0302000A8000030A900033097
:101ED000EB006B08AA0053308A311D228F31003A83
:101EE0000319732F742FEE2FA6302100B6009830FF
:101EF000B70040082000EB00EC016B082100B8009F
:101F000020006C082100B900923105228F31B130D8
:101F10002100B6009830B70041082000EB00EC012A
:101F20006B082100B80020006C082100B900923134
:101F300005228F318F302100B6009830B70042085B
:101F40002000EB00EC016B082100B80020006C08B9
:101F50002100B900923105228F3110302000EB00B2
:101F60006B082100BE0002302000EB006B0821004E
:101F7000BF0042092000EB006B082100C000BE300A
:101F80002000EB006B08A8000330EC006C08A900EF
:101F900053308A3172228F31003A0319D02FD12F5A
:101FA000E52FC7302100B6009830B7004008200068
:101FB000EB00EC016B082100B80020006C08210048
:101FC000B900923105228F31FF2F98302000E900AF
:101FD0000030EA00913187218F31FF2F9B302000A4
:101FE000E9000030EA00913187218F31FF2F9E30C8
:101FF0002000E9000030EA00913187218F3108008C
:10201000FF3FFF3FFF3FFF3FFF3FFF3FFF3F080006
:1020200008002E000F1008002300901208002E0058
:10203000191008002300111408002300911408004F
:1020400023001115080023009115080023000C0837
:1020500008002E000F14080023009A120800923185
:10206000C1229031080022001D121D160800230015
:1020700091161116080023009112111608008A30DB
:1020800032008C000800F100710823008C00080069
:102090002200BD10BC010E30080090311D2090318F
:1020A0000130080090311D2090310230080090313D
:1020B0001D209031013008009031202090310030F7
:1020C000080090313B2090310530080090313720D6
:1020D00090310A30080090313720903109300800E3
:1020E0002200BD10BC010E3008002300110E890C27
:1020F000890C013908002E000F1C7F2880287B28BE
:102100000800F30073089431F42490310800720839
:102110002300E1007108E000080072082300E500D8
:102120007108E400080072082300E3007108E2006F
:10213000080072082200EA007108E900080072082D
:102140002200EC007108EB00080072082200E80091
:102150007108E7000800640080010131890BAC2898
:10216000003422003D1090312320903104300800CB
:1021700022003D1436359031432090310330080061
:102180002F0096019701980199019A019B0108007F
:102190003E00BF1DCC28CD28D02891315921903147
:1021A000080022004608031DD628D8280130D92867
:1021B0000030080022006D08031DDF28E1280130EF
:1021C000E2280030080022003D140314360D90313F
:1021D000432090310530080023008F010830900023
:1021E0009101FF308D0090120800603031008D00A9
:1021F0008F01910106309300920108000310200026
:10220000961C0314031805290829200096140A298E
:102210002000961008007708F2007608F100780890
:10222000F9007908F30000309431CA249131080094
:102230001F2990317B20913195311F25913122004A
:10224000BD1823292429192908002300901A2929B7
:102250002A2931298F01083090009101FF308D002B
:10226000901608007708F2007608F1007808F90067
:102270007908F30002309431CA2491310800F1004A
:102280007108230096002E000F1D47294829432975
:102290000F112300160808002000B4003408AF0016
:1022A0000130B000B101B10A0E30943137249131C0
:1022B000080022006708680403195F29602965295E
:1022C00068088A0067080A0091313E00BF110800C3
:1022D0002200BD1D6C296D2976297208B80071088D
:1022E000B7007408BA007308B900BD110800F30004
:1022F000730821009E0093171313131413188129D8
:1023000082297E290D08F2000C08F1000800DE3059
:102310002100B6009830B70020006A082100B900FB
:10232000200069082100B80092310522913108008F
:10233000F400F301741C9D299E29A2297108F20062
:102340007208F3070310F10D0310F40C7408031D59
:10235000AA29AB299A29730808007A08F100FF39E5
:10236000031D0030F2000230F3000030F400913120
:10237000682191310030F600F700F80191310B210E
:102380009131043008007A08F100FF39031D003054
:10239000F2000130F3000030F400913168219131F6
:1023A0000030F600F700F80191310B219131023035
:1023B00008007A08F100FF39031D0030F2000230F6
:1023C000F3000030F4009131682191310030F600C3
:1023D000F700F80191310B219131023008007A08A1
:1023E000F100FF39031D0030F2000130F30000302E
:1023F000F4009131682191310030F600F700F801C6
:1024000091310B21913104300800B8302000E700F1
:102410006708E800210037082000E00021003608A6
:102420002000DF006830E7006708E10000309531E8
:10243000AD25923108002000BF001F2A64003E3005
:102440002000AE000030AF00B001B00A3F08963166
:1024500042269231003A03192E2A2F2A1E2A0130D1
:1024600008000B303D00C8001F30C90016303E0088
:102470009B001730AE004030230099000A309A00CC
:102480004F3097002000921123009A120800710823
:10249000D03EF300FF30723DF400003074020A3089
:1024A00003197302031C552A572A0130582A003099
:1024B000F500F6017508F1007608F20008007108D1
:1024C000BF3EF300FF30723DF400003074021A305A
:1024D00003197302031C6D2A6F2A0130702A003021
:1024E000F500F6017508F1007608F20008007108A1
:1024F0009F3EF300FF30723DF400003074021A304A
:1025000003197302031C852A872A0130882A0030A8
:10251000F500F6017508F1007608F2000800FA00EF
:102520000F307A05F5000A30F6007608F1007A08D7
:10253000F7000430F736890B9A2A77080F39913162
:10254000982192317507F8007808F9007908080099
:1025500022008E018F0190019101920193018D0162
:1025600021009E019B019C01940195019601970118
:1025700003309A00990198019430930001309D0036
:10258000080022001908F0007C08203E8600023076
:102590008700700881000130F0007008FC072030CF
:1025A0007C02031CD42AD52AD62AFC010130F00073
:1025B0007008C60708007508803AF6008030760279
:1025C000031DE42A013074020318E72AE82AF42ADA
:1025D0007409F6007509F700F60A0319F70A760878
:1025E000F4007708F500F42A0800F5007508F300F8
:1025F0007308F400FF2A0130F3007308F50775082B
:102600008600013087000108031D072B082BFB2AD9
:1026100074087502F100F201F11BF20308002000BA
:102620000F0CF100F10C710C013922006E06031938
:102630001A2B1B2B282B003020008F190130220071
:10264000EE006E08031D252B262B282B0130292B8D
:10265000003008007A08023E860087010108F10078
:102660000030F2007A0886008701403FF300413FC6
:10267000F4009131682193310030F600F700F80141
:1026800091310B21933102300800F201F20A22004D
:10269000BD184B2B4C2B5F2B3D11FF30F100710807
:1026A000B600903111209331903117209331903141
:1026B0001420933122003C08F1007108F2007208E6
:1026C00008009031C02093319031EC209331923149
:1026D000312293318731882793319031F52093311E
:1026E00090313F2093319231A82293318731EC27EA
:1026F000933197312B279331080020001C08F300F9
:102700007308FA001D08F3007308FB007A08F30051
:10271000F4017B08F500F6017508F600F501730871
:102720007507F8007408763DF9007908F20078081A
:10273000F100080020307104F30000307204F4004E
:1027400073089F3EF500FF30743DF60000307602BE
:102750001A3003197502031CAE2BB02B0130B12BBC
:102760000030F700F8017708F1007808F20008005F
:10277000BE308C315D249331013A0319C02BC12B3B
:10278000B82B49302100B6009830B7004308B90093
:102790004208B8004108BB004008BA003F08BD002D
:1027A0003E08BC009231052293310800F501F60184
:1027B000711CDB2BDC2BE02B7308F5077408F63D4E
:1027C0000130F335F40D890BE12B0130F236F10CB9
:1027D000890BE62B71087204031DEF2BF02BD82B0D
:1027E0007608F2007508F1000800203022006D0222
:1027F0000318FB2BFC2B132C4708403E86000230AD
:10280000870001089A000130F0007008C7072030E7
:102810004702031C0C2C0D2C0E2CC7010130F000BC
:102820007008ED07152C2E0019120800F501F50AA5
:1028300020307106720403191E2C1F2C2F2C7108D6
:10284000F73EF300FF30723DF400003074020530B3
:1028500003197302031C2D2C2E2C2F2CF501750847
:10286000F300F4017308F1007408F200080020007E
:10287000B3003330B2003208A800A901A90A5230CF
:102880008A3172229431003A0319472C482C562C75
:1028900020003008A9002F08A8003108B200320833
:1028A000AA0052308A311D229431572C0030080082
:1028B0002000A600A701A70A2200BD18602C612CE9
:1028C000782CBD142000A70126080319682C692C58
:1028D0006D2C2200BB01BB0A722C0230FB007B086E
:1028E0002200BB0090311A2094319131182194318B
:1028F00020002708080077089F3E2000A000FF3036
:10290000783DA100003021021A3003192002031C77
:102910008A2C8C2C01308D2C0030A200A3012208BF
:10292000F9002308FA0079087A040319982C992CE5
:10293000A02C5F307705F70000307805F800A02C58
:1029400008002000A700A501A601B92C2408A100B9
:10295000A2012108F4002208F5002008A3002308A2
:10296000F6009631EC26943101302000A5070030A6
:10297000A63D25082707A100210886000130870011
:102980000108A2002208A4002408031DC82CC92C99
:10299000A62C0800F500710872040319D02CD12C64
:1029A000E42C7535203E8600013087007108C03F59
:1029B0007208C13F7308F40075082C3E8600013090
:1029C000870074088100F32C7535203E86000130A5
:1029D00087000230C03F0030C13F75082C3E8600A2
:1029E0000130870081010800F20022006D08031900
:1029F000FA2CFB2CF52C2E00191AFF2C002D042D7F
:102A0000720822009A001C2D19127208F10022008F
:102A10004808403E8600023087007108810001307E
:102A2000F1007108C80720304802031C182D192D29
:102A30001A2DC8010130ED022E0019160800903140
:102A40001120953122003D1C262D272D352D90314A
:102A500075209531003A03192E2D2F2D352D0F306D
:102A60002000A30023082200BB0022003B08200016
:102A7000A300A401A335A40D0030230784009830DF
:102A8000243D8500013F8A00003F0A009531200067
:102A9000A50025082200BB000800220046080319F3
:102AA000522D532D4D2D21005908A03E8600013096
:102AB00087000108F10071082200C50021005908B3
:102AC000203E8600023087000108F1007108F20004
:102AD0000130F1007108D90720305902031C712D13
:102AE000722D732DD9012E00991201302200C602D9
:102AF0002E0099167208080022003D1002302000B6
:102B0000A00020082200BC008D2D90315720953167
:102B1000AC2D90315C209531AC2D2E082000A0000A
:102B20002008FA000430203E860001308700413F33
:102B30008A00403F0A0095312000A100A20122082E
:102B4000003A0319A42D892D2108023A0319852D75
:102B5000013A0319852D892D08002000E400600842
:102B6000E6005F08E5002200BE01BF01CB2D653005
:102B7000E2006208D7006108E3006308D800640837
:102B800080315F209531200057082200BE072000C9
:102B900058082200BF3D20006508840066088500B3
:102BA0001200031DD42DD52DB72D22003F08200083
:102BB000E00022003E082000DF0008002200BD15D2
:102BC000EE2D9031572095310F2E903129209531DF
:102BD00003300F2E90315C2095310F2E2C082000F1
:102BE000A0002008FA00220021088A0020080A001C
:102BF00095312000A100A2012208003A0319012EFC
:102C0000EA2D2108013A0319EA2D033A0319E12DAF
:102C1000013A0319E12D073A0319E52DEA2D0800C1
:102C2000FA000A30F1000030F2007A082000A0001B
:102C3000A1012008F3002108F4008B3120239631F4
:102C400071082000A2000330A235FF3E031D242E90
:102C50002235A3002308FB000A30F1000030F20007
:102C60007A08A000A1012008F3002108F4008931AE
:102C70007621963171087B042000A2002208FB0017
:102C80007B0808002000BC003C08B1003108B400FB
:102C9000BD01602E3D08B100B20131082E0786004B
:102CA00032082F3D87000108B3003D08013E343E45
:102CB00086008701330881000130B1003108BD076B
:102CC00030083D02031C652E662E4A2E3430B100BA
:102CD0003108A8003008013EB2003208A900523085
:102CE0008A317222963101300800F200F301F30AB2
:102CF00022003D197C2E7D2EAD2E7208F100710848
:102D0000B600BD103D153D100E30F1007108BB003E
:102D1000F430B4000130B500BD150230A000003021
:102D2000A100AC010230A2000030A300AD010230CE
:102D3000A4000030A500AE010230A6000030A700BC
:102D4000AF01FE30A8000730A900B001903111207A
:102D50009631913125219631F301730808007C08E2
:102D6000A03E860001308700810122001D1DB92E82
:102D7000BA2EC62E7C08A03E860001308700811442
:102D8000230065088A0064080A00963122009D1C11
:102D9000CA2ECB2ED72E7C08A03E8600013087009D
:102DA0000115230063088A0062080A0096317C0836
:102DB000A03E86000130870001080319E02EE12EB5
:102DC000E82E230061088A0060080A009631EB2E85
:102DD0009231C1229631080076080319F02EF12EA7
:102DE000F62E7608031DF52EF62EFB2E7408903174
:102DF000812096312A2F7608033E8600870116002F
:102E000001040319042F052F222F7608033E8600A4
:102E10008701403FF700413FF800760A86008701AE
:102E2000403FF900413FFA007A08803AFB007808F9
:102E3000803A7B02031D1E2F770879020318212F89
:102E4000222F2A2F760A860087010130810741311F
:102E50000318810A08002E009912AF30F1001630D5
:102E6000F2009031992097312E001912F530F100BF
:102E70001330F20090319F209731083022009F00DC
:102E800090309D0024309E0040309B0003309C0019
:102E90000F30F1001030F20090318D209731333037
:102EA000F1001030F2009031932097312F30F10073
:102EB0001030F2009031872097312200C501C801FF
:102EC000C7012030F3007308ED00FC012100D90197
:102ED0002200C6012E00991608002000BF00220023
:102EE0004C08031D742F752F892F64302000AF000C
:102EF0000130B000B101B10A353094313724973137
:102F0000003A0319842F852FB42F2200CC01CC0A5C
:102F1000B42F083020003F02031C8F2F902F942FD6
:102F20000730BE003E08BF00F830BE003E08220059
:102F3000E40520003F088038BE003E082200E4047B
:102F400064302000AE000130AF00B001B00A35306F
:102F5000963142269731003A0319AF2FB02FB42F84
:102F60002200CC010130B52F003008009230200043
:102F7000EB006B08ED006D30EB006B08A800A901B9
:102F8000A90A38308A3172229731003A0319C92FC1
:102F9000CA2FF72F6E302000A8000030A900AA0128
:102FA000AA0A38308A311D229731003A0319D92FE5
:102FB000DA2FEE2F69302100B6009830B7002000DC
:102FC0006E08EB00EC016B082100B80020006C08D3
:102FD0002100B900923105229731FF2FAE30200039
:102FE000E9000030EA00913187219731FF2FB1309D
:102FF0002000E9000030EA00913187219731080074
:1030000048341034E3341034B83410347F340B3483
:103010008B340834B1341034DE3415344D3410346C
:1030200052341034573410345C341034613410345A
:10303000663410346B341034703410347C341534EE
:103040000A344A3445344434453443342D34493405
:1030500044343A342034253430343234583425342E
:103060003034323458342534303432345834003427
:103070000A345334523441344D34203425343034FE
:10308000343458342C3420342534303432345834E9
:1030900000340A3425343034323458343A34253448
:1030A0003034323458343A342534303432345834AD
:1030B00000340A344134443443343D34253430340C
:1030C000343458342C34203454343D34253464346E
:1030D00000340A34523450345234353430343234BB
:1030E00031343D34253430343234583400340034F3
:1030F0000334023405340034033405340134043419
:103100000634023404341F341C341F341E341F347C
:103110001E341F341F341E341F341E341F340A342F
:103120004C34413454343D34253430343234583402
:103130002C34203400340A34203420342034203419
:103140002034203420342034203400340A345434E1
:103150005234493453343D342534303432345834C5
:1031600000340A3450344F34523454343D3425340E
:1031700030343234583400340A344734503449340B
:103180004F34203469346E346934743400346E340E
:103190004C34413454343D34253430343234583492
:1031A00000340A3425343034383458342034003470
:1031B0002534303432345834203400340A34253441
:1031C00030343434583400340A3440344F3400340A
:1031D0000A340034FF3FFF3FFF3FFF3FFF3FFF3F09
:020000040001F9
:0A000E00EC3FFF3FEB07FF3FFF3F11
:00000001FF
